:100000000C9446000C9465000C9465000C946500FB
:100010000C9465000C9465000C9465000C946500CC
:100020000C9465000C9465000C9465000C946500BC
:100030000C9465000C9465000C9465010C946500AB
:100040000C9465000C9465000C9465000C9465009C
:100050000C9465000C9465000C9465000C9465008C
:100060000C9465000C9465000C9465000C9465007C
:100070000C9465000C9497010C9465000C94650039
:100080000C9465000C9465000C94650011241FBE4F
:10009000CFEFD0E1DEBFCDBF11E0A0E0B1E0E2E9FB
:1000A000FBE000E00BBF02C007900D92AC39B10736
:1000B000D9F711E0ACE9B1E001C01D92AA3BB1074C
:1000C000E1F70E9402020C94E4020C9400001F93DA
:1000D000182F8A3019F48DE00E9467005D9BFECFD7
:1000E0001CB980E090E01F9108958CEF84BB1092C2
:1000F0006100809362008FEF85BB08958230910587
:1001000069F1833091053CF4009781F081309105CD
:1001100009F055C017C084309105C1F184309105B4
:100120004CF18530910509F04AC03CC0029904C0E9
:1001300081E08093AE01089581E080939C0110924C
:10014000AE013BC0039904C081E08093AF010895E4
:1001500081E080939D011092AF012FC0049904C0EB
:1001600081E08093B001089581E080939E01109218
:10017000B00123C0059904C081E08093B1010895C6
:1001800081E080939F011092B10117C0069904C0CD
:1001900081E08093B201089581E08093A0011092E4
:1001A000B2010BC0079904C081E08093B3010895A8
:1001B00081E08093A1011092B30180E0089580E076
:1001C000089582309105E9F08330910534F4009769
:1001D00071F08130910541F50FC084309105D9F05F
:1001E000843091059CF085309105F1F419C0AA98EE
:1001F00081E08093A8010895AB9881E08093A901E4
:100200000895AC9881E08093AA010895AD9881E0AB
:100210008093AB010895AE9881E08093AC0108957E
:10022000AF9881E08093AD01089582309105D9F0B7
:100230008330910534F4009771F08130910511F508
:100240000EC084309105B9F08430910584F085307A
:100250009105C1F414C0AA9A1092A8010895AB9A0E
:100260001092A9010895AC9A1092AA010895AD9A2E
:100270001092AB010895AE9A1092AC010895AF9A16
:100280001092AD0108958EB584608EBD8EB58D7FC0
:100290008EBD8EB581608EBD8FED91EB9DBD8CBD09
:1002A00087B7846087BF0895EAE8F0E080818B7F9C
:1002B0008083808182608083808181608083EDE79C
:1002C000F0E080818460808308951F920F920FB6C2
:1002D0000F920BB60F9211242F933F934F935F937E
:1002E0006F937F938F939F93AF93BF93EF93FF93FE
:1002F0001DBC1CBC80918B0190918C010E94E1007F
:100300001092890010928800FF91EF91BF91AF91F8
:100310009F918F917F916F915F914F913F912F911D
:100320000F900BBE0F900FBE0F901F9018951F924D
:100330000F920FB60F920BB60F9211242F933F938B
:100340004F935F936F937F938F939F93AF93BF93DD
:10035000EF93FF9380918B0190918C010E94150186
:1003600080918B0190918C01019690938C018093E8
:100370008B018730910531F481E090E090938C01FE
:1003800080938B01FF91EF91BF91AF919F918F91DE
:100390007F916F915F914F913F912F910F900BBE85
:1003A0000F900FBE0F901F9018951092900089E14A
:1003B00089B9539AE5E9F0E08081866080830895E9
:1003C0005F9BFECF8CB108955F9B02C08CB10895F6
:1003D00080E008955D9BFECF8CB90895EF92FF9267
:1003E000CF93DF93E82EE7017E01F92EE70102C0EB
:1003F0000E94EA0189918823D9F7DF91CF91FF907C
:10040000EF900895BF92CF92DF92EF92FF920F93F9
:100410001F93CF93DF930E9475000E94D5018DE852
:1004200091E09093B7018093B601BB24B39487E821
:1004300093E10197F1F700C0000095E8C92E91E023
:10044000D92E8EEAE82E81E0F82E0CE911E0C0E00A
:10045000D0E0F60181916F01882309F465C0CE01D7
:100460000E947E00882321F0CE010E94E10003C09B
:10047000CE010E941501F7018081882309F442C052
:10048000F80180818823F1F1C330D10529F1C4300E
:10049000D1053CF4C130D10589F0C230D10539F421
:1004A00014C0C430D105F9F0C530D10519F180E090
:1004B00091E00E94EE01B092A20122C083E191E09E
:1004C0000E94EE01B092A3011BC086E291E00E945F
:1004D000EE01B092A40114C089E391E00E94EE0104
:1004E000B092A5010DC08CE491E00E94EE01B092A3
:1004F000A60106C08FE591E00E94EE01B092A7012F
:10050000F8011082FE01EE55FE4F8081882361F0D4
:10051000F7018081882341F4209731F482E791E04C
:100520000E94EE011092A20121960894E11CF11C98
:100530000F5F1F4FC630D10509F08BCF78CF0F93D7
:100540001F93DF93CF93CDB7DEB7C050D2400FB625
:10055000F894DEBF0FBECDBFFE01E95FFD4F819174
:10056000919100D000D000D02DB73EB72F5F3F4F04
:100570008E010F5F1F4FADB7BEB712961C930E933F
:100580001197D90113969C938E9312971496EC931E
:1005900014971596FC930E94E7028DB79EB70696B6
:1005A0000FB6F8949EBF0FBE8DBFC8010E94EE012A
:1005B000C050DE4F0FB6F894DEBF0FBECDBFCF9157
:1005C000DF911F910F910895F8940C94C7050F9334
:1005D0001F93DF93CF93CDB7DEB72E970FB6F89466
:1005E000DEBF0FBECDBF0D891E8986E08C831A83C6
:1005F00009838FEF9FE79E838D839E01275E3F4F88
:10060000CE0101966F89788DA9010E941703EF81B1
:10061000F885E00FF11F10822E960FB6F894DEBF1A
:100620000FBECDBFCF91DF911F910F9108952F92F3
:100630003F924F925F926F927F928F929F92AF9272
:10064000BF92CF92DF92EF92FF920F931F93DF93AF
:10065000CF93CDB7DEB72C970FB6F894DEBF0FBEA1
:10066000CDBF6C011B018A01FC01178216828381B8
:1006700081FFD1C12E010894411C511CF6019381C8
:10068000F10193FD859193FF81911F01882309F466
:10069000BEC1853239F493FD859193FF81911F018D
:1006A000853229F490E0B6010E943D05E7CFEE24A3
:1006B000FF2420E02032B0F48B3269F08C3228F431
:1006C000803251F0833271F40BC08D3239F08033B7
:1006D00049F421602CC02260246029C0286027C012
:1006E000206125C027FD2CC0382F30533A3098F4B4
:1006F00026FF08C08E2D880FE82EEE0CEE0CE80EBB
:10070000E30E15C08F2D880FF82EFF0CFF0CF80E8E
:10071000F30E20620CC08E3221F426FD78C12064D5
:1007200006C08C3611F4206802C0883649F4F10105
:1007300093FD859193FF81911F01882309F0BACF22
:10074000982F9554933018F09052933028F40C5F02
:100750001F4FFFE3F9830DC0833631F0833771F00B
:10076000833509F060C022C0F801808189830E5F63
:100770001F4F420171E0A72EB12C16C062E0662E19
:10078000712C600E711EF8018080918026FF03C0DD
:100790006E2D70E002C06FEF7FEFC4012C870E94C6
:1007A00032055C0183012C852F7717C052E0652E3E
:1007B000712C600E711EF8018080918026FF03C0AD
:1007C0006E2D70E002C06FEF7FEFC4012C870E9496
:1007D00027055C012C852068830123FD20C008C00B
:1007E00080E290E0B6012C870E943D05FA942C85AA
:1007F0008F2D90E0A816B90698F311C0F40127FDDB
:10080000859127FF81914F0190E0B6012C870E94CE
:100810003D052C85F110FA940894A108B108A114A3
:10082000B10461F7F1C0843611F0893649F527FF2C
:1008300008C0F80160817181828193810C5F1F4F34
:1008400009C0F80160817181882777FD8095982F14
:100850000E5F1F4F4FE6B42EB22297FF09C090954E
:100860008095709561957F4F8F4F9F4FF0E8BF2A1D
:10087000A2012AE030E00E946905782E741845C074
:10088000853731F43FEEB32EB2222AE030E025C0A6
:1008900099EFB92EB2228F36C1F0803720F4883517
:1008A00009F0B5C00DC0803721F0883709F0AFC01E
:1008B00002C020E1B22AB4FE0BC084E0B82A08C00E
:1008C000B4FE09C0E6E0BE2A06C028E030E005C05C
:1008D00020E130E002C020E132E0B7FE08C0F801BC
:1008E00060817181828193810C5F1F4F07C0F80185
:1008F0006081718180E090E00E5F1F4FA2010E9435
:100900006905782E7418FFE7BF22B6FE0BC02EEFE4
:10091000B2227E1438F4B4FE07C0B2FC05C08FEEDC
:10092000B82202C0A72C01C0AE2C8B2D90E0B4FEE3
:100930000DC0FE01E70DF11D2081203319F4E9EE11
:10094000BE2209C0A394B2FE06C004C0867890708F
:10095000009709F0A3948B2C9924B3FC14C0B0FE2B
:100960000FC0AF1428F4E72CEF0CEA18AF2C08C026
:10097000E72C06C080E290E0B6010E943D05A394FA
:10098000AF14C0F304C0AF1410F4FA1801C0FF2470
:1009900084FE0FC080E390E0B6010E943D0582FE18
:1009A0001FC081FE03C088E590E010C088E790E09A
:1009B0000DC0C40186789070009791F081FC02C050
:1009C00080E201C08BE2B7FC8DE290E0B6010E94AC
:1009D0003D0506C080E390E0B6010E943D05EA9423
:1009E0007E14C0F37A94F201E70DF11D808190E04E
:1009F000B6010E943D057720A9F706C080E290E08D
:100A0000B6010E943D05FA94FF20C1F737CEF601EA
:100A10002681378102C02FEF3FEFC9012C960FB618
:100A2000F894DEBF0FBECDBFCF91DF911F910F9124
:100A3000FF90EF90DF90CF90BF90AF909F908F90FE
:100A40007F906F905F904F903F902F900895FC01A2
:100A50000590615070400110D8F7809590958E0FE9
:100A60009F1F0895FC016150704001900110D8F75C
:100A7000809590958E0F9F1F08950F931F93CF938E
:100A8000DF938C01EB018B8181FF1BC082FF0DC0C6
:100A90002E813F818C819D812817390764F4E8817C
:100AA000F9810193F983E88306C0E885F985802FF1
:100AB0000995009731F48E819F8101969F838E83E3
:100AC00002C00FEF1FEFC801DF91CF911F910F916F
:100AD0000895FA01AA27283051F1203181F1E894D4
:100AE0006F936E7F6E5F7F4F8F4F9F4FAF4FB1E021
:100AF0003ED0B4E03CD0670F781F891F9A1FA11D1C
:100B0000680F791F8A1F911DA11D6A0F711D811D1C
:100B1000911DA11D20D009F468943F912AE0269FE1
:100B200011243019305D3193DEF6CF010895462F40
:100B30004770405D4193B3E00FD0C9F7F6CF462F21
:100B40004F70405D4A3318F0495D31FD405241938A
:100B500002D0A9F7EACFB4E0A69597958795779547
:100B60006795BA95C9F700976105710508959B01CE
:100B7000AC010A2E06945795479537952795BA9557
:100B8000C9F7620F731F841F951FA01D0895F89465
:020B9000FFCF95
:100B9200427574746F6E2031207072657373656470
:100BA2000D0A00427574746F6E2032207072657384
:100BB2007365640D0A00427574746F6E2033207081
:100BC2007265737365640D0A00427574746F6E20EA
:100BD2003420707265737365640D0A004275747413
:100BE2006F6E203520707265737365640D0A004262
:100BF2007574746F6E203620707265737365640D40
:100C02000A00427574746F6E20312072656C6573D0
:100C120065640D0A000101010101010500000000E7
:0C0C22000200000000670000000000005D
:00000001FF
