:0C800000F8B500BFF8BC08BC9E467047F5
:10800C000348044B834202D0034B03B1184770471B
:10801C00988601009886010000000000054806497A
:10802C000B1AD90F01EBA301491002D0034B03B17A
:10803C0018477047988601009886010000000000E0
:10804C0010B5064C237843B9FFF7DAFF044B13B194
:10805C000448AFF300800123237010BD9886010003
:10806C00000000002886000008B5044B1BB1044931
:10807C000448AFF30080BDE80840CFE700000000E3
:10808C009C86010028860000A3F5803A704700BF4B
:10809C00154B002B08BF114B9D46FFF7F5FF002138
:1080AC008B460F461148124A121A00F0B3F90C4BCA
:1080BC00002B00D098470B4B002B00D0984700208A
:1080CC00002104000D000B4800F04CF900F07EF983
:1080DC002000290000F03CF800F04AF900000800EC
:1080EC000000000000000000000000009886010065
:1080FC0060870100A583000038B501214FF4800092
:10810C0000F024F94FF4807501214FF4000000F0C9
:10811C001DF901244FF4FC6309490A480D810B80B9
:10812C008C708C7200F05EF80323074907480D81B0
:10813C008C708C720B80BDE8384000F053B800BFD7
:10814C004887010000000B405487010000800B4061
:10815C0080B582B000AF78603960FFF7CDFF202189
:10816C001D4800F0DBF801211C4800F0D7F8022173
:10817C001A4800F0D3F81A4B4FF6FF721A60184BDE
:10818C001B68002B05DD164B1B68013B144A136062
:10819C00F5E72021104800F0CDF801210F4800F040
:1081AC00C9F802210D4800F0C5F840210A4800F03A
:1081BC00B5F80B4B4FF6FF721A60094B1B68002B7E
:1081CC0005DD074B1B68013B054A1360F5E74021B1
:1081DC00014800F0AFF8C2E700000B4000800B40F4
:1081EC00B486010003462DE9F04F5A6889B09C68AB
:1081FC00079001920888DA68D3F810900292D3F8AD
:10820C0014809F69D3F81CB000285DD04FF0011288
:10821C004FF0030E4FF0010A0023C5074AD58D79A4
:10822C0024EA0E049D4006950394019D029C0E7950
:10823C0091F803C025EA0A0524EA0A040195029480
:10824C0027EA0E0503F110042BEA0A079E4091F869
:10825C0002B029EA0209059746EA0909019F0CFABE
:10826C0004F691F805C00BFA03FB4BEA07070CFA6E
:10827C0004FC46EA09090C7A4E7A01975F00BC406F
:10828C0006FA07F7039E0495069D28EA0208344374
:10829C00049E45EA08088D7A3743029E9D4091F86A
:1082AC0007B02E43059D0BFA03FB4CEA0808029617
:1082BC004BEA050B40084FEA4A0A4FEA8E0E4FEA8A
:1082CC00420203F10103A8D1134B079A9A420FD033
:1082DC00079B0199596002999C60D960C3F8109072
:1082EC00C3F814809F61C3F81CB009B0BDE8F08FCF
:1082FC00019B24F01F0423F01F030193029B29F020
:10830C001F0923F01F03029328F01F0827F01F07F3
:10831C002BF01F0BDCE700BF00000C400368044A85
:10832C001943904208BF21F01F010160704700BF44
:10833C0000000C40044A0368904208BF41F01F0142
:10834C0023EA01010160704700000C40044AD36924
:10835C0011B11843D061704723EA0000D061704717
:10836C0000000240002301461A46184600F0A2B84D
:10837C0008B5074B044613B1002100F0F3F8054B88
:10838C001868836A03B19847204600F039F900BF9A
:10839C00718500001C86000038B50A4C0A4D641B20
:1083AC00A4100AD004F18043013B05EB8305013C8A
:1083BC0055F804399847002CF9D1BDE8384000F045
:1083CC0021B900BF348601003086010070B50D4E16
:1083DC000D4D761BB61006D00024013455F8043B25
:1083EC009847A642F9D1094E094DFFF703FE761BBB
:1083FC00B61006D00024013455F8043B9847A64229
:10840C00F9D170BD2C8601002C860100308601004C
:10841C002C860100F0B4860746D0541E002A3CD0AE
:10842C00CAB2034602E014F1FF3436D303F8012B31
:10843C009D07F8D1032C29D9CDB245EA05250F2C7F
:10844C0045EA054533D9A4F11006360903F1200796
:10845C0007EB061703F1100242E9045542E90255F5
:10846C001032BA42F8D1721C14F00C0F03EB02124A
:10847C0004F00F0613D0331F23F00303043313440B
:10848C0042F8045B9342FBD106F003042CB1C9B251
:10849C001C4403F8011B9C42FBD1F0BC70473446D2
:1084AC001346002CF3D1F8E714460346C2E71A46EC
:1084BC002646E0E72DE9F041264C82B025680DB345
:1084CC006C681F2C42DC9846064690B1D5F88800A3
:1084DC0038B3D0F800310127A74047EA030C022E2D
:1084EC0000EB840340F82420C0F800C1C3F880805E
:1084FC0011D00020631C02346B6045F8241002B0CC
:10850C00BDE8F081144E154D2660EDB12C68354652
:10851C00C6F88840D4E7D0F804311F43C0F8047182
:10852C00E7E70F4BCDE9001283B14FF48470AFF342
:10853C00008058B1DDE9001200276C683B46C0E9A9
:10854C004077C5F88800C6E73546B9E74FF0FF30ED
:10855C00D5E700BF44870100B88601000000000089
:10856C00000000002DE9F04F0F464FF0010ADFF834
:10857C008C8083B0D8F8005001908DB16C68D5F820
:10858C008860013C0CD405F1080B67B12EB106F1E3
:10859C00800353F82430BB4205D014F1FF34F4D2DD
:1085AC0003B0BDE8F08F6B685BF82420013BA3425D
:1085BC0016BF00236C604BF82430002AEDD0D5F8A0
:1085CC000490B6B1D6F800110AFA04F30B4210D09D
:1085DC00D6F8040156F8241003420CD101989047A8
:1085EC006B68D8F800204B4501D1AA42D5D015466E
:1085FC00C3E79047F4E708469047F1E7448701004A
:04860C00FEE700BFC6
:0C861000F8B500BFF8BC08BC9E467047DF
:04861C00388601009B
:0886200074FAFF7F0100000065
:04862800000000004E
:020000021000EC
:04862C007580000055
:048630004D80000079
:108634003886010000000000000000000000000077
:108644000000000000000000000000000000000026
:108654000000000000000000000000000000000016
:108664000000000000000000000000000000000006
:1086740000000000000000000000000000000000F6
:1086840000000000000000000000000000000000E6
:0486940000000000E2
:040000030000809DDC
:00000001FF
