:200000000C9446000C9461000C9461000C9461000C9461000C9461000C9461000C946100F3
:200020000C9461000C9461000C9461000C9461000C9461000C9461000C9461000C946100B8
:200040000C9461000C9461000C9461000C9461000C9461000C9461000C9461000C94610098
:200060000C9461000C9461000C9461000C9461000C9461000C9461000C9461000C94610078
:200080000C9461000C9461000C94610011241FBECFEFD0E1DEBFCDBF17E0A0E0B1E0E4E7E0
:2000A000FCE102C005900D92A43DB107D9F718E0A4EDB7E001C01D92AA36B107E1F70C9464
:2000C0006B010C9400001ABA17BA14BA11BA12B8109261008FEF8BBB88BB85BB82BB83B949
:2000E00080936200089540E050E0481759075CF427EE33E02150304037FFFCCF4F5F5F4F29
:20010000FFFF5907ACF30895909316088093150890932908809328080895E0911508F09191
:2001200016088081882329F03196F0931608E0931508992787FD909508950E94CB020895D2
:200140008F929F92AF92BF92CF92DF92EF92FF920F931F93CF93DF938C015B014A01DC019E
:200160008C91803231F40F5F1F4FF80180818032D1F3D5018D919C91892BC9F0CC24DD24C0
:20018000E5017601F601EA0DFB1D60817181C8010E94AB0A892B91F0E2E0F0E0EE0EFF1E29
:2001A0006701CE0FDF1F88819981892B59F783E591E00E94FA0280E090E00CC087E591E0E5
:2001C0000E94FA02C80CD91CD601ED91FC91099581E090E0DF91CF911F910F91FF90EF9039
:2001E000DF90CF90BF90AF909F908F900895E0911508F09116088081992787FD9095089584
:20020000FFFF0E948D000E94F7008032D1F3089520911508309116088091280890912908C5
:200220002817390731F021503040309316082093150808950895CF92DF92EF92FF921F93BC
:20024000CF93DF937C010E9400010E948D00F70181937F01882319F4CC24DD2431C08C3297
:2002600021F18D3351F1992787FD90950E94060E892BF9F091E0C92ED12C03C0F7011193EA
:200280007F010E948D00182FC82FDD27C7FDD095CE010E94060E892B89F7CE010E940E0EFE
:2002A000892B61F70E9408010BC03CE2C32ED12C07C08FEFC82ED12C03C02DE3C22ED12CB8
:2002C000F7011082C601DF91CF911F91FF90EF90DF90CF900895CFEFD0E1DEBFCDBF00E05C
:2002E00010E0E8010E9463000E949D0082B1806F82B983B1806F83B984EF91E00E9473002C
:20030000FFFF8F7083B984E690E00E94730083B1806F83B980E991E00E94730083B18F7034
:2003200083B984E690E00E94730083B1806F83B98CE291E00E94730083B18F7083B984E666
:2003400090E00E94730083B1806F83B98AEF90E00E94730083B18F7083B984E690E00E94D0
:20036000730083B1806F83B988EC90E00E94730083B18F7083B984E690E00E94730083B120
:20038000806F83B984E690E00E94730083B18F7083B984E690E00E94730083B1806F83B986
:2003A00084E690E00E94730083B18F7083B984E690E00E94730083B1806F83B984E690E0B7
:2003C0000E94730083B18F7083B984E690E00E94730083B1806F83B984E690E00E9473005C
:2003E00083B18F7083B984E690E00E94730080919B0087FD22C088E100301807E9F1209744
:20040000FFFF1C9AC230D10509F44FC0C430D10509F448C0C630D10509F441C0C830D105ED
:20042000D9F1CA30D105A9F1CC30D10549F10F5F1F4F80919B0087FFDECF64ED77E080E4B5
:2004400090E00E94D3028F5F9F4F91F58BE1992787FD909582359105C9F183359105DCF558
:200460008135910509F446C083E591E00E94FA0288E10030180719F60FEF1FEF2196BFCF9E
:200480001D981C980FEF1FEFC0E0D0E00F5F1F4FD0CF1E981D9AC8CF1F981E9AC2CF1E9862
:2004A0001F9ABCCF1D981E9AB5CF1C981D9AAECF84ED97E00E9484000E9400010E948D003F
:2004C000992787FD90958235910539F68BE591E00E94FA0207CF8335910589F086359105CA
:2004E00019F683E691E00E94FA0280E591E00E94FA02BECF8FE591E00E94FA02B9CF0E94C7
:20050000FFFF87E198E00E941B01019709F0ACCF40E051E064E371E087E198E00E94A00028
:20052000E1CE10929B0088E180939A0086E080939D001092980089EC8093990088E081BBA4
:20054000089580919B00992787FD90958827990F881F9927089580919B008823E4F780914B
:200560009C00992787FD90950895482F21E030E080919B00992796958795929582958F7061
:2005800089279F708927817090708217930781F740939C0008950E94910281E090E00895A1
:2005A0000E94A1020895EF92FF920F931F93CF93DF937C01EB0100E010E00E151F058CF41F
:2005C0000E94AB028B3159F08D30B9F38A3049F089930F5F1F4F0E151F0594F302C00FEFE5
:2005E0001FEF1882C801DF91CF911F910F91FF90EF900895CF93DF93EC018991882351F0F8
:20060000FFFFB5028991882329F00E94B50289918823B1F7DF91CF91089580E791E00E949A
:20062000FA0280E591E00E94FA0208958DE791E00E94FA0285E891E00E94FA0280E591E0D8
:200640000E94FA0208958BE891E00E94FA0283E991E00E94FA0280E591E00E94FA02089551
:2006600089E991E00E94FA0281EA91E00E94FA0280E591E00E94FA020895EF92FF920F93BA
:200680001F93CF93DF93CDB7DEB7C054D0400FB6F894DEBF0FBECDBF109261001092620049
:2006A00081E090E00E947300379A81E090E00E94730035983498339886B1887F86B981E457
:2006C00087B984EF91E00E947300369A84EF91E00E94730021E030E086B1992792958295D2
:2006E0008F7089279F708927817090708217930799F785B1369A81E090E00E94730021E0EB
:20070000FFFF86B19927929582958F7089279F7089278227932741E0E42EF12CE822F92260
:2007200080FDEFCF84B1082F112785B19927982F8827082B192B379881E090E00E94730042
:20074000C80181579140869718F481E090E01AC01F930F938DEB95E09F938F938E010F5FC1
:200760001F4F1F930F930E947A0AC8010E94FA02C7012DB73EB72A5F3F4F0FB6F8943EBF24
:200780000FBE2DBFC05CDF4F0FB6F894DEBF0FBECDBFDF91CF911F910F91FF90EF90089544
:2007A000EF92FF920F931F93CF93DF93CDB7DEB7C054D0400FB6F894DEBF0FBECDBF1092D9
:2007C00061001092620081E090E00E947300379A81E090E00E94730035983498339886B17C
:2007E000887F86B980E487B984EF91E00E947300369A84EF91E00E94730021E030E086B105
:20080000FFFF929582958F7089279F708927817090708217930799F785B1369A81E090E0A3
:200820000E94730021E030E086B19927929582958F7089279F70892782279327E1E0EE2EAF
:20084000F12CE822F92280FDEFCF84B1082F112785B19927982F8827082B192B379881E064
:2008600090E00E947300C80181579140869718F481E090E01AC01F930F9381ED95E09F9344
:200880008F938E010F5F1F4F1F930F930E947A0AC8010E94FA02C7012DB73EB72A5F3F4F32
:2008A0000FB6F8943EBF0FBE2DBFC05CDF4F0FB6F894DEBF0FBECDBFDF91CF911F910F9180
:2008C000FF90EF9008952F923F924F925F926F927F928F929F92AF92BF92CF92DF92EF92C0
:2008E000FF920F931F93CF93DF93CDB7DEB7C654D0400FB6F894DEBF0FBECDBF11E0812E15
:20090000FFFF01E086E0E5EEF5E0A1E4B0E0AC0FBD1F01900D928A95E1F78FEF8ABB87BB12
:2009200084BB81BB82B98093610080936400C4010E9473001BBA18BA15BA12BA13B810928D
:20094000620010926500C4010E947300BBEEAB2EB5E0BB2E6E01C80CD91CA6E8EA2EA4E0F2
:20096000FA2E102F10950ABB81E090E00E9473001BBB81E090E00E94730089B38117C1F07F
:20098000F701808191819F938F93BF92AF92DF92CF920E947A0AC6010E94FA0288249924A0
:2009A0008DB79EB706960FB6F8949EBF0FBE8DBF000FA2E0B0E0EA0EFB1EB4E9EB16B4E0D7
:2009C000FB0679F274F201E0FAE0AF2EF6E0BF2E6E010894C11CD11CE6E5EE2EE4E0FE2E3E
:2009E000102F109504BB81E090E00E94730015BB81E090E00E94730083B38117C1F0F70141
:200A0000FFFF91819F938F93BF92AF92DF92CF920E947A0AC6010E94FA02882499248DB7D6
:200A20009EB706960FB6F8949EBF0FBE8DBF000FA2E0B0E0EA0EFB1EB4E6EB16B4E0FB069C
:200A400079F274F201E079E2A72E76E0B72E6E010894C11CD11C6BE7E62E63E0F62E102F98
:200A600010950093610081E090E00E9473001093620081E090E00E94730080B18117C1F092
:200A8000F701808191819F938F93BF92AF92DF92CF920E947A0AC6010E94FA02882499249F
:200AA0008DB79EB706960FB6F8949EBF0FBE8DBF000FA2E0B0E0EA0EFB1EB9E8EB16B3E0D3
:200AC000FB0669F264F21E010894211C311C50E2A52E54E0B52E4EEFC42E41E0D42E36E09B
:200AE000E32E32E0F32E2EEC422E21E0522E96ED692E91E0792E07E010E0F30181913F0158
:200B0000FFFFD2018D912D018093640081E090E00E947300F701808183B9D6018C9180931F
:200B2000650081E090E00E94730081B199278F709070F701208133278217930759F48091F5
:200B4000630099278F709070D6012C91332782179307D1F0F501808191819F938F9388E4C8
:200B600096E09F938F933F922F920E947A0AC1010E94FA02882499248DB79EB706960FB630
:200B8000F8949EBF0FBE8DBF015010400894E11CF11C0894C11CD11CA2E0B0E0AA0EBB1E03
:200BA00017FFABCF80EFA82E83E0B82E01E4E02EF12CEC0EFD1E12EF212E11E0312EB8EFAB
:200BC000CB2EB1E0DB2EA2EC4A2EA1E05A2EF8EC6F2EF1E07F2E05E010E0F30181913F0159
:200BE00087BBD2018D912D0181BB81E090E00E947300F601808188BBD1018D911D0182BBEC
:200C0000FFFF90E00E94730086B399278F709070F601208133278217930751F480B39927FC
:200C200083709070D7012C9133278217930709F1F501808191819F938F9387E696E09F9333
:200C40008F9381E090E08C0F9D1F9F938F930E947A0A81E090E08C0F9D1F0E94FA0288245E
:200C60009924ADB7BEB716960FB6F894BEBF0FBEADBF015010400894C11CD11C0894E11C8B
:200C8000F11CE2E0F0E0AE0EBF1E17FFA6CF1E010894211C311CEFECAE2EE3E0BE2E7AEE7E
:200CA000C72E71E0D72E6EEEE62E61E0F62E5AEB452E51E0552E4EEB642E41E0742E03E037
:200CC00010E0D3018D913D0187BBF20181912F0181BB81E090E00E947300D7018C9188BB23
:200CE000F601808182BB81E090E00E94730086B3992780769070D7012C91332782179307C8
:200D0000FFFF80B3992780759070F6012081332782179307D1F0D5018D919C919F938F9392
:200D200086E896E09F938F933F922F920E947A0AC1010E94FA0288249924EDB7FEB73696D5
:200D40000FB6F894FEBF0FBEEDBF015010400894E11CF11C0894C11CD11C82E090E0A80ED7
:200D6000B91E17FFAECF5E010894A11CB11C05EB13E036EEE32E31E0F32E26EBC22E21E038
:200D8000D22ED6018D916D0182B981E090E00E947300F701808183B981E090E00E947300B4
:200DA00081B19927807F9070D7012C91332782179307D1F0F801808191819F938F9385EA90
:200DC00096E09F938F93BF92AF920E947A0AC5010E94FA02882499248DB79EB706960FB6CA
:200DE000F8949EBF0FBE8DBF0894E11CF11C0E5F1F4F93E00B3B190721F21CF21E010894BB
:200E0000FFFF311C9BE9A92E93E0B92E8EEDC82E81E0D82E02EEE02E01E0F02E1EEA412E86
:200E200011E0512EB2EB6B2EB1E07B2E03E010E0D3018D913D0187BBF20181912F0181BB1C
:200E400081E090E00E947300D7018C9188BBF601808182BB81E090E00E94730086B3992760
:200E600080799070D7012C9133278217930751F480B39927807A9070F6012081332782179A
:200E80009307D1F0D5018D919C919F938F9384EC96E09F938F933F922F920E947A0AC101CE
:200EA0000E94FA0288249924EDB7FEB736960FB6F894FEBF0FBEEDBF015010400894E11C45
:200EC000F11C0894C11CD11C82E090E0A80EB91E17FFAECF88E081BB81E090E00E94730023
:200EE00012BA81E090E00E947300C401CA5BDF4F0FB6F894DEBF0FBECDBFDF91CF911F9161
:200F0000FFFFFF90EF90DF90CF90BF90AF909F908F907F906F905F904F903F902F90089514
:200F20002F923F924F925F926F927F928F929F92AF92BF92CF92DF92EF92FF920F931F931F
:200F4000CF93DF93CDB7DEB7C454D0400FB6F894DEBF0FBECDBF51E0A52EB12C9FE09ABB80
:200F600088E387BB94BB88EC81BB8FE582B99093610010926400C5010E9473001BBA18BA0A
:200F800015BA12BA13B810926200C5010E94730000E010E07E01EA0CFB1C49E7C42E45E069
:200FA000D42E8DEB92E023968EAF9FAF2397E6EDF2E02596EEAFFFAF25973FEE232E32E050
:200FC000332E28E0422E23E0522E91E2692E93E0792E8AE3882E83E0982E8BB3F401908101
:200FE000892B8BBB88B3F3019081892B88BB85B3F2019081892B85BB82B3F1019081892BA4
:20100000FFFF83B12596EEADFFAD25979081892B83B9809162002396EEADFFAD23979081A1
:20102000892B8093620081E090E00E94730099B38091AD019823F801EC55FD4F80819817A5
:20104000D1F0F601808191819F938F9383EE96E09F938F93FF92EF920E947A0AC7010E9494
:20106000FA02AA24BB248DB79EB706960FB6F8949EBF0FBE8DBF96B38091AC019823F80110
:20108000E557FD4F80819817D1F0F601808191819F938F9383E097E09F938F93FF92EF92B9
:2010A0000E947A0AC7010E94FA02AA24BB248DB79EB706960FB6F8949EBF0FBE8DBF93B3B5
:2010C0008091AB019823F801EE58FD4F80819817D1F0F601808191819F938F9383E297E062
:2010E0009F938F93FF92EF920E947A0AC7010E94FA02AA24BB248DB79EB706960FB6F894CB
:20110000FFFF0FBE8DBF91B18091A9019823F801E05CFD4F80819817D1F0F6018081918104
:201120009F938F9383E497E09F938F93FF92EF920E947A0AC7010E94FA02AA24BB248DB79A
:201140009EB706960FB6F8949EBF0FBE8DBF90B18091A8019823F801E95DFD4F80819817E6
:20116000D1F0F601808191819F938F9383E697E09F938F93FF92EF920E947A0AC7010E947A
:20118000FA02AA24BB248DB79EB706960FB6F8949EBF0FBE8DBF909163008091A7019823B2
:2011A000F801E25FFD4F80819817D1F0F601808191819F938F9383E897E09F938F93FF9213
:2011C000EF920E947A0AC7010E94FA02AA24BB248DB79EB706960FB6F8949EBF0FBE8DBF59
:2011E000F40191914F0190958BB389238BBBF30191913F01909588B3892388BBF201919179
:20120000FFFF909585B3892385BBF10191911F01909582B3892382BB2596EEADFFAD259752
:2012200091912596EEAFFFAF2597909583B1892383B92396EEADFFAD239791912396EEAF57
:20124000FFAF23979095809162008923809362000F5F1F4F82E090E0C80ED91E07311105A4
:201260000CF4BBCE85E087BB81E090E00E9473008091510388BB81E090E00E94730080B397
:201280009091AA018923909170028917F1F08091A7059091A8059F938F9383EA97E09F93CD
:2012A0008F938E010F5F1F4F1F930F930E947A0AC8010E94FA02AA24BB24EDB7FEB73696EE
:2012C0000FB6F894FEBF0FBEEDBF17BA81E090E00E94730080B39091AA0189239091710291
:2012E0008917F1F08091A9059091AA059F938F9383EA97E09F938F938E010F5F1F4F1F9335
:20130000FFFF0E947A0AC8010E94FA02AA24BB248DB79EB706960FB6F8949EBF0FBE8DBF99
:2013200088E081BB81E090E00E94730012BA81E090E00E947300C501CC5BDF4F0FB6F89405
:20134000DEBF0FBECDBFDF91CF911F910F91FF90EF90DF90CF90BF90AF909F908F907F90B0
:201360006F905F904F903F902F9008951F93CF93DF9378941FEF6AE278E08091BB0590913F
:20138000BC050E94D3028F5F9F4F21F58BE1992787FD90958136910559F1823691058CF5E8
:2013A0008335910509F467C0843591050CF044C08135910501F383EC97E00E94FA026AE25C
:2013C00078E08091BB059091BC050E94D3028F5F9F4FE1F28AE298E00E9484000E9400012F
:2013E0000E948D00992787FD909581369105A9F60E949007892BD9F087EC97E00E94FA022B
:20140000FFFF8336910501F183369105D4F08436910589F6C1E0D0E00E94D003009709F451
:20142000EC010E943D03892B11F0CD2B29F78BEC97E00E94FA02C3CF8835910509F0BBCF1C
:201440001FC00E946304D6CF17BB11BB12B91093610018BA12BA13B81092620083B18F70F2
:2014600083B982B1806F82B91C9A1D9A1E9A1F9A87EC97E0C3CF8FEC97E00E94FA029FCF7B
:20148000DF91CF911F910895CF93DF93EC018FEF87BB81BB82B98093610018BA12BA13B85A
:2014A0001092620083B18F7083B982B1806F82B914C01C9ACE010E9473001C981D9ACE01B4
:2014C0000E9473001D981E9ACE010E9473001E981F9ACE010E9473001F9880919B0087FF6A
:2014E000E8CF80919C008A3521F780919C00DF91CF9108950F931F93CF93DF93CDB7DEB756
:20150000FFFF0FB6F894DEBF0FBECDBF0B891C89AD89BE8936E03C8309831A838FEF9FE7CE
:201520008D839E83AE01495E5F4FBD01CE0101960E94B50A2F813885020F131FF8011082B6
:201540002C960FB6F894DEBF0FBECDBFDF91CF911F910F910895FB01DC018D9101908019A4
:2015600011F40020D1F7990B08952F923F924F925F926F927F928F929F92AF92BF92CF9282
:20158000DF92EF92FF920F931F93CF93DF93CDB7DEB762970FB6F894DEBF0FBECDBFAA2479
:2015A000BB2465014C011B014D875E8744245524FC0146825782838181FDACC28FEF9FEF49
:2015C000B8C20894211C311C40FE92C2862D80538A30F0F4F0E36F1651F42A89222339F4F3
:2015E00043FC05C080E091E0482A592A93C28AE09A89989F902D1124892F860D80538A8BE3
:20160000FFFF14F4EFE7EA8B43FC84C27A8882C243FE05C0FA89FF2311F421E02A8B862D95
:20162000992787FD9095883691057CF5853691050CF070C08335910509F49FC08435910506
:20164000BCF48B32910509F447C08C32910544F48032910509F444C0839709F44BC03EC28C
:201660008D32910509F441C08E9709F448C036C28336910509F458C0843691050CF09AC0EB
:201680008835910509F4D1C029C28037910509F4C4C08137910584F48C369105B1F18D362D
:2016A00091052CF48936910509F484C017C28F36910509F4AFC012C28537910509F4B7C0A4
:2016C0008637910524F483379105B9F107C28837910509F4AAC002C280E190E0482A592A96
:2016E000E0E2F0E04E2A5F2A15C220E830E0422A532A10C280E490E0482A592A0BC2E8E04F
:20170000FFFF4E2A5F2A1A8A05C224E030E0422A532A00C20F2EFFE3AF2EF02D7A940F2E3C
:20172000F3E66F2EF02D65C1ED85FE85CF0102968D879E87A0807A945CC1ED85FE859F017A
:201740002E5F3F4F2D873E87A080B18043FE0BC03A89832F992787FD9095BC01C5010E9495
:20176000EE0D8F8707C0F50101900020E9F73197EA19EF878F85781A3CC1ED85FE859F0191
:201780002E5F3F4F2D873E87A080B18043FE0BC03A89832F992787FD9095BC01C5010E9455
:2017A000F90D8F8704C0C5010E94E50D8F878F85781A1FC142FE0CC0ED85FE859F012C5F27
:2017C0003F4F2D873E8720813181428153810DC0ED85FE85CF0102968D879E8780819181A2
:2017E0009C01442737FD4095542F59016A01552364F4E2E0F0E04E2A5F2AD094C094B09431
:20180000FFFFA11CB11CC11CD11C2FEB3FEF422253222CC038E03F870AC080E490E0482A7B
:20182000592A0F2EF8E76F2EF02D90E19F8742FE0CC0ED85FE859F012C5F3F4F2D873E8785
:2018400020813181428153810BC0ED85FE85CF0102968D879E87808191819C0144275527A6
:2018600059016A01EFECFFEF4E225F229E012F5F3F4F288B398B3F85E32EFF240027112760
:20188000C601B501A80197010E94180EDC01CB01E889F98980838A301CF0860D815204C033
:2018A000E889F9898081805DE889F9898193E88BF98BC601B501A80197010E94180E590179
:2018C0006A012115310541055105D1F6CE010196A888A81AC20182739070892B09F07A9403
:2018E00046FE0FC0872D992787FD9095FF85F03131F40F2EFEEF7F2EF02D780E02C0782E0C
:20190000FFFF43FE12C08A89282F332727FD30958A2D9927821793072CF0E7EFFFEF4E220F
:201920005F2203C0FA89FA19FA8B43FE03C02A89721A01C07A18C20180789170892B69F4E5
:20194000872D7A9418164CF4B40180E290E00E94B20D872D7A941816BCF341FE06C0B40116
:201960008DE290E00E94B20D0FC044FE06C0B4018BE290E00E94B20D07C045FE05C0B401D9
:2019800080E290E00E94B20D46FE0FC0B40180E390E00E94B20D3F85303139F4B401862D5E
:2019A000992787FD90950E94B20D852D992780FF0DC0872D7A9418164CF4B40180E390E0E7
:2019C0000E94B20D872D7A941816BCF343FE11C08A89982F91509A8B18165CF4B40180E37F
:2019E00090E00E94B20D8A89E82FE150EA8B1816ACF347FC0DC0872D7A9418164CF4B40184
:201A0000FFFF90E00E94B20D872D7A941816BCF3F3E66F1641F48A2DB401992787FD9095F0
:201A20000E94B20D4BC023E76216B9F43F8531503F873F3F09F442C0F50180810894A11C33
:201A4000B11CB401992787FD90950E94B20D8F8581508F878F3F81F731C093E56916A1F47C
:201A6000EF85E150EF87EF3F49F1F5018491B40199270E94B20D0894A11CB11CFF85F15017
:201A8000FF87FF3F91F71AC0CE010196288939898217930799F08E010F5F1F4FE889F9892D
:201AA0008291E88BF98BB401992787FD90950E94B20D288939890217130781F747FE15C065
:201AC000872D7A9418168CF4B40180E290E00E94B20D872D7A941816BCF307C0B401862DE0
:201AE000992787FD90950E94B20D4424552412C035E2631641F44424552443941A8A7A8846
:201B0000FFFF8F8707C0B401862D992787FD90950E94B20DF401838183FF03C0F101649094
:201B200002C0F1016080662009F04BCDF4018681978162960FB6F894DEBF0FBECDBFDF91B7
:201B4000CF911F910F91FF90EF90DF90CF90BF90AF909F908F907F906F905F904F903F9072
:201B60002F9008950F931F93CF93DF938C01EB018B81992781FF22C082FF14C02E813F8176
:201B80008C819D81281739073CF4E881F9810193E883F9832E813F812F5F3F4F2E833F830F
:201BA000C8010EC0E885F985802F0995892B31F4AE81BF811196AE83BF83F2CF8FEF9FEF27
:201BC000DF91CF911F910F910895FC0105900020E9F7809590958E0F9F1F0895FC016150D6
:201BE000704001900110D8F7809590958E0F9F1F0895FC016150704005900110D8F78095AA
:201C0000FFFF8E0F9F1F089585FD0FC08062992361F4813654F08B3744F40895992329F41F
:201C200080331CF08A330CF40895992788270895A1E21A2EAA1BBB1BFD010DC0AA1FBB1FAB
:201C4000EE1FFF1FA217B307E407F50720F0A21BB30BE40BF50B661F771F881F991F1A945D
:201C600069F760957095809590959B01AC01BD01CF0108950D03160323033003B60900001B
:201C8000506D6F6444413100506D6F6441443100506D6F6442746E00506D6F644C6564005F
:201CA00043657265626F74000C0114011C0124012C010000510056005200530040014201FF
:201CC000440146010D0A003F0D0A002D0D0A00250D0A00240D0A00444654532052657620B2
:201CE000312E3000506D6F64444131205465737400506D6F644144310020546573740050F9
:201D0000FFFF6442746E00205465737400506D6F644C6564002054657374000FF0A033F056
:201D2000C2F0800020000010008040108020480818080020004000000000090A01040802DF
:201D400000000000000001020408040801020000000020A080A090809010B0E070D01050A5
:201D60004050604060200000000002010E0B070D0F0F0F0F0F0F0E0D0B070B070E0D0F0FB1
:201D80000F0F00000000000000000102040800000000000000000000000000000000000016
:201DA000000000000000000000000000000010204080000000000000000000000000000033
:201DC0000000008020000000000000000000000000000000000000000000200010202000F3
:201DE0000000000000030000000010204080000000000000000000000000000000000000F0
:201E0000FFFF00000000000000000002004000000080000000000000102040800000000012
:201E20000000000000000000000000000000000000000000000000000000000000000000A2
:201E4000000000000102040800000000000000000000040801020000004010000000000014
:201E60000000000000000000000000000000000040000000800000000000000000000000A2
:201E8000010204080000000000000000000000000000000000000000000000000000000033
:201EA0000008002000000010000000000000010204080000000000000000000000000000DB
:201EC000000000000000004144433000414443310041444332004144433300414443340020
:201EE000414443350041444336004144433700530358035D03620367036C03710376035458
:201F0000FFFF4F43300058434B31004F4332008B038E03920397035433004F433342004901
:201F2000435033004F43334300A303A603AB03B0035431004F4331410049435031004F43FB
:201F4000314200BD03C003C503CA035353004D4F5349004D49534F0053434B0053434C001D
:201F600053444100D703DA03DF03E403E803EC0358434B30004F43334100525844300054A1
:201F800058443000575200524400414C4500544F53433200FC03010406040B0410041304B1
:201FA00016041A0441443800414439004144313000414431310041443132004144313300D0
:201FC000414431340041443135003004340438043D04420447044C045104414430004144D3
:201FE000310041443200414433004144340041443500414436004144370066046A046E040D
:20200000FFFF76047A047E0482044144302D414434004144312D414435004144322D414421
:2020200036004144332D414437004144382D41443132004144392D4144313300414431303D
:202040002D4144313400414431312D414431350058434B302D5752004F4333412D524400B5
:20206000525844302D414C4500545844302D544F534332004D49534F2D53434B0054312D93
:2020800049435031004F4331412D4F4331420054332D49435033004F4333422D4F433343FE
:2020A0000054322D58434B31004F43302D4F433200414443302D4144433400414443312D5C
:2020C0004144433500414443322D4144433600414443332D414443370053434C2D535320E2
:2020E000616E64205344412D4D4F53490096049E04A604AE04B604BF04C804D204DC04E4D5
:20210000FFFF04F5040005090511051B0523052D0535053D05470551055B0565056505507F
:20212000696E2054657374204572726F723A0040002320414443312076616C7565203D206E
:2021400025640D0A002320414443302076616C7565203D2025640D0A000303030302012318
:202160002025732073686F72742074657374206661696C6564206F6E204A410D0A002320F0
:2021800025732073686F72742074657374206661696C6564206F6E204A420D0A00232025CA
:2021A000732073686F72742074657374206661696C6564206F6E204A480D0A002320257356
:2021C0002073686F72742074657374206661696C6564206F6E204A430D0A0023202573208E
:2021E00073686F72742074657374206661696C6564206F6E204A440D0A002320257320731A
:20220000FFFF72742074657374206661696C6564206F6E204A450D0A0023202573207368DC
:202220006F72742074657374206661696C6564206F6E204A460D0A00232025732073686FDB
:2022400072742074657374206661696C6564206F6E204A470D0A0023202573206F70656EC1
:202260002074657374206661696C6564206F6E2050494E410D0A0023202573206F70656EF0
:202280002074657374206661696C6564206F6E2050494E420D0A0023202573206F70656ECF
:2022A0002074657374206661696C6564206F6E2050494E430D0A0023202573206F70656EAE
:2022C0002074657374206661696C6564206F6E2050494E450D0A0023202573206F70656E8C
:2022E0002074657374206661696C6564206F6E2050494E460D0A0023202573206F70656E6B
:20230000FFFF657374206661696C6564206F6E2050494E470D0A0023202573206F70656EDF
:202320002074657374206661696C6564206F6E2050494E440D0A003F0D0A00500D0A0046D6
:082340000D0A002D0D0A00003A
:00000001FF
