:200000000C9430000C942151FFFFFFFFFFFFFFFFFFFFFFFFFFFFFFFFFFFFFFFFFFFFFFFF16
:20002000FFFFFFFFFFFFFFFFFFFFFFFFFFFFFFFFFFFFFFFFFFFFFFFF0C948D52FFFFFFFF5D
:200040000C947953FFFFFFFF0C941D540C9443540C948654FFFFFFFFFFFFFFFFFFFFFFFF82
:2000600000EC05BFC0E2D3E000E201500DBF02E000400EBF0E94BB88002309F424D0E0E6CE
:20008000F0E000E010E00E94E589EEECF0E000E610E040E050E00E94D789E4E4F3E008E556
:2000A00018E00E94E589EEECF0E000E213E044E250E00E94D789E2EFF0E00CE91BE04AE5A1
:2000C00050E00E94D7890E94AA030C94BA88FF00000000000000000000200000000100009D
:2000E000000000000000000000000000000000000000000000000000000000005777476784
:20010000FFFFFFFFFFFFFFFFFFFF2020202020202020202020202020202020200000202069
:2001200020202000202020202020202020202020202020202020202000202020202000003F
:2001400000000000000000000000000000005B2D0800DC0344077B08D508AB195B2DE7143E
:20016000912C4101CB14390901140A016A0A01CB1401DA0A01C50B01A10C01E80C01CD0DB7
:20018000023F0E01E10F014610014C10010711010D110121110144110160110392140B4044
:2001A0000901430A014E0A02B60B014E0C01DE0C02F40D01350E020210035F100114110192
:2001C0002811015911018A14FB4801CE28C71B094B2702B42501AE260D8F27017E1A0BA787
:2001E00028044B2702322706D91A01841BFB2601652942201B652901652901652903D82198
:20020000FFFFFFFFFFFFFFFF1D01AC2301E321012C25010A2102C22002F82301CA23012264
:200220002402082502B62009652901652901652907DF1F01FC1F025D21050E24086529FB75
:200240000100CA2905008129D0299529A429B72944035D2C11030205110402041101021469
:200260000203110202010204020202FB47018745B43805B8320BF72F01F72F01BE410E8483
:200280003E02E741037B370B5235015235FB42018745C2420536440B804501C6430E8943E6
:2002A00001ED410536440CC643FB8103564F0303070A0D0605050B01094701FB44013A5BF1
:2002C000CF5803365705315604F35A04CF5801365714245803485602F35A013657048F59D7
:2002E00002775AFB01003A5B050096569F56A8569656B15601003A5B050084578D5796577C
:20030000FFFFFFFFFFFFFFFFFFFF3A5B6E58805889587758925801013A5B2259012B590182
:200320003459012259013D59064659FB01003A5B0500E059E959F259E059FB590002BE5B74
:2003400014000E1D1D1D1D2A2A2A2A2A39393939394848486D6D44012A691563034062056C
:20036000665E04E26704156301656114016603665E02E26701656104A55C02DD5DFB010296
:20038000EE5C1000181818181818181818120E0A060606064403B7690303070D03010B1A3F
:2003A0000B040F020BFB000001EB72D96C64156D0A296D0A3D6D0A516D46656D0A796D5A10
:2003C0007D6D0A916D5A956D0AA96D01BD6D09E36D01F76D4F3F6E0AEB725A536EFB0064E9
:2003E00001EB72746E0A886E0A9C6E0AB06E46C46E0AD86E5ADC6E0AF06E5AF46E0A076F71
:20040000FFFFFFFFFFFFFFFF6F4F986F64AB6FFB006401EB72CB6F0ACE6F0ACE6F0ACE6FD5
:2004200046CB6F0AE16F5ACB6F0A00705ACB6F0A2E70014170095870016B704FCB6F64CB81
:200440006FFB006401EB728F700AA27002D37008F870022971084E71027F7144A4710AE206
:20046000715AE5710A20725A29720A3C72016472096D7201AB724FB4720ABB725ABE720AF5
:20048000E972FB4403A1734F03160524084F0132140F031D0348062BFB2101EB7671750568
:2004A00067751B4774029A74054D74035A7405D97301CF7301C773023C7502C27503C073F2
:2004C000088375029A74028D75065A7402C276FB440356763603060912043C011E142A03F2
:2004E0000C032404300218FB8103607715032C0A2C062005200115470AFB0001177AF07804
:20050000FFFFFFFFFFFFFFFF7901977901BF7901E779FB0002BE7A0500824C36181644030C
:20052000AF7F07030A050A040A0407150A030A020A010A0403FB0102398410001C1C1C1ACE
:2005400018161412100E0C0A0806040201026F8410001C1C1C1A18161412100E0C0A0806F5
:2005600004024403EF8473031B0D73011B171B031B041B021BFB0102F88510001818181817
:200580001818181818120E0A0606060601027B8808006155493D3125190C6E6F20636F6E9F
:2005A0006E656374696F6E202120002077726F6E67206669726D7761726520002020494E29
:2005C00044555354524F4E4943202020006572726F72206C69737420656E64202000202023
:2005E000202020202020202020202020202000202072656C6561736520202020202020003A
:20060000FFFFFFFFFFFFFFFF72726F72202020200070726576696F7573206572726F7220B6
:2006200020006E657874206572726F7220202020202000202020706C656173652077616996
:20064000742020006572726F72206D65737361676573202000737065616B657220766F6CA8
:20066000756D652020006D6963726F20766F6C756D652020202000736F756E64206F6E205B
:200680002F206F6666202000736F756E6420766F6C756D6520202020006B65797061642091
:2006A000736F756E6420202020004458432076657273696F6E202020202000736F667477B9
:2006C0006172652076657273696F6E006F666620202020202020202020202020006F6E20E4
:2006E00020202020202020202020202020002D2020202B2020202065736320206F6B0020AD
:20070000FFFFFFFFFFFFFFFFFFFF2020206F6B0020203132204453532030303120202020CB
:2007200000202031322044542030303120202020200020203132204453532030303220206E
:2007400020200020203132204454203030322020202020000E94F0892B97002711E01D8317
:200760006624CC24109194041E7F10939404112710933E0B11271093500401E010E0012B9E
:2007800011F40C946B2F0091410B01FF0FC000270A930091410B0A9349E401E20E94A27369
:2007A00000270093500400270093410B00913E0BECE4F1E00C9485890E94C249002309F033
:2007C00061C300914007073469F494980AE000938F0B00918F0B002321F0A8950E943E5B6B
:2007E000F8CF949A00914007043521F000914007043469F4002711270093700410937104F7
:20080000FFFFFFFFFFFFFFFF614D0E947D77009140070337A9F0009140070F3689F00091CA
:200820004007053569F000914007053749F0009140070C3629F000914007073409F020C270
:2008400000914007033751F40CE30093360300913603002311F0A895FACFA898009140077A
:200860000F3699F40E949D7F00938E0B00918E0B023058F0A89A0AE000938F0B00918F0B94
:20088000002311F0A895FACFA89800914007073459F4A89A0AE000938F0B00918F0B0023E7
:2008A00011F0A895FACFA89808E20093360300913603002311F0A895FACF02E30093590A6C
:2008C000009195040D7F0093950400919504077F00939504002700930907002700933E0791
:2008E000002700933F07DE98009194040F7D00939404579A0E941B5502E50093230701E317
:20090000FFFFFFFFFFFFFFFF3F07DE9A00919404006200939404559A0E941B5503E40093F0
:2009200023070FE3009324070AE70093250703E000933F07DE9A0091940400620093940443
:20094000559A0EE10093360300913603002311F0A895FACF01E0402E00E0502E002708839A
:200960000027098300270A8300270B83009140070337A9F0009140070F3689F00091400742
:20098000053569F000914007053749F0009140070C3629F000914007073409F0B1C00E9425
:2009A0001B5500E50093230701E30093240702E000933F07DE9A009194040062009394049A
:2009C000559A0E941B550BE40093D20703E20093590A0091590A0023E1F70091950401FFC7
:2009E00002C00E94057F0E941B5503E4009323070FE3009324070AE70093250703E0009383
:200A0000FFFFFFFFFFFFFFFFFFFF00939404559A0EE10093360300913603002311F0A895E0
:200A2000FACF002711270093DA0A1093DB0A002711270093E10A1093E20A0091950401FFF9
:200A400002C00E94057FAA27BB2701E0802E00E0902EE82DF92D3A970CF052C00E941B55A2
:200A600000E500932307082D0E94E4870093240702E000933F07DE9A009194040062009383
:200A80009404559A0E941B550BE40093D20703E20093590A0091950401FD04C00091590AA7
:200AA0000023C1F70091950401FF20C00E94057F0091230B043539F4082D0E94E487109123
:200AC000270B011759F00091230B013579F4082D0E94E4871091240B011741F4EAEDFAE011
:200AE0000081118104291529008311830091D2070023E1F7440C551C0FEF801A900AA9CF91
:200B0000FFFFFFFFFFFFFFFF00914007053709F097C000270093E00A01E0402E00E0502E28
:200B200001E0802E00E0902EE82DF92D3A970CF087C00091DA0A1091DB0A04211521012BB7
:200B400009F478C00E941B5502E500932307082D0E94E4870093240702E000933F07DE9A77
:200B600000919404006200939404559A0E941B550BE40093D20703E20093590A009195045E
:200B800001FD04C00091590A0023C1F70091950401FF3FC00E94057F0091230B0435C1F5C7
:200BA000082D0E94E4871091270B0117F9F50091240B0133D9F50091250B003321F00091C2
:200BC000250B063399F500913C0B073070F4EEEDFAE00081118104291529008311830091D0
:200BE000E00A0F5F0093E00A21C00091280B0E94D08703FD1BC0EEEDFAE0008111810429B2
:200C0000FFFFFFFFFFFFFFFFE00A0F5F0093E00A0DC0EEEDFAE00081118104291529008384
:200C200011830091E00A0F5F0093E00A0091D2070023E1F7440C551C0FEF801A900A74CF1F
:200C4000009140070F3641F000914007053521F000914007073441F4EAEDFAE00081118117
:200C60000160106000831183009140070C3641F4EAEDFAE00081118103601060008311838F
:200C800000914007003549F000914007093629F0009140070E3609F04DC002E30093590AE1
:200CA000009195040D7F00939504002700930907002700933E07002700933F070091940460
:200CC0000F7D00939404579A00914007003521F0009140070E3621F4A99A0E942F4FA99879
:200CE0000E941B5502E00093230709E40093240702E000933F070091940400620093940427
:200D0000FFFFFFFFFFFFFFFFFFFF02E00093230703E4009324070FE3009325070AE7009364
:200D2000260704E000933F0700919404006200939404559A00918903013081F541E004E05B
:200D400010E00E94255641E005E010E00E9425560E943E5B00914007043521F0009140073E
:200D6000043469F400270A930BEA15E022270E94C0801A930A9342E001E00E94EF76009120
:200D80004007093609F41B9801B5086101BD01B5077F01BD01E010E0012BE1F70E949877C0
:200DA000002309F06FC0442700270E94197A00914007003599F0009140070E3679F044279B
:200DC000002711270E94255645E001E010E00E94255645E002E010E00E9425560091400798
:200DE000033751F445E001E710E00E94255645E002E710E00E942556009140070F3641F0F1
:200E0000FFFFFFFFFFFFFFFF00914007073451F445E003E010E00E94255645E004E010E074
:200E20000E9425568AE08823B1F00E943E5BA895F89404E10E94F954702E789477FE02C026
:200E40008A9501C08AE001E00093360300913603002349F3FBCF00914007003529F0442717
:200E6000002711270E942556882701E000934F0A00270E94347E04E10093580A992701E084
:200E800000933E0B0C945B2D009136030023A9F4992311F491E001C0992700914007003504
:200EA00049F0009140070E3629F0492F002711270E9425560AE0009336030091950407FFEA
:200EC00008C10E94C37E00910F0B025409F462C0075059F1085009F4B9C0025219F0075023
:200EE000B1F0F7C00091110B0F3381F446E407E016E00E94A65443E408E016E00E94A654F2
:200F0000FFFFFFFFFFFFFFFFFFFF3E0BE2C0823059F402E000934F0A0E941B550AB10F71D6
:200F20000AB9002700933E0BD4C0813091F50091100B1091120B011761F50091110B0F3359
:200F400041F50091120B0093D80A0091130B0093D90A4091D90A0091D80A0E947C880093B3
:200F60008A0310938B030091140B023331F4F8944BE005E10E94E054789400270A9300273F
:200F80000A93442702E50E94A27315E010934F0A82E09FC000270987823009F09AC00091AC
:200FA000100B1091D80A011709F093C00091110B0F3309F08EC00091120B1091D80A0117B0
:200FC00009F087C00091130B1091D90A0117E9F5A5E0B0E00091220B1127A017B107A8F591
:200FE00001E0502E442402E41BE00E94CB8A242D33272017310780F4E42DFF27EE5BF44F01
:20100000FFFFFFFFFFFFFFFFF44F1081011711F4552402C04394E7CF5520A9F002E41BE030
:201020000E94CB8A0D31104070F4EA2FFB2FE15FF44F008108874C2F5D2F485F5F4F02E4AF
:201040001BE00E94A18A1196C5CF43C0823009F040C00091100B1091D80A0117D1F5009141
:20106000110B0F33B1F50091120B1091D80A011781F50091130B1091D90A011751F500918B
:201080004007003529F04427002711270E942556442700E10E944C7E442703E30E944C7E5F
:2010A000442704E30E944C7E442707E30E944C7E442708E30E944C7E44270AE30E944C7E2B
:2010C00000270093360302E000934F0A02E000933E0B00914F0A002361F400270A93002744
:2010E0000A93442709E50E94A27381E012E010934F0A0C945B2D009136030023A9F4992386
:20110000FFFFFFFFFFFFFFFF00914007003549F0009140070E3629F0492F002711270E94E3
:20112000255604E10093360300914F0A0023B1F400270A9300270A9342E500E50E94A27386
:2011400000914007003521F00EE100934F0A03C00CE300934F0A03E000933E0B009195040F
:2011600007FF21C00E94C37E00910F0B0A37D9F40091120B1091D80A0117A9F40091130B57
:201180001091D90A011721F00091130B0F3359F402E000934F0A0E941B550AB10F710AB986
:2011A000002700933E0B0C945B2D009136030023A9F4992311F491E001C0992700914007EF
:2011C000003549F0009140070E3629F0492F002711270E94255604E100933603009195049D
:2011E00007FD02C00C94CB140E94C37E00910F0B0A37D9F40091120B1091D80A0117A9F428
:20120000FFFFFFFFFFFFFFFF011721F00091130B0F3359F402E000934F0A0E941B550AB1D4
:201220000F710AB9002700933E0B00910F0B003511F00C94CB140091120B1091D80A0117BF
:2012400011F00C94CB140091130B1091D90A011711F00C94CB1400270A9300270A93442750
:2012600001E50E94A2730091140BE2E6F1E00C94858941E301E216E00E94A6540C94CB14C2
:201280000091150B0B3439F50091160B003319F50091170B0E94D087802F8295807F00913B
:2012A000180B0E94D087802B772401E010E8AA27BB27EA2FFB2F389748F4282F2123222312
:2012C00009F0702A000F16951196F3CF472D00E416E00E94A6540091150B043509F0A2C029
:2012E00000911A0B0E94D087A02FBB270091190B0E94D08711274AE050E00E94DF88A00F96
:20130000FFFFFFFFFFFFFFFFD087112744E650E00E94DF88A00FB11F0091170B0E94D087B8
:20132000112748EE53E00E94DF88A00FB11F4A2E5B2E0091160B0E94D087112740E157E246
:201340000E94DF88400E511E042D152D42E350E00E940489402E512E01EB401604E0500667
:2013600020F000EB402E04E0502E442D0DE316E00E94A654452C5524442D0CE316E00E94CD
:20138000A65400911F0B0E94D087A02FBB2700911E0B0E94D08711274AE050E00E94DF88A0
:2013A000A00FB11F00911D0B0E94D087112744E650E00E94DF88A00FB11F00911C0B0E9488
:2013C000D087112748EE53E00E94DF88A00FB11F4A2E5B2E00911B0B0E94D087112740E183
:2013E00057E20E94DF88400E511E042D152D42E350E00E940489402E512E01EB401604E0E4
:20140000FFFFFFFFFFFFFFFF04E0502E442D0FE316E00E94A654452C5524442D0EE316E03B
:201420000E94A6540C94CB144091150B09E016E00E94A6540091150B013421F00091150B7D
:20144000013689F40091160B0E94D087802F8295807F0091170B0E94D087800F482F0AE0CC
:2014600016E00E94A6540091220B0B3050F00091180B043431F44091190B03E416E00E941C
:20148000A6540C94CB140091150B013329F441E00BE316E00E94A6540C94CB140091150B00
:2014A0000E94D087013029F441E301E116E00E94A6540091160B073559F40091170B0E94BD
:2014C000D087002329F440E302E116E00E94A6540C94CB144091150B0BE016E00E94A654F0
:2014E0000091160B0E94D087802F8295807F0091170B0E94D087800F482F0CE016E00E9446
:20150000FFFFFFFFFFFFFFFFFFFF11274CE00E94EF88A02FB12F0091190B0E94D0871127C3
:20152000102F0027A02BB12B00911A0B0E94D087112744E00E94EF88A02BB12B00911B0B1C
:201540000E94D0871127A02BB12BA93007E0B00728F588270091180B0E94D0870295007FAD
:20156000802F0091190B0E94D087802B482F0EE016E00E94A654882700911A0B0E94D0870E
:201580000295007F802F00911B0B0E94D087802B482F0DE016E00E94A6540AC047E00EE056
:2015A00016E00E94A65448E00DE016E00E94A6540C94CB144091150B00E016E00E94A65410
:2015C0004091160B01E016E00E94A6544091170B02E016E00E94A6544091180B03E016E072
:2015E0000E94A6544091190B04E016E00E94A65440911A0B05E016E00E94A65440911B0B80
:20160000FFFFFFFFFFFFFFFF4091D80A07E016E00E94A6544091D90A08E016E00E94A65478
:201620000FE016E00E94D854002309F460C00091630B033008F05BC002E416E00E94D854C8
:201640000023C9F000914007033721F000914007053789F40FE016E00E94D8540E94D0874E
:20166000112744E00E94EF88402E512E0CE0400E00E0501E10C00FE016E00E94D8540E945B
:20168000D087112744E00E94EF88402E512E0AE0400E00E0501E44E5042D152D000F111F30
:2016A000000F111F0E94A6544FEF042D152D000F111F000F111F0F5F1F4F0E94A6544FEF6A
:2016C000042D152D000F111F000F111F0E5F1F4F0E94A6544FEF440C551C440C551C03E0FF
:2016E000400E00E0501E042D152D0E94A6540EE00E94987E002339F10EE116E00E94D85499
:20170000FFFFFFFFFFFFFFFF0EE116E00E94D854402F43950EE116E00E94A65400E30A93D6
:2017200001E30A934EE005E60E94A27301E010E0012BA1F0FBCF0E940B4F44270EE116E0B4
:201740000E94A6540BC00EE116E00E94D854002329F044270EE116E00E94A65402E00093D2
:201760004F0A06E000933E0B0C94CB140091150B0B3449F40091160B003329F441E006E396
:2017800016E00E94A6540C94CB140091170B0E94D087402E55240091160B0E94D0871127C2
:2017A0004AE050E00E94DF88400E511E01E0401600E050060CF470C004E6401600E05006F6
:2017C0000CF06AC00FEF400E501E042D152D000F111F005B194F0F5F1F4F0E94D854802F5B
:2017E0008460482F042D152D000F111F005B194F0F5F1F4F0E94A6548827AA27BB270091AE
:20180000FFFFFFFFFFFFFFFFA017B107F0F4EA2FFB2F3897D0F4EA2FFB2FE85EF44F00815A
:20182000002389F0EA2FFB2FE85EF44F0081093050F401E0EA2FFB2FE85EF44F4081415043
:201840000E94C788802B1196DACF482F042D152D000F111F005B194F0E94A6540091150B63
:201860000033D1F4042D152D000F111F005B194F0F5F1F4F0E94D854802F41E0482B440CBE
:20188000551C00E5400E06E0501E0FEF401A500A042D152D0E94A6540C94CB140091180B5C
:2018A0000E94D087402E55240091170B0E94D08711274AE050E00E94DF88400E511E0FEF46
:2018C000400E501EAA27BB27EA2FFB2F3897B8F5222733272A0F3B1F042D152D43E00E946C
:2018E000EF88085E184F200F311F022F132F0E94D8540F3F11F50091160B0E94D087702E47
:20190000FFFFFFFFFFFFFFFF4AE00E94BD88700E472D242F662777276A0F7B1F042D152DC8
:2019200043E00E94EF88085E184F600F711F062F172F422F0E94A65402C01196C5CF0C947A
:20194000CB140091160B0E94D087402E55240091150B0E94D08711274AE050E00E94DF88D1
:20196000400E511E01E0401600E0500634F104E6401600E050060CF50091170B0033E9F4DE
:201980000FEF400E501E042D152D000F111F005B194F0F5F1F4F0E94D854802F482F4260A6
:2019A000440C551C00E5400E06E0501E0FEF401A500A042D152D0E94A654EDC70091150BB9
:2019C000013329F441E309E316E00E94A654E3C70091170B065509F0DEC70091160B0E946A
:2019E000D087802F0091150B0E94D0874AE00E94BD88800F8A95893108F0CAC000911A0B86
:201A0000FFFFFFFFFFFFFFFF190B0E94D0874AE00E94BD88400E042D4AE00E94BD88402EA2
:201A2000042D4FE00E94D188402E0091180B0B320091180B0D3219F400270419402E0091A9
:201A40001D0B0C3409F086C0AA27BB27EA2FFB2F339708F0A0C78A2E9B2E03E0800E00E0EE
:201A6000901E082F112749E050E00E94DF880858154F800E911E082D192D0E94D8540F3F4F
:201A800009F066C000911F0B0E94D087502E00911E0B0E94D0874AE00E94BD88500E452D61
:201AA000542E8A2E9B2E03E0800E00E0901E082F112749E050E00E94DF880858154F800E01
:201AC000911E082D192D452D0E94A65440911C0B542E082F112749E050E00E94DF88085823
:201AE000154F0E5F1F4F452D0E94A654442D742E4A2E5B2E06E0400E00E0501E082F112794
:201B0000FFFFFFFFFFFFFFFF0858154F400E511E042D152D472D0E94A654EA2FFB2F3297BD
:201B2000D9F15A2E53944FEF442EA52DBB271396082F112749E050E00E94DF880858154FCA
:201B4000A00FB11F0A2F1B2F442D0E94A65423C711967CCF442DA42F082F112749E050E08E
:201B60000E94DF880858154F4A2F0E94A65440911C0BA42F082F112749E050E00E94DF88E7
:201B80000858154F0F5F1F4F4A2F0E94A65403C741E001E10E944C7EFEC60091170B0E943E
:201BA000D087A02F0091160B0E94D0874AE00E94BD88A00F0A2F4AE00E94BD88A02F0A2F42
:201BC0004FE00E94D188A02F0091150B0B320091150B0D3219F400270A1BA02F4A2F05E3A5
:201BE00016E00E94A654D7C60091190B0E94D087A02FBB270091180B0E94D08711274AE048
:201C0000FFFFFFFFFFFFFFFFB11F0091170B0E94D087112744E650E00E94DF88A00FB11F36
:201C20000091160B0E94D087112748EE53E00E94DF88A00FB11F0091150B0E94D0871127EE
:201C400040E157E20E94DF88A00FB11F4A2F5B2F452F552704E116E00E94A6544A2F4F7FF1
:201C600003E116E00E94A65496C60091150B013329F441E00AE316E00E94A6548CC600910D
:201C8000150B083509F04DC0AA270091160B0E94D08711274AE050E00E94DF88402E512EDD
:201CA0000091170B0E94D0871127400E511E00914007033721F400E7400E00E0501E009148
:201CC0004007043521F000914007043421F401E7400E00E0501E009140070F3641F00091EB
:201CE0004007053521F000914007053721F400E7400E00E0501E009140070C3621F403E68E
:201D0000FFFFFFFFFFFFFFFFFFFF073421F40EE6400E00E0501E00914007093619F5ADE03B
:201D200021C00091150B0E94D087112744E00E94EF88402E512E0091160B0E94D0871127D3
:201D40004AE050E00E94DF88400E511E0091170B0E94D0871127400E511E0091150B0E946F
:201D6000D087A02F042D052981F400E4B01640F44B2C552403E7400E00E0501EB3940FC0FF
:201D80000FEF402E0FEF502E0AC0A73020F40FEF400E501E04C00FEF402E0FEF502E0FEF42
:201DA00040160FEF500609F407C14091180B042D152D000F111F000F111F0E94A654409162
:201DC000190B042D152D000F111F000F111F0F5F1F4F0E94A65440911A0B042D152D000FFE
:201DE000111F000F111F0E5F1F4F0E94A65440911B0B042D152D000F111F000F111F0D5FA9
:201E0000FFFFFFFFFFFFFFFFFFFF093661F000914007053541F0009140070F3621F000913A
:201E200040070734E1F4E42DF52D3897C4F40091220B0031A0F000911E0B093481F407E3BC
:201E400016E00E94D854802F01E0442D0E94C788082B802B482F07E316E00E94A65400916A
:201E60004007033731F500E9401600E050060CF103E9401600E05006E4F40091220B00310A
:201E8000C0F000911E0B0934A1F404E7400E0FEF501E07E316E00E94D854802F01E0442DB2
:201EA0000E94C788082B802B482F07E316E00E94A654009140070F3621F000914007053520
:201EC00031F500E7401600E050060CF105E7401600E05006E4F40091220B0031C0F00091EC
:201EE0001E0B0934A1F400E9400E0FEF501E01E416E00E94D854802F01E0442D0E94C788A9
:201F0000FFFFFFFFFFFFFFFFFFFF0E94A65400914007073421F5E42DF52DB09704F1E42D86
:201F2000F52DB597E4F40091220B0031C0F000911E0B0934A1F400EE400E0FEF501E01E4A3
:201F400016E00E94D854802F01E0442D0E94C788082B802B482F01E416E00E94A65400916E
:201F60004007043521F000914007043449F5E42DF52DB0972CF1E42DF52DB2970CF50091DD
:201F8000220B0031E8F000911E0B0934C9F400EE400E0FEF501E01E416E00E94D854802F57
:201FA00001E0442D0E94C788082B802B482F01E416E00E94A654EFC441E00FE00E944C7EE3
:201FC000EAC44091160B0091150B0E94D44F802F8B35B8F08B36A8F40091170B003389F414
:201FE0000091180B013368F00091180B093348F44091180B4053082F112709531A4F0E9418
:20200000FFFFFFFFFFFFFFFF0E94D087B02FB1500091170B0E94D087A02F0091160B0E9420
:20202000D0874AE00E94BD88A00FAB550091190B0E94D087402E0091180B0E94D0874AE096
:202040000E94BD88400E0FEF400EB031D0F4A031C0F408E04016A8F4442D542F2B2F332753
:20206000205030400A2F112744E00E94EF88075A144F200F311F022F132F452F0E94A6540C
:202080008AC441E006E30E944C7E85C441E303E316E00E94A6547FC40091150B083429F44A
:2020A00041E00CE116E00E94A6540091150B033529F441E304E316E00E94A6546CC400911C
:2020C000150B043449F40091160B013329F441E002E416E00E94A6540091150B053509F0EB
:2020E00050C00091160B013409F04BC041E405E416E00E94A65400914007073441F0009170
:20210000FFFFFFFFFFFFFFFF8E0B0230D0F101E416E00E94D854802F082F0260802B482F28
:2021200001E416E00E94A654009140070734A9F44AE508E810E00E94A65440E309E810E0C9
:202140000E94A65440E30AE810E00E94A65440E30BE810E00E94A65414C04AE508EC11E0B8
:202160000E94A65440E309EC11E00E94A65440E30AEC11E00E94A65440E30BEC11E00E94CB
:20218000A6540091150B083409F005C400911A0B0E94D087A02FBB270091190B0E94D08788
:2021A00011274AE050E00E94DF88A00FB11F0091180B0E94D087112744E650E00E94DF88BD
:2021C000A00FB11F0091170B0E94D087112748EE53E00E94DF88A00FB11F4A2E5B2E009119
:2021E000160B0E94D087112740E157E20E94DF88400E511E442D07E416E00E94A654452C0E
:20220000FFFFFFFFFFFFFFFF0E94A654C4C341E302E316E00E94A654BEC34091150B0FE0A7
:2022200016E00E94A654B7C34091150B0AE116E00E94A6544091160B0BE116E00E94A654B4
:20224000AAC302E000934F0A06E000933E0BA3C34091D80A07E016E00E94A6544091D90A3B
:2022600008E016E00E94A65400E30A930E949D7F0A9344E506E50E94A27302E000934F0A70
:2022800007E000933E0B87C34091150B0FE116E00E94A6540091220B093050F00091160BD5
:2022A000013431F44091170B04E416E00E94A65472C34091150B00E216E00E94A6546BC38F
:2022C0000FE000934F0ABB240E940B4F0BE016E00E94D854003329F040E30BE016E00E94A7
:2022E000A6540CE016E00E94D854053029F045E00CE016E00E94A6540DE016E00E94D85492
:20230000FFFFFFFFFFFFFFFFFFFFD8541127102F0027A00FB11F1A9751F044270EE016E03D
:202320000E94A6544AE00DE016E00E94A65409E016E00E94D854003329F040E309E016E05D
:202340000E94A6540AE016E00E94D854003129F040E10AE016E00E94A65403E416E00E94CD
:20236000D854003329F040E303E416E00E94A6544424552403EB401600E05006B8F4042D11
:20238000152D000F111F000F111F0E94D8540F3F49F04FEF042D152D000F111F000F111FF9
:2023A0000E94A6540FEF401A500AE4CF44245524E42DF52D7997D0F5042D152D49E050E067
:2023C0000E94DF880858154F0E94D8540F3F69F04FEF842F042D152D49E050E00E94DF88F5
:2023E0000858154F482F0E94A654042D152D49E050E00E94DF880858154F0D5F1F4F0E94F1
:20240000FFFFFFFFFFFFFFFF842F042D152D49E050E00E94DF880858154F0D5F1F4F482F27
:202420000E94A6540FEF401A500AC2CF00914007093609F06CC04424552403E6401600E081
:20244000500670F5042D152D000F111F005B194F0E94D854002349F04427042D152D000F35
:20246000111F005B194F0E94A654042D152D000F111F005B194F0F5F1F4F0E94D85400238B
:2024800059F04427042D152D000F111F005B194F0F5F1F4F0E94A6540FEF401A500ACDCF4D
:2024A000442455240BE6401600E0500680F58827883048F5282F332720503040042D152DA1
:2024C00043E00E94EF88085E184F200F311F022F132F0E94D8540F3FA1F04FEF542F282F3C
:2024E000332720503040042D152D43E00E94EF88085E184F200F311F022F132F452F0E941E
:20250000FFFFFFFFFFFFFFFF401A500ACBCF0FE016E00E94D854002329F044270FE016E036
:202520000E94A6544091150B00E116E00E94A6544EEF0AE116E00E94A6544EEF0BE116E0C2
:202540000E94A6540CE116E00E94D854002329F044270CE116E00E94A6540DE116E00E9482
:20256000D854033028F044270DE116E00E94A6540EE116E00E94D854033028F044270EE1A1
:2025800016E00E94A6540FE116E00E94D854003329F040E30FE116E00E94A65400E216E02C
:2025A0000E94D854003329F040E300E216E00E94A65401E216E00E94D854003329F040E354
:2025C00001E216E00E94A65407E316E00E94D854002329F0442707E316E00E94A654882706
:2025E000803188F4082F11270E5D194F0E94D8540F3F39F04FEF082F11270E5D194F0E9405
:20260000FFFFFFFFFFFFFFFF803198F544245524E42DF52D709758F522273327240D351DF6
:20262000082F112744E00E94EF88075A144F200F311F022F132F0E94D8540F3FA1F04FEF4D
:20264000242F66277727640D751D082F112744E00E94EF88075A144F600F711F062F172F0F
:20266000422F0E94A6540FEF401A500AD1CF8395CBCF8827843008F06AC0082F1127000F46
:20268000111F000F111F075A134F0E94D8540F3F59F04FEF082F1127000F111F000F111F78
:2026A000075A134F0E94A654082F1127000F111F000F111F075A134F0F5F1F4F0E94D85461
:2026C0000F3F69F04FEF082F1127000F111F000F111F075A134F0F5F1F4F0E94A654082FB6
:2026E0001127000F111F000F111F075A134F0E5F1F4F0E94D8540F3F69F04FEF082F112764
:20270000FFFFFFFFFFFFFFFF075A134F0E5F1F4F0E94A654082F1127000F111F000F111F9A
:20272000075A134F0D5F1F4F0E94D8540F3F69F04FEF082F1127000F111F000F111F075AFB
:20274000134F0D5F1F4F0E94A654839593CF02E316E00E94D854003329F040E302E316E034
:202760000E94A65403E316E00E94D854003329F040E303E316E00E94A65404E316E00E94AD
:20278000D854003329F040E304E316E00E94A65405E316E00E94D854002329F0442705E3EA
:2027A00016E00E94A65406E316E00E94D854002329F0442706E316E00E94A65401E116E0E0
:2027C0000E94D854003329F040E301E116E00E94A65402E116E00E94D854013329F041E330
:2027E00002E116E00E94A65409E316E00E94D854003329F040E309E316E00E94A65403E1E3
:20280000FFFFFFFFFFFFFFFFBB2704E116E00E94D8541127102F0027A00FB11FAF3FBF4F1C
:2028200051F04FEF03E116E00E94A6544FEF04E116E00E94A6540AE316E00E94D85400231A
:2028400029F044270AE316E00E94A6540BE316E00E94D854002329F044270BE316E00E9496
:20286000A65400E416E00E94D854002329F0442700E416E00E94A65401E416E00E94D854F0
:20288000002329F0442701E416E00E94A65402E416E00E94D854002329F0442702E416E0ED
:2028A0000E94A65403E416E00E94D854003329F040E303E416E00E94A65404E416E00E9469
:2028C000D854003329F040E304E416E00E94A65405E416E00E94D854003329F040E305E4DE
:2028E00016E00E94A65407E416E00E94D854002329F0442707E416E00E94A65406E416E093
:20290000FFFFFFFFFFFFFFFFFFFF06E416E00E94A65441C001E010E0012BE9F101E00093F9
:20292000970B39C00091160B0E94D087A02F0091150B0E94D0870295007FA00FA093630B72
:202940000091180B0E94D087A02F0091170B0E94D0870295007FA00FA093640B0091630BE9
:20296000112701501040102F00272091640B3327020F131F0093210310932203E091210347
:20298000F0912203BA9720F001E00093390303C000270093390300914007003579F40091BC
:2029A000950401FF0BC00E94057F0091230B0E3429F40FE00093620B0E94CB8300914F0AA6
:2029C000002319F402E000933E0B0C945B2D009140070337A9F0009140070F3689F000910F
:2029E0004007053569F000914007053749F0009140070C3629F000914007073409F0F3C0BE
:202A0000FFFFFFFFFFFFFFFF1093DD0AAA27BB27A33700E0B00710F50A2F1B2F000F111F49
:202A2000000F111F0E94D8540F3FB1F0ECEDFAE001E010E0202F312F0A2F1B2F44E00E941E
:202A4000F688402F022F132F0E94EF8820813181202B312B208331831196DACF01E0402E0D
:202A600000E0502E87E0AA27BB27082F1127A017B107C0F40091DC0A1091DD0A04211521F2
:202A8000012B61F00091DA0A1091DB0A04211521012B21F441E000270E944C7E440C551CAD
:202AA0001196E3CF06E316E00E94D8540023D9F500270E94987E002359F10DE116E00E944D
:202AC000D8540230F8F40DE116E00E94D854402F43950DE116E00E94A65400270A93002748
:202AE0000A9341E500E50E94A27300E30A9300E30A934BE406E50E94A27301E010E0012BA9
:202B0000FFFFFFFFFFFFFFFF16E00E94A6540BC00DE116E00E94D854002329F044270DE119
:202B200016E00E94A654AA27BB27EA2FFB2F339708F059C000E30A9300E30A934BE406E518
:202B40000E94A27308E000933603A89500913603002309F446C00091950407FFF7CF0E9445
:202B6000C37E00910F0B015519F0095299F0EECF0091120B1091D80A011761F40091130B1C
:202B80001091D90A011731F4A3E0B0E0002700933603DCCF0091120B1091D80A0117B1F6D3
:202BA0000091130B1091D90A011721F00091130B0F3361F60091140B013329F40091940447
:202BC000016000939404A3E0B0E00027009336030E941B550AB10F710AB9002700933E0B50
:202BE000B5CF1196A2CF002700938C0301E0402E00E0502EAA27BB27EA2FFB2F399788F401
:202C0000FFFFFFFFFFFFFFFF04211521012B29F000918C030F5F00938C03440C551C119604
:202C2000EBCF0E943E8205E416E00E94D8540134E9F401E000933F0B00914007073429F4CB
:202C400000910D0B0B7F00930D0B009140070F3669F40E949D7F00938E0B00918E0B0230D6
:202C600028F000910D0B0B7F00930D0B07E416E00E94D854402E552406E416E00E94D8541A
:202C80001127102F0027400E511E452829F000919A0B016000939A0B05E416E00E94D854D7
:202CA000003319F50091630B0330F8F0009140070F36D9F401E010E0012BB9F004EC11E048
:202CC0000E94D854083489F401E416E00E94D85401FD0BC001E416E00E94D854802F8260C1
:202CE000482F01E416E00E94A654009140070F3689F40E949D7F00938E0B00918E0B023006
:202D0000FFFFFFFFFFFFFFFFFFFF8160482F0EE00E94E05403E116E00E94D854A02FBB2748
:202D200004E116E00E94D8541127102F0027A00FB11FA093860BB093870B0BE316E00E94AE
:202D4000D8540093880B00E416E00E94D854002339F10DE316E00E94D854A02FBB270CE3D8
:202D600016E00E94D8541127102F0027A00FB11FA093890BB0938A0B0FE316E00E94D8541D
:202D8000A02FBB270EE316E00E94D8541127102F0027A00FB11FA0938B0BB0938C0B0CC041
:202DA000002711270093890B10938A0B0027112700938B0B10938C0B00914007093641F04B
:202DC00000914007003521F0009140070E3609F41A98AA27BB27EA2FFB2F339708F05AC038
:202DE00000E30A9300918E0B0A9344E506E50E94A27308E000933603A895009136030023E3
:202E0000FFFFFFFFFFFFFFFF07FFF7CF0E94C37E00910F0B015519F0095299F0EECF0091CF
:202E2000120B1091D80A011761F40091130B1091D90A011731F4A3E0B0E00027009336030F
:202E4000DCCF0091120B1091D80A0117B1F60091130B1091D90A011721F00091130B0F338A
:202E600061F60091140B013329F400919404016000939404A3E0B0E00027009336030E949D
:202E80001B550AB10F710AB9002700933E0BB5CF1196A1CFAA27BB27EA2FFB2F339708F06E
:202EA00059C000E30A9300E30A9348E406E50E94A27308E000933603A8950091360300234D
:202EC00009F446C00091950407FFF7CF0E94C37E00910F0B015519F0095299F0EECF0091DA
:202EE000120B1091D80A011761F40091130B1091D90A011731F4A3E0B0E00027009336034F
:202F0000FFFFFFFFFFFFFFFFD80A0117B1F60091130B1091D90A011721F00091130B0F33CB
:202F200061F60091140B013329F400919404016000939404A3E0B0E00027009336030E94DC
:202F40001B550AB10F710AB9002700933E0BB5CF1196A2CF0091630B033008F460C0AA2745
:202F6000BB27EA2FFB2F339708F059C000E30A9300E30A9348E606E50E94A27308E0009306
:202F80003603A89500913603002309F446C00091950407FFF7CF0E94C37E00910F0B0155F1
:202FA00019F0095299F0EECF0091120B1091D80A011761F40091130B1091D90A011731F459
:202FC000A3E0B0E0002700933603DCCF0091120B1091D80A0117B1F60091130B1091D90A1D
:202FE000011721F00091130B0F3361F60091140B013329F400919404016000939404A3E027
:20300000FFFFFFFFFFFFFFFF0E941B550AB10F710AB9002700933E0BB5CF1196A2CF009178
:2030200094040E7F0093940402E000934F0A00914007003529F04427002711270E94255665
:203040000BE016E00E94D854015441F0015181F1015009F442C00350B1F054C000919604F4
:203060000061009396040091960408600093960400919604046000939604009196040D7F8F
:203080000093960453C00091960400610093960400919604077F00939604009196040460CA
:2030A00000939604009196040D7F009396043EC00091960400610093960400919604077F97
:2030C00000939604009196040460009396040091960402600093960429C0009196040061D8
:2030E000009396040091960408600093960400919604046000939604009196040260009307
:20310000FFFFFFFFFFFFFFFF0F7E0093960400919604077F00939604009196040B7F0093D7
:203120009604009196040D7F00939604009196040E7F009396040091630B033028F0009151
:20314000960404600093960409E016E00E94D854015429F00B5019F1055189F030C0009174
:203160009604006400939604009196040F7700939604009196040F7D009396042FC00091E2
:20318000960400640093960400919604006800939604009196040F7D009396041FC00091F0
:2031A00096040F770093960400919604006400939604009196040062009396040FC00091EC
:2031C00096040F7B00939604009196040F7D00939604009196040F7700939604AA27BB2729
:2031E000A33700E0B007E0F4442455240A2F1B2F45E050E00E94DF88E02FF12FEF51F84F12
:20320000FFFFFFFFFFFFFFFF1B2F45E050E00E94DF88E02FF12FED51F84F40821196E0CF42
:203220000BE116E00E94D854402FA42F0AE116E00E94D8544A2F0E947C88009398031093FD
:2032400099030027009348030091950404600093950402E000934F0A0AEF10E00093CE07F4
:203260001093CF0704EC19E00093D0071093D1070AEF0093D20702E30093520A04EC19E0E5
:203280000093D5071093D6070FE016E00E94D854039500936F0700916F070A3319F401E4B5
:2032A00000936F0700270093430700914007003521F0009140070E3619F40FE00093620BCB
:2032C0000CE116E00E94D854013029F500914007033761F000914007003541F00091400775
:2032E0000E3621F0009140070F36A9F4AA27BB27A33700E0B00778F40A2F1B2F0E94D147F2
:20330000FFFFFFFFFFFFFFFFFFFF0F5F1F4F0E9425561196EDCF04E000933E0B00914007C3
:20332000043521F000914007043419F401E00E941688009195040E7F009395040027009368
:203340008D0B00270A9300270A9341E500E50E94A2730C945B2D00913303002309F058C068
:2033600000913403002309F453C00091630B0330D8F100270E94E9780027009334030091AB
:20338000530A002319F000270093530A00915404002319F00027009354040091560A0E7FE8
:2033A0000093560ADC9A0091560A02FF0FC00091560A03FF06C00091570A0E94E978DC98C1
:2033C00027C00091570A0E94E97822C000914F04002321F400914E040023D1F00091800B30
:2033E0000023B1F0DC9814C000270E94E9780027009334030091530A002319F000270093D2
:20340000FFFFFFFFFFFFFFFFFFFF002700935404009154040023E1F0009153040023C1F00B
:20342000009135030023A1F400270E94E97800915404055319F00C5029F007C001E10093E6
:20344000350303C002E30093350300270093530400915404002309F443C000915304002399
:20346000F9F5009135030023D9F500915404055319F00C50D1F031C005E00E94E9780091D3
:20348000560A00FF06C00091560A01FF0AC0DC9808C00091560A02FF04C00091560A03FD69
:2034A000DC9803E00093350318C00AE00E94E9780091560A00FF06C00091560A01FF0AC0B4
:2034C000DC9808C00091560A02FF04C00091560A03FDDC9802E10093350301E0009353041C
:2034E0000091950407FD02C00C9465290E94C37E00910F0BE9ECF1E00C9485890091120B1E
:20350000FFFFFFFFFFFFFFFF52C00091130B1091D90A011709F04BC000270A9300270A93CA
:20352000442701E50E94A2730091140B0435F9F50091150B075411F00052C9F50091150BDE
:203540000093770300911A0B009378030091160B009379030091170B00937A030091180B62
:2035600000937B030091190B00937C030091770300930F0B009179030093100B00917A03F2
:203580000093110B00917B030093120B00917C030093130B01E30093140B009178030093C7
:2035A000150B0E946F2F802F082F0E94F9450C9465290091120B0F3309F084C00091130BDB
:2035C0000F3309F07FC00091140B035421F0005209F462C077C00091170B033509F072C09B
:2035E0000091160B0E94D087A02F0091150B0E94D0874AE00E94BD88A00F8A2F8A958A3055
:20360000FFFFFFFFFFFFFFFFFFFF00E0B00708F059C00A2F1B2F000F111F000F111F0E9469
:20362000D8540356B9F5482F43950A2F1B2F0E947047012B79F10091180B0133B1F4E82FF2
:20364000FF27E35BFC4F008102600083E82FFF27E35BFC4F008100FD1DC045E00A2F1B2F8C
:203660000F5F1F4F0E94255615C0E82FFF27E35BFC4F00810D7F0083E82FFF27E35BFC4F60
:20368000008100FD07C044270A2F1B2F0F5F1F4F0E9425561196B8CF0091150B073539F4B6
:2036A0000091160B033519F401E000937D030091150B073539F40091160B083519F401E028
:2036C00000937D034091130B0091120B0E947C8820918A0330918B030217130799F4002720
:2036E0000A9300270A93442701E50E94A2730091140B015439F40091150B003319F401E05D
:20370000FFFFFFFFFFFFFFFFFFFF120B1091D80A0117D9F50091130B1091D90A011721F0D1
:203720000091130B0F3389F50091140B013329F4009194040160009394040E941B550AB197
:203740000F710AB9009140070F3649F40E949D7F00938E0B00918E0B023008F081E000919C
:203760004007073409F481E0882361F0F8940EE00E94F954A02E0CEFA0224A2D0EE00E9472
:20378000E0547894002700933E0B0C94652900914007043569F000914007043449F0009174
:2037A0004007003529F0009140070E3609F080C10091120B0F3309F07BC10091130B0F3308
:2037C00009F076C10091140B045449F0015039F00F5109F4D0C0015009F4CDC069C140913B
:2037E000160B0091150B0E947C8820919C0730919D070217130771F04091160B0091150B61
:20380000FFFFFFFFFFFFFFFF3091A1070217130709F04EC14CE95BE007E817E00E94BA8AD0
:203820004DE95BE006E717E00E94BA8A05E010E01A930A9348E15BE007E817E00E94D78AE1
:203840000091700410917104012BA9F400914007003589F0009140070E3669F001E00E9406
:20386000168800270A9307E817E01A930A9341E001E00E94EF760091220B11270E50104009
:203880001A930A934DE15BE006E717E00E94D78A0091140B053431F0E0912103F091220349
:2038A000BA9760F047E857E007EB17E00E94BA8A46E757E006EA17E00E94BA8A0091170B4E
:2038C000003309F0F5C00091700410917104012B09F0EEC000914007003521F00091400723
:2038E0000E36F1F502E00093230704E500932407AA27BB27EA2FFB2F359760F4EA2FFB2FFF
:20390000FFFFFFFFFFFFFFFFFB2FEB5DF84F00831196F0CFAA27BB270091220B11270E5006
:203920001040A017B10770F4EA2FFB2FEA58F84F00810E94424FEA2FFB2FE65DF84F008394
:203940001196EACF0E941B550091220B075000933F0700919404006200939404559AA8C0FA
:2039600000270A9306E717E01A930A9342E001E00E94EF769DC04091160B0091150B0E94A9
:203980007C8820919C0730919D070217130771F04091160B0091150B0E947C882091A00735
:2039A0003091A1070217130709F082C006E717E00E94CB8A2091220B332728503040020F24
:2039C000131F01311040E8F40091220B1127085010401A930A9347E15BE006E717E00E9486
:2039E000D78A0091140B053631F0E0912103F0912203BA9730F046E757E006EA17E00E94C1
:203A0000FFFFFFFFFFFFFFFF7104012B09F050C000914007003521F0009140070E36F1F5E4
:203A200002E00093230704E500932407AA27BB27EA2FFB2F359760F4EA2FFB2FE957F84F60
:203A40000081EA2FFB2FEB5DF84F00831196F0CFAA27BB270091220B112703501040A01727
:203A6000B10770F4EA2FFB2FEA58F84F00810E94424FEA2FFB2FE65DF84F00831196EACFFA
:203A80000E941B550091220B0C5F00933F0700919404006200939404559A0AC000270A93DF
:203AA00006E717E01A930A9342E001E00E94EF760091120B1091D80A011711F00C94652956
:203AC0000091130B1091D90A011731F00091130B0F3311F00C94652900270A9300270A93D2
:203AE000442701E50E94A2730091140BEEEEF1E00C94858900914007033729F000914007B0
:203B0000FFFFFFFFFFFFFFFFFFFF09EF700E0091150B0E94D087802F873008F09CC108E0EC
:203B2000701609F544245090160B552031F001E1501619F004E4501699F4A1E0B0E0072D91
:203B40001127A017B10788F4EA2FFB2FEA5EF44F0081051519F001E0402E07C01196EFCF55
:203B600001E0402E02C001E0402E01E010E0012B09F4AEC001E0401609F063C001E0402EDB
:203B8000AA27BB27072D1127A017B10708F056C0EA2FFB2FEA5EF44F50805694569456942D
:203BA00056940091150B11270F5F1F4F20916F0733270217130731F4042D0E943E84802E3A
:203BC0008A9403C0842C0FEF800E082F112744E00E94EF889924080D191D402F512F052DF3
:203BE0000E9473504394EA2FFB2FEA5EF44F50800FE050220091150B11270F5F1F4F209114
:203C0000FFFFFFFFFFFFFFFF31F4042D0E943E84802E8A9403C0842C0FEF800E082F1127B8
:203C200044E00E94EF889924080D191D402F512F052D0E94735043941196A4CF0E941A4EBE
:203C40000AC15090160B56945694569456940E941B550CE400932307082F03950E94E48755
:203C60000093240700E30093250700E300932607052D0E94E4870093270705E000933F0783
:203C8000DE9A00919404006200939404559A082F112744E00E94EF88A02FB12F082F11273D
:203CA00044E00E94EF88005F1F4FA017B10778F40A2F1B2F45E050E00E94DF88E02FF12F0F
:203CC000ED51F84F00810F7700831196E7CFC3C00E941B5508E400932307082F03950E94C9
:203CE000E4870093240701E0402E0091150B11270F5F1F4F20916F0733270217130709F0DA
:203D0000FFFFFFFFFFFFFFFF1127A017B10708F097C0EA2FFB2FEA5EF44F50805694569443
:203D200056945694042D0E943E84802E8A9480FE17C0082D42E00E94D188E02FFF27EB5D2A
:203D4000F84F0081007F0083082D42E00E94D188E02FFF27EB5DF84F0081052900831AC077
:203D6000082D42E00E94D188E02FFF27EB5DF84F00810F700083082D42E00E94D188E02F49
:203D8000FF27EB5DF84F550C550C550C550C0081052900834394EA2FFB2FEA5EF44F508043
:203DA0000FE05022042D0E943E84802E8A9480FE17C0082D42E00E94D188E02FFF27EB5D1D
:203DC000F84F0081007F0083082D42E00E94D188E02FFF27EB5DF84F0081052900831AC0F7
:203DE000082D42E00E94D188E02FFF27EB5DF84F00810F700083082D42E00E94D188E02FC9
:203E0000FFFFFFFFFFFFFFFFFFFF550C550C0081052900834394119676CFAA27BB27072D0E
:203E20001127A017B10760F4EA2FFB2FEA5EF44F0081EA2FFB2FEB5DF84F00831196EFCF7E
:203E400002E0700E70923F07DE9A00919404006200939404559A00914007003509F051C086
:203E60000091150B0E94D087802F7090220B09EF700EAA27BB27072D1127A017B10708F0C0
:203E800040C0EA2FFB2FEA5EF44F508056945694569456940EE05016A1F0452D542F2A2FA9
:203EA0003B2F220F331F082F112744E00E94EF88200F311F2F5F3F4F022F132F452F0E9445
:203EC0002556EA2FFB2FEA5EF44F50800FE050220EE05016A1F0452D542F2A2F3B2F220F9A
:203EE000331F082F112744E00E94EF88200F311F2E5F3F4F022F132F452F0E94255611967F
:203F0000FFFFFFFFFFFFFFFF09F02DC60091150B0E94D087802F7090220B09EF700E882316
:203F200009F021C6AA27BB27072D1127A017B10708F019C6EA2FFB2F349708F014C6EA2F43
:203F4000FB2FEA5EF44F508056945694569456940EE05016A1F0452D542F2A2F3B2F220F66
:203F6000331F082F112744E00E94EF88200F311F2F5F3F4F022F132F452F0E942556EA2F8B
:203F8000FB2FEA5EF44F50800FE050220EE05016A1F0452D542F2A2F3B2F220F331F082FE4
:203FA000112744E00E94EF88200F311F2E5F3F4F022F132F452F0E9425561196B5CF009132
:203FC000150B0335C1F40091180B0434A1F44091170B0091160B0E947C880093810310934E
:203FE000820340911A0B0091190B0E947C880093830310938403B7C50091150B013309F04E
:20400000FFFFFFFFFFFFFFFFFFFF013441F400917F0B023021F4DC9A01E00093850309E083
:2040200016E00E94D8540C3491F400917F0B013071F400919A0B04FF04C000919A0B03FF11
:2040400006C0DC980091400B04600093400B00917F0B0230B1F40E94F44F0FE116E00E94A9
:20406000D854013371F404E416E00E94D854013341F4009197040D7F0093970400270E94B7
:20408000347E71C50091150B005509F06CC500914007033729F000914007053709F063C5A8
:2040A0000091160B0F3609F05EC50091170B043409F059C50091180B013361F541E002E4A6
:2040C00016E00E94A6540FE016E00E94D8540E94D0870295007F045F802F44E5082F1127E2
:2040E000000F111F000F111F0E94A6540FE016E00E94D8540E94D0870295007F065F802FD0
:20410000FFFFFFFFFFFFFFFFFFFF000F111F0E94A65429C5442702E416E00E94A6540FE00E
:2041200016E00E94D8540E94D0870295007F065F802F44E5082F1127000F111F000F111F82
:204140000E94A6540FE016E00E94D8540E94D0870295007F045F802F4EE4082F1127000F3F
:20416000111F000F111F0E94A654FDC40091150B013321F401E00093950BF5C400270093F2
:20418000950BF1C40091150B0234B9F40091180B013381F40091170B0E94D087A02F0091CD
:2041A000160B0E94D0874AE00E94BD88A00FA093930B03C00FEF0093930B0091150B023679
:2041C000B9F40091180B013381F40091170B0E94D087A02F0091160B0E94D0874AE00E94E3
:2041E000BD88A00FA093940BBEC40FEF0093940BBAC4F8940091150B003319F400270E9483
:20420000FFFFFFFFFFFFFFFF19F401E00E94DD837894A9C40091150B083479F50091160B30
:20422000003381F444270CE116E00E94A65400914F04002339F00091900B002319F401E07F
:204240000E94B87C0091160B013361F441E00CE116E00E94A65400914F04002319F002E0BB
:204260000E94B87C0091160B023339F400914F04002319F401E00093900B0091150B083642
:20428000D1F40091630B0330B0F00091160B003339F400919A0B0F7E00939A0B0E94347D27
:2042A0000091160B013339F400919A0B006100939A0B0E94347D0C946529F8940091150B5E
:2042C000003359F500919B0B026000939B0B0EE00E94F954802F877F482F0EE00E94E054BE
:2042E000009140070035C9F402E10E94987E0023A1F40E941B5502E0009323070DE400936C
:20430000FFFFFFFFFFFFFFFF03E000933F0700919404006200939404559A0091150B01335F
:2043200009F044C000919B0B0D7F00939B0B0EE00E94F954802F8860482F0EE00E94E054D5
:2043400000914007003591F502E10E94987E0023A9F00E941B5502E0009323070DE400933E
:20436000240702E30093250703E000933F0700919404006200939404559A18C000914F0451
:204380000023A1F00E941B5502E0009323070DE40093240701E30093250703E000933F07AA
:2043A00000919404006200939404559A78948DC70091150B003309F4DC9A0091150B0133BC
:2043C00009F4DC9882C70091170B0E94D087A02FBB270091160B0E94D08711274AE050E089
:2043E0000E94DF88A00FB11F51970CF06EC70091150B0E94D087073008F067C70091170B62
:20440000FFFFFFFFFFFFFFFF0091160B0E94D08711274AE050E00E94DF88400E511E009110
:20442000150B0E94D087112744E00E94EF88400E511E0091180B0E94D087802FA42DB52D22
:2044400000914007003519F08B3009F485E0442D552D4150504000270E949988043579F485
:20446000042D152D45E050E00E94DF88E02FF12FE252F84F008106FF02C08823F9F102E4FE
:2044800016E00E94D8540023A1F100914007033721F000914007053761F50091150B11272D
:2044A0000F5F1F4F20916F0733270217130709F50091170B0E94D087802E99240091160BA5
:2044C0000E94D08711274AE050E00E94DF88800E911E0BE0801600E0900659F40091150B16
:2044E0000E94D087112744E00E94EF88A02FB12F1D96482F0A2F1B2F0E94255603E7401695
:20450000FFFFFFFFFFFFFFFF042D152D45E050E00E94DF88E02FF12FE552F84FA083AA2731
:20452000042D152D45E050E00E94DF88E02FF12FE652F84FA083442D552D4150504000279E
:204540000E949988043561F0AA27042D152D45E050E00E94DF88E02FF12FE252F84FA0839F
:20456000B4C64427002711270E942556AA27BB27A33700E0B007A0F5442455240A2F1B2FBD
:2045800045E050E00E94DF88E02FF12FEF51F84F4082518244240A2F1B2F45E050E00E9490
:2045A000DF88E02FF12FED51F84F408244240A2F1B2F45E050E00E94DF88E02FF12FE15273
:2045C000F84F408244240A2F1B2F45E050E00E94DF88E02FF12FE052F84F40821196C8CFE1
:2045E000009197040E7F00939704009197040B7F00939704009197040D7F00939704009179
:20460000FFFFFFFFFFFFFFFF00270E94347E009140070C3421F0009140070C3609F4DE9A6F
:20462000442700270E94197A41E000270E94197A00270093530A00270093540400270E9444
:20464000B87C00270093D907002711270093D0071093D1070E944C730E943E8200270093CB
:20466000DC07002711270093D5071093D6070027112722273327ECEEFAE000831183228397
:2046800033830027112722273327ECEEFAE004831583268337830027112722273327ECEE50
:2046A000FAE000871187228733870027112722273327ECEEFAE0048715872687378700272F
:2046C000112722273327ECEFFAE000831183228333830027112722273327ECEFFAE004839A
:2046E0001583268337830027112722273327ECEFFAE00087118722873387002711272227DE
:20470000FFFFFFFFFFFFFFFF158726873787002700937E0B0FEF1FEF00939C0710939D07CE
:204720000FEF1FEF0093A0071093A1070FEF1FEF00939603109397030FEF0093200301E0DE
:204740000093DE0700270093DD07002711270093D7071093D807B9C50E941B5502E00093EC
:20476000230704E6009324070091150B009325070091160B009326070091170B0093270711
:2047800005E000933F0700919404006200939404559A9BC50091150B005319F0015071F097
:2047A00094C500919B0B016000939B0B442700270E94197A002700934F0A87C500919B0B72
:2047C0000E7F00939B0B00919A0B04FF09C000919A0B03FD05C0442702E00E94197A04C0D0
:2047E000442701E00E94197A002700934F0A6DC50091150B013349F40091970401600093B1
:20480000FFFFFFFFFFFFFFFF60C5009197040E7F0093970400270E94347E57C50091400725
:204820000C3421F0009140070C3659F40091150B025339F40091160B013311F4DE9845C522
:20484000DE9A43C50091630B033008F4A2C0AA270091220B0A3040F00091180B0E94D087A2
:2048600001FF02C0A1E001C0AA270091160B013341F50091220B093020F100915404002333
:2048800019F00027009354040091150B0E94D0870E94E9780091560A01600093560AAA233E
:2048A00039F0DC980091560A02600093560A01C0DC9A0091170B0093330301E000933403B7
:2048C00004C50091150B0E94D0870093570A0091570A0023B9F10091560A0E7F0093560A41
:2048E0000091560A0D7F0093560A0091560A04600093560A0027009333030027009334031F
:20490000FFFFFFFFFFFFFFFF08600093560A05C00091560A077F0093560A0091560A00FD27
:20492000D4C400915404002319F00027009354040091570A0E94E978AA2311F0DC98C5C4F8
:20494000DC9AC3C40091560A0B7F0093560A0091560A077F0093560A0091560A00FDB5C41B
:2049600000915404002319F000270093540400270E94E978DC9A00914F04002321F40091C3
:204980004E04002329F00091800B002309F0DC989CC4002700935404002700933303002754
:2049A000009334030091150B0633C9F401E00093530A00914F04002321F400914E04002393
:2049C00039F00FEF1FEF0093540A1093550A10C00091150B0E94D0870E94E97809C0002742
:2049E0000093530A0091150B0E94D0870E94E9780091160B013359F40091220B093038F0C8
:204A0000FFFFFFFFFFFFFFFF01E0009334035DC40091150B0D5489F00650E9F40091160B62
:204A20000B5219F0025029F050C401E00E94F87A4CC400270E94F87A48C40091160B0B5236
:204A400019F0025029F041C401E00E946C7B3DC400270E946C7B39C40CE116E00E94D85414
:204A60000023B1F541E00CE116E00E94A65400914007033781F000914007003561F000915B
:204A800040070E3641F0009140070F3621F0009140070734A9F4AA27BB27A33700E0B00758
:204AA00078F40A2F1B2F0E94D147002339F041E00A2F1B2F0F5F1F4F0E9425561196EDCF01
:204AC00000914F040023E9F102E00E94B87C39C00091900B0023A9F544270CE116E00E9467
:204AE000A65400914007033781F000914007003561F0009140070E3641F0009140070F3671
:204B0000FFFFFFFFFFFFFFFFA9F4AA27BB27A33700E0B00778F40A2F1B2F0E94D147002310
:204B200039F044270A2F1B2F0F5F1F4F0E9425561196EDCF00914F04002319F001E00E946F
:204B4000B87C04E316E00E94D854013361F400914E04002341F0442700270E94197A00915E
:204B6000400B0E94C27AB1C34091130B0091120B0E947C8820918A0330918B030217130795
:204B800009F0A3C34091150B0091140B0E94D44F802F813508F499C38B3608F096C30091F0
:204BA000160B005321F0015009F452C0CEC0082F0155802FE82FFF27E35BFC4F00810E7F72
:204BC000008300270093960BAA27BB27EA2FFB2F3A9768F4EA2FFB2FE35BFC4F008100FF88
:204BE00004C001E00093960B02C01196EFCFAA27BB27A33700E0B00750F50A2F1B2F000FBA
:204C0000FFFFFFFFFFFFFFFFD8540356F1F4482F43950A2F1B2F0E947047012BB1F0E82F23
:204C2000FF27E35BFC4F008101FF08C045E00A2F1B2F0F5F1F4F0E94255607C044270A2F70
:204C40001B2F0F5F1F4F0E9425561196D2CF7DC0082F0155802FE82FFF27E35BFC4F008109
:204C6000016000838A3008F043C00091960B0023E1F50091970403FF38C0AA27BB27A337BD
:204C800000E0B00738F50A2F1B2F000F111F000F111F0E94D8540435D9F40A2F1B2F45E0D3
:204CA00050E00E94DF88E02FF12FED51F84F00810068008301E00A9342E00A2F1B2F0E94D6
:204CC000DC8000270A9342E00A2F1B2F0E94DC801196D5CF002700930E0B0E94168200FBBE
:204CE0000091970403F90093970401E00093960BAA27BB27A33700E0B00738F50A2F1B2F75
:204D0000FFFFFFFFFFFFFFFF0E94D8540356D9F4482F43950A2F1B2F0E947047012B99F0C7
:204D200000914007093641F443E00A2F1B2F0F5F1F4F0E94255607C041E00A2F1B2F0F5FAF
:204D40001F4F0E9425561196D5CF00270A9300270A93442701E50E94A273B7C24091130B85
:204D60000091120B0E947C8820918A0330918B030217130709F0A9C24091180B0091170B14
:204D80000E94D44FA02FAB3508F463C0AB3608F060C00091140B033509F05BC00091160BD9
:204DA0000E94D087B02F0091150B0E94D0874AE00E94BD88B00F442408E0401608F049C0FA
:204DC000242D3327205030400A2F11270150104043E00E94EF88085E184F200F311F022F7D
:204DE000132F0E94D8540F3FA1F1242D3327205030400A2F11270150104043E00E94EF88EA
:204E0000FFFFFFFFFFFFFFFFFFFF132F0E94D8540B17E9F401E0442D0E94C7881091190B85
:204E2000103349F4EA2FFF27E45FFC4F102F10952081212320831091190B113351F4EA2F52
:204E4000FF27E45FFC4F1081102B108302C04394B3CF00270A9300270A93442701E50E94A9
:204E6000A27333C24091130B0091120B0E947C8820918A0330918B030217130759F40027B1
:204E80000A9300270A93442701E50E94A27301E0009395031AC20091120B1091D80A011778
:204EA00091F50091130B1091D90A011761F50091D907013349F0002711270093D007109381
:204EC000D10700270093D9070091DC07013349F0002711270093D5071093D6070027009377
:204EE000DC070091DE07002371F0002711270093D7071093D80700270093DD070091DE076F
:204F0000FFFFFFFFFFFFFFFF900B002339F000914F04002319F400270093900BD6C1009121
:204F20004007043529F000914007043409F0CDC10091120B1091D80A011709F0C6C10091E7
:204F4000130B1091D90A011709F0BFC10091D907013319F000270093D90700270A930027EB
:204F60000A93442701E50E94A2730091150B045421F1015009F4C8C0015019F0065079F082
:204F8000A4C10091220B1127075010401A930A9346E15BE00AEE13E00E94D78A96C100918D
:204FA000220B1127075010401A930A9346E15BE00AEE13E00E94D78A88C10091160B007FD1
:204FC00002950F70005D00933B040091160B0F70005D00933C040EE200933D040091170BB4
:204FE000007F02950F70005D00933E040091170B0F70005D00933F040EE20093400400912D
:20500000FFFFFFFFFFFFFFFFFFFF009341040091180B0F70005D0093420400E2009343049D
:2050200000E2009344040091190B007F02950F70005D009345040091190B0F70005D00930C
:2050400046040AE30093470400911A0B007F02950F70005D0093480400911A0B0F70005D22
:20506000009349040AE300934A0400911B0B007F02950F70005D00934B0400911B0B0F70C1
:20508000005D00934C04002700934D0400917004109171040F36104071F00091700410910E
:2050A00071040937104039F000917004109171040338104041F5E0E7F4E0008111810F5FCA
:2050C0001F4F0083118301E00E94168807E00E94168800270A930AEE13E01A930A9341E0E9
:2050E00001E00E94EF7600270A930BE314E01A930A9342E001E00E94EF760FE00093440305
:20510000FFFFFFFFFFFFFFFFE0E7F4E0008111810F5F1F4F0083118300270A930DEC15E044
:2051200022270E94C0801A930A9341E001E00E94EF7600270A930FEF16E022270E94C0800E
:205140001A930A9342E001E00E94EF76BEC00091120B1091D80A011701F50091130B1091EE
:20516000D90A0117D1F400270A9300270A93442701E50E94A27303E110E01A930A934FE092
:205180005BE003EC1AE00E943F8A00270A9300270A9344270DE60E94A27397C0442402E43E
:2051A0001BE00E94CB8A242D33272017310708F08CC0E42DFF27EE5BF44F008110910F0BA0
:2051C000011709F080C000270A9300270A9341E001E50E94A2730091140B013321F00091B2
:2051E0000F0B093631F500910F0B00938D030091100B00938E030091110B00938F0300912F
:20520000FFFFFFFFFFFFFFFF130B009391030091140B009392030091150B0093930300910E
:20522000160B009394035BD6802F082F0E94F9454CC000910F0B10918D030117F1F40091B6
:20524000100B10918E030117C1F40091110B10918F03011791F40091120B109190030117BD
:2052600061F40091130B10919103011731F40091150B10919303011741F100910F0B009348
:205280008D030091100B00938E030091110B00938F030091120B009390030091130B0093C6
:2052A00091030091140B009392030091150B009393030091160B0093940311D6802F082FFF
:2052C0000E94F94502C043946ACF0091DE07002309F47EC00091D907002309F079C00091F1
:2052E000DC07002309F074C00091D7071091D807012B09F06DC00091DE07E0E4F2E00C948E
:20530000FFFFFFFFFFFFFFFF8E0B00E30A9300918E0B0A9344E506E50E94A27308EE13E001
:205320000093D7071093D8073BC000E30A9300E30A9348E406E50E94A27308EE13E0009335
:20534000D7071093D8072CC00091630B033040F500E30A9300E30A9342E500E50E94A273D7
:2053600008EE13E00093D7071093D80719C00091630B0330A8F000E30A9300E30A9348E680
:2053800006E50E94A27308EE13E00093D7071093D80706C000270093DD0700270093DE078C
:2053A0000091DD070F5F0093DD070091DD07033078F000270093DD070091DE070F5F00936E
:2053C000DE070091DE07063018F000270093DE07009140070E3609F076C000914E04002344
:2053E000E1F000912303002399F50E941B5502E00093230708E40093240701E30093250776
:20540000FFFFFFFFFFFFFFFFFFFF006200939404559A01E0009323031BC0009123030023CB
:20542000B9F00E941B5502E00093230708E40093240700E30093250703E000933F07009179
:205440009404006200939404559A0027009323030091510A0023E1F000912403002399F50F
:205460000E941B5502E00093230702E40093240701E30093250703E000933F07009194044F
:20548000006200939404559A01E0009324031BC0009124030023B9F00E941B5502E000930F
:2054A000230702E40093240700E30093250703E000933F0700919404006200939404559A1B
:2054C00000270093240300914007003509F08AC000918E0B023008F485C000914F040023F7
:2054E00009F1009125030023C1F502E10E94987E002399F50E941B5502E0009323070DE432
:20550000FFFFFFFFFFFFFFFF250703E000933F0700919404006200939404559A01E0009392
:2055200025031BC0009125030023B9F00E941B5502E0009323070DE40093240700E300930D
:20554000250703E000933F0700919404006200939404559A00270093250300914E040023D6
:2055600041F0009123030023E9F501E00093230339C0009123030023A9F10E941B5502E047
:205580000093230704E70093240703E50093250700E70093260705E60093270701E6009331
:2055A00028070BE60093290705E600932A0702E700932B0700E200932C070FE600932D0747
:2055C00006E600932E0706E600932F070DE000933F0700919404006200939404559A0027D0
:2055E0000093230300914F0A0023B1F480E300914F04002309F0816000914E04002309F0FD
:20560000FFFFFFFFFFFFFFFF0A93482F01E40E94A27303E000934F0A00918D0B002319F0BE
:20562000002700938D0B0091580A002309F01BC104E10093580A0E944146009140070956F3
:2056400091F00A50D9F400918C03043038F0009B05C041E00DE00E944C7E10C044270DE024
:205660000E944C7E0BC0B69B05C041E00DE00E944C7E04C044270DE00E944C7E00919604B0
:2056800003FF1DC00091510A0023C9F4009134030023A9F40091970403FF11C000914F04F4
:2056A000002369F400914E04002349F406E00E94E97801E00093340303E000933303009156
:2056C0009A0B00FFB5C000919A0B04FF24C000919A0B01FD20C000914F040023E1F4009113
:2056E0004E040023C1F400919A0B026000939A0B07E416E00E94D854A02FBB2706E416E070
:20570000FFFFFFFFFFFFFFFF0027A00FB11FA093980BB093990B00919A0B04FD0AC000919C
:205720009A0B01FF06C00FEF1FEF0093980B1093990B00914F04002321F400914E04002353
:2057400051F000919A0B02FD06C00FEF1FEF0093980B1093990B00919A0B04FF34C00091C6
:205760004F040023D9F400914E040023B9F400919A0B02FF13C007E416E00E94D854A02FAB
:20578000BB2706E416E00E94D8541127102F0027A00FB11FA093980BB093990B0091980B6B
:2057A0001091990B012B79F400919A0B03FD0BC041E006E10E944C7E00919A0B0860009365
:2057C0009A0B0E94347D00919A0B04FD0FC000919A0B03FF0BC0442706E10E944C7E009179
:2057E0009A0B077F00939A0B0E94347D00914F04002321F400914E04002331F000919A0B7A
:20580000FFFFFFFFFFFFFFFF00919A0B0B7F00939A0B00919A0B04FF06C000919A0B026001
:2058200000939A0B05C000919A0B0D7F00939A0B0091540A1091550A012BA9F400914F04D5
:20584000002389F400914E04002369F40FEF1FEF0093540A1093550A0091530A002319F02C
:2058600006E00E94E97800919A0B05FF07C00E94347D00919A0B0F7D00939A0B0091970BBE
:205880000023D9F40091520A0023B9F400914007E0E5F2E00C9485890091310310913203A3
:2058A000012B59F404E610E000933103109332030E943C5C02C00E943C5C0091620B00239F
:2058C000A9F400914007003521F0009140070E3669F4A99A0AEF10E00E948E880E941B559E
:2058E0000AB10F710AB9002700933E0B0091500A002349F400914F04002329F40E94594FEE
:20590000FFFFFFFFFFFFFFFFFFFF002331F400919C03002311F40E941A4E002700939C038E
:20592000CAC000913603002309F072C000914007003549F0009140070E3629F044270027B8
:2059400011270E942556992311F491E001C099270AE000933603992371F50091400700355A
:2059600049F0009140070E3629F041E001E010E00E942556009140070F3641F00091400784
:20598000053521F000914007073429F441E003E010E00E94255600914007093611F41A9AAB
:2059A0001B9800914007033799F541E001E710E00E9425562DC000914007003549F00091BA
:2059C00040070E3629F041E002E010E00E942556009140070F3641F000914007053521F0A2
:2059E00000914007073429F441E004E010E00E94255600914007093611F41B9A1A98009151
:205A0000FFFFFFFFFFFFFFFF02E710E00E94255600914F0A002371F400270A9300270A939E
:205A200004E00E94E487402F01E40E94A27303E000934F0A0091950407FF27C00E94C37EA1
:205A400000910F0B0A5709F50091120B1091D80A0117D9F40091130B1091D90A011721F0CA
:205A60000091130B0F3389F40091140B013329F4009194040160009394040E941B550AB135
:205A80000F710AB9002700933E0B00914007043521F000914007043471F4009131031091C3
:205AA0003203012B41F404E610E000933103109332030E94EE720E943E5BA8950091460383
:205AC000002309F044C0F89404E10E94F954789407FD37C000918003033368F100913E0BC2
:205AE00004300E941B550AB10F710AB98827009140070F3649F40E949D7F00938E0B0091DE
:205B0000FFFFFFFFFFFFFFFF00914007073409F481E0882361F0F8940EE00E94F954402E49
:205B20000CEF4022442D0EE00E94E0547894002700933E0B09C0009180030F5F0093800363
:205B400003C000270093800304E6009346030091950404FF05C0009195040F7E00939504AA
:205B60000091950405FF05C0009195040F7D009395040091950406FF05C0009195040F7BA8
:205B8000009395040E94D24D0091DE07002309F047C10091D907002309F042C10091DC077A
:205BA000002309F03DC100913E0B043029F000913E0B073009F034C1AA27BB27EA2FFB2FAF
:205BC000349708F02DC1EA2FFB2FEE0FFF1FEE0FFF1FE450F54F4081518162817381EA2FA0
:205BE000FB2FEE0FFF1FEE0FFF1FE451F54F0081118122813381401751076207730709F4D3
:205C0000FFFFFFFFFFFFFFFFFF1FEE0FFF1FE450F54F0081118122813381EA2FFB2FEE0F31
:205C2000FF1FEE0FFF1FE451F54F40815181628173810427152726273727EAE3F3E0008313
:205C400011832283338301E010E020E030E0EEE3F3E000831183228333838827803230F5D8
:205C6000EAE3F3E00081118122813381EEE3F3E0408151816281738104231523262337230A
:205C8000012B022B032B91F4EEE3F3E00081118122813381000F111F221F331FEEE3F3E074
:205CA00000831183228333838395D8CFEA2FFB2FEE0FFF1FEE0FFF1FE451F54F00811181AE
:205CC00022813381EEE3F3E040815181628173810423152326233723012B022B032B09F1DC
:205CE000EA2FFB2FEE0FFF1FEE0FFF1FE450F54F4E2F5F2FEEE3F3E000811181228133819A
:205D0000FFFFFFFFFFFFFFFF62817381402B512B622B732B408351836283738301E3C02E5E
:205D200024C0EA2FFB2FEE0FFF1FEE0FFF1FE450F54F4E2F5F2FEEE3F3E000811181228129
:205D400033810095109520953095E42FF52F40815181628173814023512362237323408385
:205D600051836283738300E3C02E0A2F45E00E94C788602E680E01E30093DC070A2F1B2F73
:205D800045E00E94EF88282F3327020F131F0533104021F4442705E30E944C7E0A2F1B2FF2
:205DA00045E00E94EF88282F3327020F131F0633104021F4442706E30E944C7E0A2F1B2FD0
:205DC00045E00E94EF88282F3327020F131F0933104031F5442709E30E944C7E21C00A2F02
:205DE0000B2B21F4442700E10E944C7EEA2FFB2F3197A1F4442703E30E944C7E442704E3F1
:205E0000FFFFFFFFFFFFFFFF0E944C7E442708E30E944C7E44270AE30E944C7E1196CECE55
:205E20000091D5071091D607012B11F50091DC070023F1F00091DC070433B8F40CE310E097
:205E40000E948E8800E30A93CA92462D05E60E94A27308EE13E00093D5071093D607009130
:205E6000DC070F5F0093DC0703C000270093DC070091D0071091D107012B59F50091D20736
:205E8000002339F50091D907002319F10091D9070433E0F40CE310E00E948E880091DB078D
:205EA0000A930091DA070A934091D907009170070E94A27308EE13E00093D0071093D107F8
:205EC0000091D9070F5F0093D90703C000270093D9070C94BD032B96EDE00C94158A0E9444
:205EE000ED896897AA270FEFF02E0FEF802E0FEF902E00270A8300270B8300910F0B098338
:205F0000FFFFFFFFFFFFFFFF0E947C88802F912F4091130B0091120B0E947C88602E712E04
:205F2000A090150B0981083579F400918103109182030F3F1F4F41F080918103909182037A
:205F400060908303709084030981083779F40091A2071091A3070F3F1F4F41F08091A207E2
:205F60009091A3076090A4077090A5070091220B0A30A9F40091160B0E94D087B02FB295A9
:205F8000B07F0091170B0E94D0874AE00E94BD88B00F0091180B0E94D087B00F01C0BFEF7B
:205FA00000918A0310918B038017910759F44EEF0EEF0E947C882091980330919903021776
:205FC000130759F000919803109199038017910739F400919503002319F001E0088302C016
:205FE000002708830981ECE6F2E00C94858900917E0B0A1508F06FC20881002309F4A0C0A8
:20600000FFFFFFFFFFFFFFFF00937E0310937F030FEF1FE20093820B1093830B0027009345
:2060200095034424552403E7401600E0500608F062C0042D152D000F111F000F111F0E94C4
:20604000D854045521F1035009F051C0462D572D042D152D0E944647012BC1F0042D152D63
:2060600045E050E00E94DF88E02FF12FED51F84F00810268008300917D030023C1F501E0D5
:206080000A9342E0042D152D0E94DC8030C00091950B002361F50091960B002341F5098121
:2060A0000735D1F0042D152D45E050E00E94DF88E02FF12FED51F84F008100680083042DC1
:2060C000152D45E050E00E94DF88E02FF12FED51F84F00810160008300917D03002339F4A6
:2060E00001E00A9342E0042D152D0E94DC800FEF401A500A98CF09810735C9F4A1604A2D7B
:20610000FFFFFFFFFFFFFFFF0FE116E00E94D8540133A9F40091970401FB8EF4009197042C
:206120000D7F0093970400270E94347E6FC0A3606092A0077092A10701E000937F0B66C091
:2061400000919803109199038017910709F05EC04424552403E7401600E0500608F044C03D
:20616000042D152D000F111F000F111F0E94D8540455B1F00350A1F5462D572D042D152D13
:206180000E944647012B61F100917D03002341F501E00A9342E0042D152D0E94DC8020C0F7
:2061A0000091950B0023E1F40091960B0023C1F4042D152D45E050E00E94DF88E02FF12FAC
:2061C000ED51F84F00810068008300917D03002339F401E00A9342E0042D152D0E94DC805C
:2061E0000FEF401A500AB6CF0FE116E00E94D854013361F40091970401FB46F4009197049D
:20620000FFFFFFFFFFFFFFFF0E94347E00918A0310918B036016710641F0009198031091FA
:2062200099036016710609F09DC00091220B083061F40091160B043441F401E000939D0301
:2062400080939E0390939F0303C0002700939D03BF3F09F04CC04424552403E7401600E0A4
:20626000500608F05EC0042D152D000F111F000F111F0E94D854045519F10350A1F5482F30
:20628000592F042D152D0E941C47012B61F1042D152D45E050E00E94DF88E02FF12FED5142
:2062A000F84F00810168008300917D030023D9F401E00A9343E0042D152D0E94DC8013C044
:2062C0000091950B002379F40091960B002359F400917D03002339F401E00A9343E0042D28
:2062E000152D0E94DC800FEF401A500AB6CFB33768F40B2F112745E050E00E94DF88E02F02
:20630000FFFFFFFFFFFFFFFF0168008300917D03002339F401E00A9343E00B2F11270E9483
:20632000DC800981073519F4A260A06106C0A36002E000937F0B01E00B8380939C0790931B
:206340009D0703E5009342030FE116E00E94D854013341F40091970402600093970401E01F
:206360000E94347EAA2309F4B6C00091630B0330C0F00091220B0930A0F0A1FF0FC0009120
:20638000170B0E94D08701FF05C001E00093800BA46007C000270093800B03C00027009391
:2063A000800BA0927E0B00918103109182030093A2071093A3070091830310918403009301
:2063C000A4071093A5070A2D0E948E7F00919A0310919B030F3F1F4F09F47BC0442455249B
:2063E00003E7401600E0500608F067C0042D152D000F111F000F111F0E94D854073529F5EF
:20640000FFFFFFFFFFFFFFFF042D152D0E941C47012BD1F0042D152D45E050E00E94DF884E
:20642000E02FF12FED51F84F00810E7F0083042D152D45E050E00E94DF88E02FF12FED51D9
:20644000F84F00810068008334C0042D152D000F111F000F111F0E94D854073451F501E173
:2064600016E00E94D854013321F54091960350919703042D152D0E941C47012BD1F0042D93
:20648000152D45E050E00E94DF88E02FF12FED51F84F00810E7F0083042D152D45E050E04F
:2064A0000E94DF88E02FF12FED51F84F0081006800830FEF401A500A93CF0FEF1FEF009300
:2064C0009603109397030FEF1FEF00939A0310939B03A1FFA062AA23B1F54424552403E789
:2064E000401600E0500678F5042D152D0E94A147002329F1482F592F042D152D0E941C47F2
:20650000FFFFFFFFFFFFFFFF042D152D0E944647012BA9F001E216E00E94D854013321F42C
:206520000A2D0E9437480FC000E116E00E94D854043549F04A2D042D152D0E94E9470FEF63
:20654000401A500ACCCF0881002369F00091D907013349F0002711270093D0071093D107C5
:2065600000270093D907002700937D030C94874500917E0B0A1508F035C20881002309F40A
:2065800040C00027009395034424552403E7401600E0500618F5042D152D000F111F000F84
:2065A000111F0E94D8540057A9F4462D572D042D152D0E944647012B69F0042D152D45E033
:2065C00050E00E94DF88E02FF12FED51F84F0081026800830FEF401A500AD8CF0FE116E021
:2065E0000E94D854013361F40091970401FB46F4009197040D7F0093970400270E94347E81
:20660000FFFFFFFFFFFFFFFF09F05FC10091130B0E94D087B02F0091120B0E94D0874AE011
:206620000E94BD88B00FBA95B33608F04EC10B2F1127000F111F005B194F0F5F1F4F0E9483
:20664000D85402FF42C1DD2400919603109197030F3F1F4F09F468C0909096030FEF90225A
:206660000091960310919703012F11274AE00E94BD88900E0FEF900E092D112743E00E94CF
:20668000EF88085E184F0E94D8540F3F09F44CC044245524E42DF52D389708F045C0222768
:2066A0003327240D351D092D112743E00E94EF88085E184F200F311F022F132F0E94D854C6
:2066C0000F3F91F122273327240D351D092D112743E00E94EF88085E184F200F311F022F9D
:2066E000132F0E94D854C02ECA9401E0B02E882408E08016A8F40C2D1127000F111F005BAE
:20670000FFFFFFFFFFFFFFFF002339F04427082D11270F5F1F4F0E942556BB0C8394E8CFCF
:206720000FEF401A500AB6CF00270093610B0B2F1127000F111F005B194F0F5F1F4F0E940A
:20674000D85400FD95C0A2600CE40093420300270093430344245524E42DF52D799708F0D5
:2067600078C0E42DF52DEB59F44F0081013009F06CC0882403E0801608F067C0082D11279F
:206780000D5F1F4F1A930A93042D152D49E050E00E94DF880858154F29913991200F311F39
:2067A000022F132F0E94D854202F33270B2F11270F5F1F4F2017310709F045C0042D152DC1
:2067C00049E050E00E94DF880858154F0E5F1F4F0E94D854D016B8F5042D152D49E050E08B
:2067E0000E94DF880858154F0E5F1F4F0E94D8540A1530F1042D152D49E050E00E94DF880E
:20680000FFFFFFFFFFFFFFFFFFFFD854D02E082D11270A5F1F4F1A930A93042D152D49E02E
:2068200050E00E94DF880858154F29913991200F311F022F132F0E94D8540093430303C07B
:20684000002700934303839495CF0FEF401A500A83CF0B2F1127000F111F005B194F0F5FD7
:206860001F4F0E94D85401FF03C001E00093610B01E0B02E882408E08016A8F40B2F112742
:20688000000F111F005B194F0E94D8540B21002339F041E0082D11270F5F1F4F0E94255629
:2068A000BB0C8394E8CF0FE116E00E94D854013341F40091970402600093970401E00E94E7
:2068C000347E80939C0790939D07AA2309F48AC0A0927E0B0A2D0E948E7F00919A03109105
:2068E0009B030F3F1F4F09F47BC04424552403E7401600E0500608F067C0042D152D000F0E
:20690000FFFFFFFFFFFFFFFFD854073529F540919A0350919B03042D152D0E941C47012B68
:20692000D1F0042D152D45E050E00E94DF88E02FF12FED51F84F00810E7F0083042D152D0D
