:020000040800F2
:10000000200D00209D0100089D1A00081D19000800
:10001000991A000833070008292100080000000091
:10002000000000000000000000000000B51B0008F8
:100030005D070008000000009F1A0008B71B0008B9
:10004000B7010008B7010008B7010008B7010008B0
:10005000B7010008B7010008B7010008B7010008A0
:10006000B7010008B7010008B7010008B701000890
:10007000B7010008B7010008B7010008B701000880
:10008000B7010008B7010008B7010008B701000870
:10009000B7010008B7010008B7010008B701000860
:1000A000B7010008B7010008B7010008B701000850
:1000B000B7010008B7010008B7010008B701000840
:1000C000B7010008B7010008B7010008B701000830
:1000D000B7010008B7010008B7010008B701000820
:1000E000B7010008B7010008B7010008B701000810
:1000F000B7010008B7010008B7010008B701000800
:10010000B7010008B7010008B7010008B7010008EF
:10011000B7010008B7010008B7010008B7010008DF
:10012000B7010008B7010008B7010008B7010008CF
:10013000B7010008B7010008B7010008B7010008BF
:10014000B7010008B7010008B7010008B7010008AF
:10015000B7010008B7010008B7010008B70100089F
:10016000B7010008B7010008B7010008B70100088F
:10017000B7010008B7010008B7010008000000003F
:10018000B7010008B7010008DFF80CD000F050FA02
:1001900000480047D9300008200D0020064880475D
:1001A00006480047FEE7FEE7FEE7FEE7FEE7FEE75C
:1001B000FEE7FEE7FEE7FEE7791C0008890100087C
:1001C0002DE9F05F0546002092469B46884606468C
:1001D000814640241BE0284641464746224600F01F
:1001E0005EF853465A46C01A914110D3114618463C
:1001F000224600F045F82D1A67EB01084F462246CB
:100200000120002100F03CF817EB00094E41201EB0
:10021000A4F10104DFDC484631462A464346BDE8E6
:10022000F09FD2B201E000F8012B491EFBD27047CB
:100230000022F6E710B513460A4604461946FFF7B2
:10024000F0FF204610BD421C10F8011B0029FBD115
:10025000801A704730B50B46014600202022012449
:1002600009E021FA02F59D4205D303FA02F5491B84
:1002700004FA02F52844151EA2F10102F1DC30BD9A
:10028000202A04DB203A00FA02F100207047914056
:10029000C2F1200320FA03F3194390407047202A4B
:1002A00004DB203A21FA02F00021704721FA02F320
:1002B000D040C2F1200291400843194670472DE911
:1002C000FE4F804681EA0300C00F0C46009021F0EB
:1002D000004123F00045B8EB0200A94105D2404699
:1002E000214690461C460B46024623F00040104330
:1002F00047D0270DC7F30A00C3F30A510290401AF2
:10030000019040286BDAC3F3130040F4801B00987F
:10031000924620B10023D2EB030A63EB0B0B01984A
:100320005946C0F140025046FFF7AAFF06460D4667
:1003300050465946019A00F08DF910EB08006141D2
:10034000002487EA115284EAE7731A4340D0009AE6
:1003500062B3019A012A4FEA075215DC001B61EBD8
:1003600002014FF0004202EA0752CDE90042001CB0
:1003700041F5801132462B4600F08DF903B0BDE8FF
:10038000F08F40462146F9E7001B61EB0201001C9B
:1003900041F5801300185B412018A2F5001747EBC8
:1003A000030140EAD570B6196D4111E06D084FEABE
:1003B000360645EAC0754FEA0752001B61EB0201A1
:1003C000001C41F5801149084FEA300000195141E5
:1003D00032462B4603B0BDE8F04F00F04DB900980F
:1003E000012240000023D0EB020263EBE07300988F
:1003F00021464FEAE074B8EB000061EB0401E9E745
:1004000083F000435BE781F0004158E72DE9FE4FA0
:1004100081EA030404F0004421F0004100944FF00D
:10042000000B23F0004350EA01045ED052EA0304BB
:100430005BD0C3F30A54C1F30A552C44A4F2F3343D
:100440000194A0FB0254C1F3130141F48011C3F3E2
:10045000130343F4801301FB024400FB034E840AA0
:10046000970A44EA815447EA8357A4FB0768029538
:100470008D0A05FB07854FEA932C04FB0C542705D6
:10048000029D4FEA065847EA1637B5EB08056EEBB2
:10049000070C870E920E47EA811742EA8312A7FBE8
:1004A0000201B6EB0B0164EB00042B0D43EA0C33A5
:1004B0005E1844EB1C50DA465146E7FB0201C5F3D7
:1004C00013044FEA0B3343EA14534FEA0432019CFE
:1004D00043EA0603A4F10C040294009CCDE900B4A5
:1004E00000F0D9F803B0BDE8F08F00200146F9E72D
:1004F0002DE9F04D81EA030404F0004B21F00045A2
:1005000014464FF0000A23F0004150EA050220D0C3
:1005100054EA01021DD0C5F30A570246C5F313037E
:10052000C1F31300C1F30A5640F4801543F480135D
:10053000A7EB0608101BD64608F2FD3873EB050042
:1005400002D308F1010801E092185B41B8F1000FF5
:1005500003DA00200146BDE8F08D00204FF4801141
:10056000064684460EE0171B73EB050705D3121BE6
:1005700063EB050306434CEA010C49084FEA3000DF
:1005800092185B4150EA0107EDD152EA030012D004
:1005900082EA040083EA0501084305D0101BAB4141
:1005A00006D20122002306E000224FF0004302E0C1
:1005B0006FF0010253101AEB06004CEB085110EBE0
:1005C0000A0041EB0B01BDE8F04D00F055B8C1F356
:1005D0000A52C1F3130140F2FF3341F480119A42F1
:1005E00002DA00200146704740F233439A42A2F2F9
:1005F000334202DC5242FFF752BEFFF741BE000019
:1006000030B5041E71F1000404DB4FF00044404299
:1006100064EB0101141E73F1000405DB1C464FF06E
:100620000043524263EB0403994208BF904230BD3D
:10063000064C074D06E0E06840F0010394E807002F
:1006400098471034AC42F6D3FFF7A2FD9C40000857
:10065000BC400008202A06DBCB17203A41FA02F002
:1006600043EAE07306E041FA02F3D040C2F120020F
:10067000914008431946704710B5141E73F10004E9
:1006800008DA401C41F1000192185B411A4301D184
:1006900020F0010010BD2DE9F04D92469B4611B1AE
:1006A000B1FA81F202E0B0FA80F220329046FFF710
:1006B000E7FD04460F4640EA0A0041EA0B015346B3
:1006C0005A46084313D0114653EA010019D0C8F125
:1006D00040025046FFF7E3FD05460E465046594698
:1006E0004246FFF7CDFD084305D0012004E0204637
:1006F0003946BDE8F08D0020054346EAE0762C43FC
:1007000037430A986305E40AA0EB08000022FD0ABB
:1007100044EA47540A3002D500200146E9E70105C2
:1007200010196941DDE9084500196941BDE8F04D3E
:10073000A2E700BFFEE7000010B50449044802F03C
:100740002DFF0449044802F03DFF10BD393B00086D
:100750007D3D0008CD3E0008593D000870477047B8
:1007600070B5044600F016F906462546681C10B11F
:1007700004480078054400BF00F00CF9801BA84233
:10078000FAD370BD70000020F8B502460B46002574
:10079000002400200021DCE0012606FA01F51E6895
:1007A00006EA0504AC4273D15E68012E08D05E688B
:1007B000022E05D05E68112E02D05E68122E13D173
:1007C00090684F000326BE40B0434F00DE68BE4035
:1007D00030439060506801268E40B0431E79C6F3C6
:1007E00000168E4030435060D0684F000326BE4054
:1007F000B0434F009E68BE403043D0605E68022E1A
:1008000002D05E68122E13D1CF0802F1200656F8EE
:1008100027004E07F70E0F26BE40B0434F07FF0ECE
:100820001E69BE403043CF0802F1200646F827007B
:1008300010684F000326BE40B0431E7906F0030641
:100840004F00BE40304310605E6806F08056B6F13F
:10085000805F7DD100BF00260096404E366846F48A
:1008600080463E4F3E603E46366806F4804600961F
:1008700000BF00BF3A4E8F0856F827008E07370F8B
:100880000F26BE40B043374EB24202D1002624E0CC
:100890005EE0354EB24201D101261EE0334EB24237
:1008A00001D1022619E0324EB24201D1032614E0F2
:1008B000304EB24201D104260FE02F4EB24201D198
:1008C00005260AE02D4EB24201D1062605E02C4E47
:1008D000B24201D1072600E008268F073F0FBE4035
:1008E00030431F4E8F0846F82700264E3068A0433D
:1008F0005E6806F48036B6F5803F00D12043214E75
:100900003060361D3068A0435E6806F40036B6F5E8
:10091000003F00D120431B4E361D3060361D30682D
:10092000A0435E6806F48016B6F5801F00D1204310
:10093000144E08363060361D3068A0435E6806F4F9
:100940000016B6F5001F00D120430E4E0C36306065
:10095000491C1029FFF420AFF8BD000044380240C4
:100960000838014000000240000402400008024034
:10097000000C024000100240001402400018024027
:10098000001C0240003C01400AB1816101E00B04FF
:1009900083617047014800687047000068000020CC
:1009A0000348006803490978084401490860704712
:1009B000680000207000002010B50D48006840F469
:1009C00000700B4908600846006840F480600860C9
:1009D0000846006840F480700860032000F092F838
:1009E000002000F007F800F02BF8002010BD0000F8
:1009F000003C024070B504460E4800784FF47A710E
:100A0000B1FBF0F00C490968B1FBF0F5284600F0A5
:100A100081FE08B1012070BD102C07D200222146B2
:100A2000501E00F031F80548046001E00120F2E7B3
:100A30000020F0E770000020740000206C0000200F
:100A400008B500BF002000900E48006840F48040C8
:100A50000C4908600846006800F48040009000BF20
:100A600000BF00BF00200090081F006840F08050C9
:100A7000091F08600846006800F08050009000BF21
:100A800000BF08BD443802402DE9F05F80460D46A6
:100A90001646002701F05EFC074639462A463346D3
:100AA00001F00700C0F1070ABAF1040F02D94FF0B4
:100AB000040A01E0C0F1070AD14600F1040ABAF1C4
:100AC000070F02D24FF0000A01E0A0F1030AD4465A
:100AD0004FF0010A0AFA09FAAAF1010A0AEA020A1F
:100AE0000AFA0CFA4FF0010B0BFA0CFBABF1010BFD
:100AF0000BEA030B4AEA0B042146404601F032FCA4
:100B0000BDE8F09F00BF00F00702064B19684FF6E2
:100B1000FF031940044B0B4343EA0221014B1960C8
:100B200000BF70470CED00E00000FA0570B5044608
:100B30000D460CB9012070BD5848006800F00F0048
:100B4000A84209D255490D700846006800F00F0010
:100B5000A84201D00120EEE7207800F00200022830
:100B60001DD1207800F00400042805D14C4800680D
:100B700040F4E0504A490860207800F00800082856
:100B800005D14748006840F4604045490860444842
:100B9000006820F0F000A16808434149086020780F
:100BA00000F00100A8B36068012807D13C4808386C
:100BB0000068C0F34040B8B90120BCE76068022873
:100BC00002D06068032807D1354808380068C0F3B0
:100BD000406048B90120AEE7314808380068C0F3EA
:100BE000400008B90120A6E72D48006820F0030066
:100BF000616808432A490860FFF7CCFE064609E011
:100C0000FFF7C8FE801B41F28831884202D90320D9
:100C100091E707E02248006800F00C006168B0EB43
:100C2000810FEDD11D48006800F00F00A84209D9DE
:100C30001A490D700846006800F00F00A84201D064
:100C4000012078E7207800F00400042807D1144838
:100C5000006820F4E050E1680843114908602078FA
:100C600000F00800082808D10D48006820F4604012
:100C7000216940EAC1000A49086000F03FF80849CC
:100C80000968C1F30311074A515CC840064908606E
:100C900006480068FFF7AEFE00204CE7003C02402B
:100CA0000838024082400008740000206C000020D8
:100CB00001480068704700007400002000B5FFF78D
:100CC000F7FF04490968C1F38221034A515CC84017
:100CD00000BD0000083802409240000800B5FFF750
:100CE000E7FF04490968C1F34231034A515CC84037
:100CF00000BD000008380240924000082DE9F0478E
:100D0000002400250026A1462548006800F00C00BC
:100D100020B1042805D008283AD105E0DFF88490F6
:100D200039E0DFF8849036E01D48001F006800F0CD
:100D30003F041B48001F006800F4800078B11A4887
:100D40001749091F0968C1F38811A0FB017001460A
:100D5000224600233846FFF733FA05460EE01148D5
:100D60000F49091F0968C1F38811A0FB01700146F2
:100D7000224600233846FFF723FA05460848001F9D
:100D80000068C0F30140401C4600B5FBF6F902E0E4
:100D9000DFF8109000BF00BF4846BDE8F0870000B4
:100DA000083802400024F40040787D01F8B504467C
:100DB0000CB90120F8BD207800F00100002874D0A3
:100DC000F948006800F00C0004280DD0F6480068CF
:100DD00000F00C00082813D1F348001F006800F44D
:100DE0008000B0F5800F0BD1EF4808380068C0F3E1
:100DF0004040002859D06068002856D10120D9E72A
:100E000000BF6068B0F5803F08D1E7480838006847
:100E100040F48030E449083908601EE06068B0F5AD
:100E2000A02F0DD1E0480838006840F48020DE494A
:100E3000083908600846006840F4803008600CE01B
:100E4000D9480838006820F48030D749083908604C
:100E50000846006820F48020086000BF606890B1F8
:100E6000FFF798FD054606E0FFF794FD401B642858
:100E700001D903209EE7CC4808380068C0F3404001
:100E80000028F1D011E0FFF785FD054606E0FFF7E9
:100E900081FD401B642801D903208BE7C248083834
:100EA0000068C0F340400028F1D1207800F0020033
:100EB00002285FD1BC48006800F00C0058B1BA4865
:100EC000006800F00C0008281CD1B748001F00681B
:100ED00000F48000B0B9B44808380068C0F340009E
:100EE00020B1E068012801D0012063E7AE4808384E
:100EF000006820F0F800216940EAC100AA490839D9
:100F0000086037E0E06800B30120A8490860FFF7F7
:100F100041FD054606E0FFF73DFD401B022801D9D3
:100F2000032047E7A04808380068C0F340000028C5
:100F3000F1D09D480838006820F0F800216940EAA7
:100F4000C10099490839086014E0002097490860F9
:100F5000FFF720FD054606E0FFF71CFD401B0228B9
:100F600001D9032026E7904808380068C0F3400004
:100F70000028F1D1207800F0080008282CD1606901
:100F8000A8B101208A490860FFF704FD054606E084
:100F9000FFF700FD401B022801D903200AE7824821
:100FA0006C300068C0F340000028F1D014E000204D
:100FB0007F490860FFF7EEFC054606E0FFF7EAFC14
:100FC000401B022801D90320F4E677486C30006802
:100FD000C0F340000028F1D1207800F0040004287C
:100FE00070D1002770483830006800F0805090B908
:100FF00000BF002000906C483830006840F08050FE
:101000006949383108600846006800F08050009057
:1010100000BF00BF01276748006800F48070B0B9C6
:101020006448006840F4807062490860FFF7B2FCD1
:10103000054606E0FFF7AEFC401B022801D903205D
:10104000B8E65C48006800F480700028F2D000BF69
:10105000A068012808D154486830006840F00100B9
:101060005149683108601DE0A06805280DD14E483F
:101070006830006840F004004B4968310860084659
:10108000006840F0010008600CE0474868300068E4
:1010900020F001004449683108600846006820F0EB
:1010A0000400086000BFA068A8B1FFF773FC054604
:1010B00009E0FFF76FFC401B41F28831884202D9FA
:1010C000032077E626E0384868300068C0F3400027
:1010D0000028EED013E0FFF75DFC054608E0FFF7BF
:1010E00059FC401B41F28831884201D9032061E656
:1010F0002D4868300068C0F340000028EFD1012F70
:1011000007D129483830006820F08050264938310E
:10111000086000BFA069002845D02348006800F09F
:101120000C0008285DD0A069022845D100201F4985
:101130000866FFF72FFC054606E0FFF72BFC401B77
:10114000022801D9032035E6174808380068C0F3A3
:1011500040600028F1D1D4E907010843616A40EA00
:1011600081110122A06AC2EB500041EA00412C200B
:10117000005D41EA00600C49091F086001200B492D
:101180000866FFF707FC054606E0FFF703FC401B77
:10119000022801D903200DE6034808380068C0F38F
:1011A00040600028F1D03FE008380240000047428C
:1011B000800E47420070004000201C490866FFF77F
:1011C000E9FB054606E0FFF7E5FB401B022801D9D5
:1011D0000320EFE516480068C0F340600028F2D114
:1011E00022E0A069012800D1E4E511480830066832
:1011F00006F48001E069814214D106F03F01206AC3
:1012000081420FD147F6C0703040616A884209D1EF
:1012100006F44031A06A814204D106F07061E06AB0
:10122000814201D00120C5E50020C3E5000047420E
:101230000038024010B504460CB9012010BD606AA8
:1012400000B900BF0021A16294F8510028B9002024
:1012500084F85000204600F033F8022084F8510052
:101260002068006820F0400021680860D4E901018E
:101270000843E16808432169084361690843218BF9
:1012800001F400710843E1690843216A0843A16A37
:101290000843216808600421A06901EA1040616ADE
:1012A0000843216848602068C06920F40060216814
:1012B000C86100206065012084F851000020BDE76E
:1012C00010B586B00446142101A8FEF7B1FF1B49F2
:1012D0002068884230D100BF002000901848006884
:1012E00040F48040164908600846006800F48040D9
:1012F000009000BF00BF00BF0020009010481038D1
:10130000006840F002000E49103908600846006885
:1013100000F00200009000BF00BF4FF46040019059
:1013200002200290002003900320049005200590E5
:1013300001A90448FFF728FA06B010BD00380040A4
:1013400040380240000402402DE9F84F0446884628
:1013500016461D464FF0000A00BF94F850000128C1
:1013600002D10220BDE8F88F012084F8500000BFB0
:10137000FFF710FB0746B14694F85100012802D050
:101380004FF0020AA7E0B8F1000F00D016B94FF0F5
:10139000010AA0E0032084F8510000206065C4F831
:1013A0003080A686E686A063A087E087606420641C
:1013B000A068B0F5004F05D12068006840F4804077
:1013C000216808602068006800F04000402805D0CF
:1013D0002068006840F0400021680860E068B0F5CF
:1013E000006F2FD1606810B1B9F1010F09D1206BE6
:1013F00000882168C860206B801C2063E08E401E3E
:10140000E0861BE02068806800F0020002280AD114
:10141000206B00882168C860206B801C2063E08EF0
:10142000401EE0860AE0FFF7B5FAC01BA84201D3D0
:10143000681C00B915B94FF0030A4CE0E08E002893
:10144000E0D12EE0606810B1B9F1010F09D1206B35
:10145000007821680873206B401C2063E08E401EDA
:10146000E0861BE02068806800F0020002280AD1B4
:10147000206B007821680873206B401C2063E08E8D
:10148000401EE0860AE0FFF785FAC01BA84201D3A0
:10149000681C00B915B94FF0030A1CE0E08E002863
:1014A000E0D13A462946204600F0FAFA08B1202059
:1014B0006065A06850B900BF002000902068C06837
:1014C000009020688068009000BF00BF606D08B188
:1014D0004FF0010A00BF012084F8510000BF002036
:1014E00084F8500000BF50463CE72DE9FF5F0446FA
:1014F000884691461D460E9E0120029000200190D4
:1015000000BF94F85000012803D1022004B0BDE8C8
:10151000F09F012084F8500000BFFFF73BFA074618
:1015200094F851B060680390AA46BBF1010F0BD04C
:101530000398B0F5827F04D1A06810B9BBF1040F05
:1015400002D002200190DBE0B8F1000F03D0B9F126
:10155000000F00D015B901200190D1E094F851009E
:10156000042802D0052084F8510000206065C4F8EA
:101570003890E587A587C4F83080E586A586206485
:1015800060642068006800F04000402805D02068B2
:10159000006840F0400021680860E068B0F5006F26
:1015A0004AD1606810B1BAF1010F09D1206B0088EF
:1015B0002168C860206B801C2063E08E401EE0869E
:1015C00033E02068806800F00200022810D1E08E2D
:1015D00070B1029801280BD1206B00882168C86087
:1015E000206B801C2063E08E401EE086002002906D
:1015F0002068806800F0010068B1E08F58B1206871
:10160000C068A16B0880A06B801CA063E08F401EA7
:10161000E08701200290FFF7BDF9C01BB04204D360
:10162000701C10B1032001906AE0E08E0028C8D140
:10163000E08F0028C5D14AE0606810B1BAF1010F0F
:1016400009D1206B007821680873206B401C20634F
:10165000E08E401EE08634E02068806800F00200E2
:10166000022810D1E08E70B1029801280BD1206BB6
:10167000007821680873206B401C2063E08E401EB8
:10168000E086002002902068806800F0010068B1C8
:10169000E08F58B12068C068A16B0870A06B401C37
:1016A000A063E08F401EE08701200290FFF772F9EF
:1016B000C01BB04201D3701C00B916B903200190C1
:1016C0001EE0E08E0028C7D1E08F0028C4D13A4642
:1016D0003146204600F0E4F920B10120019020209D
:1016E00060650DE0A06850B900BF00200090206840
:1016F000C068009020688068009000BF00BF00BFF5
:10170000012084F8510000BF002084F8500000BF81
:101710000198FBE670B504462546681EB0F1807F4F
:1017200001D301200FE0681E4FF0E02148610F2136
:101730004FF0FF3000F016FE00204FF0E0218861EE
:1017400007200861002070BD10B504460CB90120C7
:1017500010BDA06900B100E000BF94F8390028B9BD
:10176000002084F83800204600F028F8242084F86F
:1017700039002068C06820F400502168C860204605
:1017800000F0A8FA2068006920F490402168086100
:101790002068406920F02A00216848612068C068FC
:1017A00040F400502168C8600020E063202084F8E5
:1017B000390084F83A000020CAE7000010B586B06E
:1017C0000446142101A8FEF733FD1B492068884216
:1017D0002FD100BF002000901848006840F400306E
:1017E000164908600846006800F40030009000BF09
:1017F00000BF00BF0020009010481038006840F083
:1018000001000E49103908600846006800F0010028
:10181000009000BF00BF0C20019002200290012028
:101820000390032004900720059001A90448FEF7C7
:10183000ABFF06B010BD000000440040403802403D
:10184000000002402DE9F84304460D4616461F46A7
:101850004FF0000994F8390020285DD105B116B980
:101860000120BDE8F88300BF94F83800012801D1B9
:101870000220F6E7012084F8380000BF0020E06372
:10188000212084F83900FFF785F88146A684E68494
:1018900000BF002084F8380000BF2BE0E08C401E21
:1018A000E084A068B0F5805F16D14B46002280210D
:1018B0002046009700F002FC08B10320D1E7A846BB
:1018C000B8F80000C0F3080021684860206908B932
:1018D000AD1C0FE06D1C0DE04B4600228021204620
:1018E000009700F0EBFB08B10320BAE715F8010BF5
:1018F00021684860E08C0028D0D14B46002240216E
:101900002046009700F0DAFB08B10320A9E7202069
:1019100084F839000020A4E70220A2E700BFFEE718
:1019200000B587B0142102A8FEF782FC00BF00209A
:1019300001903748006840F00400354908600846C7
:10194000006800F00400019000BF00BF00BF00204D
:1019500001900846006840F0800008600846006872
:1019600000F08000019000BF00BF00BF0020019088
:101970000846006840F0010008600846006800F072
:101980000100019000BF00BF00BF00200190084689
:10199000006840F0020008600846006800F002009D
:1019A000019000BF00BF00BF002001900846006802
:1019B00040F0080008600846006800F00800019048
:1019C00000BF00BF002289141248FEF7DDFF00228D
:1019D0004FF480411048FEF7D7FF4FF4805002903B
:1019E0000120039000200490059002A90948FEF709
:1019F000CBFE4FF480400290012003900020049021
:101A0000059002A90448FEF7BFFE07B000BD000024
:101A10003038024000040240000C024010B50E486D
:101A20000E4908604FF48270486000210B488160C5
:101A3000C160016141614FF4007181610021C161A8
:101A40000162416281620A21C162FFF7F3FB08B1C2
:101A5000FEF785FE10BD0000003800408808002019
:101A600010B50B480B4908604FF416504860002130
:101A700008488160C16001610C21416100218161E0
:101A8000C161FFF761FE08B1FEF769FE10BD0000FD
:101A900000440040E008002000BFFEE770477047A8
:101AA0007CB504460D461646164800681821B0FB62
:101AB000F1F01549B0FBF1F04FF47A714843019011
:101AC0006068B0F5827F0DD12B4600228021204630
:101AD000009600F01BF898B1606D40F02000606542
:101AE00003207CBD00BF019800B908E00198401EAA
:101AF000019020688068C0F3C0100028F3D100BFB7
:101B00000020EEE77400002040420F002DE9F04174
:101B100004460E4617461D46DDF818803EE0681C58
:101B2000D8B3FEF737FFA0EB0800A84200D2A5BB50
:101B30002068406820F0E000216848606068B0F5E7
:101B4000827F0DD1A068B0F5004F03D0A068B0F53A
:101B5000806F05D12068006820F04000216808608F
:101B6000A06AB0F5005F0DD100BF2068006820F4C6
:101B70000050216808602068006840F40050216827
:101B8000086000BF012084F8510000BF002084F8E5
:101B9000500000BF0320BDE8F081FFE720688068A7
:101BA0003040B04201D1012000E00020B842B6D15F
:101BB0000020F0E7704710B5FEF7F2FE10BD000000
:101BC00000B593B0302107A8FEF732FB142102A81C
:101BD000FEF72EFB00BF002001902548006840F072
:101BE0008050234908600846006800F0805001904A
:101BF00000BF00BF00BF002001901E48006840F4F5
:101C000080401C4908600846006800F4804001904C
:101C100000BF00BF0220079001200A9010200B9007
:101C200002200D9000210E9108210F91A821109102
:101C3000022111910421129107A8FFF7B7F808B10A
:101C4000FEF78DFD0F2002900220039000200490EB
:101C50004FF4A05005904FF480500690052102A843
:101C6000FEF764FF08B1FEF77AFD13B000BD000077
:101C700040380240007000400548006840F47000A1
:101C8000034908604FF000600149803908607047DF
:101C900088ED00E00FB410B5C2B045A801904FF434
:101CA000807102A8019B449A00F03EFB02A8FEF757
:101CB000CAFA84B24FF0FF33224602A90448FFF764
:101CC000C1FD0020019042B010BC5DF814FB000083
:101CD000E00800202DE9F84F04462068006920F450
:101CE0004050E1680843216808612169A068084301
:101CF00061690843E169084300902068C06849F2BF
:101D00000C618843009908432168C86020684069D5
:101D100020F44070A169084321684861E069B0F58A
:101D2000004F75D1E3492068884203D0E24920681A
:101D300088426FD1FEF7D2FF814602206168A0FB86
:101D400001510B461920A9FB00712A463846FEF7BF
:101D500037FA6421B0FBF1F04FEA001A0220616803
:101D6000A0FB01510B461920A9FB00712A463846F9
:101D7000FEF726FA074602206168A0FB01510B46D8
:101D80001920A9FB00B12A465846FEF719FA64212A
:101D9000B0FBF1F000EBC00101EB0010A7EB8000FD
:101DA000322101EBC0006421B0FBF1F000F0F8003B
:101DB0000AEB400A02206168A0FB01510B46192082
:101DC000A9FB00712A463846FEF7FAF907460220B9
:101DD0006168A0FB01510B461920A9FB00B12A46FE
:101DE0005846FEF7EDF96421B0FBF1F000EBC001BD
:101DF00001EB0010A7EB8000322101EBC000642151
:101E0000B0FBF1F000F007005044216888604FE11A
:101E10006EE0FFE7FEF752FF814602206168A0FBFB
:101E200001510B461920A9FB00712A463846FEF7DE
:101E3000C7F96421B0FBF1F04FEA001A0220616893
:101E4000A0FB01510B461920A9FB00712A46384618
:101E5000FEF7B6F9074602206168A0FB01510B4668
:101E60001920A9FB00B12A465846FEF7A9F96421BA
:101E7000B0FBF1F000EBC00101EB0010A7EB80001C
:101E8000322101EBC0006421B0FBF1F000F0F8005A
:101E90000AEB400A02206168A0FB01510B461920A1
:101EA000A9FB00712A463846FEF78AF90746022048
:101EB0006168A0FB015003461920A9FB00B12A4626
:101EC0005846FEF77DF96421B0FBF1F000EBC0014C
:101ED00001EB0010A7EB8000322101EBC000642170
:101EE000B0FBF1F000F00700504421688860DFE0AB
:101EF00070492068884203D06F49206888426BD1BE
:101F0000FEF7ECFE814604206168A0FB01510B4600
:101F10001920A9FB00712A463846FEF751F982467E
:101F200004206168A0FB01510B461920A9FB007138
:101F30002A463846FEF744F96421B0FBF1F000EB85
:101F4000C00101EB0010AAEB8000322101EB001070
:101F50006421B0FBF1F000F0F00A04206168A0FBFE
:101F6000015003461920A9FB00712A463846FEF7A6
:101F700027F96421B0FBF1F00AEB001A0420616834
:101F8000A0FB01510B461920A9FB00712A463846D7
:101F9000FEF716F9074604206168A0FB01500346CE
:101FA0001920A9FB00B12A465846FEF709F9642119
:101FB000B0FBF1F000EBC00101EB0010A7EB8000DB
:101FC000322101EB00106421B0FBF1F000F00F00B2
:101FD0005044216888606BE0FEF770FE8146042063
:101FE0006168A0FB015003461920A9FB00712A4635
:101FF0003846FEF7E5F8824604206168A0FB0150F0
:1020000003461920A9FB00712A463846FEF7D8F886
:102010006421B0FBF1F000EBC00101EB0010AAEB72
:102020008000322101EB00106421B0FBF1F000F0E0
:10203000F00A04206168A0FB015003461920A9FBA7
:1020400000712A463846FEF7BBF86421B0FBF1F078
:102050000AEB001A04206168A0FB017003461920F6
:10206000A9FB005001463A462846FEF7A9F8074664
:1020700004206168A0FB015003461920A9FB00B1B0
:102080002A465846FEF79CF86421B0FBF1F000EBBD
:10209000C00101EB0010A7EB8000322101EB001022
:1020A0006421B0FBF1F000F00F005044216888601B
:1020B000BDE8F88F00100140001401402DE9F04107
:1020C00004460D4617469846069E21E0701CF8B15E
:1020D0002EB1FEF75FFCA0EB0800B04218D92068D3
:1020E000C06820F4D0702168C8602068406920F082
:1020F000010021684861202084F8390084F83A0002
:1021000000BF002084F8380000BF0320BDE8F08144
:10211000206800682840A84201D1012000E000208A
:10212000B842D3D00020F1E700BFFEE738B504463F
:102130001A498868804719490869804700BF1748CD
:10214000006A10B11548406A70B91448C169C4F3F7
:10215000074088471148C169C4F307208847E0B2A7
:102160000E4AD16988470DE0200C8DF80000200A46
:102170008DF80100E0B28DF8020008480321426AA0
:10218000684690470549886980470546034948697C
:1021900080470249C8688047284638BD10000020A3
:1021A000F8B504460E4617461F49886880471E4901
:1021B0000869804700BF1C48006A10B11A48406A8D
:1021C000C0B91948C169C4F3074088471648C169B6
:1021D000C4F307208847E0B2134AD1698847002535
:1021E00005E01149886980477055681C85B2BD4279
:1021F000F7DB12E0200C8DF80000200A8DF80100BA
:10220000E0B28DF8020008480321426A6846904710
:1022100005483946026A3046904703494869804775
:102220000149C8688047F8BD1000002038B5044651
:102230000D461A498868804718490869804744F064
:1022400004041648406A90B91448C169C4F30740B1
:1022500088471248C169C4F307208847E0B20F4A93
:10226000D16988470D48C169284688470FE0200C8E
:102270008DF80000200A8DF80100E0B28DF8020010
:102280008DF8035005480421426A68469047034987
:10229000486980470149C868804738BD1000002060
:1022A000F8B504460E4617461E49886880471D4902
:1022B0000869804744F004041A48406AC0B91948C4
:1022C000C169C4F3074088471648C169C4F30720B1
:1022D0008847E0B2134AD1698847002505E0705D60
:1022E000104AD1698847681C85B2BD42F7DB12E00D
:1022F000200C8DF80000200A8DF80100E0B28DF866
:10230000020008480321426A68469047054839465A
:10231000426A304690470349486980470149C86886
:102320008047F8BD100000207CB5044600201D4603
:10233000164600290BD0491ECDE90041044B6A46E0
:102340002946304600F0F4F8009A002111707CBD57
:102350005F2C000802480068C0F3022070470000AC
:102360000CED00E010B5002804DB0A07130E054A47
:10237000135406E00A07140E034A00F00F031B1F54
:10238000D45410BD00E400E018ED00E002E008C8FD
:10239000121F08C1002AFAD170477047002001E0DF
:1023A00001C1121F002AFBD1704700002DE9FF5F19
:1023B00082B00021DDE90430020DDDF840B00343B6
:1023C00018D044F61050A2F2FF324243151411986F
:1023D00001281FD0A5EB0B00401C5FEA000A4FF05C
:1023E00000064E4FDFF83891B046504615D5CAF179
:1023F000000413E0119801244AA3012801D16FEAD7
:102400000B010298119AC0E90031C0E9024206B0FE
:10241000BDE8F09FCBF10000DFE704460021404A11
:10242000491842EB0450CDE9001012E0E00707D054
:1024300032463B4640464946FDF7E8FF804689461E
:1024400032463B4610461946FDF7E0FF06460F466A
:102450006410002CEAD1DDE90401DDE90023BAF1C2
:10246000000F06DAFDF7D2FF42464B46FDF7CEFFDE
:1024700005E0FEF73DF842464B46FEF739F80446C4
:102480000E460022284BFEF7BBF803D84FF0FF3072
:10249000014607E00022254B20463146FDF70FFF9D
:1024A000FEF795F8102409E0002C0ADB0A2200232D
:1024B000FDF786FE039B30321A55641E50EA010276
:1024C000F2D1641C039AC4F111031444119A012A35
:1024D00003D0012208430DD10AE0084304D00020B4
:1024E0004FF0110B119072E7A3EB0B056D1E0DE081
:1024F0005B4504DD4FF0000205F1010504E003DA5D
:102500004FF00002A5F10105002AECD002981199C4
:10251000C0E90231C0E9004579E70000000014403D
:102520000000F03F300000000000F0430000E03FFA
:102530002DE9FF4F95B09B468946064600250FE2E0
:10254000252877D100242746F84A0121059400E088
:10255000044316F8013F203B01FA03F01042F7D183
:1025600030782A2811D06FF02F033078A0F1300294
:10257000092A16D8059A44F0020402EB820203EB02
:1025800042021044761C0590EFE759F8042B05929F
:10259000002A03DA504244F40054059044F0020447
:1025A000761C30782E2816D116F8010F44F004045A
:1025B0002A280DD06FF02F023078A0F13003092BBC
:1025C00009D807EB870302EB4303C718761CF3E730
:1025D00059F8047B761C30786C280FD006DC4C2828
:1025E00017D068280DD06A2814D104E0742810D0C0
:1025F0007A280FD10DE044F400140AE044F480146A
:1026000001E044F440147278824202D104F580144F
:10261000761C761C307866280BD013DC582877D0CF
:1026200009DC002875D04528F6D04628F4D0472884
:102630001AD19DE118E0632835D0642879D0652847
:1026400012D195E1702873D008DC6728F1D0692891
:102650006FD06E280DD06F2806D1B5E073282CD02E
:10266000752875D0782874D05A46179990476D1CF4
:1026700075E1C4F30250022809D003280DD0D9F81F
:10268000001004280DD00D6009F1040967E1D9F8A4
:102690000010EA17C1E90052F6E7D9F800100D80E2
:1026A000F2E70D70F0E719F8041B8DF80010002018
:1026B0008DF80100EA46012003E059F804AB4FF021
:1026C000FF3061074FF0000102D40DE008F1010175
:1026D0008846B9420FDA8045F8DB1AF8081000295D
:1026E000F4D108E008F1010188468142FADB1AF8CA
:1026F00008100029F6D105985B46A0EB0807214693
:102700003846179A00F094FA284400EB080507E0D1
:102710004DE029E10DE01AF8010B5A461799904750
:10272000B8F10108F7D25B4621463846179A13E103
:1027300042E00A220092C4F302524FF0000A022A39
:1027400008D059F804CB032A4FEAEC710AD00DE007
:1027500029E02AE009F1070121F00702F2E802C1AD
:10276000914609E00FFA8CFC4FEAEC71042A03D180
:102770004FFA8CFC4FEAEC71002907DA0A46002177
:10278000DCF1000C61EB02012D2202E0220504D5F0
:102790002B228DF80420012203E0E20701D0202241
:1027A000F7E7904659E00A2102E010220DE01021DF
:1027B0004FF0000A00910BE010224FF0000A44F0A5
:1027C00004040827009203E008224FF0000A009258
:1027D000C4F30252022A05D059F804CB0021032A7F
:1027E00008D009E009F1070121F00702F2E802C16F
:1027F000914605E01FFA8CFC042A01D10CF0FF0C75
:102800004FF00008220728D5702806D0009B83F0DF
:10281000100353EA0A0305D00EE040228DF804208D
:10282000012208E05CEA010206D030228DF8042083
:102830008DF8050002229046009B83F0080353EABE
:102840000A030AD15CEA010201D1620705D53022F0
:102850008DF804204FF001087F1E582804D034A0C2
:1028600003900EA802900DE036A0F9E753466046AB
:10287000009AFDF7A5FC84460398825C0298401EEE
:10288000029002705CEA0100F0D1029806A9081AD1
:1028900000F1200A600702D524F4803400E001270B
:1028A000574502DDA7EB0A0000E0002000EB0A011B
:1028B000009005984144401A0590E00306D45B4619
:1028C0002146179A059800F0B3F90544002706E061
:1028D00001A85A46C05D179990476D1C7F1C47455B
:1028E000F6DBE0030CD55B462146179A059800F00D
:1028F0009FF9054404E030205A46179990476D1C13
:102900000099481E00900029F5DC08E00298029921
:102910005A460078491C0291179990476D1CBAF1EC
:102920000001AAF1010AF1DC65E1000009280100BB
:102930003031323334353637383961626364656635
:1029400000000000303132333435363738394142F7
:10295000434445460000000000F058F90544761C49
:10296000307800287FF4ECAD19B02846BDE8F08F30
:10297000620700D4062709F1070222F0070CFCE8E1
:102980000223E14603F000485FEA080C02D00FF290
:10299000702C0DE05FEA045C02D50FF2682C07E0B2
:1029A0005FEAC47C02D00FF2602C01E0AFF2700C41
:1029B0004FF0FF3823F00043CDF850C065280CD00D
:1029C00006DC452809D046281DD047283DD13DE0EA
:1029D000662818D067287ED138E00021112F01DB4E
:1029E000112000E0781CCDE9000106A90EA8FFF730
:1029F000DDFCDDE90F010E9A03910021009207F141
:102A0000010A04914DE04FF000400097CDE901101C
:102A100006A90EA8FFF7CAFCDDE90F0203920E9B80
:102A200011990022DDF80CA00093049211B9791CD1
:102A300000EB010AB7EB0A0004D4C0F1FF3007F144
:102A4000010A0490AAEB0700019044E0012F00DA8C
:102A500001270021112F01DD112000E03846CDE9CA
:102A6000000106A90EA8FFF7A1FCDDE90F010E9AEF
:102A70000391002104910092BA4621070CD40399D6
:102A8000514500DA8A46BAF1010F05DD009AAAF134
:102A90000101515C302908D0B84202DA10F1040F6C
:102AA00006DA0121CDE9011015E0AAF10101E9E7FB
:102AB000002805DC049901440491AAEB000102E01E
:102AC000411C514500DD8A460499401A401C019082
:102AD0004FF000400290200704D40198504501DBDC
:102AE000CDF8048000208DF84F0002980DF14F07BB
:102AF000B0F1004F25D02B200E9002984FF0020825
:102B000000280CDA404202902D200E9007E00A21A6
:102B10000298FDF79FFB3031029007F8011DB8F1D4
:102B20000001A8F10108F2DC02980028EFD1791E1B
:102B30000E980870307800F0200040F0450007F84B
:102B4000020D12A8C01B00F107081498007800B10C
:102B5000012000EB0A01019801EBE0710598414466
:102B6000401A401E0590E00306D45B462146179AA2
:102B7000059800F05DF805441498007818B15A469D
:102B8000179990476D1CE00324D55B462146179AA0
:102B9000059800F04DF805441CE00498002807DB78
:102BA000DDE90301884203DD0098405C179901E0EC
:102BB000179930205A469047049805F10105401CAA
:102BC00004900198401E019004D12E205A46179976
:102BD00090476D1CBAF10001AAF1010ADDDC05E0A5
:102BE00017F8010B5A46179990476D1CB8F1000170
:102BF000A8F10108F4DC5B462146179A0598ABE67C
:102C00002D0000002B000000200000002DE9F04105
:102C1000044600251E461746880404D405E03946BC
:102C20002020B0476D1C641EF9D52846BDE8F08110
:102C30002DE9F041044600251E469046C80301D503
:102C4000302700E02027880404D505E041463846B7
:102C5000B0476D1C641EF9D52846BDE8F0814A686E
:102C6000002A06D00A68531C0B6010704868401E8A
:102C70004860704710B5044600BF082C02DD4FF0D5
:102C8000FF3010BD00BFA100491C4FF4807202EB61
:102C9000C1001021FFF7CAFA00BFA100491C4FF480
:102CA000807202EBC100FFF741FA0028F5D1A100C4
:102CB000491C4FF4007202EBC1001F21FFF7B6FA66
:102CC0000120A0400F49098881430E48018001205E
:102CD000A0400D49098881430B48018000200B4921
:102CE00021F814000A49085500BFA100491C4FF4FF
:102CF000407202EBC100FFF719FA0028F5D101205C
:102D0000BFE700000200002004000020780000203F
:102D10000600002070B505460C46062D1CD2DFE8E3
:102D200005F003070B0F1317204601F041F816E0DA
:102D3000204600F035FF12E0207801F065F870BD04
:102D400000F05CFF20700AE0204601F070F806E019
:102D5000204600F058FF02E04FF0FF30EFE700BFE1
:102D60000020ECE72DE9FC4106460C46002500203A
:102D700000900190102E79D2DFE806F0080B1A16A9
:102D80001E2226323F5154585C5D616C01F065F89B
:102D90006FE01CB10094009808300190DDE900015B
:102DA00000F045FFBDE8FC81208800F0B1FE60E046
:102DB00000F0CCFE20805CE0208800F0E9FF58E0C5
:102DC00000F0D9FE208054E0208801124FF4985082
:102DD000FFF72CFA21784FF4A050FFF727FA48E0CC
:102DE0004FF4A050FFF7A2F907464FF49850FFF7B1
:102DF0009DF907EB002020803BE01F488078207081
:102E00001D48C07860701C480079A0701A4840794D
:102E1000E0701948807920710020607129E001F08C
:102E2000B8F826E0204601F0CEF822E0204601F076
:102E300059F81EE01DE0207801F0F1F8B2E701F04A
:102E400099F8C5B268B2401C10B94FF0FF30A9E73D
:102E500025700EE001F082F8C5B268B2401C18B9C6
:102E60004FF0FF309EE701E0257002E04FF0FF30A9
:102E700098E700BF002095E71000002070B50446D9
:102E80000025002600BFA100491C4FF4185202EB98
:102E9000C100FFF74BF90646A100491C4FF4185238
:102EA00002EBC10101F58070FFF740F900EB06204D
:102EB00086B2AEB1A100491C4FF4185202EBC1001A
:102EC000FFF734F90546A100491C4FF4185202EBF4
:102ED000C10101F58070FFF729F900EB052085B2EB
:102EE000B542D0D1284670BD70B5044600250026F5
:102EF00000BFA100491C4FF4005202EBC100FFF7D4
:102F000015F90646A100491C4FF4005202EBC1011D
:102F100001F58070FFF70AF900EB062086B2AEB12A
:102F2000A100491C4FF4005202EBC100FFF7FEF86C
:102F30000546A100491C4FF4005202EBC10101F506
:102F40008070FFF7F3F800EB052085B2B542D0D1D1
:102F5000284670BD2DE9FE43074688469146B900D4
:102F6000491C4FF4407202EBC100FFF7DFF8002864
:102F700053D0222862D13846FFF780FF051E4BDD73
:102F8000012291032F48FDF7FFFC2FA0FEF782FEE0
:102F90004FF49670FDF7E4FBB5F5006F01DD4FF4DB
:102FA000006501A802AB2A4641460090384600F071
:102FB0006FF90446002C07DC2246394628A0FEF7AC
:102FC00069FE2046BDE8FE83A5B2002622E0BDF8DA
:102FD00004000090A81B82B208EB060102AB384641
:102FE00000F00AFB044625A0FEF754FE29A0FEF7D8
:102FF00051FE00224FF480411248FDF7C5FC002C21
:1030000006DA2246394624A0FEF744FE2046D9E7D8
:10301000301986B2AE42DAD111E000234A460221CD
:10302000384600F0EFFB0446B84201D02046C9E71D
:103030004A4639461EA0FEF72DFE00E000BF00BF45
:103040000120BFE7000C0240576173207265636581
:103050007665206D6573736167652E0D0A0000004B
:1030600025643A207265637666726F6D20657272B0
:103070006F722E20256C640D0A0000004D6573737D
:10308000616765207761732072657475726E65641F
:103090002E0D0A000D0A000025643A2073656E6447
:1030A000746F206572726F722E20256C640D0A0099
:1030B00025643A4F70656E65642C20554450206C31
:1030C0006F6F706261636B2C20706F7274205B2570
:1030D000645D0D0A000000000024FDF76DFCFEF7A2
:1030E0006FFDFEF71DFCFEF799FCFEF7B9FCFDF73E
:1030F00023FB0B490B4800F065FA00F0E1FD00F0FE
:1031000021F80BE040F6B83207490120FFF722FF13
:10311000041E03DA214605A0FEF7BCFDF2E700001D
:10312000CD3E0008593D000888000020534F434B16
:103130004554204552524F52203A20256C640D0AC6
:103140000000000000B585B025490020FFF7E2FD32
:1031500023490120FFF7DEFD03A90820FFF702FE47
:1031600003A920A0FEF796FD1D48417900791C4A6D
:10317000D278CDE90020029119488378427801780D
:103180001EA0FEF787FD1648407A00901448037A87
:10319000C279817923A0FEF77DFD1148407C009023
:1031A0000F48037CC27B817B23A0FEF773FD0C4894
:1031B000407B00900A48037BC27A817A23A0FEF705
:1031C00069FD0748407D00900548037DC27C817CF5
:1031D00023A0FEF75FFD27A0FEF75CFD05B000BD54
:1031E0003D0000200D0A3D3D3D202573204E4554F5
:1031F00020434F4E46203D3D3D0D0A004D41433A90
:1032000020253032583A253032583A253032583A53
:10321000253032583A253032583A253032580D0A86
:10322000000000005349503A2025642E25642E25C5
:10323000642E25640D0A00004741523A2025642E71
:1032400025642E25642E25640D0A00005355423A4C
:103250002025642E25642E25642E25640D0A000089
:10326000444E533A2025642E25642E25642E256471
:103270000D0A00003D3D3D3D3D3D3D3D3D3D3D3D5B
:103280003D3D3D3D3D3D3D3D3D3D0D0A00000000C5
:103290002DE9FC4704468A4616461D46DDF828807F
:1032A000002700BF082C02DD781EBDE8FC8700BFA8
:1032B000A100491C002202EBC100FEF737FF814646
:1032C00000F00F00022804D0032803D0042803D103
:1032D00001E000BF00BF02E06FF00400E5E700BFBF
:1032E00000BF16B96FF00D00DFE700BFA84830F847
:1032F0001400E8B91AE02046FFF7C0FD0746A10018
:10330000491C4FF4407202EBC100FEF70FFF10B9E9
:103310006FF00300C9E70120A0409E4909880840DA
:1033200010B10FB90020C0E707B100E0E3E700BF2C
:1033300009F00700022804D003287CD004287BD1A0
:1033400058E0934830F81400E8BB0822694620464C
:1033500000F022FBA100491C4FF4807202EBC10077
:103360004021FEF763FF00BFA100491C4FF48072AB
:1033700002EBC100FEF7DAFE0028F5D19DF800004F
:1033800028709DF8010068709DF80200A8709DF8F3
:103390000300E8709DF80400A8F800009DF80500FF
:1033A00098F8001000EB0120A8F800009DF8060036
:1033B000774921F814009DF8070011F8141000EB6C
:1033C0000120734900E004E021F8140080207249D4
:1033D00008556F4830F81400B04201DD374602E06E
:1033E0006B4830F814703E463A465146204600F08D
:1033F000D3FAA1E0664830F81400B8BB022269464F
:10340000204600F0C9FAA100491C4FF4807202EB7B
:10341000C1004021FEF70AFF00BFA100491C4FF484
:10342000807202EBC100FEF781FE0028F5D19DF805
:103430000000574901E02DE076E021F814009DF8E6
:10344000010011F8141000EB0120801E504921F8F2
:103450001400084630F8140040F2EA51884206DDB4
:103460002046FFF707FC6FF47A701EE702E0802029
:1034700049490855464830F81400B04201DD374646
:1034800002E0434830F814703A465146204600F0B6
:1034900083FA51E03E4830F81400A8BB0622694682
:1034A000204600F079FAA100491C4FF4807202EB2B
:1034B000C1004021FEF7BAFE00BFA100491C4FF435
:1034C000807202EBC100FEF731FE0028F5D19DF8B5
:1034D000000028709DF8010068709DF80200A87037
:1034E0009DF80300E8709DF80400294921F81400B4
:1034F0009DF8050011F8141000EB0120244921F873
:103500001400802024490855214830F81400B042A6
:1035100001DD374602E01E4830F814703A46514645
:10352000204600F039FA07E03946204600F076FAE6
:10353000174820F8147000BF00BFA100491C4FF4C9
:10354000807202EBC1004021FEF770FE00BFA100B7
:10355000491C4FF4807202EBC100FEF7E7FD002822
:10356000F5D10B4830F81400C01B094921F81400AC
:10357000084630F8140030B10748005D40F0010003
:103580000549085502E000200349085538468CE6F5
:1035900078000020020000200600002000B131B9B0
:1035A000054A064B1A61064B044A536102E0034A7E
:1035B0001061516170470000373B00081000002087
:1035C000353B000800BF094A128802F40072002A45
:1035D000F9D000B131B9064A044B9A61054B034A50
:1035E000D36102E0014A9061D16170471000002070
:1035F000553E0008593E00082DE9F05F04468B4611
:1036000015461E46DDF828A00027B84600BF082C46
:1036100002DD781EBDE8F09F00BFA100491C00221A
:1036200002EBC100FEF782FD00F00F00022804D07B
:10363000032804D0042803D100E000BF00BF02E04B
:103640006FF00400E6E700BF00BF15B96FF00D0092
:10365000E0E700BF96F80090707869F31F2081467C
:10366000B07869F31F208146F07869F31F20814606
:10367000B9F1000F0DD1A100491C002202EBC100DD
:10368000FEF754FD00F00400042802D06FF00B0098
:10369000C0E7BAF1000F0DD1A100491C002202EBD6
:1036A000C100FEF743FD00F00400042802D06FF0D3
:1036B0000A00AFE7A100491C4FF4407202EBC100C1
:1036C000FEF734FD0746422F06D0222F04D0322FBA
:1036D00002D06FF006009DE7A100491C4FF4406244
:1036E00002EBC10004223146FEF7DAFD4FEA2A213F
:1036F000A200521C4FF4805303EBC200FEF796FD6C
:103700000AF0FF01A200521C4FF4805303EBC202E7
:1037100002F58070FEF78AFDA100491C4FF4F852B3
:1037200002EBC100FEF702FD4FF6FF7101EA8028AF
:10373000454500DD45461CE02046FFF7D5FB8046A9
:10374000A100491C4FF4407202EBC100FEF7EEFCF1
:1037500010B96FF003005DE70120A04028490988F7
:10376000084018B1454501DD002053E7454500DC20
:1037700000E0E1E700BF2A465946204600F081F903
:10378000A100491C4FF4807202EBC1002021FEF71A
:103790004DFD00BFA100491C4FF4807202EBC10037
:1037A000FEF7C4FC0028F5D125E0A100491C4FF428
:1037B000007202EBC100FEF7B9FC00F01F0707F032
:1037C000100048B1A100491C4FF4007202EBC10087
:1037D0001021FEF72BFD0FE007F0080058B1A10003
:1037E000491C4FF4007202EBC1000821FEF71EFDD8
:1037F0006FF00C000EE7D8E700BF28460AE700008C
:1038000002000020F8B504460E4617461D4600BFCC
:10381000082C02DD4FF0FF30F8BD00BF012E06D0AE
:10382000022E10D0032E10D0042E0FD10CE0042253
:1038300069464FF47060FEF7B3FC009810B96FF062
:103840000200E9E700BF00BF00BF02E06FF0040024
:10385000E2E700BF05F0040010B16FF00500DBE700
:1038600005B3012E02D0022E1AD106E005F0210088
:1038700010B96FF00500CFE713E005F0200028B184
:1038800005F0800010B96FF00500C5E705F01000E5
:1038900028B105F0800010B96FF00500BCE700E02A
:1038A00000BF00BF2046FFF7E5F905F0F00242EA4D
:1038B0000601A200521C002303EBC200FEF7B6FC77
:1038C0007FB9304807880088401C2E490880084688
:1038D00000884FF6F071884203D14FF440402949E7
:1038E00008803912A200521C4FF4806303EBC2001F
:1038F000FEF79CFCF9B2A200521C4FF4806303EB6C
:10390000C20202F58070FEF791FCA100491C4FF441
:10391000807202EBC1000121FEF788FC00BFA1000C
:10392000491C4FF4807202EBC100FEF7FFFB002838
:10393000F5D10120A0401449098881431248018033
:1039400005F00100A0401049098808430E4908808D
:103950000120A0400D49098881430C4801800020C6
:103960000B4921F814000B49085500BFA100491C60
:103970004FF4407202EBC100FEF7D8FB0028F5D0EF
:1039800060B249E70000002002000020040000208F
:1039900078000020060000202DE9F04704460F467D
:1039A00016460025A8460EB9BDE8F087A100491CBF
:1039B0004FF4205202EBC10101F58070FEF7B6FB17
:1039C0008146A100491C4FF4205202EBC100FEF7D2
:1039D000ADFB09EB002085B22902A000C01C01EB61
:1039E000C008324639464046FEF7DAFBA81985B2D0
:1039F0002912A200521C4FF4205303EBC200FEF721
:103A000015FCE9B2A200521C4FF4205303EBC20292
:103A100002F58070FEF70AFC00BFC5E72DE9F04112
:103A200004460E460025A100491C4FF4205202EB2B
:103A3000C10101F58070FEF779FB0746A100491C22
:103A40004FF4205202EBC100FEF770FB07EB0020A1
:103A500085B2A81985B22912A200521C4FF4205336
:103A600003EBC200FEF7E2FBE9B2A200521C4FF4E6
:103A7000205303EBC20202F58070FEF7D7FBBDE8CE
:103A8000F0812DE9F04704460F4616460025A8466A
:103A90000EB9BDE8F087A100491C4FF4105202EBAB
:103AA000C10101F58070FEF741FB8146A100491C70
:103AB0004FF4105202EBC100FEF738FB09EB002077
:103AC00085B22902A000801C01EBC00832463946AD
:103AD0004046FEF7E5FBA81985B22912A200521C48
:103AE0004FF4105303EBC200FEF7A0FBE9B2A200B3
:103AF000521C4FF4105303EBC20202F58070FEF724
:103B000095FB00BFC5E70146087870470170704714
:103B100070B50446E5B2261205F0F0014FF4A85046
:103B2000FEF784FB31464FF4B850FEF77FFB70BDC3
:103B3000704770477047704710B501221103024863
:103B4000FCF722FF10BD00000004024070B5002603
:103B5000002400254FF4A850FEF7E8FA00F0F00624
:103B60004FF4B850FEF7E2FA0446254606EB05206E
:103B700085B2284670BD70B50026002400254FF49C
:103B8000B050FEF7D3FA06464FF4C050FEF7CEFA17
:103B90000446254606EB052085B2284670BD000088
:103BA00010B50446062221464FF41060FEF7F8FADD
:103BB000042204F10E019001FEF7F2FA042204F14E
:103BC0000A014FF4A060FEF7EBFA0422A11D4FF4A6
:103BD0007060FEF7E5FA07480078A0740548417860
:103BE000E17481782175C178617503480078A0750A
:103BF00010BD0000380000203C00002010B500205F
:103C0000FEF794FA10BD70B504464FF4D850FEF795
:103C10008DFA20704FF4D050FEF788FA05464FF425
:103C2000C850FEF783FA05EB0020608070BD2DE9D7
:103C3000F04105460E46002700F00FF9F5B100BF30
:103C400000240AE0285D384447B2102F03DD4FF00E
:103C5000FF30BDE8F081601C44B2082CF2DB002488
:103C60000AE0295DA200521C4FF4F85303EBC20096
:103C7000FEF7DCFA601C44B2082CF2DBEEB1002740
:103C8000002409E0305D384447B2102F02DD4FF0C8
:103C9000FF30DEE7601C44B2082CF3DB00240AE0AE
:103CA000315DA200521C4FF4F05303EBC200FEF74B
:103CB000BDFA601C44B2082CF2DB0020C9E700000A
:103CC00010B50E490120FFF74DF8401C20B90CA09B
:103CD000FDF7E0FF00BFFEE710A0FDF7DBFF00BF30
:103CE00015490F20FFF73EF8401C10B913A0FDF74F
:103CF000D1FF114800780028F2D010BD55000020F7
:103D000057495A4348495020496E697469616C6942
:103D10007A6564206661696C2E0D0A0057495A4322
:103D200048495020496E697469616C697A656420FC
:103D30004F4B2E0D0A00000054000020556E6B6E94
:103D40006F776E20504859204C696E6B20737461F8
:103D50007574732E0D0A00001CB5FF2001904FF4FE
:103D60007A70012301AA01A900900348FDF7BDFB69
:103D70009DF804001CBD00008808002010B500223A
:103D80004FF480510148FCF7FFFD10BD00040240D4
:103D900070B50446E5B2261229464FF4B050FEF73E
:103DA00045FA31464FF4C050FEF740FA70BD0000AE
:103DB00010B50446062221464FF41060FEF770FA53
:103DC000042204F10E019001FEF76AFA042204F1C4
:103DD0000A014FF4A060FEF763FA0422A11D4FF41C
:103DE0007060FEF75DFAA07C05490870E07C4870C1
:103DF000207D8870607DC870A07D0249087010BD6C
:103E0000380000203C00002070B50446002524F056
:103E10003A0008B1681E70BD0020FEF787F905461C
:103E2000254329460020FEF701FA0020F3E710B5EC
:103E3000044621784FF4D850FEF7F8F96088011253
:103E40004FF4C850FEF7F2F9A1784FF4D050FEF7C6
:103E5000EDF910BD00207047704700B585B006220F
:103E600069464FF41060FEF79BF9042204A9900103
:103E7000FEF796F9042203A94FF4A060FEF790F92B
:103E8000042202A94FF47060FEF78AF98021002015
:103E9000FEF7CCF90020FEF749F9062269464FF4F7
:103EA0001060FEF7FDF9042204A99001FEF7F8F96D
:103EB000042203A94FF4A060FEF7F2F9042202A93C
:103EC0004FF47060FEF7ECF905B000BD01B54FF49A
:103ED0007A73012269460248FDF736FA08BD0000F0
:103EE0008808002070B5044600254FF43850FEF7CE
:103EF0001DF90546C5F38010207005F03800202814
:103F000002D0382803D100BF0120607002E00020F9
:103F1000607000BF00BF05F03800102805D01828D9
:103F200002D0202804D100BF00BF0120A07002E011
:103F30000020A07000BF00BF05F03800082805D0A1
:103F4000182802D0202804D100BF00BF0120E07053
:103F500002E00020E07000BF00BF70BD10B500247B
:103F60004FF43850FEF7E2F800F0010000B10124F0
:103F7000204610BD10B500244FF43850FEF7D6F897
:103F800000F03800302801D1012400E00024204650
:103F900010BD10B54FF43850FEF7C8F8044624F0B1
:103FA000800421464FF43850FEF740F94FF4385062
:103FB000FEF7BCF8044644F0800421464FF4385024
:103FC000FEF734F910BD70B50546002428780128A5
:103FD00002D144F0400401E024F040046878012854
:103FE00002D144F0380412E0E878012808D1A8781A
:103FF000012802D144F0180409E044F0080406E066
:10400000A878012802D144F0100400E000BF214646
:104010004FF43850FEF70AF9FFF7BBFF70BD70B5DB
:10402000054600244FF43850FEF780F8044604F0AB
:10403000400010B94FF0FF3070BD24F03804012D5E
:1040400002D144F0300401E044F0380421464FF43A
:104050003850FEF7EBF8FFF79CFF4FF43850FEF7AF
:1040600065F80446012D04D104F0300030B1002081
:10407000E2E704F0380008B10020DDE74FF0FF3040
:10408000DAE7000000000000000001020304060758
:10409000080900000000010203040000BC40000801
:1040A00000000020780000008C2300083441000844
:1040B00078000020A80C00009C23000800C000002D
:1040C0000000000000000000000000000102573561
:1040D00035303000313B0008333B0008373B0008E7
:1040E000353B0008073B00080D3B000800000000BE
:1040F0000000000000000000000008DC00ABCDC0A4
:10410000A80A01FFFFFF00C0A80A0200000000018A
:104110000002020202020202020202020202020281
:10412000020000000000000010000000010000007C
:044130000024F40073
:040000050800018965
:00000001FF
