:020000020000FC
:1000000044C000004AC0000048C0000046C00000D4
:1000100044C0000042C0000040C000003EC00000DC
:100020003CC000003AC0000038C0000036C00000EC
:1000300034C0000032C000004AC000002EC00000E2
:100040002CC000002AC0000028C0000026C000000C
:1000500024C0000022C0000020C000001EC000001C
:100060001CC000001AC0000018C0000016C000002C
:1000700014C0000047C0000010C000000EC0000007
:100080000CC000000AC0000008C011241FBECFEF42
:10009000D0E1DEBFCDBF45D04CC0B2CF8EB58460BD
:1000A0008EBD8EB581608EBD8FEF9FEF9DBD8CBDE7
:1000B00087B7846087BF0895EAE8F0E080818460B4
:1000C0008083EDE7F0E080818460808308951F9253
:1000D0000F920FB60F9211248F939F9388EC9FEA93
:1000E0009DBD8CBD82B3866082BB88EE9DEF9093F0
:1000F0008900809388009F918F910F900FBE0F9081
:100100001F9018951F920F920FB60F9211248F9384
:1001100082B3897F82BB8F910F900FBE0F901F908B
:100120001895899A8A9ABADFC7DF86E082BB7894ED
:06013000FFCFF894FFCFA1
:00000001FF
