:020000040800F2
:100000000000022035130008691200086B12000876
:100010006D1200086F120008711200080000000045
:100020000000000000000000000000007312000843
:10003000751200080000000077120008791200080D
:100040008513000885130008851300088513000830
:100050008513000885130008851300088513000820
:100060008513000885130008851300088513000810
:100070008513000885130008851300088513000800
:1000800085130008851300088513000885130008F0
:1000900085130008851300088513000885130008E0
:1000A00085130008851300088513000885130008D0
:1000B00085130008851300088513000885130008C0
:1000C00085130008851300088513000885130008B0
:1000D00085130008851300087D12000885130008A9
:1000E0008513000885130008851300088513000890
:1000F0008513000885130008851300088513000880
:10010000851300088513000885130008891200086C
:10011000851300088513000885130008851300085F
:10012000851300088513000885130008851300084F
:10013000851300088513000885130008851300083F
:10014000851300088513000885130008851300082F
:10015000851300089512000885130008A1120008F5
:10016000851300088513000885130008851300080F
:10017000851300088513000885130008000000009F
:08018000851300088513000837
:1001900001F0FF01102A2BDB10F0070F08D010F838
:1001A000013B013A8B422DD010F0070F42B3F6D13C
:1001B000F0B441EA012141EA014122F007047FF055
:1001C00000070023F0E80256083C85EA010586EAAC
:1001D000010685FA47F5A3FA87F586FA47F6A5FAE8
:1001E00087F68EB9EED1F0BC01F0FF0102F00702F4
:1001F00032B110F8013B013A83EA010313B1F8D19F
:100200000020704701387047002D06BF354603387F
:10021000073815F0010F07D1013015F4807F02BFB8
:10022000013015F4C03F0130F0BC0138704700BF09
:1002300053B94AB9002908BF00281CBF4FF0FF314D
:100240004FF0FF3000F00CB8ADF1080C6DE904CEB2
:1002500006F06AFCDDF804E0DDE9022304B0704733
:10026000704700BF0348044B834202D0034B03B1E5
:100270001847704780000020800000200000000028
:100280000548064B1B1AD90F01EBA301491002D0F8
:10029000034B03B118477047800000208000002006
:1002A0000000000010B5064C237843B9FFF7DAFFD1
:1002B000044B13B10448AFF300800123237010BD39
:1002C0008000002000000000E46D000808B5054B28
:1002D0001BB105490548AFF30080BDE80840FFF7B2
:1002E000CFBF00BF0000000084000020E46D0008C4
:1002F000054B0A4619688B689B07FCD501466423A9
:10030000014802F0C7BA00BF24E2002007B5084B3D
:100310008DF807001A6893689B07FCD564230122B7
:100320000DF10701024802F0B5FA03B05DF804FBD5
:1003300024E2002008B505480022042101F022FD36
:10034000BDE80840012001F06FB800BF000C02407A
:1003500008B505480122042101F014FDBDE808405C
:10036000012001F061B800BF000C02401FB5FF235F
:100370008DF80E30094B1A6893689B07FCD56423EF
:1003800000930DF10F0201230DF10E01034802F05D
:100390002EFB9DF80F0005B05DF804FB24E2002061
:1003A00013B5FFF7D5FF0A24FF20FFF7AFFF013C8D
:1003B000FAD1FFF7BFFF4023009306214FF4154306
:1003C0006846ADF80430FFF793FF4FF40054FFF791
:1003D000CDFF012809D1FFF7BBFFFF20FFF796FFF4
:1003E000034B01221A7002B010BD013CEFD1F2E7BD
:1003F0009C00002010B5064C4FF4FA732380FFF7E1
:10040000B5FFFF2802D02388002BF8D110BD00BF14
:100410009E00002070B506460D46FFF7EBFFFF2853
:100420004FF0000423D12846FFF770FFFD2D18D0B0
:100430004FF400713046FFF75BFFFFF797FFFFF7C0
:1004400095FF4125FFF792FF00F01F03052B04469F
:1004500003D0013D15F0FF05F4D1FFF787FF002819
:10046000FBD004F01F04631F5842584170BD204662
:10047000FCE738B504460D46FFF7BCFFFF2828D13E
:100480002046FFF743FF280EFFF740FFC5F3074064
:10049000FFF73CFFC5F30720FFF738FFE8B2FFF78F
:1004A00035FF402C13D0482C14BF01208720FFF7C4
:1004B0002DFF4C2C01D1FFF759FF0A24FFF756FFFF
:1004C000030603D5013C14F0FF04F7D138BD952095
:1004D000EDE7FF20FAE7000070B50F4DC823044692
:1004E0000E462B80FFF742FFFF2803D12888002803
:1004F000F8D170BDFE280DD1651E3444FFF736FFDC
:1005000005F8010FA542F9D1FFF730FFFFF72EFFE5
:100510000120EEE70020ECE7A00000202DE9F341E8
:10052000002840F09D804F4E357815F0020504D02C
:100530003078C0B202B0BDE8F081FFF731FFFFF7BD
:10054000F9FE29464020FFF794FF012804460DD00C
:100550000024454B1C70FFF7FBFEFFF707FF002C44
:100560007BD0337803F0FE033370E1E73F4F4FF465
:100570007A734FF4D57148203B80FFF77AFF01284A
:100580003DD101ADA8460424FFF7F0FE013C14F074
:10059000FF0408F8010BF7D19DF80630012BD7D1E5
:1005A0009DF80730AA2BD3D100217720FFF761FFF8
:1005B000012803D93B88002BF6D1C9E74FF08041D1
:1005C0006920FFF756FF01460028F3D13B88002B36
:1005D000BED07A20FFF74DFF0028B9D10424FFF7E1
:1005E000C5FE013C14F0FF0405F8010BF7D19DF89E
:1005F000043013F0400F0CBF04240C24A9E7294653
:100600007720FFF736FF012806D829466920FFF733
:1006100030FF012898BF0224022C4FF000011AD1AC
:100620007720FFF726FF012803D93B88002BF3D161
:100630008EE700216920FFF71CFF0028F5D13B88D9
:10064000002B85D04FF400715020FFF712FF0028D7
:100650007FF47EAF7DE74120EDE7054B1C7067E737
:10066000012067E7000000209D000020A00000207E
:100670009C00002018B9034B1878C0B270470120C5
:10068000704700BF0000002070B50E4615461C469E
:10069000002837D1002B35D01C4B1B78DA0733D418
:1006A0001B4B1B785B0758BF6D02FFF743FE012C05
:1006B000294613D15120FFF7DCFE38B94FF4007101
:1006C0003046FFF709FFB0FA80F46409FFF740FEF7
:1006D000FFF74CFE201E18BF012070BD5220FFF70F
:1006E000C8FE0028F2D14FF400713046FFF7F4FE47
:1006F00018B1013C06F50076F5D100214C20FFF73A
:10070000B8FEE3E70420E8E70320E6E70000002066
:100710009D000020F8B50D4616461C46002847D11E
:10072000002B45D0254B1A78D00743D41B785907A6
:1007300042D4234F3B785A0758BF7602FFF7FAFDA1
:10074000012C13D131465820FFF793FE70BBFE21D8
:100750002846FFF75FFEB0FA80F46409FFF7F8FD62
:10076000FFF704FE201E18BF0120F8BD3B789B0751
:1007700007D500217720FFF77CFE21465720FFF7A1
:1007800078FE31465920FFF774FE0028E6D1FC219F
:100790002846FFF73FFE18B1013C05F50075F6D17C
:1007A000FD210020FFF736FE0028D7D10124D5E730
:1007B0000420DAE70320D8E70220D6E70000002073
:1007C0009D0000207FB50E4615460446002840F0E7
:1007D0008F80052913D11378012B09D0022B0AD061
:1007E000002B40F08580444B1870204604B070BD4B
:1007F000FFF7D6FDF9E7404B1B785370F5E73F4B09
:100800001C7814F0010475D1FFF794FD0D2E6DD8FE
:10081000DFE806F04807446C6C6C6C6C6C6C6C4FD9
:100820005D6000214920FFF724FE28B10124FFF775
:100830008FFDFFF79BFDD8E710216846FFF74CFEC0
:100840000028F3D09DF800109DF809309DF808208D
:100850008909012906D1013303EB02239BB29B02D4
:100860002B60E4E79DF807109DF80A00920902EB5F
:1008700081029DF80610890201F4406101320A44A8
:100880009DF805105B0001F00F0101EBD01103F0A2
:1008900006030B44073B02FA03F3E1E74FF400734E
:1008A0002B80C4E7FFF7A6FDB0F1FF0418BF0124B9
:1008B000BDE700214920FFF7DCFD0028B6D110215B
:1008C0002846FFF709FEB0FA80F46409AFE700217B
:1008D0004A20F0E700217A20FFF7CBFD30B92C1D2C
:1008E000FFF744FD05F8010BAC42F9D104249EE763
:1008F00004247AE7032478E79C000020000000200D
:100900002DE9F0470546ADF5047D2D480E4605F06E
:1009100083FB2C4906A804F041FE002841D1DFF8F2
:10092000A4A0DFF8AC80DFF8AC903CA906A804F0E6
:1009300094FE014600283ED19DF80A31002B33D0A9
:100940009DF8FC403C9F14F0100F0CBF2D22442258
:1009500014F0010F0CBF2D23522314F0040F0CBF11
:100960002D21532114F0020F0CBF2D2048200DF52E
:100970008574CDE901070091CDE903A441461CA887
:1009800005F0A2FC4946204605F001FD28B12146AC
:10099000284604F06FFF3C9B33601CA805F03CFB2D
:1009A000C3E7094805F038FB06480DF5047DBDE8AE
:1009B000F04705F031BB054804F064FFF4E700BFE1
:1009C000FC6D0008656F0008176E0008256E0008B2
:1009D0003A6E00084F6E0008034B0448D3E900123A
:1009E000836081F3088810470000010800ED00E0F3
:1009F000084908B50A68084B9A4205D0074804F030
:100A000041FF4FF0FF3008BD054804F03BFF0020D8
:100A1000F9E700BF0000010800000220546E000842
:100A20006F6E0008F8B5084F0E4614460025A54223
:100A300001DB2046F8BD71194FF6FF7301223846DD
:100A400002F044FA0135F2E79CE100202DE9F04183
:100A500007460F488846164605F0DEFA72B600F0E3
:100A600083FF00242546B44207EB840105D162B61A
:100A700000F08CFF2846BDE8F08158F824200023C0
:100A8000022000F0B5FF0544EDB20134EBE700BFF2
:100A9000936E000870B586B0044600260C480D46DB
:100AA00005F0BAFA009672B600F05EFF02236946BE
:100AB00001A8CDE903450196059301F03BF828B163
:100AC00062B600F063FF012006B070BD62B6FBE7BE
:100AD000A66E00082DE9F74F05460E463D48144620
:100AE00005F09AFA01223146284604F027FAD5E9A2
:100AF000043213433FD003210420FFF7CBFF064607
:100B0000002862D10623042203213348334FDFF843
:100B1000D4A0DFF8D8B004F0B5FE4FF44042B4FBE7
:100B2000F2F35FFA83F902FB13442D48234649464A
:100B300004F0A8FEB846F3B2994522D84FF44043DA
:100B400003FB0977224601AB2649284604F092FBB5
:100B50000199254804F096FE3946244804F092FE97
:100B60002049A2083846FFF771FF2246394650BB9C
:100B70001F4804F087FE284603B0BDE8F04F04F09C
:100B8000FCBC01AB4FF440425146284604F072FBD6
:100B90000199154804F076FE4146584604F072FE6D
:100BA0004FF4405251464046FFF750FF4FF4404249
:100BB000414630B90E4804F065FE08F5404801365C
:100BC000B9E70C48F7E70B48D3E70B4805F024FAE0
:100BD000D1E700BFC06E0008F46E000800000108F5
:100BE0001D6F0008A4000020416F0008506F00082E
:100BF0006C6F0008666F0008906F000830B5002425
:100C000095B01422214603A8CDE9094405F038FC2B
:100C10001F4B01941A6C42F080521A641B6C03F053
:100C200080530193019B1B4B02941A6842F480424B
:100C30001A601B6803F480430293029B0A23089303
:100C4000102201230820CDE90B320D93A823CDE912
:100C500010030225072308A8CDE90E54129513931B
:100C600001F096F808B172B6FEE70F23CDE903351F
:100C700005904FF4A0524FF48053052103A8CDE90D
:100C8000062301F061FA08B172B6FEE715B030BD77
:100C9000003802400070004080B5A2B0AF4D002483
:100CA00000F096FBFFF7AAFF1422002109A805F027
:100CB000E7FB03942B6BAA4843F010032B632B6BC9
:100CC00003F010030393039B04942B6B43F0040382
:100CD0002B632B6B03F004030493049B05942B6B91
:100CE00043F080032B632B6B03F080030593059B7C
:100CF00006942B6B43F001032B632B6B03F0010372
:100D00000693069B07942B6B43F002032B632B6B1C
:100D100003F002030793079B08942B6B43F008032F
:100D20002B632B6B03F00803089301220621089B19
:100D300001F028F88A482246082101F023F8012210
:100D40001146884801F01EF8874822464FF470414A
:100D500001F018F801228448042101F013F801265B
:100D600004277F4809A9CDE90976CDE90B664FF044
:100D70000A0800F02FFF7A4809A9CDE90986CDE9D4
:100D80000B4400F027FF774809A9CDE90966CDE9B2
:100D90000B4400F01FFF75480B9409A9CDE90974B5
:100DA00000F018FF4FF47043CDE909366E480B94FC
:100DB000032309A90C9300F00DFF6B4809A9CDE9A5
:100DC0000976CDE90B6600F005FF02942B6B43F426
:100DD00080032B632B6B03F480032246214602938E
:100DE0004520029B00F046FB452000F075FB604863
:100DF000604B04614FF4E1370C25C0E90037C0E9CE
:100E00000244C0E90554C46102F032F8034608B157
:100E100072B6FEE7584859494FF48272C0E9001291
:100E20004FF400741022C0E90233C0E90433C0E972
:100E30000642C0E90833C0E90A3801F0CFFC08B126
:100E400072B6FEE702F044FA4D484E4B036001F0E3
:100E5000CDFA804608B172B6FEE71422014609A811
:100E600005F00EFB484C494BCDF80480C4E900382E
:100E70007F22FF232046C4E90223C4E90488C4F882
:100E8000188001F0FDFA08B172B6FEE7CDE90C005A
:100E9000ADF824008DF82600324609A9204601F05D
:100EA00048FB08B172B6FEE7394B0193324601A9FF
:100EB000204601F0AFFB034608B172B6FEE73548A5
:100EC000354AC0E90233C0E90027C0E90435C0E96A
:100ED000063301F0CDFF08B172B6FEE72F4805F0EA
:100EE0009BF82F482F4B036000F018FB044608B115
:100EF00072B6FEE72C4805F08FF8224631462B48A3
:100F000004F0C0FC2A492B4804F0BCFC2A492B48B9
:100F100004F0B8FC2A492B4804F0B4FC22462A49C4
:100F20002A4803F0E1FF01A909A80194FFF7E8FCB2
:100F3000019C4CB1224609A9254804F0A3FC254890
:100F4000224609A9FFF7C6FDFFF752FD20B9224846
:100F500005F062F8FFF740FDFEE700BF00380240F1
:100F60000010024000080240000C02400004024051
:100F70009CE100200014014024E20020003C0040DD
:100F80009CE20020000806507CE20020002800407F
:100F900001050923E0E1002000440040AD6F000896
:100FA000ACE2002000300240E46F00081670000838
:100FB00000C0000836700008000001085B700008DF
:100FC0000000100875700008656F000800D100204F
:100FD0008F700008A8C00020B270000872B6FEE74B
:100FE00082B00C4B002100915A6C42F480425A644A
:100FF0005A6C02F480420092009A01911A6C42F0FD
:1010000080521A641B6C03F080530193019B02B061
:10101000704700BF003802400268094B9A4282B014
:101020000BD100230193074B1A6B42F480521A63D1
:101030001B6B03F480530193019B02B0704700BF08
:1010400000300240003802400268094B9A4282B0E8
:101050000BD100230193074B5A6B42F040025A63B5
:101060005B6B03F040030193019B02B0704700BF2C
:1010700000080650003802401FB504461022002127
:10108000684605F0FDF92268094B9A420ED1022309
:10109000009368464FF40073039301F00FF908B111
:1010A000FFF79CFF034B0122C3F83C2E04B010BD98
:1010B0000028004000004742F0B5044689B01422E1
:1010C000002103A805F0DCF922681E4B9A4237D1B3
:1010D00003F5FE33002401941A6C1B4842F40042CD
:1010E0001A641A6C02F400420192019A02941A6B7B
:1010F00042F004021A631B6B03F004030293029B89
:1011000002274FF480630326062503A9CDE90337A0
:10111000CDE9066500F05EFD4FF4C053CDE903371D
:1011200009480795012303A9CDE9053600F052FDD2
:1011300033202246214600F09DF9332000F0CCF9FF
:1011400009B0F0BD003C00400008024070B5142218
:101150008AB0064600210DEB020005F091F93368D4
:101160003A4A93422BD13A4B3A48002401941A6CE4
:1011700042F400321A641A6C02F400320192019AAD
:1011800002941A6B42F001021A631B6B03F0010315
:101190000293029B0C250223CDE9055305A90723E1
:1011A0000326CDE9086300F015FD262022462146DE
:1011B00000F060F9262000F08FF90AB070BD264AD1
:1011C0009342FAD1224B2548254C002503955A6CB1
:1011D00042F020025A645A6C02F020020392039AF1
:1011E00004951A6B42F004021A631B6B03F00403AC
:1011F0000493049BC0220223CDE905230321082385
:10120000CDE9081305A900F0E5FC16484FF020636E
:10121000C4E900034023C4E902354FF48063C4E904
:10122000043520464FF40033C4E90655C4E90835B7
:1012300000F09AF908B1FFF7D1FE0022746347204D
:101240001146A66300F016F94720B4E700440040B9
:101250000038024000000240001401400008024033
:101260003CE10020A0640240FEE7FEE7FEE7FEE767
:10127000FEE770477047704700F0C4B8014801F0BE
:10128000E1BE00BFE0E10020014801F0A1BC00BFC9
:1012900024E20020014800F035BA00BF3CE1002004
:1012A000014801F0CFBE00BF9CE1002070B50D46A3
:1012B00014460E46731B9C4201DC204670BDAFF302
:1012C000008006F8010BF5E74FF0FF3070474FF450
:1012D00000534B600020704701207047002070478A
:1012E0000B4A116810B5034609B90A491160106824
:1012F00009490A4C0344091B8B4206D905F082F8C0
:101300000C2303604FF0FF3010BD1360FCE700BFFB
:10131000B4E20020000000100000022000400000A5
:10132000034AD2F8883043F47003C2F8883070471B
:1013300000ED00E0DFF834D00D480E490E4A0023DE
:1013400002E0D458C4500433C4188C42F9D30B4A79
:101350000B4C002301E013600432A242FBD3FFF7E1
:10136000DFFF04F063FAFFF797FC704700000220EC
:101370000000002080000020A075000880000020F0
:10138000C4E80020FEE7000038B50E4B1A784FF491
:101390007A73B3FBF2F30C4A05461068B0FBF3F026
:1013A00000F0A8F8044658B90F2D09D8024629467E
:1013B0004FF0FF3000F05EF8044B20461D6038BD52
:1013C0000120FCE708000020040000200C000020A1
:1013D00008B50B4B1A6842F400721A601A6842F49E
:1013E00080621A601A6842F480721A60032000F06A
:1013F0002FF80F20FFF7C8FFFFF7F2FD002008BD10
:10140000003C0240034A044B11681B780B441360F4
:10141000704700BFB8E2002008000020014B1868A8
:10142000704700BFB8E2002038B50446FFF7F6FF6A
:10143000631C1CBF054B1B78054618BFE418FFF75B
:10144000EDFF431BA342FAD338BD00BF08000020C4
:101450000749CA6822F4E0620302120403F4E0635D
:10146000120C134343F0BF6343F40033CB60704767
:1014700000ED00E0164B30B5DC68C4F30224C4F183
:101480000703251D042B28BF0423062D4FF0FF352D
:101490008CBF033C002405FA03F321EA0303A540B3
:1014A00022EA0502A340002843EA0203ACBF00F190
:1014B0006040084A4FEA0313B8BF00F00F00DBB2E8
:1014C000AABF00F56140135480F8003330BD00BF5F
:1014D00000ED00E014ED00E0002807DB4109044ABC
:1014E00000F01F000123834042F82130704700BF05
:1014F00000E100E00138B0F1807F0BD24FF0E02333
:10150000054A5861F02182F82310002007229861D3
:101510001A6170470120704700ED00E010B50446E5
:1015200050B1437903F0FF0213B90271FFF774FD64
:1015300001236371002010BD0120FCE7036810B592
:10154000084C0246D9B210391820B1FBF0F0205CEB
:10155000D06523F47F7020F003005F2988BF04303A
:10156000906510BD4D71000870B50446FFF756FF39
:101570000546002C60D0022384F835302268002311
:1015800084F83430136823F0010313602268136871
:10159000D8072ED413683248A1691840D4E9013520
:1015A0002B43E5682B4325692B4365692B43E5698C
:1015B0000B432B43256A2B430343606A042802BF75
:1015C000D4E90B5635432B4313605369042823F0A9
:1015D000070343EA000335D1A06AE56A03438DB3EC
:1015E00091B9012820D030F002012BD1E90129D591
:1015F0001DE0FFF713FF401B0528C7D92023032058
:10160000636584F8350070BDB1F5005F16D103281D
:1016100018D801A151F820F02F160008ED15000888
:101620002F16000829160008B5F1C07F0AD1402303
:101630006365012384F835300120E4E70228F6D9F8
:101640000328D3D053612046FFF778FFE26D3F2394
:101650009340836000200123606584F83530D2E731
:101660003F8010F070B50446866DFFF7D7FE94F802
:101670003530022B054606D0802363650120002308
:1016800084F8343070BD23681A6822F016021A609C
:101690005A6922F080025A61226C0AB9A26C1AB10E
:1016A0001A6822F008021A601A6822F001021A6011
:1016B0002368186810F0010007D1E26D3F239340C2
:1016C000B360012384F83530D9E7FFF7A7FE401B4C
:1016D0000528EDD920230320636584F83500CEE783
:1016E00090F83530022B03D08023436501207047EA
:1016F0000268052380F83530136823F00103136076
:1017000000207047F7B5002301935C4B856D1F687F
:10171000C36D2E6808229A40324204460CD00168FC
:101720000868400708D5086820F004000860AA602F
:10173000626D42F00102626501229A40324208D095
:1017400021684969090641BFAA60626D42F0020240
:10175000626504229A40324208D0216809688807ED
:1017600041BFAA60626D42F00402626510229A4095
:10177000324210D02368196809070CD5AA601A688C
:10178000500337D51B68190301D4236C00E0A36C08
:101790000BB120469847E16D20228A4032423AD070
:1017A00023681868C60636D5AA6094F83520052A3D
:1017B0001A6827D122F016021A605A6922F08002B4
:1017C0005A61226C0AB9A26C1AB11A6822F0080296
:1017D0001A603F238B40AB60012384F8353000232F
:1017E00084F83430236D002B45D0204603B0BDE88B
:1017F000F04018471A68D2055EBF1A6822F0080246
:101800001A60C2E7500327D51B68190331D4636CF3
:101810000BB120469847636D6BB3636DDA0719D53A
:1018200022684FF41653B7FBF3F7052384F83530DD
:10183000136823F001031360019B0133BB42019342
:1018400002D81368DB07F7D4012384F8353000236E
:1018500084F83430E36CC6E71A6812F4807208D159
:10186000196821F010011960012384F8353084F8DB
:101870003420E36BCCE703B0F0BD00BF04000020D0
:10188000094910B50C6924F440740C610C6944F4E6
:1018900040740C610C6944F001040C610260BFF3F8
:1018A0006F8F436010BD00BF003C0240074B1A69B8
:1018B00022F440721A611A6942F400721A611A69BC
:1018C00042F001021A610160704700BF003C024013
:1018D000074B1A6922F440721A611A6942F4807245
:1018E0001A611A6942F001021A610180704700BF53
:1018F000003C02401A4BDA68D20606D51949CA697B
:1019000042F01002CA611022DA60DA68900606D549
:101910001449CA6942F00802CA612022DA60104BF9
:10192000DA68510606D50F49CA6942F00402CA6155
:101930004022DA60DA68120606D50A49CA6942F01E
:101940000202CA618022DA60054AD3689B0706D585
:101950000449CB6943F02003CB610223D360704775
:10196000003C0240BCE20020064B1A69002ABFBFBF
:10197000054A5A6002F188325A60BABF1869C00F2E
:1019800000207047003C024023016745034A136969
:1019900043F0004313610020704700BF003C024049
:1019A000114B70B500220446DA61FFF737FD0F4D89
:1019B0000646EB68DA030CD4EB68DB0744BF01236F
:1019C000EB60E86810F0F20007D0FFF793FF01200A
:1019D00003E0611CEDD00CB9032070BDFFF71EFDC4
:1019E000801BA042E5D9F7E7BCE20020003C0240A2
:1019F0002DE9F0411F4E9846337E012B07460D46D8
:101A0000144635D001234CF250303376FFF7C8FF2F
:101A1000B0B9CFB9184B1A6922F440721A611A6929
:101A20001A611A69E4B242F001021A612C704CF298
:101A30005030FFF7B5FF104A136923F0010313611B
:101A400000233376BDE8F081012F04D1A1B22846EE
:101A5000FFF73EFFEBE7022F04D121462846FFF7B0
:101A600025FFE4E7224643462846FFF709FFDEE765
:101A70000220E7E7BCE20020003C0240074B1A6965
:101A800022F440721A611A6942F004021A611A695A
:101A900042EA002242F480321A617047003C024060
:101AA0000D4B1A6922F440721A611A69022994BF17
:101AB00009024FF440710A431A611A6922F0F802D0
:101AC0001A611A6942EAC00040F0020018611A69FE
:101AD00042F480321A617047003C0240144B1A688D
:101AE00091050FD51A6822F400721A601A6842F440
:101AF00000621A601A6822F400621A601A6842F4DE
:101B000000721A600A4B1A6852050FD51A6822F43F
:101B100080621A601A6842F480521A601A6822F4CD
:101B200080521A601A6842F480621A60704700BFDF
:101B3000003C02402DE9F843DFF8948098F8183013
:101B4000012B05460F463FD001234CF2503088F858
:101B50001830FFF725FF0446A0B94FF0FF333B6074
:101B60002B68012B14D1287CFFF788FF4CF25030F2
:101B7000FFF716FF154A136923F0040304461361A7
:101B8000FFF7ACFF002388F818302046BDE8F88343
:101B9000AE68DFF83890D5E902231344B342EFD999
:101BA000297C3046FFF77CFF4CF25030FFF7F8FEFF
:101BB000D9F8103023F0FA03C9F8103010B13E60A4
:101BC0000446DDE70136E6E70224DEE7003C02409A
:101BD000BCE200202DE9F74FDFF8A491664A00230C
:101BE0000D6801249C4004EA0506AC4340F0AF8038
:101BF0004D68032705F003044FEA430807FA08FC81
:101C0000671E012F6FEA0C0C34D8876807EA0C0EA8
:101C1000CF6807FA08F747EA0E078760476827EAA0
:101C2000060EC5F300179F4047EA0E074760C768D6
:101C300007EA0C0E8F6807FA08F747EA0E07022C2E
:101C4000C76019D14FEAD30A00EB8A0A03F0070BE9
:101C5000DAF820704FEA8B0B4FF00F0E0EFA0BFEE6
:101C600027EA0E0E0F6907FA0BF747EA0E07CAF8C4
:101C7000207001E0032CDAD1076804FA08F407EABF
:101C80000C073C4315F4403F046060D000240194ED
:101C9000D9F8444044F48044C9F84440D9F8444059
:101CA00023F0030707F1804704F4804407F59C37CD
:101CB000019403F0030C019CD7F808E04FEA8C0C68
:101CC0000F2404FA0CF42EEA040E2C4CA04245D04A
:101CD00004F58064A04243D004F58064A04241D062
:101CE00004F58064A0423FD004F58064A0423DD05A
:101CF00004F58064A0423BD004F58064A04239D052
:101D000004F58064A04214BF0824072404FA0CF4EC
:101D100044EA0E04BC601468F74315F4803F0CBF1E
:101D20003C4034431460546815F4003F0CBF3C4001
:101D300034435460946815F4801F0CBF3C40344316
:101D40009460D468AD0254BF3C403443D460013346
:101D5000102B7FF445AF03B0BDE8F08F0024D5E72A
:101D60000124D3E70224D1E70324CFE70424CDE7FD
:101D70000524CBE70624C9E7003C014000000240EF
:101D8000003802400AB1816170470904FBE7000096
:101D90002DE9F341044640B30368DE0710D42368FD
:101DA0009D075BD42368190700F19D8023685A07BB
:101DB00000F1BD80A369002B40F0248100202CE0BD
:101DC0008D4B9A6802F00C02042A07D09A6802F040
:101DD0000C02082A0BD15B68590208D5864B1B6898
:101DE0009A03DCD56368002BD9D1012015E0636824
:101DF000814DB3F5803F13D12B6843F480332B60C2
:101E0000FFF70CFB7C4E054633689B03C7D4FFF7F6
:101E100005FB401B6428F7D9032002B0BDE8F08120
:101E2000B3F5A02F04D12B6843F480232B60E3E7A4
:101E30002A6822F480322A602A6822F480222A60EA
:101E4000002BDDD1FFF7EAFA06462B689F03A6D5E3
:101E5000FFF7E4FA801B6428F7D9DDE7664B9A6840
:101E600012F00C0F07D09A6802F00C02082A11D168
:101E70005B685D020ED4604A1368990702D5E36877
:101E8000012BB2D11368216923F0F80343EAC1039F
:101E9000136087E7E268594BB2B101221A60FFF77D
:101EA000BDFA554D06462B689B0707D52B6822695E
:101EB00023F0F80343EAC2032B6073E7FFF7AEFA9F
:101EC000801B0228EFD9A7E71A60FFF7A7FA4A4E4E
:101ED000054633689F077FF565AFFFF79FFA401B04
:101EE0000228F6D998E76269444B82B10122C3F80F
:101EF000802EFFF793FA404E0546736F9B073FF520
:101F000055AFFFF78BFA401B0228F6D984E7C3F8D8
:101F1000802EFFF783FA384E0546736F9F077FF5D3
:101F200045AFFFF77BFA401B0228F6D974E7324B26
:101F30001A6C12F0805228D101921A6C42F0805231
:101F40001A641B6C03F080530193019B01272C4DF5
:101F50002B68D8051BD5A368274D012B27D12B6FE4
:101F600043F001032B67FFF759FA234E054641F270
:101F70008838336F9A0739D5002F3FF41BAF1E4ABC
:101F8000136C23F08053136414E70027DFE72B68FA
:101F900043F480732B60FFF741FA06462B68D9059E
:101FA000D9D4FFF73BFA801B0228F7D934E7052B79
:101FB00004D12B6F43F004032B67D0E72A6F22F084
:101FC00001022A672A6F22F004022A67002BCAD175
:101FD000FFF724FA41F2883806462B6F9B07CBD5D2
:101FE000FFF71CFA801B4045F7D915E7FFF716FAF3
:101FF000401B4045BDD90FE7003802400000474272
:1020000000700040374DAA6802F00C02082A3ED04A
:10201000022B354B4FF000021A662BD1FFF7FEF969
:1020200006462B6899011FD4D4E907321343626A2C
:1020300043EA8213E26A43EA0263A26A5208013A5F
:1020400043EA02436B60284B264D01221A66FFF7D4
:10205000E5F904462B689A013FF5B0AEFFF7DEF9CB
:10206000001B0228F6D9D7E6FFF7D8F9801B022813
:10207000D7D9D1E6FFF7D2F904462B689B017FF54B
:102080009DAEFFF7CBF9001B0228F6D9C4E6012B61
:102090003FF4ABAE6B68E26903F4800191427FF4D8
:1020A000A4AE216A03F03F028A427FF49EAE616AC9
:1020B00047F6C0721A40B2EB811F7FF496AEA26A57
:1020C000520803F44031013AB1EB024F7FF48DAE78
:1020D000E26A03F07063B3EB026F14BF01200020CB
:1020E0009BE600BF0038024000004742134908B594
:1020F0008B6803F00C03042B1CD0082B1CD14A68FE
:102100004B68496813F4800314BF0D480D48C1F3B0
:10211000881118BF002302F03F02A1FB0001FEF767
:1021200087F8064B5B68C3F3014301335B00B0FBE8
:10213000F3F008BD0248FCE70248FAE70038024025
:10214000404B4C000024F4002DE9F0410D460446BC
:1021500010B90120BDE8F081434B1A6802F0070274
:102160008A4228D321688F072DD4C80740D43E4B1C
:102170001A6802F00702AA4265D8226851076BD498
:10218000130707D5394A2169936823F4604343EA6A
:10219000C1039360FFF7AAFF344B354A9B68C3F332
:1021A0000313D35CD840334B1860334B1868FFF7E8
:1021B000EBF80020CEE7CAB21A701B6803F00703E1
:1021C0008B42C6D1CEE7294B11F0040F1EBF9A688F
:1021D00042F4E0529A600E0742BF9A6842F46042AD
:1021E0009A609A68A06822F0F00202439A60BCE705
:1021F00062681E4B012A1CD11B6813F4003FA8D053
:102200001A4EB36823F003031343B360FFF706F9D4
:1022100041F288380746B368626803F00C03B3EBF9
:10222000820FA4D0FFF7FAF8C01B4045F3D9032072
:1022300090E7911E01291B6802D813F0007FDEE7AA
:1022400013F0020FDBE7EAB21A701B6803F0070312
:10225000AB427FF47EAF90E70449E0688B6823F4DB
:10226000E05303438B608BE7003C024000380240A0
:102270003D710008040000200C000020044B054ABA
:102280009B68C3F38223D35C034A1068D84070472D
:10229000003802403571000804000020044B054A54
:1022A0009B68C3F34233D35C034A1068D84070473D
:1022B000003802403571000804000020036813F064
:1022C000050FF7B5044605D123689B072AD40020E3
:1022D00003B0F0BD424B434E00229A66FFF79EF8D2
:1022E000054633681F0116D4D4E901231B0743EACE
:1022F0008213C6F884303A4B3A4E01229A66FFF7B1
:102300008DF8054633681801DED4FFF787F8401BC7
:102310000228F7D904E0FFF781F8401B0228E0D932
:102320000320D5E7002301932E4B2F4D1A6C42F06A
:1023300080521A641B6C03F080530193019B2B683D
:1023400043F480732B60FFF769F806462B68D905C4
:102350001BD5244DE2682B6F13F440731BD1E36847
:1023600003F44072B2F5407F1E4A34D1916823F0E5
:10237000704021F4F81120F4407001439160116F16
:10238000C3F30B030B431367A1E7FFF747F8801B69
:102390000228DBD9C4E702F440729342DFD02B6FEE
:1023A0000F4A0121C2F8401E23F440730021C2F8F5
:1023B000401E2B672B6FDA07D1D5FFF72FF841F2BC
:1023C000883706462B6F9B07C9D4FFF727F8801B79
:1023D000B842F7D9A4E7916821F4F811CEE700BF1D
:1023E00000004742003802400070004010B504462B
:1023F00090B1437903F0FF0213B90271FEF724FE96
:10240000226802236371136843F004031360002001
:1024100001236371A06010BD0120FCE7026838B59C
:10242000D36823F0A003D3600446FEF7F7FF054608
:102430002368DB689B0601D5002038BDFEF7EEFF60
:10244000401BB0F57A7FF3D90320F6E738B503686F
:10245000DA685206044601D5002038BD4FF0FF323D
:10246000DA60FEF7DBFF05462368DB685B06F3D422
:10247000FEF7D4FF401BB0F57A7FF5D90320ECE7D7
:1024800038B50446B8B1437F03F0FF0213B90277B1
:10249000FEF7F2FD022363772368CA225A625322B1
:1024A0005A622046FFF7D2FF2368054630B1FF226B
:1024B0005A62042363770125284638BD9A6820694B
:1024C00022F4E00222F040029A60626899680243B6
:1024D000606902430A439A60E2681A611A69A16856
:1024E00042EA01421A61DA6822F08002DA609B68EF
:1024F0009B0605D42046FFF791FF08B12368D6E775
:102500002368A1691A6C22F480221A641A6C0A43A7
:102510001A64FF225A6201236377CDE7002309285A
:1025200003D840EA0310C0B270470A380133C0B282
:10253000F5E72DE9F041037F012B05460E464FF0EC
:1025400002072ED00168477701230377307874782B
:10255000B7788B6842BB13F0400308BFF370FFF7F6
:10256000DDFF80462046FFF7D9FF04463846FFF7D7
:10257000D5FFF37840EA034343EA084343EA0424DF
:10258000CA234B6253234B622846FFF75FFF2A683A
:102590000746A8B1FF23536204236B7700232B77F0
:1025A00001273846BDE8F08113F0400308BFF370FF
:1025B0002402F37844EA00443C4344EA0344DFE75E
:1025C00004F07F3424F0FE441460936823F48023E5
:1025D0009360D6E90330916803430B439360D3685B
:1025E00023F08003D360946814F020040AD12846B5
:1025F000FFF714FF30B12B68FF225A6204236B7778
:102600002C77CDE72B68FF225A6201236B770023DA
:102610002B77C6E7F8B5037F012B05464FF002067E
:102620001FD00123037746770E78C8784C788F78CF
:102630007603C2B146EA00433B4343EA04242B68D5
:10264000CA225A6253225A622846FFF7FFFE2A68BE
:102650000646F8B1FF23536204236B7700232B77E0
:1026600001263046F8BDE30642BF24F010040A34C8
:102670004C70FFF753FF04464878FFF74FFF0246C0
:102680003846FFF74BFF40EA060343EA044343EAB8
:102690000224D4E724F07F4424F0C0045460D368BB
:1026A00023F08003D360946814F020040AD12846F4
:1026B000FFF7B4FE30B12B68FF225A6204236B7718
:1026C0002C77CDE72B68FF225A6201236B7700231A
:1026D0002B77C6E72DE9F3411C4616460F46054603
:1026E000FEF79CFE3444241AFEF798FE244B1B6828
:1026F000C3F3CB336343804601932A68936837EA78
:10270000030301D000202EE0731CF7D0FEF786FEF5
:10271000A0EB0800A04229D32B685A6822F0E002FF
:102720005A606A68B2F5827F0AD1AA68B2F5004F92
:1027300002D0B2F5806F03D11A6822F040021A600D
:10274000AA6AB2F5005F07D11A6822F400521A6033
:102750001A6842F400521A60012385F851300023B0
:1027600085F85030032002B0BDE8F081019A019B4A
:10277000002A03F1FF33019308BF1446BDE700BFF1
:102780000400002037B51346124A1568124AB5FBFB
:10279000F2F54FF47A72554342680195B2F5827FA3
:1027A00004460BD10A468021FFF794FF78B1636D90
:1027B00043F020036365032003B030BD019B33B1B8
:1027C000019B013B019323689B681B06F6D4002004
:1027D000F2E700BF0400002000366E0110B5044689
:1027E000002855D0436A002B4ED14268B2F5827F53
:1027F00000D0C3610023A36294F8513003F0FF02BC
:1028000023B984F850202046FEF756FC2168A068C2
:10281000A269022384F851300B6823F040030B6057
:10282000636800F4044003F482730343E06800F437
:1028300000600343206900F002000343606900F078
:102840000100034302F400700343E06900F0380024
:102850000343206A00F080000343A06A00F40050A4
:1028600003430B60636A120C03F0100302F00402CE
:102870001A434A60CB6923F40063CB610020012333
:10288000606584F8513010BD0023C0E90433B1E71E
:102890000120F8E72DE9F7431F4690F85030012B4F
:1028A00004460D46904600F0A080012380F8503089
:1028B000FEF7B4FD94F85130012B8146D8B240F0B8
:1028C0009280002D61D0B8F1000F5ED0032384F810
:1028D000513000236365C4E91033A4F83680A36344
:1028E000A387E387A36826682563B3F5004FA4F8A0
:1028F000348007D1336823F040033360336843F4F6
:10290000804333603368E2685B065EBF336843F040
:1029100040033360B2F5006F63683FD113B1B8F183
:10292000010F07D135F8023BF3602563E38E013BCD
:102930009BB2E386E38E9BB2A3B94A463946204652
:10294000FFF720FF00284BD1A36833B90193236818
:10295000DA6801929B680193019B606D003818BF93
:10296000012012E022689368980705D5236B33F89D
:10297000021BD1602363D9E7FEF750FDA0EB0900ED
:10298000B842D7D3791CD5D00320012384F8513025
:10299000002384F8503003B0BDE8F08313B1B8F1E0
:1029A000010F08D12B783373236B01332363E38E3C
:1029B000013B9BB2E386E38E9BB2002BBDD0236824
:1029C0009A68920703D5226B12781A73ECE7FEF728
:1029D00025FDA0EB0900B842EDD37B1CEBD0D3E77B
:1029E00020236365B0E70220CFE70220D3E72DE97B
:1029F000F7431E4690F85030DDF82880012B04463E
:102A00000D46914600F0E180012380F85030FEF73A
:102A100005FD94F851306268012B0746D9B20AD0FF
:102A2000B2F5827F40F0CF80A368002B40F0CB80CE
:102A3000042940F0C88015B1B9F1000F09D1012077
:102A4000012384F85130002384F8503003B0BDE8EE
:102A5000F083002EF3D094F85130C4F83890042B52
:102A60001CBF052384F8513000236365C4E910338B
:102A70002368E687E6861968A687490658BF19685D
:102A8000256358BF41F04001A68658BF1960E16830
:102A9000B1F5006F48D10AB1012E07D135F8022BEC
:102AA000DA60E38E2563013B9BB2E3860125E38E6A
:102AB0009BB263B9E38F9BB24BB93A46414620467D
:102AC000FFF760FE002872D020236365B7E7216816
:102AD0008B689A070DD5E38E9BB253B145B1236B3A
:102AE00033F8022BCA602363E38E013B9BB2E3867B
:102AF00000258A6812F001020CD0E38F9BB24BB123
:102B0000A36BC96823F8021BA363E38F013B9BB24D
:102B1000E3871546FEF782FCC01B4045C7D3B8F1DA
:102B2000FF3FC4D003208BE70AB1012E08D12A78D9
:102B30001A73236B01332363E38E013B9BB2E3865D
:102B40000125E38E9BB21BB9E38F9BB2002BB4D05F
:102B5000226893689B070ED5E38E9BB25BB14DB1A3
:102B6000236B1B781373236B01332363E38E013BC9
:102B70009BB2E38600252268916811F001010DD017
:102B8000E38F9BB253B1A36BD2681A70A36B01336E
:102B9000A363E38F013B9BB2E3870D46FEF73EFC48
:102BA000C01B4045CDD3B8F1FF3FCAD0BAE7A368F8
:102BB000002B7FF445AF23680190DA6801929B688F
:102BC0000193019B3CE702203AE702203EE7704771
:102BD000F0B503685D689A68560685B004464FEA0A
:102BE0009211C2F3801708D4D60706D56E0604D515
:102BF000036C05B0BDE8F0401847960704D52806D9
:102C000002D5636C2046F4E741EA521102F4807069
:102C100001F0010101434FEA521657D0AA0655D5DB
:102C20007FB194F85120032A4FF0000148D0626D23
:102C300042F0040262650091DA6800929A6800929C
:102C4000009AF1070CD5626D42F001026265002224
:102C500002929A6802921A6822F040021A60029A5E
:102C600040B1626D42F008026265002203929A68E8
:102C70000392039A626D4AB35A6822F0E0025A60E6
:102C8000012284F85120AA0722D05A68E06C22F071
:102C900003025A6040B1104B0365FEF721FD18B1E5
:102CA000636D43F040036365A06C78B10A4B036524
:102CB000FEF716FD50B1636D43F04003636505E018
:102CC0000191DA6801929B680193019B05B0F0BD08
:102CD0002046FFF77CFFF9E7DD2C000808B5806B84
:102CE0000023C387C386FFF772FF08BD026802F1A5
:102CF0000C0353E8003F23F490730C3242E8003198
:102D000002680029F2D102F1140353E8003F23F0D6
:102D1000010302F1140C4CE800310029F3D1036BDC
:102D2000012B0BD102F10C0353E8003F23F01003F9
:102D300002F10C0C4CE800310029F3D1202380F87B
:102D40003E300023036370470268C16838B51369D9
:102D500023F440530B431361054683680069D1682F
:102D6000034368690343E86921F4164121F00C012B
:102D700003430B43D3605369A96923F440730B43A6
:102D800053611F4B9A4203D003F580639A4224D1CA
:102D9000FFF784FAEA691921B2F5004FD5E900433B
:102DA000A0FB01011CD1DA184FF0000545EB05032B
:102DB000FDF73EFA6422B0FBF2F102FB1103DB00E7
:102DC0003233B3FBF2F303F007025B0002EB0112B4
:102DD00003F4F8731344A36038BDFFF74FFAD9E743
:102DE0009A009B0FFDF724FA6422B0FBF2F102FB7C
:102DF00011031B013233B3FBF2F303EB0113EAE7D8
:102E000000100140F8B504460E4617461D462268DC
:102E1000136836EA030301D1002028E06B1CF7D0C9
:102E200025B1FEF7FBFAC01B8542F0D2226802F101
:102E30000C0353E8003F23F4D0730C3242E8003017
:102E400021680028F2D101F1140353E8003F23F078
:102E5000010301F1140040E80032002AF3D12023DD
:102E600084F83D3084F83C2084F83E300320F8BDDF
:102E700010B5044640B390F83D3003F0FF021BB993
:102E800080F83C20FEF762F92268242384F83D3064
:102E9000D36823F40053D3602046FFF755FF23681F
:102EA0001A6922F490421A615A6922F02A025A6180
:102EB000DA6842F40052DA6000202023206484F8AB
:102EC0003D3084F83E3010BD0120FCE72DE9F84389
:102ED000984690F83D30202B04460E46174648D1C0
:102EE000002944D0002A42D090F83C30012B40D039
:102EF000012380F83C3000252123056480F83D3013
:102F0000FEF78CFAA368A784B3F5805F8146E78457
:102F100003D123690BB935461E46002384F83C30A3
:102F2000E38C9BB253B943464A4640212046FFF703
:102F300069FF50B9202384F83D3007E043464A46F4
:102F400080212046FFF75EFF10B10320BDE8F88323
:102F500022684EB935F8023BC3F308035360E18C95
:102F6000013989B2E184DBE716F8013BF6E701207D
:102F7000ECE70220EAE770477047704708B5806BBE
:102F80000023C385C384FFF7F8FF08BD704790F89E
:102F90003E30222B07B541D181680268836AB1F5C2
:102FA000805F3ED1016900293ED15268C2F3080218
:102FB00023F8022B8362C38D013B9BB2C385002B98
:102FC0002CD10268D16821F02001D160D16821F4B0
:102FD0008071D160516921F001015161202280F896
:102FE0003E20026B012A026828D1036302F10C0320
:102FF00053E8003F23F0100302F10C0C4CE80031C1
:103000000029F3D11368DB0605D5019113680193FC
:1030100053680193019B818DFFF7B8FF03B05DF802
:1030200004FB39B9016929B95268D2B21A70836AAE
:103030000133BFE7526802F07F02F7E7FFF79CFF1A
:10304000ECE7000003681A6873B51607D9685D6974
:10305000044608D1960668D58D0666D502B0BDE84F
:103060007040FFF794BF05F0010001F4907505432F
:103070005BD0D60705D5CD0542BF236C43F00103D5
:103080002364530704D518B1236C43F0020323646F
:10309000960704D518B1236C43F004032364150785
:1030A00007D501F0200303431EBF236C43F0080340
:1030B0002364236C002B32D0920604D58B0602D5F4
:1030C0002046FFF764FF26687369226C03F0400313
:1030D00002F0080253EA0205204622D0FFF706FE5E
:1030E00073695E0618D5226802F1140353E8003FA5
:1030F00023F04003143242E800310029F3D1A06BE1
:1031000050B1724B0365FEF7EBFA40B1A06B036D53
:1031100002B0BDE8704018472046FFF72EFF02B00E
:1031200070BDFFF72AFF2564F9E7206B012840F006
:103130009180D50640F18E80C80640F18B80002238
:1031400001921A6801925A680192019A5A695206CC
:103150004CD5A16B0A68526892B2002ADFD0A08DCC
:103160009042DCD9E285CA69B2F5807F36D003F19E
:103170000C0252E8002F22F4807203F10C0040E8A8
:1031800000210029F3D103F1140252E8002F22F0AC
:10319000010203F1140040E800210029F3D103F1FA
:1031A000140252E8002F22F0400203F1140040E81C
:1031B00000210029F3D1202284F83E20216303F16D
:1031C0000C0252E8002F22F0100203F10C0040E83C
:1031D00000210029F3D1A06BFEF744FAE38DA18D05
:1031E000C91A89B22046FFF7D1FE98E7E28DE08D3B
:1031F000A18D80B292B2002891D0891A89B200299B
:103200008DD003F10C0252E8002F22F4907203F1EA
:103210000C0545E800200028F3D103F1140252E820
:10322000002F22F0010203F1140545E800200028D8
:10323000F3D1202284F83E20206303F10C0252E8EF
:10324000002F22F0100203F10C0545E800200028B1
:10325000F3D1C7E7160628D50D0626D594F83D20EC
:10326000212A7FF45CAFA168226AB1F5805F17D193
:103270002169A9B932F8021BC1F308015960226221
:10328000E28C013A92B2E284002A7FF448AFDA6815
:1032900022F08002DA60DA6842F04002DA603EE74B
:1032A000511C216212785A60EAE750067FF537AF69
:1032B0004A067FF534AFDA6822F04002DA60202354
:1032C00084F83D302046FFF756FE28E77D2F0008A2
:1032D00008B50349034802F003FA034B187008BD10
:1032E000DEE2002010000020E2E200200020704713
:1032F000FDF714B9FDF7BEB9FDF7C6B9FDF70ABA77
:10330000FDF760BA00687047034600685968704767
:103310000B0A017043700B0C090E8370C17070476B
:10332000110A02704170110C120EC2701A0A037158
:1033300042711A0C1B0E81708271C3717047024476
:1033400000F8011B9042FBD1704700001B4B024666
:10335000186830B560B11468A04207D15C68906805
:10336000844203D19C68106B844212D0002400E098
:1033700001241869B8B11568A84207D15D69906841
:10338000854203D19869126B904206D03CB100206F
:1033900009E0002241B1102005E00122FAE70229EC
:1033A0000CBF0020122030BD03EB02139889A0F55A
:1033B0008073584258410001F5E700BF44E7002000
:1033C0001F4AF0B5136806689E4207D155688468A5
:1033D000A54203D19568046BA54219D01469B44283
:1033E00018D157698568AF4214D19769056BAF4210
:1033F00010D1012302EB03108089E9B902EB03111C
:103400008989013189B202EB0312581C9181F0BD08
:103410000023EFE70BB18CB901231D0102EB03146C
:1034200056518568006BA06000206560A08100296E
:10343000E4D04FF48071E6E70028FAD00020E6E7F8
:1034400044E700200138012815D80C4A010102EB9D
:1034500000108389B3F5807F04D10023838100238A
:10346000535006E0002BFAD0013B9BB28381002B26
:10347000F5D0002070470220704700BF44E70020CD
:10348000054B1A68904204BF00221A601A699042E4
:1034900004BF00221A61704744E70020036A023922
:1034A000023B8B4283BF4389406B01FB030000203A
:1034B0007047F8B50568046D16461F46AA890023B3
:1034C00030463946FCF7B4FE6A890023FCF7B0FEAB
:1034D00004340246206830B1824202D3121A083402
:1034E000F8E760681044F8BD034600F10B010020C6
:1034F000C20142EA500213F8010B50FA82F28B42E9
:10350000D0B2F5D1704710B54278044601320020A0
:1035100052010346022B1DBFC10341EA5001E05C8A
:10352000032318BF10FA81F103F1010318BF88B219
:103530009A42EFD810BD036810B58BB119460A4600
:1035400011F8014B1F2C09D93A2CF8D119783029E0
:1035500006D101339A4203D101320260002010BD2E
:103560004FF0FF30FBE738B50D46044618B9092087
:1035700000232B6038BD0368002BF8D01A78002A8E
:10358000F5D08188DA889142F1D1587802F00AF9B1
:1035900010F00100EBD12368EBE7F8B5C3780446DF
:1035A0000BB90020F8BD856B00F13C070123407882
:1035B0002A46394602F01EF990B9E36A626AE07061
:1035C000EB1A9342EDD2A678012EEAD9636A6078AD
:1035D0001D442A460123394602F00CF9013EF3E767
:1035E0000120DFE738B50546002435F8020B08B99D
:1035F000204638BD02F094F8E30343EA5403C2B214
:1036000012FA83F3C3F34E0444EAC334030A13FAF1
:1036100084F4A4B2E9E701380A4411F8013B00F848
:10362000013F9142F9D170470AB1FFF7F4BF7047EB
:10363000C2F307238A76CB760378032B01BF120CE3
:103640000A75120A4A75704738B5836B8B42054676
:103650000C4610D0FFF7A1FF60B92246687801231D
:1036600005F13C0102F0B8F800281CBF4FF0FF3410
:103670000120AC6338BD0020FCE72DE9F84F036A58
:103680008D1E023BAB4298BF0025044691462F4653
:103690002E464FF000084FF0010A616BA3894FEAF4
:1036A000D60B2046BBFBF3F31944FFF7CDFF70BBED
:1036B000A089226ABBFBF0F300FB13B106F00703FD
:1036C0000AFA03F3DBB2A2F1020C6218013692F897
:1036D0003C20B44502EA03028BBF5B000023DBB24F
:1036E000014698BF1E4632B908F10108C84505D108
:1036F000B81CBDE8F88F37464FF00008B54209D036
:10370000002BE2D101318842C7D90123DDE74FF018
:10371000FF30EEE70020ECE702392DE9F0470546DF
:10372000174601F007048289406B4FF0010ACE086A
:103730000AFA04F49846E4B2B6FBF2F303EB00098C
:1037400002FB13664946284609F10109FFF77CFF91
:1037500018B10120BDE8F0871E46AA1992F83C3046
:10376000234214BF01210021414513D06340013F92
:1037700082F83C3085F803A0ECD0640014F0FF041C
:10378000EBD1AA89731C9A424FF001044FF0000656
:10379000E2D8D7E70220DDE70129F8B50C4640F270
:1037A000A88005682B6A8B4240F2A3802B78013BEE
:1037B000032B00F29E80DFE803F00232465F01EB4C
:1037C0005106E96AAB89B6FBF3F328461944FFF7C3
:1037D0003BFF10B14FF0FF30F8BDA989B6FBF1F304
:1037E000771C01FB1366EB6AB7FBF1F12E44194419
:1037F000284696F83C60FFF727FF0028EAD1AB89FE
:10380000B7FBF3F203FB12772F4497F83C3046EAFC
:103810000320E3074CBF0009C0F30B00DCE7AB89D2
:103820005B08B1FBF3F3E96A28461944FFF70CFF84
:103830000028CFD1AB896400B4FBF3F203FB124440
:103840002C44A08FC8E7AB899B08B1FBF3F3E96A6E
:1038500028461944FFF7F8FE0028BBD1AB89A40025
:1038600005F13C00B4FBF3F203FB12442044FFF7E4
:1038700049FD20F07040AFE7D0E9043153EA01027E
:1038800037D090F807C08668AA896F89BCF1020F0B
:10389000A4EB06060CD1581E61F100010023FCF7D1
:1038A000C7FCB0FBF7F0864223D824D0601C93E716
:1038B000BCF1030F02D18369B342F7D8C369D3B90E
:1038C000E96A92082846B4FBF2F21144FFF7BCFE05
:1038D00000287FF47FAFAB89A40005F13C00B4FB66
:1038E000F3F203FB12442044FFF70CFD20F00040EC
:1038F00072E7012070E76FF000406DE7F8B50468EB
:103900002378042B14BF4FF400124FF080528A42E8
:1039100006460D4601D80220F8BDCA06FBD18268D2
:1039200001632ABB022B14D82389B3EB551FF2D9AC
:10393000206BC6E90D200028EDD0A289B5FBF2F37B
:103940003C3402FB135518442C44B063F46300204C
:10395000E2E7236BC271002BE6D0A2896789574347
:103960001A46BD42114605D22046FFF797FDE0E713
:103970001346F2E73046FFF70FFF431C024606D01E
:103980000128C8D9236A8342C5D9ED1BE9E7012084
:10399000C2E701292DE9F84305460C46164608D929
:1039A000036A8B4205D90378022B6CD003D8012B14
:1039B00026D002207FE0033B012BFAD883899B08A5
:1039C000B1FBF3F3C16A1944FFF73EFE002872D140
:1039D000AB89A400B4FBF3F203FB12442B4613F8AB
:1039E0003C2B042A07D01819FFF78CFC26F07046F0
:1039F00000F07040064331461819FFF789FC36E0A5
:103A000001EB5107C16A8389B7FBF3F31944FFF750
:103A10001BFE00284FD1AB89B7FBF3F205F13C093F
:103A200007F1010803FB127714F0010418BF19F81D
:103A30000720F3B21EBF02F00F0242EA0313DBB20B
:103A400009F80730E96A0123EB702846AB89B8FB17
:103A5000F3F31944FFF7F8FD68BBAB89B8FBF3F249
:103A600003FB12883CB1C6F3071609F8086001236E
:103A7000EB7000201FE019F80830C6F3032623F08E
:103A80000F031E43F1E783895B08B1FBF3F3C16ABF
:103A90001944FFF7D9FD70B9AA89640005F13C0308
:103AA000B4FBF2F102FB11441A191E55C6F30726A6
:103AB00001235670EB70BDE8F883F8B504460E4656
:103AC0001746E3690BB91846F8BD012BA6EB0305B1
:103AD00014BFAA1C3A462068691CFFF75AFF002849
:103AE000F2D1E369013BE361EBE770B5C379032BE6
:103AF000044601D0002070BD81688369CD18A942B9
:103B000002D10023E371F5E74E1C20683246FFF72F
:103B100040FF0028EFD13146F1E72DE9F04105687B
:103B20000646884611BBAF6987B32B6ABB4298BF74
:103B300001272B78042B5BD1012239462846FFF759
:103B40009CFD431E0333044616D8012301461A4642
:103B50002846FFF7E1FD02280DD0012871D0B8F109
:103B6000000F15D10223F37128B933E0FFF714FEDB
:103B70000128044603D801242046BDE8F081431CF7
:103B80005FD02B6A8342F7D84746D2E70127D0E7B8
:103B9000F379022B07D17B1CA342E5D0B368FB1A53
:103BA000B3610323F37108F10102A242F36905D165
:103BB00013B10133F361D7E70223FBE70BB901230C
:103BC000F361224641463046FFF777FF002836D1A1
:103BD0000123F361D5E90732023A93429CBF03F116
:103BE000FF33EB612B79AC6143F001032B71C3E729
:103BF0003C462B6A0134A34204D8012F01D1002492
:103C0000BAE7022421463046FFF7C6FD30B101284D
:103C1000B1D0013015D0BC42EBD1F0E74FF0FF320C
:103C200021462846FFF7B5FE48B9B8F1000FD1D0BC
:103C3000224641462846FFF7ACFE0028CAD001289C
:103C400099D14FF0FF3497E72DE9F843076B836B69
:103C5000054689462037D3B104682278042A14BF68
:103C60004FF400124FF08052BA4210D9A289B7FB2C
:103C7000F2F602FB1672002A51D1416B01338363C5
:103C800041B92389B3EB571F49D80023AB63042004
:103C9000BDE8F883B4F80A8008F1FF3818EA06088E
:103CA0003DD1FFF779FD0128064601D80220EFE754
:103CB000421C01D10120EBE7236A834229D8B9F1E4
:103CC000000FE2D0696B2846FFF727FF0646002861
:103CD0003DD00128EAD0431CECD0EB7943F004033B
:103CE000EB712046FFF759FC01460028E2D104F1B0
:103CF0003C00A289FFF723FB31462046FFF7CEFBAD
:103D00004FF001096389A063434514D8A0EB080074
:103D1000A0636E6331462046FFF7C0FBA863A2890B
:103D20002F6304F13C03B7FBF2F102FB11773B4434
:103D3000EB630020ACE784F803902046FFF72DFCEE
:103D40000028B7D1A06B08F101080130DAE707209D
:103D50009EE72DE9F04105460068A96B4669FFF72B
:103D600073FC044620B9E96B0B78852B03D0022441
:103D70002046BDE8F08120223046FFF74CFC7778E2
:103D800001377F01A7F16003B3F5007FEFD821462B
:103D90002846FFF759FF04460028E9D1A96B286897
:103DA000FFF752FC04460028E2D1E96B0B78C02BE8
:103DB000DDD12022B018FFF72EFC96F823300F2219
:103DC0002C33B3FBF2F3B7EB431FD0D34FF04008D3
:103DD00000212846FFF738FF04460028C8D1A96B08
:103DE0002868FFF731FC04460028C1D1E96B0B7845
:103DF000C12BBCD106EB0800202208F12008FFF7F8
:103E00000AFC4745E4D83046FFF77DFB7488241A46
:103E100018BF01246400ABE72DE9F047FF250668D1
:103E200004460F46A8460420A16B11B980B10420B6
:103E300071E03046FFF708FC00286CD1E06B037896
:103E4000002BF4D03278042A14D127B1832B5CD113
:103E50000020BDE8F087852B57D1236BE364204613
:103E6000FFF777FF002856D173691B7903F03F03F2
:103E7000A371EDE7C27AE52B02F03F02A2714FD0A9
:103E80002E2B4DD022F02001A1F1080CDCF1000115
:103E900041EB0C01B94243D10F2A47D15A063DD517
:103EA000226B457BE26403F0BF03427BAA4237D119
:103EB000418BA9BB0278D6F810E0DFF8888022F0A9
:103EC0004002013A4FF00D0C0CFB02F24FF00109D9
:103ED0004FF6FF7A18F801CB30F80CC0B9F1000F9B
:103EE00021D0FE2A1CD82EF812C0E1460132013141
:103EF0000D29EFD10178490604D5FE2A10D80021FA
:103F00002EF81210013B5FFA83F800212046FFF7DC
:103F10009BFE002888D00023A3639AE79845C4D06D
:103F20004FF0FF08F1E7D445E1D0F9E7B8F1000F11
:103F300003D1FFF7D9FAA8428AD04FF0FF33E364E8
:103F400086E700BF55710008F8B50E4600210768E6
:103F50000446FFF7D3FC98B90546A16B3846FFF736
:103F600073FB68B93A78E36B042A1B780CD11B0603
:103F70000ED5054601212046FFF766FE0028ECD04D
:103F8000042808BF072006E0E52B01D0002BF0D164
:103F90000135B542EED1F8BD03682DE9F0415E6907
:103FA00005463046FFF7AFFAB070000AF070E96CD2
:103FB00077782846FFF7A2FC4FF0010804462CB1A1
:103FC000022C28BF0224E0B2BDE8F081A96B28686A
:103FD000FFF73AFB04460028F2D1E86B2022314675
:103FE000FFF719FB2B6883F80380002FE8D02146E8
:103FF0002846FFF729FE20360446013FDFE7012966
:104000002DE9F743046806460D46174603D80220FB
:1040100003B0BDE8F083236A8B42F8D97AB9A84689
:1040200029463046FFF7B8FBA9460546B0B92378C4
:10403000042B02D1002F54D1F7710020E8E7237838
:10404000042B02D1C379022BE9D04FF0FF3239465D
:104050002046FFF79EFC0028E1D0D9E70128D6D002
:10406000431C4BD02378042B22D1D4E90732023AE7
:10407000934225D309F10102AA4215D02378042BDB
:1040800025D041462046FFF709FA494600902046D0
:10409000FFF704FA6389013B0344019360786A46A1
:1040A000042101F0B5FBA846236AAB42B8D8BEE7AD
:1040B000002249462046FFF76CFC0028D5D0A7E730
:1040C0000133E361237943F001032371D2E7002335
:1040D000A2EB080241462046FFF71EFB0028D0D085
:1040E00096E7F379032BA8D1B368BB42A5D8B26990
:1040F0001344BB42A1D30223F3719EE7012087E75B
:10410000F8B50446FFF749FA0546002841D123785F
:10411000032B36D12779012F33D104F13C06014618
:10412000A28930465523FFF70AF984F83A32AA23C8
:1041300084F83B3252234122722184F83C3084F8C7
:104140003D30612384F83E3084F8233284F83F20E8
:1041500084F8201284F8211284F82222E16904F5FF
:104160000970FFF7D5F8A16904F50A70FFF7D0F8D8
:10417000A26A60780132A2633B46314601F03AFB05
:10418000257100226078114601F042FB003818BF0B
:104190000120F8BD2DE9F041002507688D76836B7D
:1041A00006460C4603B33B78042B30D17E6901F1FF
:1041B0001908402796F823309D4217D315B93F239D
:1041C000A376012525440023AB76637333792373EB
:1041D000DB0619D406F13800FFF796F8C4E90001B0
:1041E000B3896381F3892381BDE8F081FA0608BFB2
:1041F00002370021F05B01F077FA0028DFD008F8E1
:10420000010F01350237D5E700200146E6E7C36C10
:10421000013309D001F119083B6933F81500002872
:1042200050D125440023AB76F16BA57E00234E1EB2
:1042300018464FF02E0C16F8012F202A00F101002D
:1042400024D0052A08BFE522092808D1E7181DB99E
:104250004FF02E0E87F81AE087F80DC00133E718EB
:104260007A7395B9A2F1410EBEF1190F0CD8092845
:1042700091F80C8034BF4FF0080E4FF0100E18EA82
:104280000E0F1CBF2032D2B2BA7601330B28D2D126
:104290002DB9E21895760A7B002A08BF0023234433
:1042A00000225A73CB7A237301F11C00FFF72AF81E
:1042B000C4E9000201F11600FFF724F86081000C48
:1042C000208191E7002101F00FFA30B10135B5F5F9
:1042D000807F02D008F8010F9EE70025A1E70000CB
:1042E0002DE9F04F002187B0D0F800800446FFF799
:1042F00005FB0746A0BB98F80030042B37D1D8F84F
:104300001000FFF76FF9814600212046FFF784FD7A
:10431000054608B1074623E0D8F814309A8C4A4580
:10432000F2D193F823B040265D4510D0F00608BFC7
:104330000236D8F81430985B01F0F2F9D8F8103052
:10434000824633F8150001F0EBF982450CD0EBB250
:104350009B45D9D1D8F8103033F81530002BD3D184
:10436000384607B0BDE8F08F02360135DCE74FF084
:10437000FF3A4FF0FF09C4F84CA04E46A16B4046EF
:10438000FFF762F900285BD1E56B2B78002B7FD01B
:10439000E97AE52B01F03F02A27103D0090704D5A9
:1043A0000F2A04D0C4F84CA04EE00F2A53D194F841
:1043B0004B2050063ED4590644D5226B95F80D90FB
:1043C000E26403F0BF036A7B4A453DD16A8B002A51
:1043D0003AD12E78D8F810B006F03F060D22013EF3
:1043E00056432C4A012012F8011B695A70B3FE2E65
:1043F000CDE9043228D80846039101F091F9731CE5
:1044000002903BF81600019301F08AF9029B834267
:104410001AD10399019EDDE9043208461E499142F2
:10442000E1D12A78520603D510B13BF816205AB9CB
:10443000013BDEB200212046FFF706FC00289DD09C
:1044400007468DE79E42BED0FF26F3E74FF6FF7C7E
:104450006145E3D0F8E72EB92846FFF745F848450F
:104460003FF47EAF94F84B30DB079BD404F140025D
:1044700005F10B0115F8013B12F8010B8D42A3EB7E
:10448000000302D0002BF5D08CE7002B8AD167E720
:10449000042765E755710008627100082DE9F04FA7
:1044A00090F84B5015F0A0059BB0044640F0738186
:1044B0000668326932F81530002B50D13378042B5E
:1044C00040F094800F230E352046B5FBF3F5A91C70
:1044D000FFF73AFD814600283DD1236B0135A3EB60
:1044E0004513E364A368002B3BD1D6E90454402272
:1044F000002120468523FEF722FF01222370C023DE
:1045000084F8203010464023C1278C4604EB020E6D
:104510005E1CE75404F806C0023322B135F81120BE
:104520000AB10131C9B2160AE2540EF8036002332F
:10453000DE06F2D135F811600130C0B2002EE7D1AD
:10454000607084F823102846FFF74CF884F82400A4
:10455000000A84F8250048461BB0BDE8F08F0135FD
:10456000A8E7E3795F07C0D5D4E904327089B1893F
:10457000E0FB0132C4E904322046FFF7B6FA002816
:1045800032D1616B4FF0FF322046FFF796FA58BBED
:1045900023680493236A0693636AA16A8DF817302F
:1045A00004A823F0FF03CDE908391791FFF7A6F916
:1045B000D0B904A8FFF7CDFBB0B97069D4E90423E2
:1045C0003830FEF7ADFE7069D4E904232830FEF7D9
:1045D000A7FEE379726943F0010382F8213004A851
:1045E000FFF7DAFC002880D08146B4E704F14007E9
:1045F0000C22394604A8FFF70EF89DF81BB01BF0FB
:10460000010F00F0D0804023DFF8F8A184F84B3090
:104610004FF001080B2204A93846D6F81090FEF797
:10462000FAFFB8F1050F57D9A9F10201434631F855
:10463000022F002A41D104A8072203F00F0C0CF12D
:104640003001392988BF0CF137010F2B00F8011D0B
:1046500002F1FF324FEA131140D802F168036B44B4
:104660007E2103F8601C04F13F01084600239A42B2
:1046700006D010F801CFBCF1200F03F1010E2FD1AD
:10468000072A9CBF02F16800684403F1010396BF4A
:1046900010F8600C20200132072BC854F0D92046B6
:1046A000FFF71EFE8146002878D108F10108B8F115
:1046B000640FAFD14FF007094DE7102002F0010C55
:1046C0000CEB430313F4803F18BF83EA0A0301385D
:1046D0004FEA5202F2D1AAE74346ACE70B46ACE7F9
:1046E0007346C4E7216B2046A1EB4511FFF706F99D
:1046F000814600287FF42FAF3846FEF7F5FE4FF6CF
:10470000FF780190A16B3046FEF79EFF814600289E
:104710007FF421AFE36B019AD6F810E05A73E9B247
:104720004FF00F024FF00D0CDA72DFF8DCA01873B7
:104730004A1E0CFB02F29876D87684461AF8019B42
:10474000404518BF3EF8120003F8090003EB090BBF
:104750000CF1010C18BF01324FEA1029002808BFE4
:104760004046BCF10D0F8BF80190E7D1404502D0D7
:104770003EF812200AB941F0400119700123F3708C
:1047800000212046FFF760FA814600287FF4E3AE5F
:10479000013DB7D11BE04FF00609DCE604287FF4A9
:1047A000DAAE84F84BB01BF0020F1BBF0C350D23A3
:1047B0000125B5FBF3F518BF013529462046FFF763
:1047C000C3FB814600287FF4C6AE013D8AD1A16BB0
:1047D0003046FEF739FF814600287FF4BCAE014623
:1047E0002022E06BFEF7ABFD0B22E06B3946FEF7B3
:1047F00012FF94F84B30E26B03F01803137301239C
:10480000F370A8E6211001005571000803284B8BB6
:1048100004BF8A8A43EA024318467047002310B552
:10482000C3704FF0FF3383630446FEF70DFF03466A
:10483000B0BBB4F83A124AF65522914232D194F8FC
:104840003C20E92A05D0E26B174902F0FF128A42A8
:1048500010D104F17200FEF755FD144A20F07F409C
:10486000904216D004F18E00FEF74CFD02F14C523E
:1048700090420ED00E4904F13C02473412F8013B3D
:1048800011F8010BA242A3EB000304D0002BF5D0DA
:104890000223184610BD002B0CBF01230223F8E7AA
:1048A0000423F6E70323F4E7EB00900046415400AD
:1048B000E67000082DE9F043002385B00B600D463B
:1048C0001746FEF738FE061EC0F2A881864B53F845
:1048D0002640002C00F0A4812C60237807F0FE070E
:1048E00073B1607800F05EFFC50709D4002F00F0B7
:1048F000ED80410740F1EA800A2005B0BDE8F08371
:1049000000237A4D237015F81600607000F054FFF4
:10491000C20700F187810FB14307EDD4607804F13D
:104920000C02022100F074FF08B10120E5E7A38921
:10493000A3F50072B2F5606FF7D8591E1940F4D193
:104940002046FFF76BFF022805D001282BD805EB86
:1049500046035B7893B36A4604F2022304F24221D1
:10496000174613F8040C10B11846FEF7CBFC1033B1
:104970008B4242F8040BF4D1730005EB46067678BF
:1049800006B1013E05EB030857F8265075B12946DC
:104990002046FFF743FF98F801304BB901280ED9A4
:1049A0000136032EF0D90428BFD005E00320F2E73A
:1049B0000428BAD0012802D90D209EE71D460128FF
:1049C00040F09E8004F146010B2311F8012F002ACC
:1049D000F2D10133402BF8D1B4F8A430B3F5807F85
:1049E000EAD194F8A81001238B40A1898B42E3D12E
:1049F00004F18400FEF788FC4FF0FF332E1841F1DC
:104A00000001B34272EB0103D6D304F19000FEF72C
:104A100079FC606294F8AA00A0700128CCD194F8C7
:104A2000A93000FA03F398B260810028C4D004F1E1
:104A30009800FEF767FC07462D488742BCD8B81C93
:104A40002062A56204F19400FEF75CFC00EB05080F
:104A5000C4F8348004F18C00FEF754FC9BB2284467
:104A6000E06207FB03F010EB08005241864271EB55
:104A70000202A1D304F19C00FEF744FC014620632E
:104A80002046FEF70BFD01462046FEF7DDFD00281F
:104A90007FF44BAFA18904F150030022914217D853
:104AA0008AD04FF0FF33C4E906334FF00408114AAF
:104AB00084F80080138801339BB21380E3800E4B8F
:104AC00023610E4B63612046FEF7DAFC002014E7F9
:104AD00013F8140C812804D11846FEF713FC0228A1
:104AE000DFD020322033D9E768E70020DCE2002065
:104AF000FDFFFF7F64E70020E4E20020E4E4002003
:104B0000A789B4F84730BB427FF456AFB4F852607F
:104B100026B904F16000FEF7F5FB064694F84C80D8
:104B2000666208F1FF33012B84F802803FF644AF40
:104B300094F849206281002A3FF43EAF531E13428D
:104B40007FF43AAFB4F84D90A4F808907B09B9FB14
:104B5000F3F103FB11939BB2002B7FF42DAFB4F85C
:104B60004F0018B904F15C00FEF7CCFBB4F84A30F2
:104B7000002B3FF421AF06FB08FC19446144884236
:104B8000FFF41AAF401A9042B0FBF2FEFFF414AFEC
:104B90004FF6F57296452CD840F6F578C64594BF89
:104BA0004FF001084FF002080EF102022B44294495
:104BB000B8F1030F2262A562E36261631CD1B4F80D
:104BC000663059EA03037FF4F7AE04F16800FEF79C
:104BD00099FB92007B1E1344B3FBF7F3B3422063AF
:104BE0003FF6EAAE4FF0FF33C4E90633802323716A
:104BF0005DE74FF00308D7E7B9F1000F3FF4DCAEF3
:104C0000B8F1020F03EB0C004FEA42031BBF9B18E5
:104C100002F001021A4602EB5302DBE70B206CE6BE
:104C20000C206AE6032068E62DE9F74F036800933D
:104C300005468A4611F8013B2F2BFAD05C2BF8D0A1
:104C40000023AB60EB619AF800301F2B00F29A80D2
:104C500080230021284685F84B3003B0BDE8F04F93
:104C6000FEF74CBE0136A0E0B6F5807F0CD00121E6
:104C7000204600F039FD38B17F2807D8974911F850
:104C8000012B1AB19042FAD1062023E128F8020F35
:104C900037467FE032F8021D202902D02E2940F04D
:104CA0009280013F8CE001319DE0C14580F0D880C9
:104CB000BA4211D1B8F10B0F06D1D5E0BA4203D0F8
:104CC00044F0030400F2D480B600F6B23A464FF046
:104CD0000B084FF00809AEE07F280CD900210192A3
:104CE00000F002FD44F00204019A50B17C490144F5
:104CF00011F8800C28B17B4B13F8011B59B1884285
:104D0000FAD144F003045F2005EB090109F1010920
:104D100081F840008FE0A0F14101192902D846F046
:104D20000206F1E7A0F1610119299EBF203846F083
:104D3000010680B2E8E75A0700F1CC80AB79DB06C8
:104D400040F18980009B1878042876D1AB682B62EB
:104D50002B69EA7923F0FF0313436B62EB6CAB62C0
:104D6000009B5B6903F13400FEF7CCFAA86093F86E
:104D7000212002F00202EA7103F13800FEF7C4FAC2
:104D8000C5E904012B68D3F810B00AF1FF39ABF183
:104D90000208002719F8014F1F2C07F101060CD952
:104DA0002F2C02D05C2C7FF45FAF1AF806202F2A3C
:104DB0003FF458AF5C2A3FF455AFB2440BEB4702C7
:104DC000002F7FF467AF4FF000032BF817300BEB89
:104DD0004706002F3FF458AF20210B2205F1400079
:104DE000FEF7ADFA00213BF81120202A3FF45BAF1B
:104DF0002E2A3FF458AF1F2C8CBF00240124A4009E
:104E000009B144F0030436F8022D2E2A01D0013FE7
:104E1000F9D14FF000094FF008084E463BF8110059
:104E20004A1C28B3202804D02E287FF43EAFBA4273
:104E300013D044F003041146F0E7009B9A8903F174
:104E40003C012B6BB3FBF2F402FB14331944FFF764
:104E5000DDFCA86096E705203CE0C145FFF42AAFE1
:104E6000B8F10B0F7FF42AAF44F003044FF00B08A6
:104E700095F84030E52B04BF052385F84030B8F1A4
:104E8000080F04BFB600F6B206F00C030C2B03D0DB
:104E900006F00302032A01D144F00204A10709D459
:104EA00006F00306012E08BF44F01004042B08BFCF
:104EB00044F0080485F84B402846FFF711FA95F8AE
:104EC0004B3000283FF437AF042803D113F0040F10
:104ED00008BF052003B0BDE8F08F00BFF2700008E6
:104EE00062710008FB70000830B585B0CDE9001094
:104EF00003A803911446FEF71EFB011E19DB0E4D9D
:104F000055F8210018B1FEF7BBFA00230370019B8E
:104F100023B945F82130002005B030BD0022012C16
:104F200045F821301A70F6D101A96846FFF7C2FC96
:104F3000F2E70B20F0E700BF68E700202DE9F04F13
:104F40009BB0174601910446002800F08D8102F0C5
:104F50003F06324603A901A8FFF7ACFC80460028B3
:104F600040F0EE80039D0199049504A8FFF75CFED4
:104F700060B99DF95B30002BC0F2928017F03E0FB4
:104F800014BF0121002104A8FEF7E0F917F01C0F5F
:104F900000F0BD80002800F08580042840F0D0801B
:104FA000B34B1A681AB11B69002B40F0578104A853
:104FB000FFF774FA002840F0C38046F00806300777
:104FC00040F1B080FEF792F92B78042B074673D19D
:104FD000D5F81490256009F13400FEF793F9A0602C
:104FE00009F13800FEF790F9C4E9040199F821307D
:104FF000002203F00203E371E261394609F108007F
:10500000FEF786F96B691A75686939460C30FEF748
:105010007FF96B695A756B69202119716B6983F887
:10502000342083F8352083F8362083F837206B69E5
:1050300083F8382083F8392083F83A2083F83B201E
:1050400083F83C2083F83D2083F83E2083F83F20FE
:105050006B6983F8282083F8292083F82A2083F8B5
:105060002B2083F82C2083F82D2083F82E2083F822
:105070002F206B69012283F8212004A8FEF78CFF02
:1050800000285DD1A16841B102462046FEF7B7FF76
:10509000A768013FAF61002852D146F0400641E0C9
:1050A000062073E79DF8163013F0110F40F0DA80F8
:1050B0007F0784D5082043E0139A014602F10E00D1
:1050C000FEF726F902F116003946FEF721F92023F2
:1050D000D37211462878FFF799FB0022074628462D
:1050E000FEF7A6FA002201230A774A778A77CA7761
:1050F000EB70002FD1D0394604A8D5F83890FEF7D0
:105100007EFFE8B949462846FEF79EFAC1E7B8B9DE
:105110009DF81630DA0600F1A380BF0702D5D80744
:1051200000F1A080AB6B139FA364012EE76494BFD2
:105130000021012104A8FEF743F9E06238B90220FA
:1051400000222260804640461BB0BDE8F08F2878E0
:10515000042855D1069B2362089B9DF8172023F055
:10516000FF0313436A696362179BA36202F1340071
:10517000FEF7C8F8A06002F13800FEF7C5F8C4E9F0
:10518000040192F8213003F00203E371EB88A3805D
:105190004FF0000B0022002304F1540AC4E90E234F
:1051A0005946C4F850B0256084F8306084F831B0B6
:1051B000C4F844B04FF480525046FEF7C0F8B10630
:1051C000C1D5D4E9046956EA0903BCD06B89AA8920
:1051D000A768C4E90E695343B3427BEB09021BD2B3
:1051E000394620460093FEF7D7FA009BF61A69F17C
:1051F0000009012807462FD9421CEDD101200CE0FF
:105200003946FFF703FBA06007F11C00FEF77AF8B0
:10521000002320616361B9E70020276400288FD153
:105220000346AA8930464946FBF702F81A43064668
:1052300089D039462846FEF731F900283FF47FAF80
:105240008219626468780123514600F0C5FA00288B
:105250003FF479AF012073E70220DEE712206FE709
:1052600004206DE707206BE74FF009086BE700BFEC
:1052700044E700202DE9F04F87B017460193019ACB
:1052800000238946136005A90446FEF76CF905461C
:10529000A8BB94F8315095BB94F8303013F001035B
:1052A000029300F0BB80D4E90432D4E90E011B1A4A
:1052B00062EB0102BB4272F1000238BF1F4604F1EB
:1052C00054030393DFB1D4E90EBA059E0023B289DB
:1052D00058465146FAF7ACFF1A4340F08880B6F8BA
:1052E0000A8008F1FF3818EA000821D15BEA0A03B6
:1052F00009D1A068012813D8022584F83150284626
:1053000007B0BDE8F08F236D2BB15A4653462046B7
:10531000FEF7CFF8EEE7216C2046FEF73DFAE9E70D
:10532000431C04D10123029D84F83130E7E7206457
:10533000216C3046FEF7B2F80028DDD0B6F80CB08C
:10534000BB4508EB000A32D8B7FBFBFB73897078CA
:1053500008EB0B029A4288BFA3EB080B5B46524650
:10536000494600F039FA0028DCD194F93030002B9E
:105370000BDA606CA0EB0A00584506D2B28904F142
:10538000540102FB0090FEF74FF9B6890BFB06F6BD
:10539000D4E90E329B1942F10002C4E90E32019B9E
:1053A000019A1B683344B1441360BF1B8AE7626CE7
:1053B00052451AD094F930307078002B04F154081B
:1053C0000BDA0123414600F015FA0028AAD194F81F
:1053D000303003F07F0384F8303070780123524678
:1053E000414600F0F9F900289CD1C4F844A0B289E4
:1053F000A06BB0FBF2F602FB1606961BBE42E16BF9
:105400004FF0000328BF3E46FAF712FF039B1146F8
:10541000194432464846FEF707F9B9E707256EE713
:105420002DE9F04198B001A90546FEF79CF8044625
:1054300000287CD195F8303013F0400477D01B065B
:10544000019E0FD56A6C7078012305F1540100F0BC
:10545000D1F9002840F08F8095F8303003F07F03B9
:1054600085F83030FDF742FF3378042B804662D157
:105470002846FEF73AFB0446002858D1296C4FF025
:10548000FF322846FEF719FB044600284FD12B684F
:1054900002932B6A04936B6A8DF80F3023F0FF039D
:1054A000CDE90630A96A159102A8FEF727FA04464D
:1054B00000283CD102A8FEF74CFC0446002836D157
:1054C0007269137943F020031371EB79726943F029
:1054D000010382F821307069A9683430FDF718FFA4
:1054E0007069D5E904233830FDF71AFF7069D5E9F2
:1054F00004232830FDF714FF706941460C30FDF796
:1055000007FF73695C75736902A81C745C749C74F2
:10551000DC74FEF741FD044648B93046FEF7F0FD65
:1055200095F8303023F04003044685F830302046AB
:1055300018B0BDE8F081A96C3046FEF785F8044646
:105540000028F4D1EF6CFB7A43F02003FB7228684B
:10555000AA683946FEF76CF8296907F11C00FDF7C7
:10556000D7FE414607F11600FDF7D2FE0123BC74B9
:10557000FC74F370D1E70124D9E713B50446FFF7B3
:105580004FFF48B901A92046FDF7EDFF20B9E06AB9
:10559000FDF758FF00B9206002B010BD7FB504468A
:1055A0000191002857D0002203A901A8FFF782F932
:1055B000054680B9039E019926602046FFF734FB1B
:1055C0000546002842D194F94B30002B24DBA37907
:1055D000DB0603D40525002323602DE03078042862
:1055E0002DD1A36823622369E27923F0FF031343DB
:1055F00072696362E36CA36202F13400FDF782FE1C
:10560000A06002F13800FDF77FFEC4E9040192F8C2
:10561000213003F00203E371F388A38000212046C8
:10562000FEF76CF9054688B9A3686BB101462046C0
:10563000FDF7C6FEE06260B1284604B070BDE16BC4
:10564000FFF7E4F8A060E7E7E062F5E7042DC1D0DA
:10565000C1E71225BFE70925EEE773B50D4601A99D
:105660000446FDF780FFC8B935B92946204602B087
:10567000BDE87040FEF742B901462046FEF7CCFB7C
:1056800010F0FB060AD129462046FEF783FD31467D
:105690002046FEF7D9FA042808BF002002B070BDEA
:1056A00030B50E4B5C7A054604F0FF00A4B95C7A75
:1056B00018555C7A03EB840465605C7A1C442272A2
:1056C0005A7A541CE4B25C723A2330324B702F2366
:1056D0000A708B70C87030BD0120FCE76CE70020B9
:1056E0000022FFF7DDBF00007F2815D931B1FF2868
:1056F00011D80A4B803833F810007047074B33F845
:10570000022B824205D001318029F8D18031C8B204
:10571000704789B2FAE70020704700BF9074000814
:1057200070B51E4B1E4AB0F5805F38BF1346191D79
:1057300031F8043C0A46ABB1984213D331F8024C1D
:10574000250AE6B253FA84F4A04221DA082D09D8DA
:10575000DFE805F005090F11131517191B00C01A12
:1057600031F8100070BDC31A03F00103C01A80B2F3
:10577000F8E71038FBE72038F9E73038F7E71A3850
:10578000F5E70830F3E75038F1E7A0F5E350EEE72E
:105790000431002DCCD102EB4603C8E7E2710008CA
:1057A0009E720008034B1A1803EB8003107A5B68A3
:1057B0005B6818476CE70020064B1A5C42B901226F
:1057C0001A541A1803EB8003107A5B681B68184799
:1057D000002070476CE7002030B4054C251804EB1E
:1057E000800460688468287AA44630BC604700BFA3
:1057F0006CE7002030B4054C251804EB8004606889
:10580000C468287AA44630BC604700BF6CE700201B
:10581000054B10B41C1803EB8003207A5B685DF81D
:10582000044B1B69184700BF6CE7002070B50D4D95
:105830000D4C641BA4100026A64209D10B4D0C4C44
:1058400001F0D0FA641BA4100026A64205D170BD59
:1058500055F8043B98470136EEE755F8043B984766
:105860000136F2E7987500089875000898750008E9
:105870009C750008034611F8012B03F8012B002A40
:10588000F9D170470FB407B5064904AB086853F85F
:10589000042B8168019300F031F803B05DF804EB4C
:1058A00004B07047240000209368013B002B10B423
:1058B000936008DA9469A34201DB0A2903D15DF8F9
:1058C000044B00F033B91368581C10601970084677
:1058D0005DF8044B7047F8B506460F461446D518D8
:1058E000AC4201D1002007E014F8011B3A463046D3
:1058F000FFF7DAFF431CF3D1F8BD00002DE9F04FAC
:105900000D469DB014469846064618B1036A0BB979
:1059100000F0C2FC6B6ED90705D4AB899A0502D49E
:10592000A86D00F02EFEAB891B0701D52B699BB932
:105930002946304600F038F970B16B6EDC0704D5AB
:105940004FF0FF301DB0BDE8F08FAB899805F7D45C
:10595000A86D00F017FEF3E70023099320238DF8CC
:105960002930CDF80C803023DFF8AC818DF82A3057
:105970004FF0010923469A4613F8012B0AB1252A54
:10598000F9D1BAEB040B0BD05B46224629463046D0
:10599000FFF7A1FF013000F0A780099A5A4409924D
:1059A0009AF80030002B00F09F8000234FF0FF3268
:1059B000CDE905230AF1010A049307938DF85330CA
:1059C0001A935446052214F8011B5348FAF7E0FBDA
:1059D000049AD8B9D10644BF20238DF85330130759
:1059E00044BF2B238DF853309AF800302A2B15D062
:1059F000079A544600204FF00A0C214611F8013B4B
:105A0000303B092B4BD9B0B1079214E0A0EB08034F
:105A100009FA03F313430493A246D2E7039B191D2B
:105A20001B680391002BBBBF5B4242F0020207934D
:105A30000793B8BF049223782E2B0AD163782A2BC0
:105A400032D1039B1A1D1B68039243EAE3730234AD
:105A50000593DFF8D4A0217803225046FAF798FB8B
:105A600038B1049BA0EB0A0040228240134301346A
:105A7000049314F8011B29488DF828100622FAF720
:105A800087FB00283FD0264B1BBB039B073323F02B
:105A9000070308330393099B3B4409936AE70CFB14
:105AA00002320C460120A8E7002301340593194671
:105AB0004FF00A0C204610F8012B303A092A03D97E
:105AC000002BC6D00591C4E70CFB0121044601233D
:105AD000F0E703AB00932A46124B04A93046AFF31C
