:020000040800F2
:10000000F02E0020C10100084F45000859360008B5
:100010004D4500082D0C0008A54A0008000000000E
:1000200000000000000000000000000099480008E7
:10003000530D000800000000834500089B4800089D
:10004000DB010008DB010008DB010008DB01000820
:10005000DB010008DB010008DB010008DB01000810
:10006000DB010008DB010008DB010008DB01000800
:10007000DB010008DB010008DB010008DB010008F0
:100080007D0C0008DB010008DB010008DB01000833
:10009000DB010008DB010008DB010008DB010008D0
:1000A000DB010008DB010008DB010008DB010008C0
:1000B000DB010008DB010008DB010008DB010008B0
:1000C000DB010008DB010008DB010008DB010008A0
:1000D000DB01000881490008DB010008E549000850
:1000E000DB010008DB010008DB010008DB01000880
:1000F000DB010008DB010008DB010008DB01000870
:10010000DB010008DB010008DB010008DB0100085F
:10011000DB010008DB010008DB010008DB0100084F
:10012000890C0008DB010008DB010008DB01000886
:10013000950C0008DB010008DB010008DB0100086A
:10014000DB010008DB010008DB010008DB0100081F
:10015000DB010008DB010008DB010008DB0100080F
:10016000DB010008DB010008DB010008DB010008FF
:10017000DB010008DB010008DB01000800000000D3
:10018000DB010008DB010008DB010008DB010008DF
:10019000DB010008DB010008DB010008DB010008CF
:1001A000DB010008DB010008DB010008DFF80CD0F0
:1001B00000F0AAFA00480047695D0008F02E002010
:1001C0000648804706480047FEE7FEE7FEE7FEE7F1
:1001D000FEE7FEE7FEE7FEE7FEE7FEE7654900080B
:1001E000AD0100082DE9F05F0546002092469B46D0
:1001F00088460646814640241BE02846414647463D
:10020000224600F002FA53465A46C01A914110D3D2
:1002100011461846224600F0E9F92D1A67EB01084D
:100220004F4622460120002100F0E0F917EB0009BB
:100230004E41201EA4F10104DFDC484631462A4627
:100240004346BDE8F09F10B5431A934209D2831884
:10025000881803E010F8011D03F8011D521EF9D2A1
:1002600010BD40EA01039B0703D009E008C9121F33
:1002700008C0042AFAD203E011F8013B00F8013B60
:10028000521EF9D210BDD2B201E000F8012B491E76
:10029000FBD270470022F6E710B513460A46044623
:1002A0001946FFF7F0FF204610BD10B5044604E0E4
:1002B0000B7800F8013B03B1491C521EF8D22046CE
:1002C00010BD30B504460020034600E05B1C93429D
:1002D00003D2E05CCD5C401BF8D030BD034611F882
:1002E000012B00F8012B002AF9D11846704730B5D0
:1002F00005460020034600E05B1C934205D2EC5CFF
:10030000C85C201A01D1002CF6D130BD2DE9FE4F7A
:10031000804681EA0300C00F0C46009021F00041A6
:1003200023F00045B8EB0200A94105D24046214622
:1003300090461C460B46024623F00040104347D02F
:10034000270DC7F30A00C3F30A510290401A019027
:1003500040286BDAC3F3130040F4801B00989246E8
:1003600020B10023D2EB030A63EB0B0B0198594633
:10037000C0F14002504600F039F906460D4650469D
:100380005946019A00F051F910EB08006141002430
:1003900087EA115284EAE7731A4340D0009A62B3A5
:1003A000019A012A4FEA075215DC001B61EB02019A
:1003B0004FF0004202EA0752CDE90042001C41F52D
:1003C000801132462B4600F051F903B0BDE8F08FA2
:1003D00040462146F9E7001B61EB0201001C41F594
:1003E000801300185B412018A2F5001747EB0301AA
:1003F00040EAD570B6196D4111E06D084FEA360636
:1004000045EAC0754FEA0752001B61EB0201001C70
:1004100041F5801149084FEA300000195141324638
:100420002B4603B0BDE8F04F00F011B9009801224F
:1004300040000023D0EB020263EBE07300982146FA
:100440004FEAE074B8EB000061EB0401E9E783F0E8
:1004500000435BE781F0004158E72DE9FE4F81EA58
:10046000030404F0004421F0004100944FF0000B1D
:1004700023F0004350EA01045ED052EA03045BD04B
:10048000C3F30A54C1F30A552C44A4F2F334019483
:10049000A0FB0254C1F3130141F48011C3F3130311
:1004A00043F4801301FB024400FB034E840A970AC5
:1004B00044EA815447EA8357A4FB076802958D0AF2
:1004C00005FB07854FEA932C04FB0C542705029D7E
:1004D0004FEA065847EA1637B5EB08056EEB070CEE
:1004E000870E920E47EA811742EA8312A7FB0201A8
:1004F000B6EB0B0164EB00042B0D43EA0C335E18E2
:1005000044EB1C50DA465146E7FB0201C5F31304E5
:100510004FEA0B3343EA14534FEA0432019C43EA97
:100520000603A4F10C040294009CCDE900B400F091
:100530009DF803B0BDE8F08F00200146F9E70EB545
:1005400040F2334102910021CDE900110A460B46E9
:1005500000F08CF803B000BDC1F30A5210B5C1F32E
:10056000130140F2FF3341F480119A4201DA002076
:1005700010BD40F233439A42A2F2334203DC5242AE
:1005800000F043F810BD904010BD000030B5041ECF
:1005900071F1000404DB4FF00044404264EB0101C0
:1005A000141E73F1000405DB1C464FF00043524259
:1005B00063EB04038B4208BF824230BD30B5041E9A
:1005C00071F1000404DB4FF00044404264EB010190
:1005D000141E73F1000405DB1C464FF00043524229
:1005E00063EB0403994208BF904230BD202A04DB2C
:1005F000203A00FA02F1002070479140C2F1200336
:1006000020FA03F3194390407047202A04DB203A74
:1006100021FA02F00021704721FA02F3D040C2F122
:1006200020029140084319467047202A06DBCB1769
:10063000203A41FA02F043EAE07306E041FA02F39D
:10064000D040C2F12002914008431946704710B5CE
:10065000141E73F1000408DA401C41F100019218E5
:100660005B411A4301D120F0010010BD2DE9F04D8E
:1006700092469B4611B1B1FA81F202E0B0FA80F2E3
:1006800020329046FFF7B2FF04460F4640EA0A00C8
:1006900041EA0B0153465A46084313D0114653EA28
:1006A000010019D0C8F140025046FFF7AEFF0546E1
:1006B0000E46504659464246FFF798FF084305D07C
:1006C000012004E020463946BDE8F08D00200543B6
:1006D00046EAE0762C4337430A986305E40AA0EB28
:1006E00008000022FD0A44EA47540A3002D50020DF
:1006F0000146E9E7010510196941DDE908450019DE
:100700006941BDE8F04DA2E7064C074D06E0E06800
:1007100040F0010394E8070098471034AC42F6D348
:10072000FFF748FDAC770008CC77000870B58C184F
:1007300010F8015B15F0070301D110F8013B2A11F5
:1007400006D110F8012B03E010F8016B01F8016BE2
:100750005B1EF9D12B0705D40023521E0DD401F8DE
:10076000013BFAE710F8013BCB1A921C03E013F8A7
:10077000015B01F8015B521EF9D5A142D8D30020DC
:1007800070BD10B50146806B026C12F0500F05D0A1
:10079000026CD20626D500F0C3FD10BD016C41F4F9
:1007A0000071016401688A6812F0405F17D1027E0F
:1007B000AAB9CA6A12F4700F02D08A6852050ED420
:1007C0004A6822F020024A60016C21F480710164C1
:1007D000016CC90403D4016C41F00101016400F013
:1007E00099FD10BD806BC26CBDE8104008461047F3
:1007F00010B5806B40210164416C41F004014164FB
:1008000000F08EFD10BD10B5806B00F086FD10BDB0
:10081000464910B54A6822F440324A604A68436843
:100820001A434A6001684A6822F480724A6001688B
:100830004A68036942EA03224A6001684A6822F072
:1008400040724A6001684A6883681A434A600168D6
:100850008A6822F400628A6001688A68C3681A4361
:100860008A60816A6FF07062D14201688A6822F002
:1008700070628A6001688A680CD0836A1A438A6051
:1008800001688A6822F040528A6001688A68C36AF7
:100890001A4301E022F040528A6001688A6822F01F
:1008A00002028A6001688A68037E42EA43028A6023
:1008B00090F82010002901684A680FD042F40062C5
:1008C0004A6001684A6822F460424A6001684A68E6
:1008D000174C436A04EB43331A4301E022F40062ED
:1008E0004A600168CA6A22F47002CA620168CA6A70
:1008F000838B104C04EB03531A43CA6201688A6865
:1009000022F400728A6001688A6890F8303042EA06
:1009100043228A6001688A6822F480628A600168E2
:100920008A68406942EA8020886010BD0023014047
:1009300000E0FFFF0000F0FF2DE9F04104F0BCFBF8
:1009400005461F49002000BF31F91020D31702EBE4
:100950009372921021F81020401CC0B26028F3D38B
:1009600018A004F0A1F81C4F0420396808621B4845
:100970000126C0F85C614FF0E020D0F8000110F4CF
:10098000006F02D00B2001F02DFF0D4A0223121F31
:10099000111F114801F020FC04000DD0014610A0E9
:1009A00004F082F8B96B12482C43C86302D10448A2
:1009B0000E380670BDE8F0810EA004F075F8F1E77E
:1009C00092000020417564696F496E4F7574496EDD
:1009D00069742E2E2E000000982900200000474246
:1009E00048414C5F4552523A2025750D00000000E9
:1009F0005D3C00084F4B0D000B4810B500780028F7
:100A00000CD00A490A884888824208D002F07F0048
:100A100001EB4000521CB0F904000A8010BD04A094
:100A200005F016FE002010BD84000020D61F002017
:100A30004572726F723A20617564696F5F696E5FAB
:100A40006669666F20756E646572666C6F772100EB
:100A500005498A7802F07F0201EB420290804888C3
:100A6000401C488070470000D21E002010B5FFF7E0
:100A7000C3FFBDE8104005F051B9000070B5214B2F
:100A800002460020197811B1012906D034E0104641
:100A900004F0E2FA002199602EE05C7864B3DA7821
:100AA00072B199684FF4FA7500290BDB491E996001
:100AB00006D14EF2C00114FB01F191FBF5F19960F2
:100AC0009A7809E0491C996006D14FF4FA5114FB59
:100AD00001F1B1FBF5F1996072B14FF4806090FBC8
:100AE000F2F0998808440849C0F30900988031F968
:100AF000100000EBD0704010BDE8704000B2FFF76E
:100B0000A7BF0000540100207C6E000810B54FF410
:100B100080610648FFF7BEFB054800218180C18047
:100B20000170BDE8104003A005F092BD4002002016
:100B3000060000200D0D4269742072696E672069FD
:100B40006E69740D00000000F8B5344C002628B121
:100B500061890F2903D2491C618100E06681304D13
:100B6000A18868542D48001D03F026F9207818B19B
:100B7000A088E188884237D0A0880822083881B24E
:100B800026480C3005F076FD2448082225490C3013
:100B9000FFF797FB40B323492048082208390C305F
:100BA000FFF78FFB00B31F491C48082210390C3097
:100BB000FFF787FB002818D120780126B0B1A18863
:100BC000E288881AC0F309002081302820D3103829
:100BD00020810832C2F3090000220839ADF8000074
:100BE000C1F30903104F0EE02670F8BDA088083845
:100BF000C0F30900E080F7E7285CB854521C92B2B9
:100C0000684603F0D9F8BDF800009842F4D1667048
:100C1000A0880838C0F30900E080F8BD0600002075
:100C200040020020746E000840060020FEE72DE917
:100C3000F0414FF6FF770D4606463C4641F221084B
:100C400014E016F8010B082105F05CFD84EA002091
:100C500084B200204146220402D581EA440200E029
:100C60006200401CC0B294B20828F4D36D1EADB22D
:100C7000E7D284EA0700BDE8F0810000014800F0F7
:100C80005FBC00006C2B0020014800F059BC000044
:100C90000C2B0020014800F053BC00002C2C00203D
:100CA00001681823CAB2103AB2FBF3F2054B6FF396
:100CB0000901032A9B5CC36500D9091D81650846AB
:100CC000704700008C77000810B5014600208B6942
:100CD0008A6A4FF0C07453B1B3F5005F15D072B19A
:100CE000012A0CD0022A0AD0032A09D104E01AB141
:100CF000012A06D0022A03D1C96AC90100D5012000
:100D000010BDC96AA142FAD010BD002AF7D0012A4D
:100D1000F2D0022AF3D0032AF3D010BD30B5046814
:100D2000256825F480252560046863608368402B6E
:100D3000036803D099600068C26030BD9A600068A3
:100D4000C16030BD10B5FFF7E1FEBDE8104003F013
:100D5000F7BC70477047000010B59FED321B304C58
:100D600053EC112B2DED048B51EC100B9FED2A8BC6
:100D7000FFF773FB9FED2D0B41EC190B53EC102B80
:100D800094ED000B51EC100BFFF767FB53EC192BA4
:100D9000FFF7BCFA41EC100B84ED000B94ED021B45
:100DA00053EC112BFFF753FB53EC182BFFF7EEFB23
:100DB0000CD294ED000B51EC100B81F0004194ED3E
:100DC000021B53EC112BFFF742FB15E094ED020BD5
:100DD00053EC102B94ED000B51EC100BFFF737FB8D
:100DE0009FED141B53EC112BFFF7E8FB01D2012000
:100DF00000E00020FFF7A3FB53EC182BFFF7C6FB26
:100E000004D194ED020BBDEC048B10BD94ED000BEE
:100E100084ED020BF7E70000000000000000000076
:100E200060010020FCA9F1D24D62703FAC1C5A64F5
:100E30003BDFEF3F000000000000084010B59FEDD1
:100E4000321B304C53EC112B2DED048B51EC100B5D
:100E50009FED2A8BFFF701FB9FED2D0B41EC190B4A
:100E600053EC102B94ED040B51EC100BFFF7F5FA3B
:100E700053EC192BFFF74AFA41EC100B84ED040BED
:100E800094ED061B53EC112BFFF7E1FA53EC182BF2
:100E9000FFF77CFB0CD294ED040B51EC100B81F0AE
:100EA000004194ED061B53EC112BFFF7D0FA15E02F
:100EB00094ED060B53EC102B94ED040B51EC100B3E
:100EC000FFF7C5FA9FED141B53EC112BFFF776FBD0
:100ED00001D2012000E00020FFF731FB53EC182B7A
:100EE000FFF754FB04D194ED060BBDEC048B10BD51
:100EF00094ED040B84ED060BF7E700000000000002
:100F00000000000060010020FCA9F1D24D62703F9A
:100F1000AC1C5A643BDFEF3F0000000000000840BB
:100F200010B59FED321B304C53EC112B2DED048B83
:100F300051EC100B9FED2A8BFFF78FFA9FED2D0BD5
:100F400041EC190B53EC102B94ED080B51EC100BEA
:100F5000FFF783FA53EC192BFFF7D8F941EC100B8C
:100F600084ED080B94ED0A1B53EC112BFFF76FFA7D
:100F700053EC182BFFF70AFB0CD294ED080B51EC45
:100F8000100B81F0004194ED0A1B53EC112BFFF77D
:100F90005EFA15E094ED0A0B53EC102B94ED080B60
:100FA00051EC100BFFF753FA9FED141B53EC112B70
:100FB000FFF704FB01D2012000E00020FFF7BFFA99
:100FC00053EC182BFFF7E2FA04D194ED0A0BBDECB9
:100FD000048B10BD94ED080B84ED0A0BF7E70000BD
:100FE000000000000000000060010020FCA9F1D218
:100FF0004D62703FAC1C5A643BDFEF3F00000000C5
:101000000000084010B59FED321B304C53EC112B03
:101010002DED048B51EC100B9FED2A8BFFF71DFA81
:101020009FED2D0B41EC190B53EC102B94ED0C0B99
:1010300051EC100BFFF711FA53EC192BFFF766F97F
:1010400041EC100B84ED0C0B94ED0E1B53EC112BAB
:10105000FFF7FDF953EC182BFFF798FA0CD294ED3B
:101060000C0B51EC100B81F0004194ED0E1B53EC76
:10107000112BFFF7ECF915E094ED0E0B53EC102B50
:1010800094ED0C0B51EC100BFFF7E1F99FED141BE5
:1010900053EC112BFFF792FA01D2012000E000205F
:1010A000FFF74DFA53EC182BFFF770FA04D194EDCB
:1010B0000E0BBDEC048B10BD94ED0C0B84ED0E0BF0
:1010C000F7E70000000000000000000060010020C1
:1010D000FCA9F1D24D62703FAC1C5A643BDFEF3F7C
:1010E000000000000000084078B50024009490F84B
:1010F0003C20012A19D0012280F83C200A680723ED
:101100000568092A13D9EE680A3A02EB42029340B5
:101110009E43EE600B788A680A3B03EB43039A40D8
:101120000368DD682A43DA6010E0022078BD2E698A
:1011300002EB420293409E432E610B788A6803EBD8
:1011400043039A4003681D692A431A614A681F23B2
:10115000072A13D205686E6B521E02EB820293407F
:101160009E436E630A8893B20A79521E02EB820292
:1011700093400268556B2B43536327E005680D2AA3
:1011800012D22E6BD21F02EB820293409E432E633B
:101190000B790A88DB1F92B203EB83039A40036842
:1011A0001D6B2A431A6311E0EE6A0D3A02EB8202CC
:1011B00093409E43EE620B790A880D3B92B203EB9B
:1011C00083039A400368DD6A2A43DA621B4B056891
:1011D000194A9D420AD10D68122D07D1556825F490
:1011E00000055560556845F48005556005689D42C9
:1011F0001DD1134D0B68AB4201D0112B17D1536891
:1012000023F480035360536843F400035360096878
:10121000A9420CD10B490C4A0968B1FBF2F101EB70
:101220008101490000E0491E00910029FBD180F8AE
:101230003C40002078BD0000002301400020014018
:1012400012000010B801002040420F0070B50022CB
:101250002F4C1146521C21606160A160E160402A60
:10126000F8D32B4B00212033421803EB02122568E0
:101270001668491C35442560656856684029354420
:101280006560A56896683544A560E568D2682A441B
:10129000E260E9D35FF0000054F82010890944F8B7
:1012A0002010401C0428F7D32068FFF748F941ECD0
:1012B000100BFFF751FD51EC100BFFF74DF9144DDA
:1012C000103528606068FFF73AF941EC100BFFF722
:1012D000B5FD51EC100BFFF73FF96860A068FFF710
:1012E0002EF941EC100BFFF71BFE51EC100BFFF732
:1012F00033F9A860E068FFF722F941EC100BFFF723
:1013000081FE51EC100BFFF727F9E86070BD00007B
:10131000DC2000204020FFF799BF0020FFF796BF98
:10132000704770B504004FF0000503D0206C002614
:1013300010B107E0012070BD204600F01DF8666482
:1013400084F83C60206CC00610D4206C20F48850D7
:1013500040F0020020642046FFF75AFA6664206CD1
:1013600020F0020040F00100206400E0012584F834
:101370003C60284670BD000070B586B0064614215A
:101380006846FEF787FF1D493068884234D11C4803
:101390000025016841F480710160006800F48070EC
:1013A000059017481438016841F004010160006895
:1013B000694600F0040005900F2000900320CDE95D
:1013C0000105104800F040FA104C0F48C4E9000530
:1013D0000015A560C4E90350800060618000A06131
:1013E0008011C4E907052046656200F079F908B16B
:1013F000FFF7B0FCB463A66306B070BD00200140E7
:101400004438024000080240106402400C2B0020C7
:10141000F8B50E4600210446009190F83C000128E2
:1014200007D0012084F83C0020688368DB0702D0E5
:1014300011E00220F8BD836843F001038360374860
:10144000374B0068B0FBF3F000EB400000E0401EBB
:1014500000900028FBD120688368DB075CD0236CF8
:1014600040F20165AB4343F4807323644068400558
:1014700005D5206C20F4005040F480502064206C8E
:10148000C00404D5606C20F00600606400E0616474
:1014900084F83C10A16B2448224DC863A16B2348FB
:1014A0000864A16B2248C86421686FF022000860BC
:1014B0002068416841F0806141602068816841F4A2
:1014C000807181602168134632464C31A06B00F078
:1014D00071F968681749C006206806D088421BD198
:1014E000816811F0405F13D016E08842F8D0124AAC
:1014F000904203D1D1F80423D206F1D00F4A904292
:101500000AD1D1F8041301F01F011029E8D303E038
:10151000816841F0804181600020F8BDB801002061
:1015200040420F000023014083070008070800081D
:10153000F107000800200140002101400022014085
:101540002DE9F84304464FF00009CDF800906348B8
:101550004FF41651A56D0068B0FBF1F72E6894F8B2
:101560005C10082000FA01F131420FD021680A68AE
:1015700052070BD50A6822F004020A6094F85C1046
:101580008840A860606D40F00100606594F85C10D0
:101590004FF0010808FA01F0304208D0216849698B
:1015A000090604D5A860606D40F00200606594F8FB
:1015B0005C1004208840304208D0216809688907FF
:1015C00004D5A860606D40F00400606594F85C107C
:1015D00010208840304218D021680968090714D5C6
:1015E000A86020680168490304D50068000308D595
:1015F000A16C07E00168C90503D4016821F0080166
:101600000160216C09B12046884794F85C102020C5
:101610008840304231D021680968C9062DD5A860BC
:1016200094F8350005282068016806D0490347D59D
:10163000006800031DD4616C1CE021F016010160FC
:101640002068416921F080014161206C08B9A06CDB
:1016500020B12068016821F00801016094F85C1055
:101660003F208840A86084F8349084F83580216D4C
:101670001FE0E16B09B120468847606D00282BD040
:10168000606DC00714D0052084F83500206801681B
:1016900021F0010101600098401C0090B84203D87D
:1016A00020680068C007F6D184F8349084F835804B
:1016B000E16C002910D001B02046BDE8F043084796
:1016C0000168C905D5D4016821F01001016084F8D2
:1016D000349084F83580CCE7BDE8F883B801002069
:1016E0002DE9F041044600F0ABF906465CB1002557
:1016F00084F83450022084F835002068016821F015
:10170000010101600DE00120BDE8F08100F098F9D1
:10171000801B052805D920206065032084F835004A
:10172000F2E720680068C007F0D1226811682048FD
:101730000140D4E901031843D4E903363343184385
:1017400063691843A3691843E3691843236A18437C
:101750000843616A042903D1D4E90B1319430843F0
:10176000106020684069666A20F0070130460E4329
:10177000012704280CD1A06A0643E06A40B1204644
:10178000FFF7A2FA20B14020606584F83570BAE70F
:10179000206846612046FFF783FA94F85C203F21D9
:1017A00091408160656584F835700020ACE70000E9
:1017B0003F8010F02DE9F0410446866D90F834002A
:1017C000002501280DD0012084F8340094F83570EC
:1017D0000020012F07D084F8340002252846BDE8F8
:1017E000F0810220FBE7022784F83570606520460F
:1017F000FFF794FA94F85C103F208840B0602068AE
:10180000016841F016010160206C20B12068016878
:1018100041F0080101602068016841F001010160A8
:10182000DCE7000070B5044600F00AF90546601CCC
:1018300002D004480078044400F002F9401BA042A2
:10184000FAD370BDAC0100202DE9F84F00224FF013
:10185000010803254FF00F0E0B6808FA02F423402D
:10186000A3426ED14E68012E05D0022E03D0112E58
:1018700001D0122E12D186684FEA420C05FA0CF7FD
:10188000BE43CF6807FA0CF7374387604668A64324
:101890000C79C4F30014944034434460C668570084
:1018A00005FA07FC8C6826EA0C06BC403443C46089
:1018B0004C68022C01D0122C13D1D40800EB840404
:1018C000A346D4F8209054074FEAD46A0EFA0AF6D9
:1018D00029EA06090E6906FA0AF646EA0906CBF86D
:1018E000206004680E7924EA0C0406F00306BE406A
:1018F000264306604C68E4006FD53B4C266846F4EE
:1019000080462660246822F0030604F48044009494
:10191000364C3444A446D4F808489607360F0EFADD
:1019200006F7BC43324FB84201D100272EE0314FB9
:10193000B84201D1012729E02F4FB84202D1022736
:1019400024E04AE02D4FB84201D103271EE02C4F7E
:10195000B84201D1042719E02A4FB84201D1052726
:1019600014E0294FB84201D106270FE0274FB842B3
:1019700001D107270AE0264FB84201D1082705E028
:10198000244FB84201D1092700E00A27B740274376
:10199000CCF80878204E34684F689C43FF0300D58C
:1019A0001C4334601C4E361D34684F689C43BF0393
:1019B00000D51C433460184E083634684F689C4389
:1019C000FF0200D51C433460134E0C3634684F6858
:1019D0009C43BF0200D51C433460521C102AFFF404
:1019E0003BAFBDE8F88F00004438024000300140B2
:1019F000000002400004024000080240000C0240C7
:101A0000001002400014024000180240001C024076
:101A10000020024000240240003C014000690840D0
:101A200000D001207047426931EA020200D1090466
:101A3000816170470AB1816170470904FBE70000CA
:101A40000148806870470000AC01002090F83D20FC
:101A5000202A01D002207047242280F83D2002680D
:101A6000136823F0010313600268536A23F0100324
:101A700053620268536A0B43536201680A6842F07A
:101A800001020A60202180F83D100020704790F884
:101A90003D20202A01D002207047242280F83D20DA
:101AA0000268136823F00103136003685A6A22F086
:101AB0000F020A4391B2596201680A6842F00102BA
:101AC0000A60202180F83D100020704770B50400A6
:101AD00025D094F83D00002520B984F83C502046DC
:101AE00000F04CFA242084F83D002068016821F0C1
:101AF000010101602068016841F400410160206833
:101B0000016821F40041016001F0E6F84D4A616886
:101B1000914201D84C4900E04C49884201D2012051
:101B200070BD4B492368B0FBF1F15E6826F03F06BB
:101B30000E435E606368934206D94FF4967359432F
:101B40004FF47A73B1FBF3F12368491C1E6A26F047
:101B50003F06314319626168914210D84900401E26
:101B6000B0FBF1F2521CC2F30B02042A01D2042092
:101B700022E0B0FBF1F0401CC0F30B001CE0A268B7
:101B8000F2B301EBC10303EB0116431EB3FBF6F303
:101B90005B1C43F480431B0549D092B301EBC102A7
:101BA00002EB0111401EB0FBF1F0401CC0F30B0032
:101BB00040F4804040F400402168CA694CF6FF734D
:101BC0009A431043C861D4E90710014320680268B2
:101BD00022F0C00211430160D4E9030101432068EF
:101BE000826848F2FF339A4311438160D4E90501CA
:101BF00008432168CA6822F0FF021043C86001E070
:101C00000EE016E02068016841F0010101602564E2
:101C1000202084F83D00256384F83E50002070BDEC
:101C200001EB4106431EB3FBF6F35B1CB3E7012057
:101C3000C2E701EB4101401EB0FBF1F0401CC0F3D4
:101C40000B00B7E7A086010080841E0000093D005C
:101C500040420F002DE9FF4F83B09A46DDE911970E
:101C600093460446DDF84080FFF7EAFE054694F807
:101C70003D00202870D1192301227149204600958A
:101C800001F050FE0028F5D194F83C00012863D003
:101C9000012084F83C0020680168C90703D101686D
:101CA00041F0010101602068016821F400610160D8
:101CB000222084F83D00402084F83E00002626645F
:101CC000C4F82480A4F82A90608D20855D48E062E5
:101CD000CDE9007553465A462046049901F02AFD85
:101CE00000287CD1208DD0B1012821D00228206885
:101CF00024D0416980690090208D032869D801288B
:101D00002BD0514902283B464FF00002009559D094
:101D10008846204601F006FE002860D13CE020689D
:101D2000416981690091016841F40071016077E0C7
:101D30002068016821F480610160F0E7016821F406
:101D4000806101602068016841F4006101602068E1
:101D500041698069009063E06FE02A463946204679
:101D600001F05FFE98BB20680069616A08704EE070
:101D70002068016841F40071016020680069616AAF
:101D80000870606A401C6062218D491E2185618D4A
:101D9000491E6185216838E02068016821F480616E
:101DA000016020680069616A0870606A401C6062B6
:101DB000208D401E2085608D401E60853B460022A0
:101DC00041460095204601F0ADFD00B9D0E706E0A0
:101DD000FFE72A463946204601F023FE18B10120CC
:101DE00007B0BDE8F08F20680069616A0870606A1A
:101DF000401C6062218D491E2185618D491E6185CF
:101E000021684A69D24352070AD409690170606A9D
:101E1000401C6062208D401E2085608D401E6085C4
:101E2000208D00287FF468AF202084F83D0084F8DE
:101E30003E6084F83C600020D2E70220D0E700003A
:101E4000020010000000FFFF040001002DE9FF4F19
:101E500083B09A46DDE9119793460446DDF8408049
:101E6000FFF7EEFD054694F83D0020287FD11923A9
:101E7000012240492046009501F054FD002876D10A
:101E800094F83C00012872D0012084F83C002068BE
:101E90000168C90703D1016841F0010101602068B0
:101EA000016821F400610160212084F83D00402098
:101EB00084F83E0000262664C4F82480A4F82A9002
:101EC000608D20852C48E062CDE9007553465A4666
:101ED0002046049901F0ACFC70B930E02A4639463E
:101EE000204601F0D1FD58B1206C042804D12068AF
:101EF000016841F400710160012007B0BDE8F08F76
:101F0000606A216800780861606A401C6062218D07
:101F1000491E89B22185628D521E628522685369ED
:101F2000DB435B070BD469B100781061606A401C29
:101F30006062208D401E2085608D401E6085208D52
:101F40000028CBD12A463946204601F0C5FC00289E
:101F5000CAD154F83D0B016841F4007101602020A2
:101F600004F81E09E67766770020C6E7FFE702203F
:101F7000C3E70000020010000000FFFF10B586B0AC
:101F8000044614216846FEF785F913492068884203
:101F900020D11248016841F00201016000686946E1
:101FA00000F002000590C020009012200190012056
:101FB000029003200390042004900948FFF744FC9A
:101FC00006481030016841F400110160006800F417
:101FD0000010059006B010BD00540040303802409B
:101FE000000402402DE9FF41044600688168009129
:101FF0007749784E4FF04027884201D1324600E0C1
:102000003A469268019240688846029001D1304673
:1020100000E038464068039060684FF00105B0F575
:10202000007F1CD0D8B1900705D50398000602D5D3
:10203000204601F07FFD0098C0070FD002984006AF
:102040007FD521682046CA68E16A8B1CE3620A805A
:10205000618E491E6186618E002967D071E000980B
:10206000800719D50298000616D5616A20468A1C99
:10207000626222680988D160618D491E6185618D27
:1020800051B901684A6822F0A0024A60418E19B92C
:1020900080F8415000F082F90198C00705D00398FC
:1020A000400602D5204601F015FD0198400622D5D4
:1020B000039880061FD52168414501D1304600E0D4
:1020C0003846406820F0600101D1304600E03846D3
:1020D00041602068416821F0A00141602068C1682A
:1020E0008068019084F84150606C40F002006064A8
:1020F000204600F09FF90098000767D502988006F7
:1021000064D52068416821F0A00141602168414503
:1021100001D1304600E03846406820F0600000D031
:102120003E46706020688068009043E001684A681D
:1021300022F060024A60418D19B980F8415000F0E8
:102140002DF9009840061ED5029880061BD5206800
:10215000416821F0600141602168414501D130466C
:1021600000E03846406820F0A00101D1304600E090
:102170003846416084F84150606C40F00200606471
:10218000204600F057F9019800071FD503988006F4
:102190001CD52168414501D1304600E038464068F1
:1021A00020F0A00000D03E4670602068416821F019
:1021B0006001416084F84150606C40F0040060644C
:1021C00004B02046BDE8F04100F034B9BDE8FF811D
:1021D00000380040003400402DE9F84F044690F8E4
:1021E0004100154689464FF0000AD346012802D027
:1021F0004FF0020A82E0E9B3E2B3DBB394F84000A7
:1022000001283DD0012084F84000E262616220682C
:10221000C06900F00700032834D0052832D0238598
:1022200063852386A4F83230C4F844B0052084F8CE
:102230004100E36B4B481864E66B4B4BF363E76B71
:102240004A4EFE64A76B3864A06BC363A06BC66480
:102250002068C369DFF8188103F44073454E4FF0DE
:102260004027B3F5007F16D0ABB1C269C2F301229B
:10227000032A00E001E045D047E00120BDE8F88FE7
:102280000220FBE74FF6FF7000EA430020856085DF
:1022900020866086C8E7238E404501D1314600E0A4
:1022A00039460C31E06BFFF785FA2068404501D1D3
:1022B000304600E03846406840F0010001D1314628
:1022C00000E039464860238D2268494602F10C023D
:1022D000A06BFFF76FFA2068416841F0020138E017
:1022E00040453CD13046C06940F4806000D03E4655
:1022F000F0612068C16941F48061C16184F840B037
:102300005046BBE7C26882680092238D404501D1E8
:10231000324600E03A460C32A06BFFF74BFA2168D8
:10232000414501D1314600E03946496841F002019A
:1023300001D1304600E038464160238E21682A46AC
:1023400001F10C01E06BFFF735FA2068416841F0BC
:10235000010141602068C1694905C1D5CEE7384611
:10236000C1E70000BD3C0008953B0008693C00083F
:10237000003800400034004006490878002807D0A3
:1023800005480278881D0AB1498800E00021418093
:1023900070470000840000202D00002070470000DE
:1023A000184830B481880023083189B281806029BF
:1023B00000D3838013490A310A8813498C7804F0CA
:1023C0007F0401EB4404A2804A88521C4A800178B1
:1023D00000290FD00D4A0B4C11885588A41DA94225
:1023E0000AD001F07F0302EB4303491C9B88438022
:1023F0001180238030BC7047238030BC04A004F0DF
:1024000027B9000084000020D61F0020D21E002023
:102410004572726F723A20617564696F5F6F75748F
:102420005F6669666F20756E646572666C6F772192
:1024300000000000054D4FF40044FA20FFF7F2F9C8
:10244000012221462846FFF7F5FAF6E70018024078
:102450002DE9F047040005D094F841004FF0000842
:1024600018B109E00120BDE8F08784F840805148A8
:102470006063204600F0A6F8022684F841602068D8
:10248000C16940F6BF77B943C161206806626069DF
:102490004FF4007902282FD0E06870B12025A068A1
:1024A000202800D86D00012000F024FA2169494558
:1024B0001FD1E16819B1A90002E01025EFE7E9009A
:1024C000B0FBF1F000EB800061694000B0FBF1F07F
:1024D000401D0A21B0FBF1F000F00101401A400854
:1024E0000902821EFE2A09D3606C40F0100060646D
:1024F000B8E7B0FBF5F0E5E70220002122690843C8
:10250000024320680262D4E901010843A269E1683C
:10251000114308432168CA69BA43104340F400607C
:10252000C861206A01283AD12348606323482168A2
:10253000234A4FF04023814201D1114600E0194661
:10254000C96921EA070101D1154600E01D46E9618C
:102550002168814201D1114600E019460E622568CA
:10256000854201D1114600E01946C9698EB2616801
:1025700049451BD0D1B100212789B4F80CC047EAE6
:102580000C07B4F818C04CEA010C47EA0C07B9B2C2
:10259000314341F40061854200D01A46D161C4F84C
:1025A0004480012084F8410000205CE74FF48071F2
:1025B000E2E70000C73C0008E51F000800380040C3
:1025C000003400402DE9F04F87B0054614216846DD
:1025D000FDF760FE4D49286888427CD14C480024B4
:1025E000016841F4004101600068494900F400407D
:1025F00010390590086840F001000860086800F094
:1026000001000590086840F004000860086800F0C8
:1026100004000590086840F0080008600868022778
:1026200000F00800059010200090CDE90174062606
:10263000CDE9034669463748FFF706F94FF480684D
:10264000CDF80080CDE90174DFF8CCA0CDE90346D8
:1026500069465046FFF7F8F84FF4006BCDF800B02C
:10266000CDE901744FF00509CDE903495E4669469D
:102670005046FFF7E9F84FF0400ACDF800A0CDE949
:102680000174CDE9034969462448FFF7DDF8254F79
:1026900023484FF400393860384601464460C1F899
:1026A00008A0C460C1F8108046614FF400564FF492
:1026B00080788661C1F81C80C1F820904462FFF7E1
:1026C0000FF808B1FEF746FB1548174CAF63783892
:1026D000BD63206000E016E04FF0C0606060002045
:1026E00004F10C024FF48061A06082E80308C4E9A1
:1026F0000890C4E906682046FEF7F2FF08B1FEF72D
:1027000029FBEC63A56307B0BDE8F08F003C0040F7
:10271000403802400000024000080240000C024025
:10272000886002406C2B0020CC2B00207047704743
:10273000024881680278114481607047AC01002032
:102740000B4810B5016841F400710160016841F463
:1027500080610160016841F480710160032000F034
:102760007FF8002000F006F800F024F8002010BDEB
:10277000003C024070B50D4D04464FF47A71287844
:10278000B1FBF0F00A490968B1FBF0F000F044FF3A
:1027900048B9102C07D200222146501E00F040F804
:1027A00000206C6070BD012070BD0000AC010020F5
:1027B000B80100200A4808B5016841F48041016071
:1027C000006800F4804000900548001F016841F057
:1027D00080510160006800F08050009008BD00004A
:1027E0004438024000280DDB00F01F020121914017
:1027F0004009800000F1E020C0F88011BFF34F8F46
:10280000BFF36F8F7047002809DB00F01F02012122
:1028100091404009800000F1E020C0F800117047AD
:10282000F0B40E4B1B680C46C3F30223C3F107053B
:10283000042D00D90425191D072901D2002300E029
:10284000DB1E012606FA05F1491E214099409E40F3
:10285000761E16403143F0BC02F067B90CED00E083
:10286000064900F0070208684FF6FF03184040EAE7
:102870000220034A10430860704700000CED00E09E
:102880000000FA052DE9F8431748016841F080512E
:1028900001600068154F00F08050012600903E64F2
:1028A000FFF7CEF805464FF47A78114C05E000BFEB
:1028B000FFF7C6F8401B40450DD86068C003F7D548
:1028C0007E64FFF7BDF80546464607E0FFF7B8F817
:1028D000401BB04202D90320BDE8F8836068800342
:1028E000F4D50020F8E700004038024000000E4216
:1028F0000070004001460020012908D111490968F3
:1029000011F4000104D0012901D14FF4FA107047ED
:102910000C48001F01680068490200F03F0001D523
:10292000094900E00949074AB1FBF0F07C3211681F
:10293000C1F3881141431068C0F30270B1FBF0F09D
:10294000704700000838024000127A000024F400AA
:102950002DE9F84F04460068DFF824A2894F8A4D1C
:10296000C1074FF001084FF0000603D1810701D4E1
:10297000400648D5CAF86860FFF762F8814605E06E
:10298000FFF75EF8A0EB090002287DD82868000157
:10299000F6D42078C1077D4805D06168227A890184
:1029A00041EA027101602178890711D501686268E6
:1029B000237B9201C1F3027142EA036242EA017190
:1029C00001603968E26921F01F01521E114339602C
:1029D0002178490608D56168227B890141EA0261B4
:1029E000227A41EA02710160CAF86880FFF728F88C
:1029F000814605E0FFF724F8A0EB0900022843D840
:102A000028680001F6D52068410701D400074ED59B
:102A1000CAF87060FFF714F8814605E0FFF710F878
:102A2000A0EB090002282FD82868C0438000F5D504
:102A300020784107564814D501682269237D920108
:102A4000C1F3027142EA036242EA0171016039682E
:102A5000226A6FF0FF0321F4F85103EB02221143C5
:102A600039602178090712D501682269C1F3036131
:102A7000920142EA0161227E41EA027101603868F6
:102A8000616A20F4403000E051E008433860CAF841
:102A90007080FEF7D5FF074605E000BFFEF7D0FFC8
:102AA000C01B022843D82868C0438000F6D4207891
:102AB000800653D534484030016841F080510160B0
:102AC0000068344D00F080500090286840F4807019
:102AD0002860FEF7B5FF074605E000BFFEF7B0FF30
:102AE000C01B022823D82868C005F7D5274D143D00
:102AF000286810F4407020D0218D01F4407181428B
:102B00001BD0286820F440712348C0F8008006607C
:102B100029602868C00710D0FEF792FF064641F2F0
:102B2000883707E0FEF78CFF801BB84202D90320EC
:102B3000BDE8F88F28688007F4D5A16A1248C1F370
:102B400001220830032A13D0016821F4F811016032
:102B50002868218DC1F30B01084328602078C00646
:102B600004D50E4994F82C00C1F8E0010020DFE7FD
:102B700002680B4B22F4F81219400A430260E7E79F
:102B8000000047428C38024000380240843802403E
:102B90008838024000700040400E47420010474213
:102BA000FFFCFF0F2DE9F0470E46050065D0DFF86A
:102BB0001481D8F80000F7B200F00F00B04207D23D
:102BC00088F80070D8F8000000F00F00B04254D12F
:102BD00028683D4C810712D5400703D5206840F492
:102BE000E05020602878000703D5206840F460405A
:102BF00020602068A96820F0F00008432060287851
:102C0000C0072DD0304968680839012812D0022841
:102C100013D0032811D00968890700292DDA21680B
:102C200021F0030101432160FEF70AFF814641F2D2
:102C3000883A0EE009688903EFE709688901ECE743
:102C4000FEF7FEFEA0EB0901514502D90320BDE8C5
:102C5000F0872068696800F00C00B0EB810FEFD1BD
:102C6000D8F80010404601F00F01B14207D90770B3
:102C7000006800F00F00B04201D00120E7E728789B
:102C8000400705D52068E96820F4E050084320603B
:102C90002878000706D52068296920F4604040EABA
:102CA000C100206000F028F82168084AC1F3031130
:102CB000515CC8400649086006480068FFF75AFDA5
:102CC0000020C4E7003C0240083802409477000826
:102CD000B8010020B00100200448054900680968D7
:102CE000044AC1F38221515CC8407047B8010020FA
:102CF00008380240A4770008154810B5006810F0A5
:102D00000C02144813D04110042A0FD0082A0ED107
:102D10000F4C241F2268236802F03F025B0207D594
:102D20002068C0F38810A0FB010106E0084610BD32
:102D30002168C1F38811A1FB00010023FDF752FABD
:102D40002168C1F30141491C4900B0FBF1F010BDFD
:102D5000083802400024F4002DE9F84F04006ED03A
:102D60002078DFF83C93C007A9F104054AD009F1A7
:102D700004000168C1F38101012908D00068C0F393
:102D8000810002280AD1D9F80000400206D528683F
:102D9000800337D560680028E1D033E06068B0F583
:102DA000803F10D0B0F5A02F286810D020F48030DC
:102DB0002860286820F4802028606068A8B1FEF7A9
:102DC0003FFE06460DE0286840F48030F4E740F40A
:102DD00080202860F7E700BFFEF732FE801B6428E2
:102DE00073D828688003F7D50CE0FEF729FE064665
:102DF00005E000BFFEF724FE801B6428F0D8286899
:102E00008003F7D42078DFF89C8280074FF0000A17
:102E10003ED5A348001D016811F00C0F08D00068D2
:102E2000C0F3810002280BD1D9F80000400207D47A
:102E30002868800716D5E068012800D112E02BE150
:102E4000E068B8B10120C8F80000FEF7F9FD0646B9
:102E500005E000BFFEF7F4FD801B0228C0D82868FB
:102E60008007F7D52868216920F0F80040EAC10002
:102E700028600DE0C8F800A0FEF7E2FD064604E079
:102E8000FEF7DEFD801B02281FD828688007F7D4D4
:102E90002078000722D5824E83486169703671B16F
:102EA00001210160FEF7CCFD074604E0FEF7C8FDF6
:102EB000C01B022809D830688007F7D50EE0C0F89B
:102EC00000A0FEF7BDFD074605E082E0FEF7B8FD75
:102ED000C01B02287DD830688007F7D420784007CF
:102EE00068D5DFF8BCB100270BF13C0BDBF8000024
:102EF000C0000BD4DBF8001041F08051CBF800107B
:102F0000DBF80000012700F080500090674E306829
:102F1000C00510D4306840F480703060FEF790FD3A
:102F2000009005E0FEF78CFD0099401A022850D869
:102F30003068C005F6D55A4EA0686C3601280FD00F
:102F40000528306810D020F001003060306820F093
:102F500004003060A068B8B1FEF772FD00900FE089
:102F6000306840F00100F4E740F004003060F7E71B
:102F7000FEF766FD0099411A41F28830814266D819
:102F800030688007F4D50EE0FEF75AFD009007E0A8
:102F9000FEF756FD0099411A41F28830814256D819
:102FA00030688007F4D42FB1DBF8001021F0805195
:102FB000CBF80010A069C8B33949091D0968C1F3ED
:102FC000810102294AD00228504607D0C8F8600083
:102FD00000E03CE0FEF734FD04463BE04746C8F81D
:102FE0006000FEF72DFD064605E000BFFEF728FD58
:102FF000801B02282BD828688001F7D4D4E9070168
:103000000843A16A2A4A490802EB0141626A41EA7F
:103010008211084394F82C1040EA0161C9F80010AD
:1030200001203866FEF70CFD044606E036E000BFDE
:10303000FEF706FD001B022809D828688001F7D595
:103040002CE000BFFEF7FCFC001B022802D9032085
:10305000BDE8F88F28688001F4D41FE00128F7D07C
:10306000D9F80000E26900F48001914214D1226A8B
:1030700000F03F0191420FD147F6C071626A0140F2
:10308000914209D1A26A00F44031914204D1E16A2F
:1030900000F07060884201D00120D9E70020D7E716
:1030A0000438024000004742800E47420070004052
:1030B0000000FFFF10B500F017F8024605A109480F
:1030C00001F002FD074803F0C3FABDE8104001F02B
:1030D00037BB0000534149206572726F723A202558
:1030E000780D000000020020D0F884007047000036
:1030F00070B504004FF0000504D094F8810000265C
:1031000010B106E0012070BD84F88060204600F018
:10311000A1F8022084F88100204601F02FFB204610
:1031200001F096FA206AA8B1204601F047FB216A17
:1031300000EB800040004902B0FBF1F10A22B1FB34
:10314000F2F0B1FBF2F302FB13116062082901D91E
:10315000401C606260684FF4007170B102280CD0AE
:10316000206C012800D00021A06878B1012808D087
:10317000022809D0032809D106E0206C0128F2D0EA
:10318000F2E74FF4806501E04FF4006520680268C3
:103190002E4B1A400260626B60681043D4E90E2324
:1031A0001A4310430843A16A28430843216908438E
:1031B00061690843A18C40EA01512068026811430B
:1031C0000160206841684EF20F029143416021681E
:1031D0004868A2691043D4E90B231A43104348609E
:1031E000206881681A4A11408160626DE06C616CF0
:1031F0000243206D491E08430243A06C6FF0FF019B
:1032000001EB00200243206883681A438260206833
:10321000C2684FF220031A40C260D4E9160210437C
:10322000226E01EB0221B4F8642041EA0241084316
:103230002168CA681043C860C4F88460012084F81B
:10324000810084F88060002070BD000010C005FF80
:103250000080F8FF2DE9F04F054600683E493F4FDA
:10326000DFF8FC80002687B04FF002094FF0060A15
:103270004FF4806B884232D1D8F8001039B93A68DF
:1032800042F480023A603A6802F480020592491CD6
:10329000C8F8001070200090CDE90196CDE9036ACE
:1032A00069463048FEF7D0FA304C2F48E4E8020671
:1032B0004020A4E84108400144F814098000A061BE
:1032C0004011E0614FF44030C4E908062748FEF79A
:1032D00007FA08B1FDF73EFD6C67A5632C671E4930
:1032E00028682031884234D1D8F8001039B93A68BA
:1032F00042F480023A603A6802F480020592491C66
:10330000C8F8001008200090CDE90196CDE9036AC5
:1033100069461448FEF798FA1348154C4830206067
:103320004FF00070C4E901068013E660C4E904B000
:103330008000A0614011E0614FF44030C4E908060C
:103340002046FEF7CDF908B1FDF704FD6C67A563D3
:103350002C6707B0BDE8F08F0458014044380240A4
:10336000A801002000100240286402408C2C00209C
:103370002C2C002070B5044629B122B194F88100AC
:10338000012802D043E0012070BD94F8800001289C
:103390003DD0012084F88000A166A4F86C20A4F838
:1033A0006E200025C4F88450222084F88100616FCB
:1033B00018480864616F1848C863616F1748C8648B
:1033C000606F05652168B4F86C301C31A26E606FC7
:1033D000FEF7F0F910B184F88050D4E700212046C0
:1033E00001F042FA21680A69104308612068016807
:1033F00041F40031016020680168C90303D4016809
:1034000041F48031016084F88050002070BD0220BA
:1034100070BD0000F1460008B5460008714600087E
:103420002DE9F047434D444C2978C809607021F0DC
:10343000600765D05FF000024FF480713F48FEF7EF
:10344000F9FA21796078DFF8EC80002608F140086D
:103450004FF00D09814203D1B8B1A078B84214D021
:10346000344837A14030FCF739FF324839464B30F9
:1034700000F026F92F4888F80D9088F80E6040304B
:1034800003F0E6F8A770607820716978C809C1F385
:103490008017FDF759FB3846FDF756FB2B4F387860
:1034A00001282FD002282FD05FF00000FDF7E6FAA8
:1034B000204D207820352870E178814213D024A156
:1034C00005F12000FCF70AFF217805F12C0000F03F
:1034D000F7F888F80E9088F80F6005F1200003F0E7
:1034E000B7F82078E0701E48007878B100F0CAF88C
:1034F000C001687000F0C6F8697841EA801006E003
:10350000012299E7E878D1E7A878CFE7C020687072
:103510003878012803D00228EE7006D002E0FDF7CB
:10352000A5FAE870AE70BDE8F087FDF79FFAA870C5
:10353000F9E70000C0010020000000200004024064
:10354000494E20432D63683A203078002A0000203D
:103550004F555420432D63683A2030780000000016
:103560001C0000207047000070B5044629B122B14C
:1035700094F88100012802D043E0012070BD94F846
:10358000800001283DD0012084F88000A166A4F8C5
:103590006C20A4F86E200025C4F88450122084F812
:1035A0008100216F18480864216F1848C863216F93
:1035B0001748C864206F05652268B4F86C301C3267
:1035C000A16E206FFEF7F6F810B184F88050D4E7B2
:1035D00020680168C90303D4016841F480310160A7
:1035E0000021204601F040F921680A691043086172
:1035F0002068016841F40031016084F880500020A7
:1036000070BD022070BD000037470008FB4600086F
:10361000714600087047704710B5401EB0F1807FBA
:1036200001D3012010BD4FF0E02460610F2160172D
:1036300001F07BFA0020A06107202061002010BD6E
:1036400004480178002903D00021017003F00EBA6C
:10365000704700001D00002008B5084F084C0025E9
:103660004FF4004631463846FEF7DDF900950098E4
:10367000401C0090A042FAD3F4E70000001802407A
:1036800080B14F0170B50C4C0A48A188455CA088F8
:10369000401CA080A0886188884209D302F032FBD8
:1036A00020B1064900200870207001E00120607000
:1036B000284670BD440B00201C0000201A0000208A
:1036C00030B585B00D460446142209A16846FCF7C2
:1036D000BAFD684600EB15110978217005F00F015D
:1036E0001DF8010060700020A07005B030BD000022
:1036F0003031323334353637383941424344454628
:103700000000000001684A69D24352050FD46FF4EB
:1037100080624A61002140F8301F20224273817389
:10372000026942F004020261017301207047002027
:10373000704700002DE9F84F0446006889460B9D4C
:1037400001689846174641F480610160206801686D
:1037500041F48071016000954FF0011B0022594631
:1037600020460A9B00F0DEF84FF4007A40B1206852
:103770000068C00501D5C4F840A00320BDE8F88F5B
:10378000216809F0FE0008612B46284920460A9A64
:1037900000F0FCF8F0BB20684169806900902A467F
:1037A00020460A9900F070F940B1206C04283AD103
:1037B0002068016841F40071016034E0FEB2B8F1A4
:1037C000010F09D02168380A08612A4620460A9963
:1037D00000F05AF90028E8D1206806612A46204600
:1037E0000A9900F051F90028DFD12068016841F4FE
:1037F0008071016000950022594620460A9B00F026
:1038000091F80028B3D1216809F0FF0040F00100D1
:10381000086100E007E02B46044920460A9A00F0C0
:10382000B5F80028AAD00120A8E700000200010096
:103830002DE9F843044600680D46DDE90897016864
:103840009846164641F4807101604B4600224FF0C5
:1038500001112046009700F065F848B12068006823
:10386000C00502D54FF4007020640320BDE8F88342
:10387000216805F0FE0008613B464A46154920468E
:1038800000F084F888B920684169806900903A4660
:103890004946204600F0F8F848B1206C042804D1CD
:1038A0002068016841F4007101600120DEE7F5B293
:1038B000B8F1010F09D02168300A08613A4649463B
:1038C000204600F0E1F80028E7D1206805610020DB
:1038D000CCE700000200010070B516460D46044614
:1038E0000DE02046FFF70EFF08B1012070BD681CF7
:1038F00005D0FEF7A5F8801BA84207D835B120688F
:103900004069C0434007ECD4002070BD002044F85B
:10391000300F20216173A073216941F020012161E2
:103920002073E2E72DE9F0471E4690460D46044617
:10393000C1F30747DDF8209008E0701C06D0FEF7C1
:103940007FF8A0EB0900B0420FD876B12068012FB4
:1039500018D0806925EA00000004000C14D0002172
:103960004145EAD00020BDE8F087002044F8300F40
:1039700020216173A073216941F02001216120732E
:103980000120F0E74069E5E70121E9E72DE9F0478B
:103990009A4691460E46044600254FF02008C1F392
:1039A000074725E020684069C043400514D42068DB
:1039B000016841F40071016021686FF48060486122
:1039C000256384F83D8084F83E50206C40F004006C
:1039D000206484F83C501FE0B9F1FF3F08D0FEF7A7
:1039E0002FF8A0EB0A0149450CD8B9F1000F09D016
:1039F0002068012F13D0806926EA00000004000C23
:103A00000BD0CFE744F8305F84F80D80A5732069B0
:103A100040F02000206125730120BDE8F087406957
:103A2000EAE72DE9F041002590460E46044620279E
:103A300017E04069C043C0060CD454F8301B6FF047
:103A40001000486144F810596777A577206A206212
:103A5000257717E0FDF7F4FFA0EB0800B04208D887
:103A60003EB120684169C9434906E2D40020BDE85F
:103A7000F08144F8305F6773A573206940F020003F
:103A8000206125730120F2E770B516460D46044605
:103A90000DE02046FFF736FE08B1012070BD681C1E
:103AA00005D0FDF7CDFF801BA84207D835B12068AF
:103AB0004069C0430006ECD4002070BD002044F8EB
:103AC000300F20216173A073216941F02001216131
:103AD0002073E2E770B515490268154B4FF040249A
:103AE0008A4201D11A4600E02246D568C26A961C75
:103AF000C6621580428E521E4286428E002A14D122
:103B000002688A4201D1194600E02146496821F045
:103B1000600100D023465960418D002905D14FF046
:103B2000010180F84110FEF739FC70BD00380040FB
:103B30000034004070B5416A144B8A1C426205682B
:103B40000988134A4FF040249D4201D1154600E0F8
:103B50002546E960418D491E4185418D002914D1DA
:103B60000168994201D1114600E02146496821F0DF
:103B7000A00100D022465160418E002905D14FF0AE
:103B8000010180F84110FEF709FC70BD00380040CB
:103B9000003400402DE9F0470546846BC0690028D9
:103BA00056D1E06BDFF8AC802B4E4FF000094FF0A0
:103BB000010A4FF04027A84223D12068C169C1F310
:103BC0000121022907D0C16911F4407F03D0416867
:103BD00021F001010BE0404501D1304600E03846BC
:103BE000406820F0010101D1304600E038464160D4
:103BF000A4F83290608D20B984F841A02046FEF7E9
:103C0000CDFBA06BA84223D12068C169C1F301217B
:103C1000022907D0C16911F4407F03D0404506D185
:103C2000304605E0416821F00201416006E0384677
:103C3000406820F0020000D03E467060A4F82A9050
:103C4000608E002804D184F841A02046FEF7A6FB30
:103C5000BDE8F0870038004000340040806B01214F
:103C600080F84110FEF788BB30B4806B01684A6869
:103C700022F003024A600F4A04680F494FF04023C4
:103C8000944201D10A4600E01A46526822F003022B
:103C900000D019464A604FF00001418541864FF03F
:103CA000010180F84110416C41F00801416430BCD1
:103CB000FEF7C0BB003800400034004010B5806BF8
:103CC000FEF76EFB10BD7CB5016804468868009065
:103CD00094F841000125042834D10098C00718D079
:103CE0004868C043400614D4C9682046E26A11807F
:103CF000E16A891CE162618E491E6186618E41B96B
:103D000001684A6822F060024A6080F84150FEF77C
:103D10000DFD0098400615D520684168C943890605
:103D200010D4416821F0600141602068C16880685A
:103D3000019084F84150606C40F0020060642046BD
:103D4000FEF778FB94F84100032834D100988007EF
:103D500019D521684868C043000614D4626A204619
:103D60001288CA60616A891C6162618D491E618521
:103D7000618D41B901684A6822F0A0024A6080F86A
:103D80004150FEF7D4FC0098000714D52068416824
:103D9000C94389060FD4416821F0A0014160206821
:103DA0008068009084F84150606C40F004006064CA
:103DB0002046FEF73FFB7CBD0188491CC1F3090189
:103DC00001807047044908B50A6802430A6009681F
:103DD0000140009108BD000030380240F0B50A688B
:103DE0000F2692FAA2F2B2FA82F303248AE00127A4
:103DF0009F4015EA07027DD04D68012D01D0022DAC
:103E00001BD18D68876892FAA2FCBCFA8CFC4FEA41
:103E10004C0C04FA0CFC27EA0C0792FAA2FCBCFA40
:103E20008CFC4FEA4C0C05FA0CF52F438760CD68EB
:103E30004768554397432F4347600F69D0F80CC03C
:103E400092FAA2F5B5FA85F54FEA450E04FA0EF599
:103E50002CEA050C92FAA2F5B5FA85F56D00AF4093
:103E60004CEA070CC0F80CC04D68022D33D192FA11
:103E7000A2F5B5FA85F5082D15D2D1F814C0056A5A
:103E800092FAA2F7B7FA87F7BF0006FA07F7BD4321
:103E900092FAA2F7B7FA87F7BF000CFA07FC45EAD7
:103EA0000C05056217E0D1F814E0476A150A95FA87
:103EB000A5FCBCFA8CFC4FEA8C0C06FA0CFC95FABB
:103EC000A5F5B5FA85F5AD0027EA0C070EFA05FE53
:103ED00047EA0E0747624D68076892FAA2FCBCFAEF
:103EE0008CFC4FEA4C0C04FA0CFE27EA0E0792FAFF
:103EF000A2F200E005E0B2FA82F2520095402F43B0
:103F000007605B1C0A681546DA407FF470AF00203A
:103F1000F0BD10B5044600F05FFB206000F032FBFE
:103F2000606000F03DFBA060606800F047FBE0606F
:103F300010BD00000248006800F4800070470000D7
:103F4000043802407FB50446C0680D460126C0F320
:103F50004030E8BBE9686868AA69084329691143E9
:103F60000843E16849F20C6291430843E060A868A5
:103F7000216921F44051014321616869616921F49B
:103F80004071014361616846FFF7C3FF13488442F3
:103F900008D01348844213D01248844210D01248EB
:103FA000844201D103990CE01048844208D01048A3
:103FB000844205D00F48844202D00F4884420AD17F
:103FC000029929B12B681BB100262046AA6900E09E
:103FD00001E000F013F804B0304670BD001001405D
:103FE000004400400048004000140140004C0040E4
:103FF0000050004000780040007C00402DE9F04176
:1040000006461920A1FB00011F4600236424322527
:10401000B2F5004F27D0BB0FBA00FCF7E3F801461A
:10402000B0FBF4F06FF01802504301EB800005EB99
:104030000010B0FBF4F000F0F002B1FBF4F002EB82
:104040000012B1FBF4F06FF01803584301EB80004D
:1040500005EB0010B0FBF4F000F00F00104480B24C
:10406000B060BDE8F081FA195B41FCF7BBF801468E
:10407000B0FBF4F00201B1FBF4F06FF01803584309
:1040800001EB800005EBC000B0FBF4F000F0F8009D
:1040900002EB4002B1FBF4F0584301EB800005EB6A
:1040A000C000B0FBF4F000F00700D7E77FB50024B4
:1040B0001E480094019402941B4903940160012559
:1040C0004FF440310561C0E90114057680F82040C5
:1040D0001749C0E90A140426C661C46080F830504C
:1040E0004561FDF71EF90A20CDE9000569460294F5
:1040F0000E48FCF7F9FF0B20009002200190694662
:104100000A48FCF7F1FF0C2000900320019069465B
:104110000648FCF7E9FF0D20CDE900066946034893
:10412000FCF7E2FF7FBD000000200140FC280020DA
:104130000100000F154808B5016841F480010160D5
:10414000016801F480010091016841F400110160EF
:104150000068002200F40010009001211020FEF7FA
:104160005FFB1020FEF74FFB002201213820FEF7F5
:1041700057FB3820FEF747FB002201213C20FEF7C9
:104180004FFBBDE808403C20FEF73DBB3038024005
:104190002DE9F04786B014216846FCF77BF85948B2
:1041A0000024016841F010010160016801F0100174
:1041B0000591016841F020010160016801F02001D2
:1041C0000591016841F080010160016801F0800102
:1041D0000591016841F004010160016801F00401EA
:1041E0000591016841F001010160016801F00101E0
:1041F0000591016841F002010160016801F00201CE
:104200000591016841F008010160016801F00801B1
:104210000591016841F04001016000683A4E00F0EC
:1042200040004FF480450590002229463046FDF7B6
:1042300001FCDFF8D8A0002281215046FDF7FAFBEF
:10424000DFF8CC8000224FF4E0414046FDF7F2FB5E
:104250000122D1034046FDF7EDFBDFF8B8904FF4A3
:104260004077012239464846FDF7E4FB7C20CDE942
:104270000004694630460294FDF7E6FA00950125F0
:10428000CDE90154694630460394FDF7DDFA8020FC
:104290000226CDE90005CDE9024669465046FDF704
:1042A000D3FA68020090CDE901640520CDE903400E
:1042B00069461948FDF7C8FA28030090CDE9015472
:1042C000694640460394FDF7BFFA4FF46040CDE9DC
:1042D000000569464046CDE90245FDF7B5FA00976D
:1042E000CDE90154694648460395FDF7ADFA0095BE
:1042F000CDE90154694650460394FDF7A5FA06B08E
:10430000BDE8F0873038024000140240001002403F
:104310000018024000040240000802400E4810B598
:104320000C4901600D49416000214FF480428160D9
:10433000C0E9031241618161C1610162FDF7C6FB01
:1043400000210548FDF782FBBDE81040002102482E
:10435000FDF79DBB0054004044290020801A060050
:104360002DE9F0471E481D49002401608027C0E95F
:104370000D4701250221C0E90F45C0E90114046180
:104380004FF48078C0F844808461C0E91254046519
:104390004465032646664FF010098465C0E9174955
:1043A000FEF7A6FE0D490E48203188300160C0E9B5
:1043B0000D47C46304640461C0F844808461C0E9AB
:1043C0000165C0E912540465446546668465C0E928
:1043D0001749BDE8F047FEF78BBE000004580140C6
:1043E000E029002010B58EB01C216846FBF752FF73
:1043F000182107A8FBF74EFF2348016841F0100180
:104400000160006800F010000D900120FFF7DAFC59
:104410004FF4C06007900220089003200024CDE9EB
:1044200009040720CDE90B4007A91848FFF7D6FC7F
:10443000174800680022C0F30220052100F088F828
:104440000146252000F061FB252000F051FB4FF4D0
:10445000E130CDE900040C200294CDE9034005943D
:1044600006940C4C69462046FFF76CFD206920F449
:1044700090402061606920F02A006061E06840F4AB
:104480000050E0600EB010BD443802400000024011
:104490000CED00E00010014010B58EB01C21684604
:1044A000FBF7F8FE182107A8FBF7F4FE2348016884
:1044B00041F480210160006800F480200D9002200A
:1044C000FFF780FC4FF44060079002200890032023
:1044D0000024CDE909040720CDE90B4007A91848BD
:1044E000FFF77CFC174800680022C0F30220062179
:1044F00000F02EF80146272000F007FB272000F0EF
:10450000F7FA4FF41660CDE900040C200294CDE9CF
:104510000340059406940C4C69462046FFF712FDB3
:10452000206920F490402061606920F02A006061D9
:10453000E06840F40050E0600EB010BD403802402A
:10454000000402400CED00E000480040FEE7704728
:1045500030B500F00703C3F10704042C00D904248C
:10456000181D072801D2002300E0DB1E012505FAF3
:1045700004F0401E084098409D406D1E15402843A1
:1045800030BD704704490968044A01F0F001090987
:10459000515CC8407047000008380240947700081A
:1045A00004490968044A01F4E05102EB91210978B9
:1045B000C840704708380240A477000804490968D9
:1045C000044A01F4604102EB51310978C840704758
:1045D00008380240A47700080748006810F00C0172
:1045E000064807D0042904D0082903D1082000F088
:1045F00009B8034870470000083802400024F4005E
:1046000000127A0070B505460024FFF793FC0E49AE
:1046100018B1B0F5800F00D14910082D12D10B4808
:10462000026802F03F02B1FBF2F102680068C2F3D7
:104630008812514300F44030012202EB1040400048
:10464000B1FBF0F4204670BD0024F40004380240B1
:10465000C06820B1012805D0022805D000200349F8
:10466000086070471020FAE72020F8E70058014062
:1046700010B5846BD4F8840040F08000C4F8840046
:10468000206F406D012803D0606F406D01280DD16F
:104690002068016821F400310160204600F06EF8C6
:1046A000012084F881000020A4F86E002046FEF767
:1046B00001FD10BD10B5846BC069B0F5807F13D0CB
:1046C0002068016821F4003101600020A4F86E0028
:1046D0000146204600F0C8F80146206802698A4376
:1046E0000261012084F881002046FEF799FE10BD8A
:1046F00010B5806BFEF736FF10BD10B5846BC06936
:10470000B0F5807F13D00020A4F86E002068016807
:1047100021F4003101600021204600F0A5F8014697
:10472000206802698A430261012084F881002046E2
:10473000FEF770FF10BD10B5806BFEF76CFF10BD6B
:1047400010B5022207490848FEF714FE0549022267
:1047500020310648FEF708FFBDE8104004A001F034
:1047600077BF0000C0010020682A0020E029002057
:1047700053414920696E69740D00000010B50E495F
:1047800041F6583203680968B1FBF2F18A001C68EF
:10479000002124F480341C60521E06D250F8841F7D
:1047A00041F040010160032103E003681B68DB0363
:1047B000F2D4084610BD0000B801002010B5254C09
:1047C00025490368C269A3420B6804D123F440134E
:1047D00013430B6004E023F4400343EA82020A60BF
:1047E0001D4A883A136812685B0202F03F0201D446
:1047F0001A4B00E01A4BC069B3FBF2F248B1B0F5B6
:10480000801F15D017490120C1F85C014FF4FA1040
:1048100010BD114B1B1F18681B68C0F30360C3F366
:1048200088135343B3FBF0F20868C0F304200DE093
:104830000948083803680068C3F30363C0F38810AD
:104840005043B0FBF3F2086800F01F00401CB2FBBD
:10485000F0F010BD045801408C3802400024F400F0
:1048600000127A00000047420122012900D10922EA
:10487000416B4068082905D1032801D0012803D1E4
:1048800042F01002032804D0022802D042F00400B3
:10489000704742F060007047704710B5FDF748FF61
:1048A000FEF7CEFEBDE8104001F066B9F0B59FB04E
:1048B00030216846FBF7EEFC142118A8FBF7EAFC50
:1048C00030210CA8FBF7E6FC2448016821F44001E4
:1048D0000160016821F440110160204800264C3835
:1048E000016841F080510160006800F080501D9027
:1048F0001B48016841F4404101600068012700F451
:1049000040401D903804CDE9007002248001CDE9BB
:1049100006400425B420CDE908506846CDE90A4593
:10492000FEF71AFAFDF7AEFF18A90F2081E8510033
:104930004FF4A0501B901C90052118A8FEF732F9E7
:1049400005200C90C020CDE90D05D820CDE910043C
:1049500014970CA8FDF7FCFF1FB0F0BD8C38024087
:10496000007000400548016841F47001016003498E
:104970004FF00060803908607047000088ED00E06B
:10498000164808B50168C1F3C011A9B1C168C1F3E7
:10499000C01189B112494B880A889B1A1B0507D0A0
:1049A000C2F30B030B44521C1B790A80436003E0E3
:1049B000C16821F08001C1600168009141680091E7
:1049C000016800914168009101680091416800917F
:1049D000016800914068009008BD0000001001408F
:1049E000440D002038B52B4C2068C0F34010A0B116
:1049F000E068C0F3401080B12068C0F3400060B9A7
:104A0000606825498A7802F03F020A44107148889C
:104A1000401C48802149642008802068C0F3C010F1
:104A2000B0B1E068C0F3C01090B11B4944398A7836
:104A30000888121A920607D000F03F020A44401C70
:104A400012790880626003E0E06820F08000E06096
:104A50002068C0F3801058B1E068C0F3801038B10E
:104A6000002280210E48FCF7E5FF6FF04000206037
:104A70002068009060680090206800906068009056
:104A80002068009060680090206800906068009046
:104A900038BD0000004800409C1D00205E00002042
:104AA00000100240FEE700000FB4054B10B503A94B
:104AB000044A029800F058F810BC5DF814FB00009E
:104AC0005D5B0008BC0100200FB4084B10B504A9C1
:104AD00002AA039800F048F8044602A9002000F05A
:104AE00074FA204610BC5DF814FB0000CB4F0008A0
:104AF000002809DB00F01F020121914040098000DD
:104B000000F1E020C0F8001170470907090E0028E5
:104B100004DB00F1E02080F80014704700F00F0083
:104B200000F1E02080F8141D70470907090E0028E5
:104B300004DB00F1E02080F80014704700F00F0063
:104B400000F1E02080F8141D704702E008C8121F31
:104B500008C1002AFAD170477047002001E001C166
:104B6000121F002AFBD170472DE9FF4F8DB00F4671
:104B70000546002606E025280BD0DDE90F129047F8
:104B80006D1C761C28780028F5D111B03046BDE8A0
:104B9000F08F0024A246A1460122EC4900E0044324
:104BA00015F8013F203B02FA03F00842F7D12878BC
:104BB0002A2810D06FF02F022878A0F1300109299F
:104BC00014D80AEB8A0102EB410144F0020400EB25
:104BD000010A6D1CF0E701CF5FEA000A03D544F437
:104BE0000054CAF1000A44F002046D1C28782E28F3
:104BF00017D115F8010F44F004042A280ED06FF0E5
:104C00002F022878A0F1300109290AD809EB89017F
:104C100002EB410100EB01096D1CF2E757F8049B20
:104C20006D1C28786C280FD006DC4C2817D068281B
:104C30000DD06A2814D104E0742810D07A280FD13E
:104C40000DE044F400140AE044F4801401E044F45C
:104C500040146978814202D104F580146D1C6D1CEA
:104C60002A786E2A1FD00CDC632A31D004DC002A9B
:104C70008BD0582A11D1A3E0642A68D0692A0CD1BC
:104C800065E0732A2ED004DC6F2A73D0702A04D119
:104C90009BE0752A6FD0782A6ED01046DDE90F129E
:104CA0009047761C50E1C4F30250022806D0032836
:104CB00009D0042801CF09D0066045E101CFF117E2
:104CC000C0E9006140E101CF06803DE106703BE1B3
:104CD00017F8040B8DF8000000208DF80100EB465A
:104CE000012003E057F804BB4FF0FF3061074FF09D
:104CF000000102D40DE008F10101884649450FDAB0
:104D00008045F8DB1BF808100029F4D108E008F111
:104D1000010188468142FADB1BF808100029F6D110
:104D2000DDE90F23AAEB08008146214600F036F9A1
:104D3000304400EB080604E0DDE90F121BF8010B1C
:104D40009047B8F10108F7D221464846F7E00A211A
:104D5000C4F302534FF0000B0891022B04D001CF93
:104D6000C117032B09D00AE0FF1D27F00707F7E85A
:104D7000020108E032E01FE020E000B2C117042B7E
:104D800001D140B2C117031E71F1000307DA4FF0E1
:104D9000000CD0EB0C006CEB01012D2302E023058D
:104DA00004D52B238DF82430012303E0E30701D041
:104DB0002023F7E7984658E00A2110E010210EE082
:104DC00010204FF0000B08900CE010214FF0000B6A
:104DD00044F004044FF00809089103E008214FF063
:104DE000000B0891C4F30253022B04D001CF002121
:104DF000032B06D006E0FF1D27F00707F7E80201A6
:104E000003E080B2042B00D1C0B24FF000082307AA
:104E10002BD5702A07D0DDF820C08CF0100C5CEA8E
:104E20000B0C05D00EE040238DF82430012308E060
:104E300050EA010306D030238DF824308DF8252068
:104E400002239846DDF820C08CF0080C5CEA0B0CBD
:104E50000BD150EA010301D1630706D530238DF849
:104E600024304FF00108A9F10109582A04D038A2D2
:104E70000B9208AA0A920BE03AA2F9E75B46089A5D
:104E8000FBF7B0F90B9B9B5C0A9A521E0A921370B7
:104E900050EA0102F2D10A98ADEB000000F1200BBC
:104EA000600702D524F4803401E04FF00109D945B0
:104EB00002DDA9EB0B0000E0002000EB0B014144F8
:104EC0000890AAEB010AE00306D4DDE90F2321468E
:104ED000504600F063F806444FF0000908E009A9C5
:104EE00011F80900DDE90F12904709F10109761C5C
:104EF000C145F4DBE0030CD5DDE90F232146504624
:104F000000F04CF8064404E0DDE90F123020904731
:104F1000761C0899481E08900029F5DC08E00A98DC
:104F20000A990078491C0A91DDE90F129047761C16
:104F3000BBF10001ABF1010BF1DC21465046DDE98C
:104F40000F2300F019F806446D1C1BE60928010028
:104F500030313233343536373839616263646566EF
:104F600000000000303132333435363738394142B1
:104F700043444546000000002DE9F0410446002569
:104F80001E461746880404D405E039462020B04761
:104F90006D1C641EF9D52846BDE8F0812DE9F0416D
:104FA000044600251E469046C80301D5302700E080
:104FB0002027880404D505E041463846B0476D1CDB
:104FC000641EF9D52846BDE8F0810A68531C0B60C1
:104FD0001070704770B50022114B1249144600BF83
:104FE0004E8800F001059D554D885D5D012D07D06F
:104FF000CC804D886D1C4D80CD88052D04D009E0F6
:10500000CD886D1CCD80F4E7CC804D885C554D88F3
:105010006D1C4D80521C4008D2B2082AE0D370BDEE
:10502000440B00201C00002030B57E21084C094AAA
:10503000002000BF558801F00103635553885B1CB5
:105040005380401C4908C0B20828F3D330BD00008B
:10505000440B00201C00002080F055010807000EC2
:10506000C1F302124AB1012A00F5847001D0521E28
:105070009040090600D4404270470830F9E700002C
:1050800010B5FCF7DDFC0449096B884202D309B175
:10509000012010BD002010BD2800002010B5FCF735
:1050A000CFFC0449C96A884202D309B1012010BD6E
:1050B000002010BD2800002070B5874C0020207013
:1050C00086A0FFF7F1FC894D002201212846FCF75C
:1050D000B1FC3220FCF7A6FB012211462846FCF762
:1050E000A9FC0521002001F08FFE002001F0DCFA70
:1050F000052802D001202070DEE00021084601F0E2
:1051000083FE82210B2001F07FFE81210C2001F023
:105110007BFE01210D2001F077FE00210E2001F021
:1051200073FE8221122001F06FFE8221132001F014
:105130006BFE8021142001F067FE84211E2001F007
:1051400063FE01213C2001F05FFE04213D2001F0BF
:105150005BFED4213F2001F057FED321432001F014
:1051600053FE0021562001F04FFEFE21572001F092
:105170004BFE4221582001F047FE2021592001F02A
:1051800043FE38215A2001F03FFE00215B2001F050
:105190003BFE00215C2001F037FE80215D2001F004
:1051A00033FE8221512001F02FFE0121002001F069
:1051B0002BFEC4211F2001F027FE8621202001F0B4
:1051C00023FE1821212001F01FFE4421232001F09D
:1051D0001BFE8021242001F017FE8021252001F0F4
:1051E00013FE4221282001F00FFE4221292001F068
:1051F0000BFE10212A2001F007FE0A212E2001F0CB
:1052000003FE42212F2001F0FFFD8021312001F01B
:10521000FBFD0021084601F0F7FD0021402001F0D0
:10522000F3FD0021412001F0EFFD0021422001F0BB
:10523000EBFD0121002001F0E7FD8021252001F098
:10524000E3FD8021262001F0DFFD4721292001F028
:10525000DBFD04212A2001F0D7FD0021084601F0E2
:10526000D3FD0021522001F0CFFD0021532001F099
:10527000CBFD0121002001F0C7FD8021302001F08D
:10528000C3FD8021312001F0BFFD0021322001F05B
:10529000BBFD0021084601F0B7FD8021562001F03A
:1052A000B3FD01F05DFA00F0DBFD00F0BDFD2078FC
:1052B00038B14FF0FF30E0600DA001F0C9F90120D6
:1052C00070BDFCF7BDFB41F288310844E0600FA0DF
:1052D00001F0BEF9002070BD74000020436F6465CA
:1052E0006320696E69742E2E2E00000000100240AB
:1052F0004552524F523A20636F646563496E697438
:10530000206661696C656421000000004F4B00005D
:105310002DE9F041154D074600200E466880E880D3
:10532000A880FFF781FE002404E0385DFFF752FEFD
:10533000641CE4B2B442F8D331463846FBF777FC3C
:105340000446000A082101F0DDF9C0B2FFF742FE71
:10535000E0B2082101F0D6F9C0B2FFF73BFEFFF73B
:1053600063FE01202870BDE8F08100001C000020D1
:1053700009494A88C2F30B020A4410714888401C4C
:10538000488006480078002804D00548C16841F0EC
:105390008001C16070470000440D002024000020FF
:1053A0000010014010B50C46034603E01878FFF7E3
:1053B000DFFF5B1C641EA4B2F8D210BD10B500F074
:1053C000ADFE00F00BF800F05FFA00F037FE01F0E0
:1053D0000DFBBDE8104000F093BB00002DE9F04745
:1053E000C14CDFF808830025616A98F8000081420B
:1053F00009D06062002837D0BDA001F029F94FF430
:10540000FA7001F011FCFFF749FE41F2883940B112
:10541000484601F0E1FAB8A001F01AF9257065706C
:105420006561216A606981420AD02062B5A001F0FD
:105430000FF9BDA06169FFF737FBBFA001F008F9C4
:1054400062690127C54EC6480C2A79D01CDCA649E2
:105450000C2A01F10E0163D2DFE802F039456473D2
:10546000818C6262626262D625706570BDA001F0B7
:10547000EFF80020656101F0D7FBBDA001F09AFBB9
:10548000BDA001F097FBBEE740F6B838102A6ED0F9
:105490000DDC0D2A6CD00E2A6BD00F2A40D101787A
:1054A00000293DD00570307851287CD037E0112A92
:1054B00036D1FFF7E5FD002832D0607900B1A77141
:1054C00001F0AEF94046BDE8F04701F0BDB998F8EB
:1054D0000000002824D03F200870487000231A469E
:1054E000A7A15920DBE00278002A19D00570307896
:1054F000492802D0512803D011E070793038A070CB
:10550000F2780A703079487077487178113000234A
:105510000170B178417001461A465220BFE06561C2
:10552000BDE8F08701780029FAD00570307842286C
:10553000F5D1484601F050FA6069401C6061EFE720
:105540007FE001780029EBD005704FF47A7001F00C
:105550006BFB30785128E2D109238AA29DE00178C3
:105560000029DDD0057030785128E2D0D7E799E0E6
:1055700075E086E001780029D2D005703078502897
:10558000CDD100231A467EA1512001F0F9F84846FA
:1055900001F022FA70790B21712805D0452805D039
:1055A0004B2805D02BE076E004206070616129E093
:1055B000B079582823D176A001F04AF8674867717E
:1055C000062278A10930FAF792FEC0B94648F1796F
:1055D0000B300170317A4170014674A0FFF764FA14
:1055E000F07B4E2802D0492805D008E075A001F0D4
:1055F0002FF8E57103E077A001F02AF8E771606900
:105600000A288DD964205EE7FFF73AFD002887D08D
:10561000607804280DD00B2372A259A1562001F006
:10562000AFF86069401C60614846BDE8F04701F092
:10563000D3B908236EA252A1562001F0A1F8102080
:10564000F1E7017800298CD005703078512803D01B
:105650006AA000F0FDFF62E7082365A20EE0017872
:10566000002989D00570002001F0DEFA67A001F062
:10567000A1FA30785128EED1022366A240A156202B
:105680000DE001780029C2D0057030785128E2D1B0
:105690000E2361A2F2E7012363A239A1502001F099
:1056A0006FF846E701780029B1D0057030785128AD
:1056B000D1D101F0B5F86069401C6061404601F04D
:1056C000C3F8E562277001F071FB6078042804D00C
:1056D00056A0BDE8F04700F0BBBF40F2E93001F052
:1056E000A3FA5BA0F5E700002800002001000020DD
:1056F00053796E632100000054696D656F757421E4
:10570000000000000D3D3D3D3D3D3D3D3D3D3D3DED
:105710003D3D3D3D3D3D3D3D3D3D3D3D3D3D3D3DB9
:105720003D3D3D3D000000007265675F737465702C
:10573000203D2025750D00003D3D3D3D3D3D3D3D5D
:105740003D3D3D3D3D3D3D3D3D3D3D3D3D3D3D3D89
:105750003D3D3D3D3D3D3D0D00000000C00A0020A7
:10576000090000204E6F2073796E63210000000055
:105770004C313031350000004C3130323500000002
:10578000232300005273496E6475442B2B000000E4
:10579000486F6F6B2070726F6772616D6D696E67B5
:1057A000000000004830303030300000686F6F6B10
:1057B000206B6579206E756D626572203D20253005
:1057C00032730D004E6F726D616C206D6F64650DEC
:1057D00000000000496E7665727365206D6F646528
:1057E0000D0000004B3030313030303A3030310075
:1057F00054735332364830330000000057726F6ED6
:105800006720416E73776572210000004C3F303095
:105810003000000048310000684530303030303012
:1058200030303030303000005100000041626F6E87
:10583000656E74207375636365737366756C6C79DC
:1058400020726567697374657265642100000000E9
:1058500041626F6E656E7420737563636573736602
:10586000756C6C7920726567697374657265642004
:1058700062757420706F727420756E70726F6772CB
:10588000616D6D65642100002DE9F0417A4C7B4F1C
:1058900000262089A7F18405A0F54071E9397DD063
:1058A000BA7839883846521A754F920624D001F0DA
:1058B0003F020244491C15790180387800281AD02B
:1058C0006E4E2806A6F1AE0603D54B2030706DA0B3
:1058D00002E06B20307071A000F0BAFE44217170BC
:1058E00005F07F0274A1B01CFFF7EEF86348AE38F4
:1058F00000F0AEFE012682E0FCF7A2F8E1688842E3
:1059000013D3A8782978401A400623D0288800F0BD
:105910007F012944401C09792880084601F0DCF900
:10592000A8782978401A4006F0D101F0ABF9002898
:1059300065D001F0B1F90146504DE0789E3D002759
:1059400029540D2914D0401CE070E0780F2856D35C
:10595000E77054E001F0E8F90028E6D13878002833
:10596000E3D0FCF76DF83230E06001F03DF9DCE7A0
:105970002F54E77028784B280DD151A000F068FE15
:105980003E489E3800F064FE3C499E39A1F110006B
:10599000FAF7A4FC012628786B2800E012E00DD16C
:1059A0004BA000F055FE35489E3800F051FE3349BB
:1059B0009E39A1F11000FAF791FC0126FCF740F89E
:1059C000E060C2E7A8782978401A40060AD0288803
:1059D00000F07F012944401C09792880084601F025
:1059E0007BF9EFE701F04EF908B101F055F9B8780D
:1059F0003978401A800602D02888401C28802089E7
:105A0000F8B1B0F5FA7F07D0B0F57A7F04D0A0F5F1
:105A10004070E9382CD115E0FCF712F82169884272
:105A200026D3FCF70DF8218908442061207808B1BD
:105A30002BA000E02CA001F0BDF8207880F0010040
:105A4000207015E0FBF7FCFF2169884210D3FBF7BB
:105A5000F7FF00F5FA7020612078002820A003D01D
:105A600001F0A8F822A0E6E701F0A4F822A0E2E7FE
:105A70003046BDE8F0810000600000208E1E00204E
:105A80002800002048616E64736574206275747428
:105A90006F6E20707265737365643A0048616E645E
:105AA00073657420627574746F6E20756E707265A4
:105AB000737365643A000000253032750000000001
:105AC0004B657920707265737365643A000000005D
:105AD0004B657920756E707265737365643A00006A
