:020000040800F2
:10000000B03F0220810200083F390008C92F0008D4
:100010003D39000891110008C140000800000000AF
:10002000000000000000000000000000C101000806
:1000300093110008000000001D020008A939000803
:100040009B0200089B0200089B0200089B0200081C
:100050009B0200089B0200089B0200089B0200080C
:100060009B0200089B0200089B0200089B020008FC
:100070009B0200089B0200089B0200089B020008EC
:100080009B0200089B0200089B0200089B020008DC
:100090009B0200089B0200089B0200089B020008CC
:1000A0009B0200087D3A00089B0200089B020008A2
:1000B0009B0200089B0200089B0200089B020008AC
:1000C0009B0200089B0200089B0200089B0200089C
:1000D0009B020008493F00089B020008FD3F000802
:1000E0009B0200089B0200089B0200089B0200087C
:1000F0009B0200089B0200089B0200089B0200086C
:100100009B0200089B0200089B0200089B0200085B
:100110009B0200089B0200089B0200089B0200084B
:100120009B0200089B0200089B0200089B0200083B
:100130009B020008951100089B0200089B02000822
:100140009B0200089B0200089B0200089B0200081B
:100150009B0200089B0200089B0200089B0200080B
:100160009B0200089B0200089B0200089B020008FB
:100170009B0200089B0200089B0200080000000090
:100180009B0200089B0200089B0200089B020008DB
:100190009B0200089B0200089B0200089B020008CB
:1001A0009B0200089B0200089B020008DFF80CD0AD
:1001B00000F0FCFC0048004775BF0008B03F02207B
:1001C0002C4B19680868B0E8F04F80F30988BFF33A
:1001D0006F8F4FF0000080F311887047000000001F
:1001E00008480068006880F308884FF0000080F33A
:1001F000148862B661B6BFF34F8FBFF36F8F00DF15
:1002000000BF00BF08ED00E0DFF80C00016841F41A
:1002100070010160704700BF88ED00E0EFF30980D6
:10022000BFF36F8F134B1A681EF0100F08BF20ED3D
:10023000108A20E9F04F106009B44FF0500080F3AD
:100240001188BFF34F8FBFF36F8F18F0ABFA4FF0E9
:10025000000080F3118809BC19680868B0E8F04F05
:100260001EF0100F08BFB0EC108A80F30988BFF3AE
:100270006F8F7047E0000020EFF3058070470000AB
:100280000648804706480047FEE7FEE7FEE7FEE730
:10029000FEE7FEE7FEE7FEE7FEE7FEE7613A00085D
:1002A000AD0100082DE9F05F0546002092469B460F
:1002B00088460646814640241BE02846414647467C
:1002C000224600F0E8F953465A46C01A914110D32D
:1002D00011461846224600F0CFF92D1A67EB0108A7
:1002E0004F4622460120002100F0C6F917EB000915
:1002F0004E41201EA4F10104DFDC484631462A4667
:100300004346BDE8F09F000000487047648C020837
:1003100010B50446FFF7F8FF0068005D00F001002B
:1003200010BD00000649074A0868504343F23902ED
:100330001044086040087047014908607047000099
:10034000380200206D4EC64110B5431A934209D2BF
:100350008318881803E010F8011D03F8011D521ED0
:10036000F9D210BD40EA01039B0703D009E008C998
:10037000121F08C0042AFAD203E011F8013B00F86A
:10038000013B521EF9D210BDD2B201E000F8012BA0
:10039000491EFBD270470022F6E710B513460A4605
:1003A00004461946FFF7F0FF204610BD421E12F822
:1003B000013F002BFBD111F8013B02F8013B002B60
:1003C000F9D1704730B505462A460B4612F8010BA5
:1003D00013F8014B08B1A042F8D01CB1002802D09C
:1003E0006D1CF1E7284630BD421C10F8011B0029A6
:1003F000FBD1801A704710B5002200E0521C835CCC
:100400008C5CA34201D1002BF8D1D8B2E1B2401AE2
:1004100010BD30B504460020034600E05B1C93424B
:1004200003D2E05CCD5C401BF8D030BD10B5044673
:1004300000E0401C0378002BFBD100E0401C521E62
:1004400004D311F8013B0370002BF7D10021017098
:10045000204610BD034611F8012B00F8012B002A9D
:10046000F9D11846704730B505460020034600E034
:100470005B1C934205D2EC5CC85C201A01D1002CB5
:10048000F6D130BD0FB400B58DB010A909900B9016
:1004900000914FF0FF300A9000200C900548069024
:1004A000054807906A4609A80F9900F019F90DB0A0
:1004B0005DF814FBFD0600081B0700082DE9FF5F2F
:1004C0001D464FF0FF3BD5E9014691465F464FF090
:1004D0000008A9697F1C01988847296A82468847D5
:1004E0000028F6D1BAF1FF3F0CD024F4C064002EEE
:1004F00019DD600614D5BAF12B0F09D0BAF12D0F12
:100500000ED103E0584604B0BDE8F09F44F4806487
:10051000A9697F1C01988847761E8246002E02DD5D
:10052000BAF1300F03D0B9F1000F26D032E0A9693B
:10053000761E44F400747F1C019888478246002E82
:1005400005DDBAF1780F06D0BAF1580F03D0B9F132
:10055000000F10D01EE0B9F1000F02D0B9F1100F5A
:1005600018D1A969761E24F400747F1C019888476D
:100570008246102002E0082000E00A20814609E0BF
:1005800008FB0908A969761E44F400747F1C0198D1
:1005900088478246002E05DD4946504600F08BF81C
:1005A0000028EDDAE96901988847A00502D46FF0C8
:1005B0000100A8E7E00725D1600613D5600502D544
:1005C000C8F1000000E0404629680A1D2A60096859
:1005D000220501D5087015E0220701D5088011E039
:1005E00008600FE02868011D29600068210502D518
:1005F00080F8008006E0210702D5A0F8008001E025
:10060000C0F8008038467EE700F0D0B870B50646E6
:1006100003F0BCFD046805460A220021304600F0C4
:100620008DF82C6070BD00F0004230F000400AD020
:10063000C10D01F56071C0F3160042EA0151C20814
:1006400040071143704700200146704730B50B4604
:10065000014600202022012409E021FA02F59D42F2
:1006600005D303FA02F5491B04FA02F52844151EC6
:10067000A2F10102F1DC30BD202A04DB203A00FAAD
:1006800002F1002070479140C2F1200320FA03F3E9
:10069000194390407047202A04DB203A21FA02F0E7
:1006A0000021704721FA02F3D040C2F120029140AC
:1006B0000843194670473A2800D2303820F020020B
:1006C000412A01D3A2F13700884201D34FF0FF3015
:1006D00070470000026811441378016018467047A3
:1006E000D160044951610449116200211161114630
:1006F00000F080BAD506000811030008426842B134
:10070000016811F8013B23B1521EC0E900121846DE
:1007100070470121C160881E704742685AB1C368A2
:10072000016843B983688B4205D0491E521CC0E959
:100730000012002070474FF0FF3070472DE9F0475E
:1007400091460F4680460446002614F8015B2DB101
:10075000FFF7DAFD0068405DC007F6D12B2D02D00F
:100760002D2D18D0641E4A463946204600F0D8FB8D
:1007700027B13968A14201D1C7F8008071054FF057
:1007800002040BD54042002803DD03F0FFFC0460A7
:10079000A007BDE8F08746F48066E4E70028F8DAB1
:1007A00003F0F4FC04606FF00040F2E72DE9F0473D
:1007B00091460E4680460446002514F8017B2FB171
:1007C000FFF7A2FD0068C05DC007F6D12B2F02D055
:1007D0002D2F1ED0641E4A463146204600F0EFFB06
:1007E00026B13268A24201D1C6F800806A054FF0F6
:1007F000020418D50023D0EB030563EB01025D1B57
:10080000934109DB0023D0EB030063EB0101BDE85A
:10081000F08745F48065DEE703F0B8FC0460002053
:100820004FF00041F3E7021E71F10002EFDA03F02E
:10083000ADFC04604FF0FF304108E8E72DE9FE4FC2
:10084000804681EA0300C00F0C46009021F0004171
:1008500023F00045B8EB0200A94105D240462146ED
:1008600090461C460B46024623F00040104347D0FA
:10087000270DC7F30A00C3F30A510290401A0190F2
:1008800040286BDAC3F3130040F4801B00989246B3
:1008900020B10023D2EB030A63EB0B0B01985946FE
:1008A000C0F140025046FFF7E7FE06460D465046AF
:1008B0005946019A00F08CF910EB080061410024C0
:1008C00087EA115284EAE7731A4340D0009A62B370
:1008D000019A012A4FEA075215DC001B61EB020165
:1008E0004FF0004202EA0752CDE90042001C41F5F8
:1008F000801132462B4600F0D2FB03B0BDE8F08FEA
:1009000040462146F9E7001B61EB0201001C41F55E
:10091000801300185B412018A2F5001747EB030174
:1009200040EAD570B6196D4111E06D084FEA360600
:1009300045EAC0754FEA0752001B61EB0201001C3B
:1009400041F5801149084FEA300000195141324603
:100950002B4603B0BDE8F04F00F092BB0098012297
:1009600040000023D0EB020263EBE07300982146C5
:100970004FEAE074B8EB000061EB0401E9E783F0B3
:1009800000435BE781F0004158E72DE9FE4F81EA23
:10099000030404F0004421F0004100944FF0000BE8
:1009A00023F0004350EA01045ED052EA03045BD016
:1009B000C3F30A54C1F30A552C44A4F2F33401944E
:1009C000A0FB0254C1F3130141F48011C3F31303DC
:1009D00043F4801301FB024400FB034E840A970A90
:1009E00044EA815447EA8357A4FB076802958D0ABD
:1009F00005FB07854FEA932C04FB0C542705029D49
:100A00004FEA065847EA1637B5EB08056EEB070CB8
:100A1000870E920E47EA811742EA8312A7FB020172
:100A2000B6EB0B0164EB00042B0D43EA0C335E18AC
:100A300044EB1C50DA465146E7FB0201C5F31304B0
:100A40004FEA0B3343EA14534FEA0432019C43EA62
:100A50000603A4F10C040294009CCDE900B400F05C
:100A60001EFB03B0BDE8F08F00200146F9E72DE939
:100A7000F04D81EA030404F0004B21F000451446D8
:100A80004FF0000A23F0004150EA050220D054EA5A
:100A900001021DD0C5F30A570246C5F31303C1F383
:100AA0001300C1F30A5640F4801543F48013A7EBFA
:100AB0000608101BD64608F2FD3873EB050002D37A
:100AC00008F1010801E092185B41B8F1000F03DA68
:100AD00000200146BDE8F08D00204FF4801106464D
:100AE00084460EE0171B73EB050705D3121B63EB5F
:100AF000050306434CEA010C49084FEA30009218FE
:100B00005B4150EA0107EDD152EA030012D082EABC
:100B1000040083EA0501084305D0101BAB4106D24F
:100B20000122002306E000224FF0004302E06FF0B4
:100B3000010253101AEB06004CEB085110EB0A00AF
:100B400041EB0B01BDE8F04D00F09ABAC1F30A5237
:100B5000C1F3130140F2FF3341F480119A4202DAEB
:100B600000200146704740F233439A42A2F23342DA
:100B700002DC5242FFF78FBDFFF77EBD30B5041E89
:100B800071F1000404DB4FF00044404264EB0101CA
:100B9000141E73F1000405DB1C464FF00043524263
:100BA00063EB0403994208BF904230BD064C074DE9
:100BB00006E0E06840F0010394E80700984710342D
:100BC000AC42F6D3FFF7F6FA6C8E02088C8E020860
:100BD000202A06DBCB17203A41FA02F043EAE07301
:100BE00006E041FA02F3D040C2F1200291400843EE
:100BF000194670472DE9F34F8BB04FF0000801F113
:100C00000C000C464FF0010B46460DF1080A01900E
:100C10006269012101989047051E2DD0252D2CD009
:100C2000216A8847C0B16269012101989047216A11
:100C300088470028F7D1411E62690198904700E07B
:100C4000761CA1690B988847216A88470028F7D14C
:100C5000E1690B988847DBE7A1690B98884707464D
:100C6000A84201D1761CD3E7E1690B9888477F1C25
:100C700002D1B8F1000F6FD046E1002762693D460E
:100C80003946019890472A2804D1626901210198C8
:100C900090470125DFF8849262690121019890470D
:100CA000A0F130010A290AD24F45E5DC07EB8701A4
:100CB00000EB4107303FDFD445F01005ECE7E906D3
:100CC00001D46FF000476C280AD04C2814D0682853
:100CD00015D06A280DD074281CD07A281AD01DE0AF
:100CE00062690121019890476C2802D045F0040503
:100CF00014E045F002050DE045F020050AE06269C8
:100D0000012101989047682802D045F0080505E0C8
:100D100045F400656269012101989047C4E90157D3
:100D200065283DD019DC58287AD00CDC452837D00E
:100D300004DC252826D0412831D131E046282FD0A7
:100D400047282CD12CE05B2877D0612828D0632855
:100D50007CD0642823D15AE0D0E06F2848D008DC4A
:100D600066281DD067281BD0692821D06E2816D18F
:100D700027E0702845D0732868D0752847D0782898
:100D80000DD14DE0A1690B988847054625283FF411
:100D900069AFE1690B9888476D1C3FF46AAFB3E017
:100DA00023466A466FF001000B99AFF300809EE086
:100DB00045F040006060A80723464FF0000236D49B
:100DC0003EE0E8077FF447AF2068011D216000681E
:100DD000290501D506701BE7290701D5068017E70D
:100DE000A90703D5F117C0E9006111E706600FE715
:100DF00045F040006060A80723464FF0080216D473
:100E00001EE040F60E0125EA0100606016E045F0A4
:100E100040006060A80723464FF00A0207D40FE0A5
:100E200045F040006060A80708D5234610226FF007
:100E300001000B99AFF3008059E007E02346102230
:100E40006FF001000B99FFF739FB50E04FF00009FC
:100E50004F464B46632802D05B2806D040E0E806A8
:100E600001D40120A06001273AE0626901210198C4
:100E700090475E2805D14FF0010962694946019803
:100E80009047216939B900210A46534643F8212089
:100E9000491C0829FADBB0B3216969B9C11700EB15
:100EA000D16253110AEB830122F01F02821A012042
:100EB0000B68904003430B606269012101989047E1
:100EC0005D28E8D1B9F1000F09D00020514651F852
:100ED0002020D24341F82020401C0828F7DB02AB39
:100EE000224600976FF001000B99AFF300800028B5
:100EF0000CDA401C08D1BBF1000F05D04FF0FF30D9
:100F00000DB0BDE8F08FFFE74046F9E7E90701D1F2
:100F100008F1010806444FF0000B79E6CCCCCC0C6C
:100F20002DE9F05F82460078002715468B460AF1CE
:100F30000104B946302801D09DB113E014F8010B2B
:100F40000127782803D0582801D045B10AE00DB117
:100F5000102D07D10027102514F8010B02E00825F9
:100F600000E00A250026B0460EE005FB080005FB60
:100F700006F1012701EB10461FFA80F8B6F5803F15
:100F800000D3B94614F8010B2946FFF794FB00285B
:100F9000EBDABBF1000F05D00FB1641E00E0544640
:100FA000CBF80040B9F1000F06D003F0EFF80221B2
:100FB0000160C81EBDE8F09F48EA0640FAE72DE947
:100FC000F74F4FF00009009C1546CA4614F8010B74
:100FD000302801D0ADB115E014F8010B4FF0010934
:100FE000782803D0582801D04DB10BE00DB1102D59
:100FF00008D14FF00009102514F8010B02E0082574
:1010000000E00A2500273E46B8464FEAE57B16E099
:10101000A5FB07230BFB073105FB080005FB0616A4
:10102000030CD71846F100061FFA80F8381E4FF05F
:10103000010976F5803000D3CA4614F8010B294621
:10104000FFF739FB0028E3DA019838B1B9F1000F56
:1010500001D0641E00E0009C01980460BAF1000F0A
:1010600008D003F093F802210160C81E014603B0C6
:10107000BDE8F08F310441EA174148EA0740F6E73E
:1010800010B5141E73F1000408DA401C41F1000190
:1010900092185B411A4301D120F0010010BD2DE9E7
:1010A000F04D92469B4611B1B1FA81F202E0B0FADE
:1010B00080F220329046FFF7DFFA04460F4640EAFE
:1010C0000A0041EA0B0153465A46084313D0114621
:1010D00053EA010019D0C8F140025046FFF7DBFA8D
:1010E00005460E46504659464246FFF7C5FA0843A4
:1010F00005D0012004E020463946BDE8F08D0020EF
:10110000054346EAE0762C4337430A986305E40A30
:10111000A0EB08000022FD0A44EA47540A3002D539
:1011200000200146E9E7010510196941DDE908459C
:1011300000196941BDE8F04DA2E770B58C1810F8B0
:10114000015B15F0070301D110F8013B2A1106D10C
:1011500010F8012B03E010F8016B01F8016B5B1E26
:10116000F9D12B0705D40023521E0DD401F8013B01
:10117000FAE710F8013BCB1A921C03E013F8015B6D
:1011800001F8015B521EF9D5A142D8D3002070BDF1
:10119000FEE77047014800F079B90000D43C012017
:1011A0002DE9F041044621B14FF40060E060C00039
:1011B000A060E069002700280CBF4FF480653D4621
:1011C0004FF04008206801683A4A1140D4E90223F0
:1011D0001A432A4342F400721143016020680668F2
:1011E000012000F06FF8206806602068C0F80480D5
:1011F00020684668012000F065F820684660206895
:1012000087602068C760206881694FF6417211408D
:1012100041F08001816120688669012000F052F868
:10122000206886612068C7612068C569012000F0D8
:1012300049F82068C561206800F5805081691E4A20
:10124000114041F0040141F008718161206800F50E
:1012500080508569012000F035F8206800F5805045
:1012600085612068154900F580500160206800F50F
:1012700080500568012000F025F8206800F58050B6
:101280000560A069012808D1206800F58050C16977
:1012900041F0400141F48031C1616069084A8188B0
:1012A00011640178D0F8010041EA00205064BDE8E3
:1012B000F08100000F8120FF233FDEF88020C10273
:1012C0000080024070B5044600F088FD0546B4F188
:1012D000FF3F02D004480078044400F07FFD401B2B
:1012E000A042FAD370BD0000D00000202DE9F00329
:1012F00090F845404FF0000C012C02BF0220BDE8E1
:10130000F0037047012780F84570022480F84440BC
:101310008162002B1AD94FF0004944F2F4585E1E46
:1013200001EB4C14C4F80090CCEBCC1505EB450553
:1013300002EB8505C4E90185B4453ABF04F12005F7
:10134000E560E1600CF1010C9C45E9D3026802F50F
:101350008052D16080F84470002180F84510BDE8CB
:10136000F003084670472DE9F00390F845C00024CB
:10137000BCF1010F02BF0220BDE8F0037047012756
:1013800080F845704FF0020C80F844C0C162002B19
:1013900084BF4FF480185E1E1ED901EB441CCCF8AC
:1013A0000080C4EBC41505EB450502EB8505CCF8C0
:1013B0000850C5692DB9DCF8005045F44009CCF857
:1013C0000090B4423ABF0CF12005CCF80C50CCF898
:1013D0000C10641C9C42E0D3026802F5805211613B
:1013E00080F84470002180F84510BDE8F0030846FD
:1013F0007047704790F845100022012904BF022071
:101400007047012380F84530022180F8441010B461
:101410004FF0000C2CE00C68521C04F44074B4F53E
:10142000007F1BD00C6814F4407F1CD04163826B9A
:10143000521C8263012A08BF01630A68C2F30D428D
:10144000121FC263026B92680264C968816280F8ED
:10145000443080F845C010BC0020704783630163AE
:10146000C968816204E0846B641C8463C96881621A
:10147000816A0C6814F0004F01D1042ACBD380F8A4
:10148000443080F845C010BC0120704770B5044658
:10149000006800F5805041694FF0000611F0400FE0
:1014A0004FF001050CD0204600F00CFA21684020D6
:1014B00001F58051486184F8445084F845600EE09D
:1014C000406910F0010F0AD0204600F011FB20689F
:1014D00000F58050456184F8445084F845602168E7
:1014E0004FF4803001F580514861206800F580504C
:1014F000406910F4004F08BF70BD2046FFF779FF28
:1015000021684FF4004001F58051486184F844504F
:1015100084F8456070BD00002DE9F04383B04FF0C2
:1015200000070400B846009702BF012003B0BDE8E1
:10153000F08394F8440020B984F84570204600F008
:10154000F3F86F48016841F480410160006800F4DD
:10155000804001906B48016821F40001016001683E
:10156000226A11430160206800F58050016841F053
:101570000101016000F032FC0546206800F5805052
:10158000006810F0010F14D000F028FC401BB0F5EB
:10159000FA7F07D9032084F8440084F8457003B02B
:1015A000BDE8F083206800F58050006810F0010F5E
:1015B000EAD12068006920F01C0501F0B3F9524916
:1015C000524A0144914238BF45F0080515D35049AD
:1015D000504A0144914238BF45F00C050DD34E49A5
:1015E0004E4A0144914208D34D4908444D4988422E
:1015F00034BF45F0040545F01005206805614FF43F
:1016000000420021204600F074FA4FF00109002842
:101610005ED1FF20FFF756FE606800284DD000F035
:10162000DDFB064641F288356A460121204600F07E
:1016300003F900F0D3FB801BA84218D8009810F0E3
:10164000040FF1D04FF480520021204600F051FAEF
:1016500000283DD100F0C2FB06466A460121204623
:1016600000F0EAF800F0BAFB801BA8420BD9012178
:101670002046FFF795FD84F8449084F8457003B048
:101680000320BDE8F083009810F0200FE5D06A46F3
:101690001F21204600F0D0F8D0B9009810F0100FAC
:1016A0001ABF4FF40061E160E76010F0040F12BF51
:1016B000A7604FF48040A06018E0E068A168C0080F
:1016C00040EA510082B20021204600F012FA48B1EF
:1016D00001212046FFF764FD84F8449003B0012007
:1016E000BDE8F08340F6FF70FFF7ECFD4146204671
:1016F000FFF756FD84F8449003B00020BDE8F08366
:10170000443802400438014000D3CEFEC0E1E4007A
:1017100040F1E9FD40787D0100796CFC005A6202DD
:10172000001F0AFA80F0FA02F0B587B00024009496
:1017300001940294039404940068A0F18041B1F5EF
:1017400020311CBF07B0F0BD3648016841F0007180
:101750000160016801F000710591016841F080614C
:101760000160016801F080610591016841F000614C
:101770000160016801F000610591016841F0040118
:101780000160016801F004010591016841F0010167
:101790000160016801F001010591016841F0020159
:1017A0000160016801F002010591016841F040010A
:1017B00001600068022500F0400005903220CDE96C
:1017C000000503260B2769461748CDE9036700F09B
:1017D000D1F98620CDE90005CDE902466946049796
:1017E000124800F0C7F92803CDE90005CDE902460B
:1017F000694604970E4800F0BDF94FF42050CDE93A
:101800000005CDE90246694604970A4800F0B2F99E
:10181000002205213D2000F033FF3D2000F020FF95
:1018200007B0F0BD3038024000080240000002401E
:1018300000040240001802402DE9F041044690F8EF
:1018400044001746822804BF0220BDE8F0818220B0
:1018500084F8440020680269238A4FF4784C02F02F
:101860001C020CEAC3231A434FF4F86303EA811104
:10187000114321F0020141F00106066100F0AEFAC9
:1018800016F0010F05464FF0010612D000F0A6FA3F
:10189000401BB0F5803F07D384F84460002084F8F3
:1018A00045000320BDE8F0812068006910F0010FB9
:1018B000ECD12068406980B2386084F84460002030
:1018C000BDE8F081014800680DF0B2BACC000020FC
:1018D00090F84510012904BF0220704770B401221E
:1018E00082B080F84520022180F84410016800236E
:1018F000D1F800C04CF0080CC1F800C0066831688F
:101900002E4C01914FF4FA552168B1FBF5F100918D
:1019100000BF0099B1F1010CCDF800C0F8D20199D7
:1019200031600168D1F800C04CF0040CC1F800C06F
:101930000668316801912168B1FBF5F1009100BFA3
:101940000099B1F1010CCDF800C0F8D201993160D5
:10195000016801F58051D1F818C04CF4801CC1F821
:1019600018C0016801F58056B16901912168B1FB89
:10197000F5F1009100BF0099B1F1010CCDF800C064
:10198000F8D20199B161016801F58051D1F818C010
:101990004CF4005CC1F818C0016801F58051D1F821
:1019A00018C04CF0020CC1F818C080F8442080F830
:1019B000453002B0002070BC70470000DC00002001
:1019C00090F845300022012B04BF022070472DE91A
:1019D000F001012580F84550022380F844300024AE
:1019E00079B1D0F82CC0DCF8003013F0004F10D0E3
:1019F000122180F8441080F84540BDE8F001012034
:101A0000704780F8445080F84540BDE8F00101205F
:101A1000704740F2F456B14221D9B1FBF6F7B1FB61
:101A2000F6F306FB1717002F18BF5B1C012B16D00F
:101A3000002B48D9C3F10107C7EBC71707EB4707CE
:101A400001EB8701A3F1010CC1F30C07C16AD1F8C6
:101A5000008028F04058C1F80080D2B912E0DCF8CC
:101A6000002042F04052CCF80020C26AC1F30C01C1
:101A70005160C16A0A6842F000420A60C16AC968DE
:101A8000C16220E0C16AD1F8008048F08058C1F8F6
:101A90000080C16A62454E6008D1C16AD1F80080F9
:101AA00048F00058C1F80080C16A4F60C16AD1F89F
:101AB000008048F00048C1F80080C16A521C9A4278
:101AC000C968C162C2D3016801F580514A6912F048
:101AD000040F05D004224A61016801F580514C6071
:101AE00080F8445080F84540BDE8F0010020704780
:101AF000704770B5044690F84400422804BF0220A5
:101B000070BD422084F8440020680369B4F810C016
:101B10004FF4784503F01C0305EACC2C4CEA030390
:101B20004FF4F86C0CEA8111194341F0030691B2AD
:101B300041612068066100F051F916F0010F054679
:101B40004FF0010611D000F049F9401BB0F5803F7D
:101B500006D384F84460002084F84500032070BD5B
:101B60002068006910F0010FEDD184F84460002076
:101B700070BD00002DE9F84F002301270324894E92
:101B80000F250A6807FA03F802EA080CC44540F07A
:101B900003814A68012A18BF022A03D0112A18BFFC
:101BA000122A1AD1D0F808904FEA430204FA02FA36
:101BB00029EA0A09D1F80CA00AFA02F242EA09025B
:101BC0008260426822EA080291F80480C8F3001893
:101BD00008FA03F848EA02024260D0F80C804FEAA3
:101BE0004302D1F808A004FA02F928EA09080AFA1F
:101BF00002FA4AEA0808C0F80C80D1F80480B8F16B
:101C0000020F18BFB8F1120F15D14FEAD30800EB3D
:101C1000880ADAF820B04FEA43784FEAD86805FA24
:101C200008FE2BEA0E0BD1F810E00EFA08F848EA8D
:101C30000B08CAF82080D0F8008028EA090891F83B
:101C4000049009F0030909FA02F242EA080202606C
:101C50004A6812F0805F7BD0326842F48042326082
:101C6000326802F48042009223F0030202F18049BC
:101C700009F59839D9F808284FEA83784FEA187897
:101C800005FA08FA22EA0A0AA0F18042B2F5003207
:101C90003ED0A0F18042B2F5013208BF012237D018
:101CA000A0F18042B2F5023208BF022230D0A0F18A
:101CB0008042B2F5033208BF032229D0A0F180424E
:101CC000B2F5043208BF042222D0A0F18042B2F55E
:101CD000053208BF05221BD0A0F18042B2F50632C2
:101CE00008BF062214D0A0F18042B2F5073208BF27
:101CF00007220DD0A0F18042B2F5083208BF0822B9
:101D000006D0A0F18042B2F509320CBF09220A22A6
:101D100002FA08F242EA0A02C9F80828DFF88880C5
:101D2000D8F80020D1F8049022EA0C0219F4803F80
:101D300018BF42EA0C02C8F80020DFF87080D8F81B
:101D40000020D1F8049022EA0C0219F4003F00E0D0
:101D500022E018BF42EA0C02C8F80020DFF85080E9
:101D6000D8F80020D1F8049022EA0C0219F4801F60
:101D700018BF42EA0C02C8F80020DFF83880D8F813
:101D80000020D1F8049022EA0C0219F4001F18BFB9
:101D900042EA0C02C8F800205B1C102BFFF4F1AEE5
:101DA000BDE8F88F44380240003C0140043C01404B
:101DB000083C01400C3C01400069084018BF01206C
:101DC0007047426931EA020208BF09048161704725
:101DD000002A08BF0904816170470000014880683B
:101DE00070470000D000002090F83D20202A1CBF42
:101DF00002207047242280F83D200268136823F0F7
:101E0000010313600268536A23F0100353620268EF
:101E1000536A1943516201680A6842F001020A607C
:101E2000202180F83D100020704790F83D20202AA6
:101E30001CBF02207047242280F83D2002681368EE
:101E400023F0010313600268536A23F00F03194360
:101E500089B2516201680A6842F001020A602021D9
:101E600080F83D1000207047006C7047002804BFC8
:101E70000120704770B5044690F83D00002520B958
:101E800084F83C50204600F037FB242084F83D00C5
:101E90002068016821F0010101602068016841F4B7
:101EA000004101602068016821F40041016000F0F8
:101EB0003FFD544B6168994203D85349814203D88E
:101EC00004E05249814201D9012070BD5049226885
:101ED000B0FBF1F1D2F804C02CF03F0C4CEA010C3D
:101EE000C2F804C06268934228BF4A1C07D24FF46C
:101EF000967251434FF47A72B1FBF2F14A1C216899
:101F0000D1F820C02CF03F0C42EA0C020A62616852
:101F10008B420FD34900401EB0FBF1F2521CC2F3BA
:101F20000B02042A31BF0420B0FBF1F0401CC0F3C7
:101F30000B0022E0A268002A52D001EBC10303EBA0
:101F40000113A0F1010CBCFBF3F35B1C43F48043D1
:101F50001B051B0D08BF01200FD0002A48D001EB44
:101F6000C10202EB0111401EB0FBF1F0401CC0F3B6
:101F70000B0040F4804040F400402168CA6922F020
:101F8000FF0222F44F421043C861D4E90701014324
:101F90002068026822F0C00211430160D4E90310F6
:101FA00001432068826822F0FF0222F403421143B9
:101FB0008160D4E9050101432068C26822F0FF0274
:101FC0001143C1602068016841F00101016025648E
:101FD000202084F83D00256384F83E50002070BD29
:101FE00001EB4103A0F1010CBCFBF3F35B1CAFE779
:101FF00001EB4101401EB0FBF1F0401CC0F30B00AF
:10200000B9E70000A086010080841E0000093D00A1
:1020100040420F002DE9F84F1E469246884604467E
:10202000FFF7DCFE054694F83D00012720287CD10F
:102030001923012251492046009501F013F9002887
:1020400073D194F83C0001286FD0012084F83C0043
:102050002068016811F0010F03D1016841F001010E
:1020600001602068016821F400610160242084F887
:102070003D00002020644248E06208F0FE094FF075
:10208000A0084FF0200B2068016841F480710160C6
:10209000334600224FF001112046009501F0E2F88E
:1020A0000028206809D0006810F4807F1CBF4FF41E
:1020B000007020640320BDE8F88FC0F81090FFF78F
:1020C0008DFE054607E0FFF789FE401BB04200D8B1
:1020D0000EB984F83D80206841694069C1F3400130
:1020E00094F83D20C0F38020A02A03D0002908BF27
:1020F0000028E8D084F83DB02068416911F0020F53
:102100001BD0016841F40071016020684FF00006A7
:10211000416980694FF019034FF0010217492046C9
:10212000009501F09FF8C0B900E024E084F83DB0CC
:1021300084F83C600020BDE8F88F016841F400712C
:10214000016021686FF480604861192301220B4906
:102150002046009501F086F810B10120BDE8F88F07
:102160007F1C57458FD384F83DB0002084F83C0095
:102170000120BDE8F88F0220BDE8F88F02001000B2
:102180000000FFFF2DE9FF4F83B09A46DDE911867D
:1021900093460446DDF84090FFF720FE054694F88C
:1021A0003D00202840F0F880192301227C49204678
:1021B000009501F057F8002840F0EE8094F83C00BC
:1021C000012800F0E980012084F83C0020680168C3
:1021D00011F0010F03D1016841F001010160206895
:1021E000016821F400610160222084F83D00402054
:1021F00084F83E0000272764C4F82490A4F82A80BD
:10220000608D20856748E062CDE9006553465A46F7
:102210002046049900F0FAFE00287DD1208D40B1BF
:1022200001280FD00228206812D0416980690090EF
:102230001EE02068416981690091016841F40071E4
:10224000016012E02068016821F480610160F0E71C
:10225000016821F4806101602068016841F4006137
:1022600001602068416980690090208D00287DD040
:10227000DFF83481208D032856D801280BD002289E
:1022800033464FF0000241462046009518D000F03A
:10229000E9FFC8B14EE02A463146204601F09BF8DE
:1022A000002847D120680069616A0870606A401C94
:1022B0006062208D401E2085608D401E60855CE040
:1022C00000F0D0FF40BB19E02068016821F4806174
:1022D000016020680069616A0870606A401C606281
:1022E000208D401E2085608D401E60853346002273
:1022F00041462046009500F0B5FF68B920680168A6
:1023000041F40071016020680069616A0870606AC8
:10231000401C6062218D00E00CE0491E2185618D2A
:10232000491E618521681BE02A463146204601F09E
:1023300052F818B107B00120BDE8F08F206800699D
:10234000616A0870606A401C6062218D491E2185A7
:10235000618D491E618521684A6912F0040F0CD015
:1023600009690170606A401C606200E009E0208D2C
:10237000401E2085608D401E6085208D00287FF4E2
:1023800079AF202084F83D0084F83E7084F83C70DA
:1023900007B00020BDE8F08F07B00220BDE8F08F45
:1023A000020010000000FFFF040001002DE9FF4FB4
:1023B00083B09A46DDE9118693460446DDF84090E5
:1023C000FFF70CFD054694F83D0020287BD119232A
:1023D000012247492046009500F044FF002872D1B1
:1023E00094F83C0001287FD0012084F83C0020684C
:1023F000016811F0010F03D1016841F00101016092
:102400002068016821F400610160212084F83D000A
:10241000402084F83E0000272764C4F82490A4F8E4
:102420002A80608D20853348E062CDE900655346FF
:102430005A462046049900F077FE00283FD1208DAF
:10244000002833D02A463146204601F003F840B137
:10245000206C042833D12068016841F400710160C8
:102460002DE0606A216800780861606A00F1010C63
:10247000C4F824C0208D401E80B22085618D491E85
:1024800061852368596911F0040F0CD070B19CF874
:1024900000001861606A401C6062208D401E20852B
:1024A000608D401E6085208D0028CBD12A463146A4
:1024B000204600F093FE38B1206C0428CBD007B042
:1024C0000120BDE8F08F0FE02068016841F4007141
:1024D0000160202084F83D0084F83E7084F83C7050
:1024E00007B00020BDE8F08F07B00220BDE8F08FF4
:1024F000020010000000FFFF00B587B0002100912E
:1025000001910291039104910068A0F18041B1F51D
:10251000A8411CBF07B000BD1148016841F002018D
:1025200001600068694600F0020005904FF44070B9
:1025300000901220019001200290032003900420BB
:1025400004900848FFF716FB0748016841F40011A2
:102550000160006800F40010059007B000BD0000A5
:10256000303802400004024040380240024881688E
:102570000278114481607047D00000200B4810B5EC
:10258000016841F400710160016841F480610160FB
:10259000016841F480710160032000F0A3F800207D
:1025A00000F006F800F03EF8002010BD003C0240AC
:1025B00010B5014688B00022192000F061F81920FA
:1025C00000F04EF813480024016841F00101016059
:1025D000006805A900F001000690684600F082F945
:1025E00000F0B6F90C494000B0FBF1F0411E0C4878
:1025F0000A4A026040F2E732C0E90324C0E901144C
:1026000000F0F2FB00280ABF0548012000F008FC9A
:1026100008B010BD4438024040420F0000000140A5
:102620001C3D01200C4882B0016841F480410160EA
:10263000006800F4804000900848016841F0805133
:1026400001600068002200F0805000900F21901E71
:1026500002B000F015B80000443802404038024093
:102660000028B8BF704700F01F01012202FA01F1F3
:102670004009800000F1E020C0F800117047000020
:10268000174B10B41B68C3F30223C3F1070CBCF152
:10269000040F88BF4FF0040C1C1D072C34BF00230F
:1026A000DB1E012404FA0CFCACF1010C0CEA010164
:1026B000994004FA03F35B1E1A40114300284FEAC5
:1026C0000111A1BF00F1E02080F8001410BC704798
:1026D00000F00F0000F1E02080F8141D10BC7047DE
:1026E0000CED00E0074A00F0070011684FF6FF0309
:1026F000194041EA002040F0FD7040F08060106019
:10270000704700000CED00E0F8B51A48016841F090
:10271000805101600068184F00F080500126009041
:102720003E64FFF75BFB154C0546606810F4803F84
:1027300009D1FFF753FB401BB0F57A7F11D86068D1
:1027400010F4803FF5D07E64FFF748FB05466068D3
:1027500010F4003F0BD1FFF741FB401BB0F57A7F2F
:1027600001D90320F8BD606810F4003FF3D00020C9
:10277000F8BD00004038024000000E4200700040EA
:10278000002804BF012070472DE9F047DFF83C9195
:1027900004460D46D9F80000CFB200F00F00A84261
:1027A00007D289F80070D9F8000000F00F00A842A5
:1027B00063D12068464E10F0020F14D010F0040FC1
:1027C00003D0306840F4E0503060207810F0080FFB
:1027D00003D0306840F4604030603068A16820F079
:1027E000F00008433060207810F0010F37D06068A7
:1027F0003849012823D0022818BF0328096823D0AC
:1028000011F0020F39D0316821F0030141EA0000D4
:102810003060FFF7E3FA80463068616800F00C0032
:10282000B0EB810F18BF41F2883A18D0FFF7D6FA03
:10283000A0EB080050450BD90320BDE8F0870968DC
:1028400011F4003FDFD118E011F0007FDBD114E07C
:102850003068616800F00C00B0EB810FE6D1D9F868
:10286000000000F00F00A8420AD989F80070D9F8DA
:10287000000000F00F00A84202D00120BDE8F08760
:10288000207810F0040F05D03068E16820F4E050A3
:1028900008433060207810F0080F06D030682169B6
:1028A00020F4604040EAC100306000F061F8316817
:1028B000094AC1F30311515CC8400849086008483F
:1028C0000068FFF775FE0020BDE8F087003C02407D
:1028D0000838024000380240589B0108DC00002004
:1028E000D40000200F2202600C4A136803F0030397
:1028F0004360136803F0F0038360136803F4E0534C
:10290000C36012684FF4E05303EAD2020261044844
:10291000006800F00F0008607047000008380240AF
:10292000003C02400148006870470000DC000020C5
:102930000448054900680968044AC1F38221515CD2
:10294000C8407047DC00002008380240689B01083E
:102950000448054900680968044AC1F34231515CE2
:10296000C8407047DC00002008380240689B01081E
:102970001848006810F00C01174808BF7047174B43
:10298000042904BF18467047082918BF704710B5BE
:10299000134C216801F03F02216811F4800F08D028
:1029A0002068C0F38810A0FB03010023FDF77AFC28
:1029B00007E021680023C1F38811A1FB0001FDF7A6
:1029C00071FC2168C1F30141491C4900B0FBF1F0E1
:1029D00010BD0000083802400024F40000127A0004
:1029E00004380240002804BF012070472DE9F84F49
:1029F00004460078DFF8C88310F0010FA8F1040541
:102A000058D008F10400016801F00C01042909D034
:102A1000006800F00C0008280DD1D8F8000010F470
:102A2000800F08D0286810F4003F43D06068002869
:102A300000F0C0813EE06068B0F5803F19D0B0F58D
:102A4000A02F28680CBF40F4802020F4803028603C
:102A500028680CBF40F4803020F480202860606833
:102A6000B8B1FFF7BBF90646286810F4003F05D05F
:102A700020E0286840F480302860F0E7FFF7AEF9E6
:102A8000801B642800F23781286810F4003FF5D0DD
:102A900010E0FFF7A3F90646286810F4003F09D0BC
:102AA000FFF79CF9801B642800F22581286810F448
:102AB000003FF5D12078C34F10F0020F4FF000090E
:102AC00047D0C148016811F00C0F16D0006800F023
:102AD0000C00082804BFD8F8000010F4800F0CD0B8
:102AE000E06820B34FF001003860FFF777F9064641
:102AF000286810F0020F09D011E0286810F0020FCA
:102B00001CBFE06801280AD000F054B9FFF766F94D
:102B1000801B02287ED8286810F0020FF6D02868A3
:102B2000216920F0F80040EAC100286011E0C7F8F0
:102B30000090FFF753F90646286810F0020F08D0FE
:102B4000FFF74CF9801B022864D8286810F0020FA8
:102B5000F6D1207810F0080F2AD09C489C4E61696D
:102B600099B101210160FFF739F98246306810F010
:102B7000020F1DD1FFF732F9A0EB0A00022849D855
:102B8000306810F0020FF5D012E0C0F80090FFF7A7
:102B900025F98246306810F0020F09D0FFF71EF9C0
:102BA000A0EB0A00022835D8306810F0020FF5D1EA
:102BB000207810F0040F7CD086480026006810F0C2
:102BC000805F09D18348016841F08051016000684D
:102BD000012600F080500090DFF8FCB1DBF8000027
:102BE00010F4807F1AD1DBF8000040F48070CBF83D
:102BF0000000FFF7F3F88246DBF8000010F4807F56
:102C00000CD1FFF7EBF8A0EB0A00022873D8DBF831
:102C1000000000E06FE010F4807FF2D0A068DFF8E1
:102C2000BCB101281DD00528DBF800000CBF40F026
:102C3000040020F00100CBF80000DBF800000CBF1E
:102C400040F0010020F00400CBF80000A068E8B1DB
:102C5000FFF7C4F88246DBF8000010F0020F07D03F
:102C60002BE0DBF8000040F00100CBF80000EDE7BE
:102C7000FFF7B4F8A0EB0A0141F2883081423AD85C
:102C8000DBF8000010F0020FF2D016E0FFF7A6F814
:102C90008246DBF8000010F0020F0ED0FFF79EF81E
:102CA000A0EB0A0141F28830814224D8DBF8000011
:102CB00000E008E010F0020FF0D126B145480168AD
:102CC00021F080510160A069E8B33F49096801F033
:102CD0000C0108294ED00228C7F860900ED0FFF7EB
:102CE0007DF80446286810F0007F66D0FFF776F87C
:102CF000001B022839D90320BDE8F88FFFF76EF8D2
:102D00000646286810F0007F08D0FFF767F8801BA0
:102D10000228F0D8286810F0007FF6D1D4E9070126
:102D20000843A16A2E4A490802EB0141626A41EA5E
:102D30008211084394F82C1040EA0160C8F80000A2
:102D40000120386600E038E0FFF748F804462868BC
:102D500010F0007F31D1FFF741F8001B0228CAD8DC
:102D6000286810F0007FF6D027E0286810F0007F78
:102D7000BCD122E0012808BFBDE8F88FD8F80000D8
:102D8000E26900F48001914214D1226A00F03F010F
:102D900091420FD147F6C071626A0140914209D158
:102DA000A26A00F44031914204D1E16A00F07060FF
:102DB000884202D00120BDE8F88F0020BDE8F88FDE
:102DC000043802400000474208380240800E474263
:102DD00074380240403802400070004070380240B1
:102DE0000000FFFF70477047002804BF01207047B4
:102DF00010B5044690F83D0028B9002084F83C0046
:102E0000204600F00CF8022084F83D00211D2068C7
:102E100000F044FE012084F83D00002010BD704702
:102E20000168CA6842F00102CA600068816801F066
:102E30000701062903D0016841F00101016000206B
:102E40007047704770B50446006801694FF000058F
:102E500011F0020F1CBFC16811F0020F13D06FF008
:102E600002010161012020772068806910F0030FC2
:102E7000204602D0FFF7E5FF04E000F099F8204675
:102E800000F097F825772068016911F0040F1CBF46
:102E9000C16811F0040F13D06FF00401016102202A
:102EA00020772068806910F4407F204602D0FFF729
:102EB000C8FF04E000F07CF8204600F07AF825779F
:102EC0002068016911F0080F1CBFC16811F0080FDC
:102ED00013D06FF008010161042020772068C069D9
:102EE00010F0030F204602D0FFF7ABFF04E000F024
:102EF0005FF8204600F05DF825772068016911F041
:102F0000100F1CBFC16811F0100F13D06FF010012B
:102F10000161082020772068C06910F4407F2046B6
:102F200002D0FFF78EFF04E000F042F8204600F0E8
:102F300040F825772068016911F0010F1CBFC168B6
:102F400011F0010F05D06FF001010161204600F082
:102F500031F82068016911F0800F1CBFC16811F0C1
:102F6000800F05D06FF0800101612046FFF73AFF26
:102F70002068016911F0400F1CBFC16811F0400FBB
:102F800005D06FF040010161204600F01CF8206878
:102F9000016911F0200F1ABFC16811F0200F70BD38
:102FA0006FF0200101612046BDE87040FFF71BBFB4
:102FB000704770470068A0F18041B1F5803118BFBB
:102FC0007047FFF7D3BA7047FEE7000030B40AA29B
:102FD00085B092E83C108DE83C106A4602EB111374
:102FE00001F00F011B7803701DF8011041700021E2
:102FF000817005B030BC70473031323334353637EC
:103000003839414243444546000000002DE9F84F5D
:10301000044600688846DDE90AA501681E46174691
:1030200041F4806101602068016841F480710160B1
:10303000534600224FF001112046009500F012F98E
:103040004FF4007938B12068006810F4807F53D0C5
:10305000C4F8409050E0216808F0FE000861DFF8F5
:10306000C4B02B4652465946204600F04EF900287F
:1030700055D120684169806900902A465146204612
:1030800000F0E8F940B1206C042848D120680168BC
:1030900041F40071016042E03046FEB201280CD0DC
:1030A0002168380A08612A465146204600F0D2F9C4
:1030B00018B1206C0428E9D031E0206806612A4666
:1030C0005146204600F0C6F918B1206C0428DDD026
:1030D00025E02068016841F48071016053460022B8
:1030E0004FF001112046009500F0BCF838B120687F
:1030F000006810F4807FABD10320BDE8F88F216811
:1031000008F0FF0040F0010008612B465246594686
:10311000204600F0FAF8002808BFBDE8F88F01202B
:10312000BDE8F88F020001002DE9F843044600686D
:103130000D46DDE9089701689846164641F480710E
:1031400001604B4600224FF001112046009700F02D
:1031500089F850B12068006810F4807F1CBF4FF4DC
:10316000007020640320BDE8F883216805F0FE00AC
:1031700008613B464A461849204600F0C6F810BB95
:1031800020684169806900903A464946204600F02F
:1031900061F940B1206C042815D12068016841F420
:1031A000007101600FE0F5B2B8F1010F0ED0216897
:1031B000300A08613A464946204600F04BF928B1EA
:1031C000206C0428E9D00120BDE8F883206805615F
:1031D0000020BDE8F8830000020001002DE9F04165
:1031E0000446006816460D46406910F0040F04BFFF
:1031F00000274FF0200824D12068406910F4806F28
:1032000011D021686FF480604861276384F83D80A5
:1032100084F83E70206C40F00400206484F83C7018
:103220000120BDE8F081B5F1FF3F05D0FEF7D6FDE6
:10323000801BA84208D83DB12068406910F0040FF7
:10324000DAD00020BDE8F081276384F83D8084F85F
:103250003E70206C40F02000206484F83C70012017
:10326000BDE8F0812DE9F0470446C1F30748DDF8D9
:10327000209000681E4617460D46B8F1010F06D093
:10328000806925EA00000004000C1ED005E04069BA
:1032900025EA00000004000C17D00020B8422FD10E
:1032A000B6F1FF3F06D0FEF799FDA0EB0900B04252
:1032B0000DD866B12068B8F1010F18D0806925EAF1
:1032C00000000004000C1ED017E00120E6E70020FB
:1032D0002063202184F83D1084F83E00216C41F0E9
:1032E0002001216484F83C000120BDE8F08740699A
:1032F00025EA00000004000C05D00020B842CFD021
:103300000020BDE8F0870120F8E72DE9F0470446EA
:10331000C1F3074800681F4616460D46B8F1010F75
:1033200026D0806925EA00000004000C3AD04FF056
:1033300000094FF0200A2068406910F4806F1ED009
:103340002068016841F40071016021686FF48060B9
:103350004861C4F8309084F83DA084F83E90206C19
:1033600040F00400206484F83C900120BDE8F08720
:10337000406925EA00000004000CD8D112E0B6F143
:10338000FF3F05D0FEF72AFDC01BB0420DD866B145
:103390002068B8F1010F17D0806925EA0000000409
:1033A000000CC8D10020BDE8F087C4F8309084F844
:1033B0003DA084F83E90206C40F02000206484F80A
:1033C0003C900120BDE8F087406925EA0000000438
:1033D000000CB0D1E6E72DE9F0410446006816463E
:1033E0000D46406910F0400F04BF00274FF0200841
:1033F0001FD12068406910F0100F0FD021686FF0C6
:1034000010004861276384F83D8084F83E70206C8A
:10341000206484F83C700120BDE8F081FEF7DEFCFA
:10342000801BA84208D83DB12068406910F0400FC9
:10343000DFD00020BDE8F081276384F83D8084F868
:103440003E70206C40F02000206484F83C70012025
:10345000BDE8F0812DE9F0410446006816460D46AE
:10346000406910F0800F04BF00274FF0200824D1DE
:103470002068406910F4806F11D021686FF480607B
:103480004861276384F83D8084F83E70206C40F0EA
:103490000400206484F83C700120BDE8F081B5F19F
:1034A000FF3F05D0FEF79AFC801BA84208D83DB12B
:1034B0002068406910F0800FDAD00020BDE8F0816C
:1034C000276384F83D8084F83E70206C40F0200033
:1034D000206484F83C700120BDE8F0812DE9F00300
:1034E0000A6892FAA2F3B3FA83F3DA4073D00126A2
:1034F0000F2503240A6806FA03FC12EA0C026BD0BB
:10350000D1F804C0BCF1010F18BFBCF1020F23D1E8
:10351000D1F808C0876892FAA2F8B8FA88F84FEA9A
:10352000480804FA08F827EA080792FAA2F8B8FA55
:1035300088F84FEA48080CFA08FC47EA0C0CC0F877
:1035400008C0D1F80CC0476802FB0CFC27EA020750
:1035500047EA0C0CC0F804C0D1F810C0C76892FA52
:10356000A2F8B8FA88F84FEA480804FA08F827EAF7
:10357000080792FAA2F8B8FA88F84FEA48080CFA55
:1035800008FC47EA0C0CC0F80CC0D1F804C0BCF130
:10359000020F3DD192FAA2FCBCFA8CFCBCF1080FE0
:1035A0001BD2D1F814C0076A92FAA2F8B8FA88F8C8
:1035B0004FEA880805FA08F827EA080792FAA2F8FD
:1035C000B8FA88F84FEA88080CFA08FC47EA0C0CAD
:1035D000C0F820C01CE036E030E04F69D0F824800D
:1035E0004FEA122C9CFAACF9B9FA89F99CFAACFCB6
:1035F0004FEA8909BCFA8CFC05FA09F94FEA8C0CF0
:1036000028EA090807FA0CFC48EA0C0CC0F824C0A8
:10361000D1F804C0076892FAA2F8B8FA88F84FEA1D
:10362000480804FA08F892FAA2F2B2FA82F25200BA
:1036300027EA08070CFA02F23A4302600A685B1CA8
:10364000DA407FF457AFBDE8F00300207047000078
:1036500010B5044600F074F90E4B206019680E4A4C
:1036600001F0F0010909515CC8406060196801F47B
:10367000E0520A4901EB9222127820FA02F2A2608B
:103680001A6802F4604201EB52310978C840E060E8
:1036900010BD000008380240589B0108689B0108D3
:1036A000F0B50446C06885B00D460126C0F3403031
:1036B000002876D1E9686868AA6908432969114336
:1036C0000843E16821F4037121F414410843E060E8
:1036D000A868216921F44051084320616869616943
:1036E00021F44071084360616846FFF7B1FFA4F11F
:1036F0008040B0F5883023D0A4F18040B0F58840F8
:103700001CBFA4F18040B0F590401BD0A4F18040D4
:10371000B0F58A3014D0A4F18040B0F598401CBFB9
:10372000A4F18040B0F5A0400CD0A4F18040B0F5E9
:10373000F0401CBFA4F18040B0F5F84002D030E06A
:10374000039800E0029800281CBF2968002928D0AF
:10375000AA694FF00006244D33464FF0190C4FF084
:103760003207B2F5004F1FD08B0F8A00A0FB0C016F
:10377000FCF798FD0146A5FB012040096FF01802F7
:10378000424301EB820107EB0111A5FB012149092D
:1037900001F0F00202EB001001F00F01084480B2CA
:1037A000A06005B03046F0BD4A18A0FB0C015B419B
:1037B000FCF778FD0346A5FB0310410918460A01F2
:1037C0006FF01803594300EB810007EBC000A5FB25
:1037D0000010400900F0F80102EB410100F0070081
:1037E000084480B2A060DCE71F85EB51F0B583B0E0
:1037F0003EA00CF0DDFE32200BF0D0F9002108468F
:1038000013F018FD3F4C404D0022207805F1040CC8
:1038100005F1080320B12A60CCF800201A603AE0D4
:103820003A490868C97807BA0E0607F47F4746EA9E
:10383000072607BA00BA07F47F07084346EA1726A7
:10384000334946EA106028600868C97806BA0D0650
:1038500006F47F4645EA062506BA00BA06F47F0656
:10386000084345EA16252B4945EA1060CCF80000CC
:103870000868C97805BA4FEA016C05F47F454CEA3F
:10388000052C05BA05F47F0500BA4CEA152C08434F
:103890004CEA106018602149214BCDE900211E48F7
:1038A00002901A1F111F1F480AF0DCFE1D480BF082
:1038B000C7F81C4991F82D0040F0040081F82D0054
:1038C00010F0040F084602D00BF016F901E00BF0DF
:1038D000BDF8207800281CBF124803F093FE12A008
:1038E00003B0BDE8F0400CF063BE000045746865AD
:1038F000726E657420496E697420626567696E0D29
:103900000000000024000020B4000020C0000020BF
:10391000C4000020C8000020BD730108458F0008C6
:10392000BC000020000C012045746865726E65744F
:1039300020496E697420656E640D0000FEE77047D3
:103940001548006810F00C01144808BF7047144B6C
:10395000042904BF18467047082918BF7047114A48
:10396000116811F4800103D0B1F5800F08BF18462B
:10397000116801F03F01B0FBF1F11068C0F388104D
:1039800041431068012200F4403002EB1040400037
:10399000B1FBF0F070470000083802400024F4004A
:1039A00000127A000438024010B5502080F31188CC
:1039B000BFF34F8FBFF36F8F15F07EFD18B1044931
:1039C0004FF080500860002080F3118810BD000087
:1039D00004ED00E030B593B000241F480294039436
:1039E000049405940C940D940E940F941094016813
:1039F00041F080510160006800F08050119017483C
:103A0000016841F4404101600068022500F4404033
:103A1000119001200090000401908001CDE9065032
:103A200004200890B420CDE9090507200B906846D2
:103A3000FEF7D8FFFEF768FE0F20CDE90C054FF426
:103A4000A050CDE90E40E802109005210CA8FEF729
:103A500097FE13B030BD00004038024000700040B7
:103A60000448016841F47001016003494FF00060AF
:103A70000860704788ED00E008ED00E010B50648EA
:103A8000FFF7E0F903F06AFE03F0A6FE03F07EFE06
:103A9000BDE8104003F020BF1C3D0120F0B40268D7
:103AA0002C4B2D4C2D4D2E4EDFF8B8C0984218BF30
:103AB000B0F1804F07D0A04218BFA84203D0B04257
:103AC00018BF604504D14F6822F0700247EA020235
:103AD000984218BFB0F1804F25D0A04218BFA8422D
:103AE00021D0B04218BF60451DD0A0F18044B4F58C
:103AF000A0341CBFA0F18044B4F5A23413D0A0F1CF
:103B00008044B4F5A4341CBFA0F18044B4F5C05483
:103B100009D0A0F18044B4F5E0541CBFA0F180446A
:103B2000B4F5005403D1CC6822F4407222434C69AE
:103B300022F08002224302608A68C2620A688262BE
:103B4000984212BF6045096901634FF0010141616C
:103B5000F0BC704700000140000400400008004035
:103B6000000C004000040140FFF740FE05F0FCFBA4
:103B700002A002F0ADF802F013F9FCE75374617291
:103B8000742054687265616444656661756C745430
:103B900061736B2E0D00000084B0A0A002F098F8B5
:103BA000A44CA549A54D2046FCF754FCA449204649
:103BB000FCF7FCFB29462046FCF7F8FB2146A14810
:103BC00004F0ACF906F06EF90024E0B2012106F031
:103BD000E7F8641C082CF8D340F2EE200AF0DEFF70
:103BE0000024E0B2002106F0DBF8641C082CF8D3B6
:103BF00040F2EE200AF0D2FF0121062006F0D0F8B4
:103C000008F0BAFE90484FF47A7100680BF0BEF9E4
:103C1000DFF838A28E4FDFF83C92DFF83CB24FF06D
:103C200000088E4C207820B1012008F0C1FC84F8F7
:103C300000809AF80000A0B1401E00248AF800001D
:103C400002F016F868B102F01DF83F2C34BF385569
:103C500000240D2809D0601C84B202F009F8002865
:103C6000F1D101200AF09AFFDBE707F80480784CD5
:103C7000002520262046FCF7B7FB031E29460846F0
:103C800007DD225CB2421CBF6254491C401C9842B2
:103C9000F7DB04F80180082271A16D48FCF7E3FB13
:103CA00058B1082271A16A48FCF7DDFB002818BF53
:103CB00071A07CD00CF07CFCD3E708246448FCF7AE
:103CC00093FB082819D9FCF71FFB0646395D3068BD
:103CD000405C80EA800010F0800F06D13A2904D0C1
:103CE00000256AA000F0EEF907E0601CC4B20125CF
:103CF0005748FCF779FBA042E8D85548FCF774FB1D
:103D0000192804BFB87A3A285AD1787B3A2804BFD8
:103D1000387C3A2854D1F87C3A2804BFB87D3A2838
:103D20004ED1002D4CD01022002107F10800FCF7E5
:103D30006BFC89F800001022002107F10B00FCF752
:103D400063FC89F801001022002107F10E00FCF746
:103D50005BFC89F802001022002107F11100FCF73A
:103D600053FC89F803001022002107F11400FCF72E
:103D70004BFC89F804001022002107F11700FCF722
:103D800043FCC0B289F8050099F8041099F80320A3
:103D90000092CDE9011099F8023099F8012099F8C4
:103DA000001041A000F08EF906222A4900E009E047
:103DB00040F2952004F01CF847490120087050E7B4
:103DC00046A077E7DBF80400020EC0F30741CDE917
:103DD0000012C0F30723C2B24FA152A000F072F943
:103DE000DBF80800020EC0F30741CDE90012C0F372
:103DF0000723C2B250A14BA000F064F9DBF80C001D
:103E0000020EC0F30741CDE90012C0F30723C2B28E
:103E10004BA144A000F056F923E7000053746172EF
:103E200074205468726561644D61696E4C6F676996
:103E3000632E0D00B0360020383400207834002086
:103E4000ACC5000832370020B00000200C00002074
:103E5000C832002038000020000C0120640000203F
:103E60006D6163616464723D000000006970636F9E
:103E70006E66696700000000556E6B6E6F776E208E
:103E8000636F6D6D616E64210D000000556E657885
:103E90007065637465642073796D626F6C3A202776
:103EA0002563270D000000004D41432061646472CA
:103EB000657373207365743A20253032583A253083
:103EC00032583A253032583A253032583A25303275
:103ED000583A253032580D006600002057726F6E38
:103EE0006720666F726D6174212052696768742063
:103EF000666F726D617420697320226D6163616405
:103F000064723D31323A33343A35363A37383A39D9
:103F1000413A4243222E0D0049502061646472658B
:103F2000737300002573203D2025752E25752E25E1
:103F3000752E25750D0000004E65746D61736B0064
:103F40004761746577617900274881B00168C1F3E2
:103F50004011D9B1C168C1F34011B9B10168C1F3D1
:103F6000400199B94168C9B20D2903D11F4A13789C
:103F70005B1C13701E4B64225A601E4A937803F038
:103F80007F03134419715188491C51800168C1F3A2
:103F9000C011B1B1C168C1F3C01191B1164B5A88BB
:103FA0001988521A1205120D07D0C1F30B021A44D8
:103FB000491C12791980426003E0C16821F0800138
:103FC000C1600168009141680091016800914168F9
:103FD000009101680091416800910168009140687A
:103FE000009001B070470000001001400C0000205C
:103FF00004000020443200204022002038B52B4C21
:104000002068C0F34010A0B1E068C0F3401080B158
:104010002068C0F3400060B961682548827802F0EA
:104020007F02024411714188491C4180214964206A
:1040300008802068C0F3C010B0B1E068C0F3C010C1
:1040400090B11D4A91781088091A11F07F0F07D09E
:1040500000F07F011144401C09791080616003E089
:10406000E06820F08000E0602068C0F3801060B15C
:10407000E068C0F3801040B100224FF480410F4847
:10408000FDF7A6FE6FF04000206020680090606899
:104090000090206800906068009020680090606840
:1040A0000090206800906068009038BD0048004093
:1040B00098380020840000201438002000040240BA
:1040C000FEE700000FB4054B10B503A9044A02989F
:1040D00000F032F910BC5DF814FB00009B92000860
:1040E000340200200FB41CB50246002007AC0029A2
:1040F0000BD0491ECDE90021054B6A4621460698A2
:1041000000F01AF9009A002111701CBC5DF814FB34
:10411000674A00080FB4084B10B504A902AA039817
:1041200000F00AF9044602A9002000F0A7FC20468E
:1041300010BC5DF814FB00007D4A00080A684B685B
:1041400002604360B1F808C0A0F808C070470A6870
:1041500002600B79037170470A6802608B88838064
:1041600091F806C080F806C070470A684B68026084
:10417000436091F808C080F808C07047C9B241EAAE
:10418000012141EA01410160818070470048704788
:104190003C02002002E008C8121F08C1002AFAD120
:1041A00070477047002001E001C1121F002AFBD1B7
:1041B000704700002DE9FF5F82B00021DDE9043087
:1041C000020DDDF840B0034318D044F61050A2F2BF
:1041D000FF3242431514119801281FD0A5EB0B00A4
:1041E000401C5FEA000A4FF000064E4FDFF838919E
:1041F000B046504615D5CAF1000413E011980124C9
:104200004AA3012801D16FEA0B010298119AC0E973
:104210000031C0E9024206B0BDE8F09FCBF10000DA
:10422000DFE704460021404A491842EB0450CDE93B
:10423000001012E0E00707D032463B4640464946B0
:10424000FCF7A3FB8046894632463B46104619469A
:10425000FCF79BFB06460F466410002CEAD1DDE913
:104260000401DDE90023BAF1000F06DAFCF78DFB4B
:1042700042464B46FCF789FB05E0FCF7F8FB42465B
:104280004B46FCF7F4FB04460E460022284BFCF795
:1042900075FC03D84FF0FF30014607E00022254BA4
:1042A00020463146FCF7CAFAFCF750FC102409E01E
:1042B000002C0ADB0A220023FBF7F4FF039B3032B9
:1042C0001A55641E50EA0102F2D1641C039AC4F12B
:1042D00011031444119A012A03D0012208430DD17D
:1042E0000AE0084304D000204FF0110B119072E750
:1042F000A3EB0B056D1E0DE05B4504DD4FF00002E6
:1043000005F1010504E003DA4FF00002A5F1010513
:10431000002AECD002981199C0E90231C0E90045A9
:1043200079E70000000014400000F03F300000007A
:104330000000F0430000E03F2DE9FF4F95B09B46A1
:104340008946064600250FE2252877D10024274616
:10435000F84A0121059400E0044316F8013F203B90
:1043600001FA03F01042F7D130782A2811D06FF00B
:104370002F033078A0F13002092A16D8059A44F0AC
:10438000020402EB820203EB42021044761C059009
:10439000EFE759F8042B0592002A03DA504244F45F
:1043A0000054059044F00204761C30782E2816D173
:1043B00016F8010F44F004042A280DD06FF02F02E4
:1043C0003078A0F13003092B09D807EB870302EB03
:1043D0004303C718761CF3E759F8047B761C307842
:1043E0006C280FD006DC4C2817D068280DD06A281E
:1043F00014D104E0742810D07A280FD10DE044F4D1
:1044000000140AE044F4801401E044F4401472788B
:10441000824202D104F58014761C761C307866281E
:104420000BD013DC582877D009DC002875D045283C
:10443000F6D04628F4D047281AD19DE118E0632829
:1044400035D0642879D0652812D195E1702873D0D1
:1044500008DC6728F1D069286FD06E280DD06F284E
:1044600006D1B5E073282CD0752875D0782874D083
:104470005A46179990476D1C75E1C4F30250022803
:1044800009D003280DD0D9F8001004280DD00D60F4
:1044900009F1040967E1D9F80010EA17C1E90052EF
:1044A000F6E7D9F800100D80F2E70D70F0E719F883
:1044B000041B8DF8001000208DF80100EA46012051
:1044C00003E059F804AB4FF0FF3061074FF00001F3
:1044D00002D40DE008F101018846B9420FDA8045A7
:1044E000F8DB1AF808100029F4D108E008F10101FE
:1044F00088468142FADB1AF808100029F6D105989F
:104500005B46A0EB080721463846179A00F094FA5C
:10451000284400EB080507E04DE029E10DE01AF81A
:10452000010B5A4617999047B8F10108F7D25B463C
:1045300021463846179A13E142E00A220092C4F35A
:1045400002524FF0000A022A08D059F804CB032A7D
:104550004FEAEC710AD00DE029E02AE009F10701E9
:1045600021F00702F2E802C1914609E00FFA8CFC43
:104570004FEAEC71042A03D14FFA8CFC4FEAEC713C
:10458000002907DA0A460021DCF1000C61EB020188
:104590002D2202E0220504D52B228DF804200122D1
:1045A00003E0E20701D02022F7E7904659E00A2114
:1045B00002E010220DE010214FF0000A00910BE004
:1045C00010224FF0000A44F004040827009203E090
:1045D00008224FF0000A0092C4F30252022A05D0CA
:1045E00059F804CB0021032A08D009E009F107019A
:1045F00021F00702F2E802C1914605E01FFA8CFCA7
:10460000042A01D10CF0FF0C4FF00008220728D536
:10461000702806D0009B83F0100353EA0A0305D0EC
:104620000EE040228DF80420012208E05CEA01023D
:1046300006D030228DF804208DF805000222904625
:10464000009B83F0080353EA0A030AD15CEA0102E3
:1046500001D1620705D530228DF804204FF0010802
:104660007F1E582804D034A003900EA802900DE0BD
:1046700036A0F9E753466046009AFBF713FE8446DE
:104680000398825C0298401E029002705CEA01006E
:10469000F0D1029806A9081A00F1200A600702D595
:1046A00024F4803400E00127574502DDA7EB0A001F
:1046B00000E0002000EB0A01009005984144401AF8
:1046C0000590E00306D45B462146179A059800F052
:1046D000B3F90544002706E001A85A46C05D1799C2
:1046E00090476D1C7F1C4745F6DBE0030CD55B460D
:1046F0002146179A059800F09FF9054404E0302000
:104700005A46179990476D1C0099481E0090002941
:10471000F5DC08E0029802995A460078491C02919B
:10472000179990476D1CBAF10001AAF1010AF1DC5A
:1047300065E1000009280100303132333435363765
:1047400038396162636465660000000030313233DD
:10475000343536373839414243444546000000007D
:1047600000F058F90544761C307800287FF4ECAD51
:1047700019B02846BDE8F08F620700D4062709F17A
:10478000070222F0070CFCE80223E14603F0004890
:104790005FEA080C02D00FF2702C0DE05FEA045CB7
:1047A00002D50FF2682C07E05FEAC47C02D00FF25A
:1047B000602C01E0AFF2700C4FF0FF3823F00043A3
:1047C000CDF850C065280CD006DC452809D0462815
:1047D0001DD047283DD13DE0662818D067287ED1FE
:1047E00038E00021112F01DB112000E0781CCDE919
:1047F000000106A90EA8FFF7DDFCDDE90F010E9A06
:1048000003910021009207F1010A04914DE04FF05D
:1048100000400097CDE9011006A90EA8FFF7CAFCD9
:10482000DDE90F0203920E9B11990022DDF80CA026
:104830000093049211B9791C00EB010AB7EB0A004E
:1048400004D4C0F1FF3007F1010A0490AAEB07007D
:10485000019044E0012F00DA01270021112F01DD32
:10486000112000E03846CDE9000106A90EA8FFF7A7
:10487000A1FCDDE90F010E9A039100210491009241
:10488000BA4621070CD40399514500DA8A46BAF199
:10489000010F05DD009AAAF10101515C302908D011
:1048A000B84202DA10F1040F06DA0121CDE9011055
:1048B00015E0AAF10101E9E7002805DC04990144AB
:1048C0000491AAEB000102E0411C514500DD8A463B
:1048D0000499401A401C01904FF0004002902007BC
:1048E00004D40198504501DBCDF8048000208DF8F8
:1048F0004F0002980DF14F07B0F1004F25D02B204B
:104900000E9002984FF0020800280CDA4042029004
:104910002D200E9007E00A210298FBF797FE303118
:10492000029007F8011DB8F10001A8F10108F2DCBE
:1049300002980028EFD1791E0E980870307800F0A8
:10494000200040F0450007F8020D12A8C01B00F13E
:1049500007081498007800B1012000EB0A010198C3
:1049600001EBE07105984144401A401E0590E003B8
:1049700006D45B462146179A059800F05DF8054479
:104980001498007818B15A46179990476D1CE003A7
:1049900024D55B462146179A059800F04DF805444A
:1049A0001CE00498002807DBDDE90301884203DDF1
:1049B0000098405C179901E0179930205A469047BB
:1049C000049805F10105401C04900198401E0190D7
:1049D00004D12E205A46179990476D1CBAF1000158
:1049E000AAF1010ADDDC05E017F8010B5A46179918
:1049F00090476D1CB8F10001A8F10108F4DC5B469A
:104A00002146179A0598ABE62D0000002B00000008
:104A1000200000002DE9F041044600251E461746FF
:104A2000880404D405E039462020B0476D1C641E7C
:104A3000F9D52846BDE8F0812DE9F041044600256E
:104A40001E469046C80301D5302700E02027880481
:104A500004D505E041463846B0476D1C641EF9D5C3
:104A60002846BDE8F0814A68002A06D00A68531C2F
:104A70000B6010704868401E486070470A68531CFD
:104A80000B60107070470000002804BF6FF0050035
:104A9000704770B5044615460E4614300CF037FDCD
:104AA000002863D0002E51D0002D06D03EA340F246
:104AB0002A224AA153A0FFF705FB2078616A08F07B
:104AC00033FF050055D0014630466E600DF06AF8A0
:104AD0005649304610F096FC5549304611F050F9D1
:104AE0000222544930460FF003FC534930460DF082
:104AF0000FFD294604F114000CF0FFFC00284BD0F8
:104B00006C68002120460DF04DF80021204610F081
:104B100079FC0021204611F033F90022114620468D
:104B20000FF0E6FB002120460DF0F2FC002068604B
:104B300005F110000CF0BAFC05F110000CF0DAFCE5
:104B4000284609F087F84FF0FF3070BD6FF00C0079
:104B500007F08AF9014604F114000CF0CEFC28B9E4
:104B6000636A1BB100221146204698476FF005008A
:104B700070BD6FF00C0007F077F9014604F11400E6
:104B80000CF0BBFC28B9636A1BB100221146204619
:104B900098474FF0FF3070BD636A1BB10022114689
:104BA00020469847002070BD2E2E2F4D6964646CFE
:104BB0006577617265732F54686972645F506172C2
:104BC00074792F4C7749502F7372632F6170692F5E
:104BD0006170695F6D73672E6300000065787065B2
:104BE0006374206E6577706362203D3D204E554CA6
:104BF0004C206F7220657272203D3D204552525FFD
:104C00004F4B0000417373657274696F6E202225EB
:104C10007322206661696C6564206174206C696E22
:104C20006520256420696E2025730A004507010868
:104C3000011201089DFC0008497F000870B50A4672
:104C4000254C0646C4B004F1AA01104604F018FB36
:104C5000054622A00BF0ACFC28460BF0A9FC28A0CE
:104C60000BF0A6FC002D1CD02AA0B22300682E90C9
:104C700001AA2EA9284604F05CFBB0F1FF3F0CD03E
:104C800001AA2EA924A0FFF71DFA01A92548FBF7C8
:104C9000B2FB002808BF244C03E02EA923A0FFF795
:104CA00011FA2AA13EA804F001FB0025DDE93E121D
:104CB0002B463046009509F0F5FB3EA804F0F4FAC7
:104CC0002046FBF791FB0246012321463046009522
:104CD00009F0E8FB44B070BDEE99010861637469A6
:104CE0006F6E436865636B43726564656E7469617A
:104CF0006C732072617720646174613A0D0000006A
:104D00000D0D50726F636573736564206461746127
:104D10003A0D0000736964002573203D2025730D52
:104D20000000000032370020CD9901084552524F53
:104D3000523A206669656C642022257322206E6FCA
:104D40007420666F756E640D000000002F7361762D
:104D5000652E786D6C00000070B5064686B0114C6B
:104D600011A00BF025FC16490120087015A101A81F
:104D700004F09CFA00250095DDE901122B4630462F
:104D800009F090FB01A804F08FFA2046FBF72CFBFA
:104D90000246012321463046009509F083FB06B008
:104DA00070BD0000CD990108616374696F6E526532
:104DB000736574546F44656661756C74730D00009F
:104DC000650000202F736176652E786D6C00000001
:104DD0002DE9F34F8D4D084697B005F1430104F0DE
:104DE0004FFA81468AA00BF0E3FB4FF0000AB9F1BD
:104DF000000F08BF8B4D00F0EC808BA0DFF830B2C5
:104E0000D0E90010CDE90210002606F131008DF83E
:104E1000090002A90BEB86174FF040080024484612
:104E200004F02EFA01000CBF4FF0FF30A8F1010290
:104E30000AD0085D0A2804D03855601C84B2944218
:104E4000F7DB07F804A020B2B0F1FF3F05D03A46E7
:104E500002A978A0FFF736F904E0724D02A978A004
:104E6000FFF730F9701C86B2062ECED34FF4C07215
:104E70006F498C2002F0BCFF0B2279A102A8FBF73E
:104E800063FA7A4F7A4E002404F131008DF809005C
:104E900001AA02A9484604F02BFAB0F1FF3F0DD059
:104EA0000198012802BF315D002947F824A0C2B251
:104EB000325502A96FA0FFF705F904E0594D02A988
:104EC0005FA0FFF7FFF8601C84B2062CDCD306223B
:104ED00067494FF4037002F08BFF1822634940F2D8
:104EE0007D2002F085FF0D2265A102A8FBF72CFAB8
:104EF000674E002404F131008DF8090001AA02A9CF
:104F0000484604F0F5F9B0F1FF3F08D0019802A936
:104F100002B226F8142057A0FFF7D4F804E0414D60
:104F200002A947A0FFF7CEF8601C84B2062CE1D39B
:104F30000C22574940F2122002F05AFF0D2255A1CF
:104F400002A8FBF701FA574E002404F131008DF856
:104F5000090001AA02A9484604F0CAF9B0F1FF3FCE
:104F600008D0019802A902B226F814204EA0FFF73B
:104F7000A9F804E02B4D02A931A0FFF7A3F8601CAB
:104F800084B2062CE1D30C22464940F21E2002F0E6
:104F90002FFF0E2247A102A8FBF7D6F901AA02A90A
:104FA000484604F0A5F9B0F1FF3F07D04548019A03
:104FB00002A902602FA0FFF785F804E0194D02A9AD
:104FC0001FA0FFF77FF804223E4940F22A2002F09A
:104FD0000FFF3DA112A804F069F9DDE912120023C8
:104FE000CDF800A0179809F05DFA12A804F05CF95A
:104FF0002846FBF7F9F9024601232946CDF800A01F
:10500000179809F04FFA19B0BDE8F08F209A0108FF
:105010000D0D50726F636573736564206461746114
:105020003A0D0000419A01084C785F4E414D450011
:10503000B83400202573203D2025730D00000000AA
:105040004552524F523A206669656C64202225739E
:1050500022206E6F7420666F756E640D0000000074
:105060004C785F4C494E455F454E00009836002015
:105070002C0000202573203D2025750D0000000028
:105080004C785F544F505F4C494D4954000000002C
:10509000383600204C785F424F545F4C494D49549C
:1050A00000000000443600202573203D2025690DB6
:1050B000000000004D4541535F494E544552564152
:1050C0004C000000280000202F736176652E786D5B
:1050D0006C000000F0B50A46584C0646B7B004F123
:1050E000B901104604F0CCF8054655A00BF060FA63
:1050F00028460BF05DFA5BA00BF05AFA002D3CD06D
:105100005DA04023016802918088ADF80C0012AACE
:1051100002A9284604F00DF9B0F1FF3F05D012AA0C
:1051200002A957A0FEF7CEFF04E0584C02A958A0F0
:10513000FEF7C8FF02AF38465DA1FFF708F840232D
:1051400022AA02A9284604F0F4F8B0F1FF3F05D0E6
:1051500022AA02A94AA0FEF7B5FF04E04B4C02A91F
:105160004BA0FEF7AFFF12A95348FBF744F920B953
:1051700022A95248FBF73FF9D8B1444C50A132A8BC
:1051800004F094F800250095DDE932122B463046F4
:1051900009F088F932A804F087F82046FBF724F9D3
:1051A0000246012321463046009509F07BF937B0CD
:1051B000F0BD384645A1FEF7C1FF40233E4A02A993
:1051C000284604F0B6F8B0F1FF3F05D03A4A02A9EC
:1051D0002BA0FEF777FF04E02C4C02A92CA0FEF7D1
:1051E00071FF38463CA1FEF7C0FF4023334A02A9B5
:1051F000284604F09EF8B0F1FF3F05D02F4A02A9DF
:105200001FA0FEF75FFF04E0204C02A920A0FEF7DC
:1052100059FF40222849002002F0EAFD4022274998
:10522000104602F0E5FD254A23492E4807F0AEF965
:105230002C492D4802F072FEA0E70000CD9901082C
:10524000616374696F6E5361766543726564656E00
:105250007469616C732072617720646174613A0DC6
:10526000000000000D0D50726F636573736564205C
:10527000646174613A0D00006C6F67696E00000034
:105280002573203D2025730D00000000EE990108D4
:105290004552524F523A206669656C64202225734C
:1052A00022206E6F7420666F756E640D0000000022
:1052B00070617373000000003834002078340020DF
:1052C0002F736176652E786D6C0000006E65775FD8
:1052D0006C6F67696E0000006E65775F7061737355
:1052E00000000000B0360020323700202DE9F34FD7
:1052F000774C08469FB004F1A70103F0C1FF824636
:1053000074A00BF055F950460BF052F97AA00BF04F
:105310004FF9BAF1000F08BF7C4C00F0BC807C4D07
:105320007C4E7D4F28681C9030681D903868DFF8EF
:10533000EC911E900DF1080B99F80080584678A169
:10534000FEF70AFF102312AA02A9504603F0F1FF4C
:10535000B0F1FF3F0ED0294612A80BF0EFFFE9781D
:10536000A878CDE900016B782A7802A96EA0FEF733
:10537000A9FE04E0654C02A970A0FEF7A3FE04227A
:105380006349802002F034FD584674A1FEF7EDFE1B
:10539000102312AA02A9504603F0CBFFB0F1FF3F41
:1053A0000ED05C4912A80BF0C9FFF178B078CDE9B6
:1053B00000017378327802A95BA0FEF783FE04E057
:1053C000524C02A95DA0FEF77DFE042251498420C3
:1053D00002F00EFD584664A1FEF7C7FE102312AA84
:1053E00002A9504603F0A5FFB0F1FF3F0ED04A4995
:1053F00012A80BF0A3FFF978B878CDE900017B780B
:105400003A7802A948A0FEF75DFE04E03F4C02A9ED
:105410004AA0FEF757FE04223F49882002F0E8FC2C
:1054200054A01BAAD0E90010CDE9021002A95046F1
:1054300003F05EFFB0F1FF3F07D01B9A89F8002010
:1054400002A94EA0FEF73EFE04E0304C02A93BA0AC
:10545000FEF738FE0122314940F22E2002F0C8FC4E
:1054600004222B491CA8FAF7D4FF80B90422294949
:105470001DA8FAF7CEFF50B9042227491EA8FAF753
:10548000C8FF002804BF99F80000804503D03E49BA
:105490004FF0010008703DA116A803F007FF00259A
:1054A000DDE916122B4600951F9808F0FBFF16A8A1
:1054B00003F0FAFE2046FAF797FF02460123214641
:1054C00000951F9808F0EEFF21B0BDE8F08F0000B6
:1054D000CD990108616374696F6E536176654E659D
:1054E0007473657474696E67732072617720646188
:1054F00074613A0D000000000D0D50726F6365730A
:1055000073656420646174613A0D0000EE990108CE
:10551000C0000020C4000020C8000020240000209B
:105520006C6F635F697000002573203D2025752E28
:1055300025752E25752E25750D0000004552524FFC
:10554000523A206669656C642022257322206E6FB2
:105550007420666F756E640D000000006E65745FE8
:105560006D61736B000000006E65745F6761746548
:1055700000000000646863705F656E002573203D65
:105580002025690D00000000000000202F736176C7
:10559000652E786D6C00000070B50A46064688B02E
:1055A000184C19491046FAF70DFF06AA1749FAF7E1
:1055B00069FF17A00699FEF785FD0698C0B200F0B6
:1055C00031F9002808BF194C194901A803F06EFEF3
:1055D00000250095DDE901122B46304608F062FFF8
:1055E00001A803F061FE2046FAF7FEFE0246012301
:1055F00021463046009508F055FF0EA00AF0D8FF6E
:1056000008B070BDCD990108B8560008C056000812
:10561000616374696F6E537461727443616C2E20A0
:105620006C696E65203D2025750D0000EE9901081E
:10563000C44D000853656E642073746172745F63B7
:10564000616C2E786D6C000070B50A46064688B015
:10565000184C19A11046FAF7B5FE06AA18A1FAF7D8
:1056600011FF1AA00699FEF72DFD0698C0B206F0AC
:10567000C3FF002808BF1C4C1C4901A803F016FEFC
:1056800000250095DDE901122B46304608F00AFF9F
:1056900001A803F009FE2046FAF7A6FE0246012300
:1056A00021463046009508F0FDFE11A00AF080FF6B
:1056B00008B070BDCD9901083F6C696E653D000072
:1056C0003F6C696E653D257500000000616374697B
:1056D0006F6E53746172744D6561732E206C696EC8
:1056E00065203D2025750D00EE990108C44D000888
:1056F00053656E642073746172745F6D6561732E9F
:10570000786D6C00084B811C83FB01C2A2EBE27236
:10571000A2EB82021144401A801C83FB0010A0EB14
:10572000E070800070470000565555552DE9F00196
:105730000023844682B01846541E1F466AD3384E52
:105740000DF104086D4611F8012B08F803205B1CCD
:10575000032B22D19DF8042093088DF80030920786
:10576000930E9DF8052003EB12138DF801301207FC
:10577000930E9DF8062003EB92138DF8023002F091
:105780003F028DF803200022AB5C521CF35C0CF846
:105790000030401C042AF7DB0023641ED3D2002B08
:1057A00038D01946032B04DA08F80170491C032984
:1057B000FADB9DF804108A088DF8002089078A0E0C
:1057C0009DF8051002EB11128DF8012009078A0ED1
:1057D0009DF8061002EB91128DF8022001F03F01B6
:1057E0008DF8031000215A1C002A07DD6C5C491C4F
:1057F000345D0CF80040401C8A42F7DC1146032B54
:10580000B8BF3D2206DA0CF800200B46491C401CAC
:10581000032BF8DB0CF8007002B0BDE8F001704714
:10582000AB9A01082DE9F04184B00446022104F04E
:10583000B7FA4E4F4FF47A61786809F09DFA18B1C3
:105840004BA00AF0B5FE45E053A00AF0B1FE03AB51
:1058500002AA0121204607F055F810B301263E7038
:10586000204606F0C9FE002548B34F483D7000EBC6
:1058700084019DED020A40F24D2081ED000A00EB0B
:105880008400042202F0B4FA48484949494A01EB2D
:10589000840150F824000860125DDFF81C81EAB131
:1058A00025E00321204604F07BFA44A00AF080FEA4
:1058B000786809F039FA04B00020BDE8F0810321CE
:1058C000204604F06DFA3D703CA00AF071FE786845
:1058D00009F02AFA04B00020BDE8F0813B4A125DCD
:1058E0002AB93B4A9042B8BF08F8045001DB08F8D7
:1058F00004603848042240F8245040F2652000EB50
:10590000840002F075FA08EB0401012204F22F2052
:1059100002F06EFA3048016800918088ADF804000A
:10592000204605F0A9FBE84630B10121204604F0ED
:1059300037FA08F8046005E00021204604F030FA48
:1059400008F80450684612F0CBFF002814BF23A0CB
:1059500026A00AF02DFE19A00AF02AFE786809F0A8
:10596000E3F904B00120BDE8F081000088000020C8
:105970006F734D7574657857616974286D656173CF
:105980005F6D757465782C2034303030292054696F
:105990006D656F75740000004D75746578206171D8
:1059A00075697265640000006836002008330020C5
:1059B000803600204A000020320000204D757465BA
:1059C000782072656C656173656400004400002096
:1059D0000050434820330020500000205772697463
:1059E00065206F7574707574204F4B005772697421
:1059F00065206F7574707574204552520000000068
:105A00002DE9F047054614A090B0B0E8DC138A46B3
:105A100001A981E8DC1390E81F1009AE86E81F1089
:105A20001B495046FAF7CEFC00281EBF012010B0DB
:105A3000BDE8F08717A000F04BF901A8FAF7D4FCF5
:105A400000210B460246009101A9284608F02AFDD4
:105A500010B00020BDE8F087485454502F312E314B
:105A60002033303720556E617574686F72697A65BE
:105A7000640D0A6C6F636174696F6E3A202F6C6FEE
:105A800067696E2E68746D6C0D0A0D0A00000000C7
:105A9000323700204E6F7420617574686F72697AB6
:105AA00065642120526564697265637420746F2097
:105AB0006C6F67696E2E68746D6C0D000022002992
:105AC00008BF064908D0012908BF054904D00229AA
:105AD00004BF04490A5470470A5470474400002028
