:020000040800F2
:100000009827002009010008E71B00087D10000860
:10001000E51B000895090008591E000800000000B3
:10002000000000000000000000000000751C000837
:10003000850A000800000000E91B0008771C000882
:100040002301000823010008230100082301000800
:1000500023010008230100082301000823010008F0
:100060002301000823010008230100089709000864
:100070009B09000823010008230100082301000850
:1000800023010008230100082301000823010008C0
:1000900023010008230100082301000823010008B0
:1000A00000000000230100082301000823010008CC
:1000B0002301000823010008230100082301000890
:1000C0002301000823010008230100082301000880
:1000D000230100088D1D00082301000823010008EA
:1000E0002301000823010008230100082301000860
:1000F00023010008DFF80CD000F012FC0048004794
:10010000A529000898270020064880470648004790
:10011000FEE7FEE7FEE7FEE7FEE7FEE7FEE7FEE7B7
:10012000FEE7FEE73D1D0008F5000008F0B480EA98
:100130000102D40F4200B2EB410F02D20246084640
:1001400011464A0042D0C30DDDB2C1F3C752AD1A09
:10015000202D35DAC1F3160141F4000204B15242F8
:10016000C5F1200602FA06F12A411044B3EBD05F34
:1001700023D0C4B1012DA0EBC35009DCF0BC4FF07B
:10018000004202EAC352DBB200F5000000F0EBBA15
:10019000400000F1807000EBC350A0F1807040EA95
:1001A000D170490009E0490841EAC071A0EBC35091
:1001B00000F50000400800EBC350F0BC00F0CABAE4
:1001C0006142012202EB4101001BF6E7F0BC7047DF
:1001D00081F00041AAE780F00040A7E780EA010231
:1001E00010B502F00043400022D04A001FD0010E9B
:1001F00001EB1261C0F35600C2F3560240F4000056
:1002000042F40002A0FB022000047F39140400D055
:10021000401C50EA124001D44000491EC2B20C06F4
:1002200004EBD010401C4008802A02D003E00020DC
:1002300010BD20F00100002900DA0020184310BD95
:1002400030B480EA010202F0004530F0004221F0B3
:10025000004013D090B1C30DD40DC2F31601C0F30A
:100260001600E41A41F4000140F400027D3491428A
:1002700001D3641C00E04900002C02DA30BC0020ED
:1002800070474FF400000023914201D3891A0343C1
:1002900040084FEA4101F7D151B1914202D14FF0EC
:1002A000004105E002D24FF0010101E06FF00101D1
:1002B00003EBC450284430BC00F04CBA2DE9FE4F8B
:1002C000804681EA0300C00F0C46009021F00041F7
:1002D00023F00045B8EB0200A94105D24046214673
:1002E00090461C460B46024623F00040104347D080
:1002F000270DC7F30A00C3F30A510290401A019078
:1003000040286BDAC3F3130040F4801B0098924638
:1003100020B10023D2EB030A63EB0B0B0198594683
:10032000C0F14002504600F0E4F906460D46504642
:100330005946019A00F0FCF910EB080061410024D5
:1003400087EA115284EAE7731A4340D0009A62B3F5
:10035000019A012A4FEA075215DC001B61EB0201EA
:100360004FF0004202EA0752CDE90042001C41F57D
:10037000801132462B4600F033FA03B0BDE8F08F0F
:1003800040462146F9E7001B61EB0201001C41F5E4
:10039000801300185B412018A2F5001747EB0301FA
:1003A00040EAD570B6196D4111E06D084FEA360686
:1003B00045EAC0754FEA0752001B61EB0201001CC1
:1003C00041F5801149084FEA300000195141324689
:1003D0002B4603B0BDE8F04F00F0F3B900980122BE
:1003E00040000023D0EB020263EBE073009821464B
:1003F0004FEAE074B8EB000061EB0401E9E783F039
:1004000000435BE781F0004158E72DE9FE4F81EAA8
:10041000030404F0004421F0004100944FF0000B6D
:1004200023F0004350EA01045ED052EA03045BD09B
:10043000C3F30A54C1F30A552C44A4F2F3340194D3
:10044000A0FB0254C1F3130141F48011C3F3130361
:1004500043F4801301FB024400FB034E840A970A15
:1004600044EA815447EA8357A4FB076802958D0A42
:1004700005FB07854FEA932C04FB0C542705029DCE
:100480004FEA065847EA1637B5EB08056EEB070C3E
:10049000870E920E47EA811742EA8312A7FB0201F8
:1004A000B6EB0B0164EB00042B0D43EA0C335E1832
:1004B00044EB1C50DA465146E7FB0201C5F3130436
:1004C0004FEA0B3343EA14534FEA0432019C43EAE8
:1004D0000603A4F10C040294009CCDE900B400F0E2
:1004E0007FF903B0BDE8F08F00200146F9E72DE960
:1004F000F04D81EA030404F0004B21F0004514465E
:100500004FF0000A23F0004150EA050220D054EADF
:1005100001021DD0C5F30A570246C5F31303C1F308
:100520001300C1F30A5640F4801543F48013A7EB7F
:100530000608101BD64608F2FD3873EB050002D3FF
:1005400008F1010801E092185B41B8F1000F03DAED
:1005500000200146BDE8F08D00204FF480110646D2
:1005600084460EE0171B73EB050705D3121B63EBE4
:10057000050306434CEA010C49084FEA3000921883
:100580005B4150EA0107EDD152EA030012D082EA42
:10059000040083EA0501084305D0101BAB4106D2D5
:1005A0000122002306E000224FF0004302E06FF03A
:1005B000010253101AEB06004CEB085110EB0A0035
:1005C00041EB0B01BDE8F04D00F0FBB8C10F80EA34
:1005D000E0700844CA079623002100F0C4B8F0B4C4
:1005E000CA17CB0F50405140C61841F100054FEAE1
:1005F000C372314628004FF0960303D0B623F0BCF7
:1006000000F0B1B830460021F9E70EB540F23341B1
:1006100002910021CDE900110A460B4600F0E0F8F6
:1006200003B000BD70B5C1F30A5201F000450024CB
:10063000C1F3130140F2FF3341F480119A4201DA11
:10064000002070BD40F233439A42A2F2334203DCF1
:10065000524200F05DF800E090402C43F1D040425F
:1006600070BDC1F30A5210B5C1F3130140F2FF335C
:1006700041F480119A4201DA002010BD40F2334368
:100680009A42A2F2334203DC524200F041F810BD1C
:10069000904010BD00F0004230F000400AD0C10D83
:1006A00001F56071C0F3160042EA0151C20840072B
:1006B0001143704700200146704701F0004330B4F9
:1006C00021F0004150EA010206D00A0DA2F5607245
:1006D000C1F31301002A02DC30BC00207047440F34
:1006E00044EAC104C100E01830BC00EBC25000F085
:1006F00031B8202A04DB203A00FA02F100207047CA
:100700009140C2F1200320FA03F31943904070474F
:10071000202A04DB203A21FA02F00021704721FA56
:1007200002F3D040C2F120029140084319467047BD
:10073000202A06DBCB17203A41FA02F043EAE073A5
:1007400006E041FA02F3D040C2F120029140084392
:10075000194670470029A8BF7047401C490008BFD0
:1007600020F00100704710B4B0FA80FC00FA0CF0E1
:1007700050EA010404BF10BC704749B1CCF1200419
:1007800021FA04F411FA0CF118BF012121430843A6
:10079000A3EB0C01CB1D4FEA00614FEA102042BFD2
:1007A000002010BC704700EBC35010440029A4BFC8
:1007B00010BC7047401C490008BF20F0010010BC6D
:1007C000704710B5141E73F1000408DA401C41F1A3
:1007D000000192185B411A4301D120F0010010BDC5
:1007E0002DE9F04D92469B4611B1B1FA81F202E03B
:1007F000B0FA80F220329046FFF77BFF04460F46A6
:1008000040EA0A0041EA0B0153465A46084313D016
:10081000114653EA010019D0C8F140025046FFF7D3
:1008200077FF05460E46504659464246FFF761FFA0
:10083000084305D0012004E020463946BDE8F08D8C
:100840000020054346EAE0762C4337430A986305C7
:10085000E40AA0EB08000022FD0A44EA47540A30EB
:1008600002D500200146E9E7010510196941DDE9DB
:10087000084500196941BDE8F04DA2E72DE9F04DAA
:1008800000231A461B1A8A4103DB00200146BDE8FB
:10089000F08DC1F30A52C1F3130141F480154FF0FA
:1008A000000BD10702D100186D41521E00270446EB
:1008B00040F2FF11384601EB620A3E46804602468E
:1008C00000204FF48011FFF723FFC2197141BB18BC
:1008D00046EB0100B4EB030C75EB000C04D3E41AF7
:1008E00065EB000517460E46241908F101006D411D
:1008F00080463428E3DDF91946EB0600091BA841C0
:1009000003D24FF0FF32134601E0002213461BEBE7
:10091000070046EB0A51BDE8F04DFFF752BF00005B
:10092000064C074D06E0E06840F0010394E807003C
:1009300098471034AC42F6D3FFF7E0FB5836000876
:100940007836000870B521F0004303430CD0C1F3A2
:100950000A550024D5EB040564EB0403D617AD1A41
:10096000B34102DB0020014670BD201841EB02516B
:1009700070BD0EB5C10F80EAE0700844CA070021BF
:1009800040F233438DE80E000A460B46FFF728FF7E
:1009900003B000BDFEE701F081BA7047244A234846
:1009A00024491061C2E90210A2F1C800244B01627F
:1009B00000215160204A82634162C0E91A31214B13
:1009C0001E4AC0E90F23204B4364204B0367204B92
:1009D0004367204B8364204BC364204B8367204BC9
:1009E000C367DFF884C01F4BC0E9143CDFF87CC04C
:1009F000C0F880C0DFF878C0C0F884C0DFF874C0E9
:100A0000C0F858C0DFF870C0C0F85CC0DFF86CC038
:100A1000C0F888C0DFF868C0C0F88CC0C0E91832E0
:100A20004FF07C52C0E9242170470000CCBC8C2BD5
:100A30001C0100200000964300B888470050C346C0
:100A40005C8F023F0040034600F0D24648E13A3F47
:100A500027A009BB0000F5430060EA451F852B3F36
:100A60003108ACBC00007A470000FA468FC2F53E60
:100A70006891EDBC00A00C4700E02B470AD7233F4C
:100A8000F4FD54BC7047000070B5044600F012F944
:100A90000546B4F1FF3F02D004484068044400F02A
:100AA00009F9401BA042FAD370BD000040000020AD
:100AB0000B680022002B08BF70472DE9F84FDFF8C4
:100AC000DC91DFF8D4814FF0010E0F2709F1040A01
:100AD0000B680EFA02F52B407DD0D1F804C0BCF1B2
:100AE000020F18BFBCF1120F14D14FEAD20C00EB69
:100AF0008C04266A4FEA427C4FEADC6C07FA0CFB56
:100B000026EA0B06D1F810B00BFA0CFC4CEA060CE6
:100B1000C4F820C006684FEA420C91F804B04FF0C8
:100B2000030404FA0CF40BF0030B26EA04060BFA98
:100B30000CFB4BEA060606604E68012E18BF022E1B
:100B400003D0112E18BF122E14D18668D1F80CB024
:100B500026EA04060BFA0CFB4BEA0606866046689A
:100B600026EA05050E79C6F3001606FA02F646EAED
:100B700005054560C56825EA04048D6805FA0CFC86
:100B80004CEA040CC0F80CC0D1F804C01CF0805F23
:100B90007BD0D8F800C04CF0010CC8F800C0D8F8E1
:100BA00000C00CF0010CCDF800C022F0030C0CF1D9
:100BB000804505F58035D5F808C04FEA82744FEAC4
:100BC000147407FA04F62CEA0606A0F1804CBCF572
:100BD000003C22D000E058E0A0F1804CBCF5013C84
:100BE00008BF4FF0010C18D0A0F1804CBCF5023CBE
:100BF00008BF4FF0020C10D0A0F1804CBCF5033CB4
:100C000008BF4FF0030C08D0A0F1804CBCF5043CA9
:100C10000CBF4FF0040C4FF0050C0CFA04FC4CEA2E
:100C2000060CC5F808C0D9F800C04C682CEA030CC3
:100C300014F4803F18BF4CEA030CC9F800C0DAF87E
:100C400000C04C682CEA030C14F4003F18BF4CEAB7
:100C5000030CCAF800C0124CD4F800C04D682CEA4E
:100C6000030C15F4801F18BF4CEA030CC4F800C035
:100C70000C4CD4F800C04D682CEA030C15F4001F8E
:100C800018BF4CEA030CC4F800C00B68521CD340D8
:100C90007FF41EAFBDE8F88F203802400004014009
:100CA000080401400C040140002A08BF09048161C6
:100CB0007047000001488068704700004000002035
:100CC000002804BF0120704770B5044690F83D002D
:100CD000002520B984F83C50204600F0BBF82420C1
:100CE00084F83D002068016821F00101016000F0F6
:100CF0009FF9544B6168994203D85349814203D804
:100D000004E05249814201D9012070BD5049226856
:100D1000B0FBF1F1D2F804C02CF03F0C4CEA010C0E
:100D2000C2F804C06268934228BF4A1C07D24FF43D
:100D3000967251434FF47A72B1FBF2F14A1C21686A
:100D4000D1F820C02CF03F0C42EA0C020A62616824
:100D50008B420FD34900401EB0FBF1F2521CC2F38C
:100D60000B02042A31BF0420B0FBF1F0401CC0F399
:100D70000B0022E0A268002A52D001EBC10303EB72
:100D80000113A0F1010CBCFBF3F35B1C43F48043A3
:100D90001B051B0D08BF01200FD0002A48D001EB16
:100DA000C10202EB0111401EB0FBF1F0401CC0F388
:100DB0000B0040F4804040F400402168CA6922F0F2
:100DC000FF0222F44F421043C861D4E907010143F6
:100DD0002068026822F0C00211430160D4E90310C8
:100DE00001432068826822F0FF0222F4034211438B
:100DF0008160D4E9050101432068C26822F0FF0246
:100E00001143C1602068016841F00101016025645F
:100E1000202084F83D00256384F83E50002070BDFA
:100E200001EB4103A0F1010CBCFBF3F35B1CAFE74A
:100E300001EB4101401EB0FBF1F0401CC0F30B0080
:100E4000B9E70000A086010080841E0000093D0073
:100E500040420F0000B587B000210091019102913E
:100E6000039104910068A0F18041B1F5A8411CBF35
:100E700007B000BD1148016841F00201016000683F
:100E8000694600F0020005904FF440700090122077
:100E90000190012002900320039004200490084850
:100EA000FFF706FE0748016841F400110160006881
:100EB00000F40010059007B000BD00001C3802408F
:100EC000000402402438024002488168426811440C
:100ED000816070474000002010B50024032000F01E
:100EE00095F8022000F008F8002814BF012400F053
:100EF00025F8204610BD000070B50E4E05460024B2
:100F0000706898B14FF47A71B1FBF0F00A49096842
:100F1000B1FBF0F000F09CF840B9102D06D2002291
:100F20002946501E00F040F8356000E001242046BC
:100F300070BD0000400000204C0000200F4882B02F
:100F4000016841F000410160016801F00041009139
:100F5000011F0A6842F001020A60096801F00101FC
:100F60000091016841F080510160006800F08050FC
:100F70000090052002B000F049B80000243802407B
:100F80000028B8BF704700F01F01012202FA01F1EA
:100F90004009800000F1E020C0F88011BFF34F8FBE
:100FA000BFF36F8F70470000174B10B41B68C3F37B
:100FB0000223C3F1070CBCF1040F88BF4FF0040CEF
:100FC0001C1D072C34BF0023DB1E012404FA0CFC7B
:100FD000ACF1010C0CEA0101994004FA03F35B1E29
:100FE0001A40114300284FEA0111A1BF00F1E0208F
:100FF00080F8001410BC704700F00F0000F1E020F2
:1010000080F8141D10BC70470CED00E0074A00F09A
:10101000070011684FF6FF03194041EA002040F035
:10102000FD7040F080601060704700000CED00E043
:101030000448054900680968044AC1F30221515C6B
:10104000C84070474C000020083802402C3500088A
:10105000401EB0F1807F24BF012070474FF0E02197
:101060004861054AF02082F8140D002088610720AD
:1010700008610020704700000FE000E0FEE700007C
:101080002DE9F05FAF4C0546FE2084F82C00AE48F9
:10109000016821F001010160AC48016821F0010103
:1010A0000160AB48016821F001010160A9480168B5
:1010B00021F001010160A849886820F001008860E2
:1010C0008A6812F0010FFBD1C86920F00100C861E5
:1010D000A149C96911F0010FFAD1A04E306B20F07F
:1010E000F87040F4801030634FF4E06797FAA7F18E
:1010F0003015B1FA81F1C84006EB80000022016B87
:1011000021F01F0101634FF08061304600F0DCF9EF
:1011100097FAA7F23015B2FA82F2D04006EB8000BF
:101120008F49026B22F4787242F02002026300229F
:10113000304600F0C9F9DFF82CB2DFF82CA205EB3D
:1011400045000AEBC0007F498BF8005042698A6273
:1011500000890024002837DD9BF8000000EB4000E8
:101160000AEBC009B9F80800FFF74FFA07468846AE
:101170002046FFF72BFAFFF78DFA05460E4699F841
:101180000A00FFF742FA794A794BFFF73EF92A46FF
:101190003346FFF73AF93A464346FFF7A8F902F01B
:1011A00077F80022734BFFF730F9FFF73BFA7249EB
:1011B00021F814009BF80000641C00EB40000AEBCF
:1011C000C0000089A042C7DC9BF80010002001EBA2
:1011D00041010AEBC1031989B0EB910FB8BF664A10
:1011E00008DA32F810C00C18401C22F814C0B0EB1A
:1011F000910FF6DB188A0024604F0028C4BFDFF887
:101200006C91DFF86C812FDD9BF8000000EB400053
:101210000AEBC000008AFFF7F8F905460E462046A3
:10122000FFF7D4F9FFF736FA4A464346FFF7EDF8E1
:101230002A463346FFF75BF902F02AF80022504BAA
:10124000FFF7E3F800224F4BFFF738F8FFF709FAF2
:1012500027F814009BF80000641C00EB40000AEB28
:10126000C000008AA042CFDC9BF80000DFF818C164
:1012700000EB40020AEBC201444BC868BCFBF0F033
:10128000401E1860324B186841F204042043186075
:1012900031483F4C446287620C8A046210244460E7
:1012A000C46944F00104C4611C6844F001041C607A
:1012B0005AF83220244BBCFBF2F2521EDA62254A65
:1012C000D2F800C04CF4807CC2F800C0D2F800C054
:1012D0004CF0010CC2F800C0DFF8B8C0C0F810C074
:1012E000DFF8B4C0C0F814C0B1F808C04FEA4C0C25
:1012F000C0F80CC0D0F808C04CF0060CC0F808C00C
:101300004FF0010CC0F804C0D0F808C04CF0010C3C
:10131000C0F808C0106840F0804010601F4A0020EC
:10132000106058620948026842F0010202601868C1
:1013300040F001001860C87A0249801D81F82C0035
:10134000BDE8F09FEC0000200010004000140040B9
:101350000074004008240140006002400024014065
:1013600001003004000000207C340008F1D4C85390
:10137000FB21194000FEDF40D0100020941A00200D
:10138000004CDD40C0FFDF400048E8012C14004065
:101390000C74004058240140300100202414004007
:1013A000084B00229B6813F0010F18BF012201D0E7
:1013B000104670470968436823F44033194341607D
:1013C000F6E700000024014010B48368002213F007
:1013D000010F18BF012202D010BC10467047D1F88F
:1013E0000CC00B6843EA0C03D0F804C00B4C0CEAA9
:1013F000040C8C6804F440344CEA040C43EA0C03FB
:101400004360836891F808C023F407630CF0700C04
:10141000496843EA0C0319438160DDE7FFFEFCFCE9
:1014200010B44A68D0F808C000231CF0010F18BFA0
:10143000012302D010BC18467047002A04BF42683E
:1014400022F4684209D0D1F808C042EA0C02D0F870
:1014500004C02CF4684C42EA0C024260D1E9032C2F
:1014600042EA0C02D0F808C0084C0CEA040C0C68E4
:1014700004F070644CEA040C42EA0C028260496891
:10148000026B22F0F87211430163D3E7FDFCFFC049
:101490004FF4E06C01F4E0639CFAACFCBCFA8CFC09
:1014A00023FA0CF300EB830001F01F014FF01F0C37
:1014B0000CFA01FC036B02F01F0223EA0C0302FA90
:1014C00001F11943016370474FF0C06C01F0C06334
:1014D0009CFAACFCBCFA8CFC30B423FA0CF300EBA5
:1014E00083004FF0F87393FAA3F401F0F871B4FAA3
:1014F00084F421FA04F4072505FA04F493FAA3F31B
:10150000D0F80CC0B3FA83F3D9402CEA040C02FAE9
:1015100001F14CEA0101C16030BC70474FF0C06C72
:1015200001F0C0639CFAACFCBCFA8CFC30B423FA2A
:101530000CF300EB83004FF0F87393FAA3F401F07F
:10154000F871B4FA84F421FA04F4072505FA04F4D6
:1015500093FAA3F3D0F80CC0B3FA83F3D9402CEA82
:10156000040C02FA01F14CEA0101C16030BC704781
:1015700030B401F010010124536805684FF0000CED
:101580008C40AC4308BF4FF0010C1BD07BB11468FA
:101590002343D2E9024222431A4303688A4040F6B9
:1015A000FA7404FA01F123EA0101114309E0036826
:1015B000FA248C40A3431468D268224302FA01F152
:1015C0001943016030BC604670472DE9F0010A689C
:1015D00092FAA2F3B3FA83F3DA407ED00126032510
:1015E0000F240A6806FA03FC12EA0C0274D0D1F840
:1015F00004C0076892FAA2F8B8FA88F84FEA4808D7
:1016000005FA08F827EA080792FAA2F8B8FA88F863
:101610004FEA48080CFA08FC47EA0C0CC0F800C076
:10162000D1F804C0BCF1010F18BFBCF1020F18D1F2
:10163000D1F808C0876892FAA2F8B8FA88F84FEA99
:10164000480805FA08F827EA080792FAA2F8B8FA53
:1016500088F84FEA48080CFA08FC47EA0C0CC0F876
:1016600008C0D1F810C0C76892FAA2F8B8FA88F892
:101670004FEA480805FA08F827EA080792FAA2F89C
:10168000B8FA88F84FEA48080CFA08FC47EA0C0C4C
:10169000C0F80CC0D1F804C0BCF1020F33D192FAEB
:1016A000A2FCBCFA8CFCBCF1080FD1F814C015D216
:1016B000076A92FAA2F8B8FA88F84FEA880804FA9A
:1016C00008F892FAA2F2B2FA82F2920027EA080728
:1016D0000CFA02F23A43026215E019E0476A120A74
:1016E00092FAA2F8B8FA88F84FEA880804FA08F8DB
:1016F00092FAA2F2B2FA82F2920027EA08070CFAF2
:1017000002F23A4342620A685B1CDA407FF469AF36
:101710004A68012A18BF022A09D10A68C9684368C1
:1017200002FB01F123EA020343EA01014160BDE843
:10173000F0014FF00000704710B5044600F056FA73
:101740000E4B206019680E4A01F0F0010909515C46
:10175000C8406060196801F4E0620A4901EB122296
:10176000127820FA02F2A2601A6802F4605201EBC9
:10177000D2210978C840E06010BD0000083802405E
:101780001C3500082C35000801490860704700002E
:101790004C00002010B40268DFF864C0194BB0F1AF
:1017A000804F1CBF6045984207D14C6822F0700200
:1017B00042EA0402B0F1804F11D0604518BF984250
:1017C0000DD0A0F18043B3F584331FBFA0F1804357
:1017D000B3F58633A0F18043B3F5883303D1CB68EA
:1017E00022F440721A4302608A68C26209888162E8
:1017F000416941F00101416110BC002070470000C7
:1018000000040040000800402DE9F0410446C06893
:1018100084B00D460126C0F34030002870D1E9683D
:101820006868AA690843296911430843E16821F4FB
:10183000037121F414410843E060A868216921F490
:101840004051084320616869616921F4407108438F
:1018500060616846FFF770FFA4F18040B0F59C30EE
:1018600008BF03980AD0A4F18040B0F588401ABFA1
:10187000A4F18040B0F59040029841D100281CBFEF
:101880002A68002A3CD0A969384BB1F5004F00EB1B
:10189000C0014FF000064FF0320C01EB001133D0C5
:1018A0009000B1FBF0F2A3FB0272B1FBF0F552091C
:1018B0006FF018077A4305EB82020CEB0212A3FBD0
:1018C0000252520902F0F005B1FBF0F2A3FB0272E2
:1018D000520905EB0212B1FBF0F5B1FBF0F0A3FBEE
:1018E000001040096FF01801484305EB80000CEB35
:1018F0000010A3FB0010C0F34310104480B2A0609E
:1019000004B03046BDE8F0815000B1FBF0F2A3FB1B
:10191000025252091501B1FBF0F2A3FB0282B1FBA6
:10192000F0F752096FF0180802FB08F207EB820289
:101930000CEBC202A3FB0272520902F0F80205EBA3
:101940004202B1FBF0F5B1FBF0F0A3FB001040093F
:1019500000FB08F005EB80000CEBC000A3FB0010BF
:10196000C0F34210104480B2A060C9E71F85EB515C
:10197000F0B593B0002405940F94109411948B4803
:101980000E94009401940294039404940A940B948A
:101990000C940D94016841F400710160006800F43A
:1019A000007006908248016841F001010160016801
:1019B00001F001010691016841F002010160006837
:1019C0000126032500F002007A4FCDE90865069054
:1019D00008A93846FFF7F9FD0220CDE9080508A956
:1019E0000C943846FFF7F1FD0420CDE9080508A95D
:1019F0000C943846FFF7E9FD0820CDE9080508A951
:101A00000C943846FFF7E1FD2021CDE908150C9430
:101A100008A93846FFF7D9FD4020CDE9080508A9F7
:101A20000C943846FFF7D1FD8021CDE908150C94C0
:101A300008A93846FFF7C9FDCDE9086508A95E4841
:101A40000C94FFF7C2FD5E4A5C49501C12788A581C
:101A500010F8013C22F0100222F48042CA5010F823
:101A6000012C8A5810F8013C22F4405242F4805272
:101A7000CA5010F8012C8A5810F8013C42F020029C
:101A8000CA5010F8012C8A5810F8013C22F040028C
:101A9000CA5010F8012C8A5810F8013C42F080021C
:101AA000CA5010F8012C8A5810F8013C22F44072F8
:101AB00042F48072CA5010F8012C8A5810F8010CB8
:101AC00022F4406242F480620A503004059005A975
:101AD0003C48FFF765FC3002CDE910403A4D0E94CA
:101AE0000EA90F942846FFF76FFC4FF0D0500090DE
:101AF0004FF4A000CDE901044FF44070CDE903405C
:101B000069462846FFF78CFCA86820F48060A8602E
:101B1000A86840F08050A8602C4C29152246284621
:101B2000FFF7B6FC032221462846FFF7F7FC284CB6
:101B300040F2054122462846FFF7AAFC032221462F
:101B40002846FFF7EBFC234C40F20A412246284688
:101B5000FFF79EFC032221462846FFF7DFFC1E4CC0
:101B600040F20F4122462846FFF792FC032221460D
:101B70002846FFF7D3FC194C40F214412246284670
:101B8000FFF786FC032221462846FFF7C7FC144CCA
:101B900040F2194122462846FFF77AFC03222146EB
:101BA0002846FFF7BBFC13B0F0BD00002038024010
:101BB0001C38024000000240000402400060024065
:101BC0000C35000800270140002401400200600499
:101BD000030090040500F0040600200507005005EE
:101BE00008008005FEE77047704700001D4A30B4CA
:101BF0001068A2F1040410F00C014FF0010C4FF436
:101C000000450CD01848042904BF30BC7047174B5E
:101C1000082902BF184630BC70470C2908D020683C
:101C200000F460400CEB503005FA00F030BC704717
:101C3000116811F4803103D0B1F5803F08BF184618
:101C400011680B4B01F4701103EB9141097841438A
:101C5000106830BC00F440000CEB9050B1FBF0F089
:101C600070470000083802400024F40000366E017E
:101C700013350008704710B500F0BAFD00F07CFE87
:101C8000BDE81040FFF720B9274810B5016841F0C2
:101C900004010160016841F001010160006823480E
:101CA000016821F4C05141F40061016020490868D5
:101CB00040F0010008600868C0F340000028FAD036
:101CC0001C48026822F4F85242F480520260001D5F
:101CD000026822F47D0242F4880202600A6842F03F
:101CE00080720A600A68C2F34062002AFAD0016872
:101CF00021F0F0010160016821F4E06101600168F8
:101D000021F460510160016841F003010160016844
:101D100001F00C010C29FAD10748FFF735FDBDE8A9
:101D200010400220FFF7E8B8003C0240007000407D
:101D300000380240043802400048E8010E480168BB
:101D400041F4807101600D490A680D4B1A400A6028
:101D500002680C4B1A400260026822F48022026082
:101D6000086820F47D0008600020091D086006490D
:101D70004FF00060086070470038024008380240A9
:101D80000CC0FF88FEFFFEEE08ED00E038B52D4CDC
:101D900020682D4DC0F34010C8B1E068C0F340107A
:101DA000A8B12068C0F3400088B9626827498878E4
:101DB00000F03F000844027148880022401C48801F
:101DC000A1152846FEF770FF21496420088020688D
:101DD000C0F3C010B0B1E068C0F3C01090B11D48AE
:101DE00082780188521A12F03F0F07D001F03F02AB
:101DF0000244491C12790180626003E0E06820F02F
:101E00008000E0602068C0F3801048B1E068C0F353
:101E1000801028B14FF08050A8616FF04000206022
:101E200020680090606800902068009060680090D2
:101E300020680090606800902068009060680090C2
:101E400038BD000000380140000002409C24002002
:101E50002E00002058240020FEE7000010B572B6C6
:101E60000C20FFF78DF80A48016841F0807101608D
:101E70000848016841F00101016000214160FEF75E
:101E80008DFD62B6FF20044981F82C0010BD0000D2
:101E9000FCED00E0001000E0EC0000202DE9F04730
:101EA000DFF850C1DCF80000534C10F0040F544E22
:101EB000207800EB4001514800EBC100C37A018952
:101EC0000FD096F82C00984208D10020C4E90200F7
:101ED000C4E90400C4E90600C4E9080000200A4679
:101EE00004E008464FF6FF7202EA40020125CCF8F2
:101EF000045096F82CC09C4598BF90423CBFDFF838
:101F000004A10AF57A6C41D220F001033AF810508E
:101F10003CF90330D4E906896B43DF17B8EB0303C0
:101F200069EB0707C4E90637430803EB9103D4E9DB
:101F300008783CF913306B43DD17DB1945EB0805D6
:101F4000C4E90835401C80B220F001033AF8105073
:101F50003CF90330D4E902896B43DF17B8EB030384
:101F600069EB0707C4E90237430803EB9103D4E99F
:101F700004783CF913306B43DD17DB1945EB08059A
:101F8000401CC4E9043580B29042BDD3B2EB410F8E
:101F900018BFBDE8F08796F82C00401E86F82C008C
:101FA00096F82C00002818BFBDE8F087D4E9080196
:101FB000FEF715FB144DA860D4E90601FEF70FFBF0
:101FC000E860D4E90401FEF70AFB2861D4E90201C4
:101FD000FEF705FB6861FD2086F82C000B480168C0
:101FE00021F0010101600A48016821F0010101604E
:101FF000BDE8F08700600240000000207C3400084B
:10200000EC000020300100205400002000100040AF
:1020100000140040490050EAC12018BF04204A0DB6
:1020200018BF40F0010040F2FF72B2EB515F08BFF1
:1020300040F00200012808BF052070472DE9F74F46
:10204000144694B00021C4E902111599079121F0BA
:102050000045C9498D4206DC1599C4E9000117B055
:102060000020BDE8F08FC549DFF814A3A9423CDD8C
:102070000799C44E0029C44FC44A1599534619DD27
:10208000FEF7BDF9554506D0C14AC24BFEF7B7F978
:10209000C4E900010AE04FF0D352BE4BFEF7AFF99E
:1020A00032463B46FEF7ABF9C4E9000117B0012008
:1020B000BDE8F08FFEF702F9554506D0B44AB54B9E
:1020C000FEF7FCF8C4E900010AE04FF0D352B14B2F
:1020D000FEF7F4F832463B46FEF7F0F8C4E900019B
:1020E00017B04FF0FF30BDE8F08FAB49A94215990A
:1020F00078DB21F0004183468846A84AA84BFEF7CA
:1021000084F90022A74BFEF7D9F8FEF78BFA099065
:10211000FEF72FFC06460F469C4A5346FEF775F91C
:1021200043465A46FEF76EF980468A46984A994BCE
:1021300030463946FEF769F92A0D01250B924246D1
:102140005346FEF75FF9032DC4E9000139D00B981F
:10215000C1F30A51401A05EB45111139814230DAB9
:102160009148C346784400EB0510CDF80CA00C90C4
:10217000D0E9002330463946FEF747F902460B46C0
:102180000491069058460399FEF739F980468A462D
:1021900002460B4658460399FEF731F9049B069A0E
:1021A000FEF72DF983460C9803913946D0E90223B6
:1021B0003046FEF72AF95A46039BFEF720F96D1CBC
:1021C000BDE707980028A2BF099817B0BDE8F08FB7
:1021D000616881F000416160099817B04042BDE834
:1021E000F08FFFE784461598C1F31301C0F30A503E
:1021F000A0F2F5304FEA601800F01F06C6F120008B
:10220000139000200690079041F4801E05206D4633
:1022100076B1664A08EB00017A4452F8213002EBAD
:102220008101B3404A68139922FA01F1194305E08C
:102230005F4908EB0002794451F82210A1FB0E27F8
:10224000A1FB0C131A449A4234BF0123002303EB71
:10225000070A05EB8003D3E901B70F448F4234BF6F
:102260000121002193448B4411B1934502D903E02D
:10227000934501D2012100E00021C3E901B7514497
:1022800045F82010011EA0F10100C1DC0298059F55
:1022900000F10050800F12900298DDE90356800093
:1022A000FEF767FB834628460D91FEF7AEF96FF007
:1022B0001D02FEF747FBCDE90E013046FEF7A5F9FA
:1022C0006FF03D02FEF73EFB80468A463846FEF739
:1022D0009CF96FF05D02FEF735FB07464246534618
:1022E0001191FDF7EBFFDDE90E23FDF7E7FF5A46FD
:1022F0000D9BFDF7E3FF00250E465A4628460D9B31
:10230000FEF77DF8DDE90E23FEF779F842465346E5
:10231000FEF775F83A46119BFEF774F8DFF898A0BF
:10232000244A5346FEF771F807468846234A244B51
:1023300031462846FEF769F83A464346FDF7BEFFA8
:10234000074688464FF0A842534631462846FEF7D6
:102350005CF83A464346FDF7B1FF159A12F0004F7C
:1023600004D0129A81F0004152421292C4E9000155
:10237000129817B0BDE8F08FFB21E93F7CD90240ED
:10238000FB21F93F7370032E8A19A33B00004054D0
:102390003163621A61B4D03DFB21394183C8C96DF4
:1023A000305FE43F0000E03F001400007C130000B9
:1023B0005E130000182D4454FB21F93D3326A6116D
:1023C000460B113C2DE9FF4D21F0004807460C4615
:1023D000B8F1795F08DAFEF725F9002801BF00207F
:1023E000324904B0BDE8F08D3A46234610461946FE
:1023F000FEF70BF8054602462D480E460B46062111
:10240000784400F05DF82A463346FDF7FEFFDDE92B
:10241000022382468B4638462146FDF7F6FF0446E6
:102420000F4652465B4628463146FDF7EEFF2246F0
:102430003B46FDF7E4FF07468A464FF0FF32284649
:102440003146FEF77FFA1B4A90450ADA3A46534670
:10245000FDF7D5FF04B00022BDE8F04D134BFDF7AA
:10246000D1BF154A4245A8BFA8F500154FF000049A
:10247000B8BF124D22462B46FDF7C1FF06468846DF
:1024800022462B4600200949FDF7B9FF04460D46B8
:102490003A46534630464146FDF7B1FF04B0224666
:1024A0002B46BDE8F04DFDF7ADBF00000000F03F4A
:1024B000341100003333D33F0000E93F0000D23F26
:1024C0002DE9F0414F1E00EBC7010446D1E90001A0
:1024D00015461E4637F006020DD02A463346FDF754
:1024E00094FF7F1E04EBC703D3E90023FDF7E6FE4C
:1024F00037F00602F1D1022F25D0042F13D0062F7A
:1025000018BFBDE8F0812A463346FDF77EFFD4E9C7
:102510000A23FDF7D3FE2A463346FDF776FFD4E9BA
:102520000823FDF7CBFE2A463346FDF76EFFD4E9BC
:102530000623FDF7C3FE2A463346FDF766FFD4E9BE
:102540000423FDF7BBFE2A463346FDF75EFFD4E9C0
:102550000223FDF7B3FE2A463346FDF756FFD4E9C2
:102560000023BDE8F041FDF7A9BE00002DE9FF4DB5
:10257000054621F0004084B00C46B0F1795F0BDADB
:102580002846FFF747FD042808BF00F06FF82846EB
:1025900008B02146BDE8F08D2A460B461046FDF7EF
:1025A00034FF06460F462A462346FDF72EFF804697
:1025B00026488A4632463B4605217844FFF780FF8D
:1025C00083461098029160B3214A224B40465146FF
:1025D000FDF71BFFCDE900015A4640465146029BDC
:1025E000FDF713FF82468846DDE906014FF0FF3212
:1025F000FEF7A8F952464346FDF701FF32463B4637
:10260000FDF703FFDDE90623FDF7F9FEDDE9002311
:10261000FDF7F5FE08B02A462346BDE8F04DFDF76C
:10262000F1BE0B465A4630463946FDF7EEFE084AE3
:10263000084BFDF743FE42465346FDF7E6FE08B061
:102640002A462346BDE8F04DFDF738BE7210000063
:10265000495555555555C5BF0122FEF773B900229E
:10266000134610461146FDF742BF0000024A002003
:102670001107FEF767B9000001FDFFFF02E008C87F
:10268000121F08C1002AFAD170477047002001E0EC
:1026900001C1121F002AFBD17047000001490860E8
:1026A00070470000500000200348002164220170A0
:1026B00081808260417070473000002070B5044610
:1026C00016460D46AB2000F08DFECD2000F08AFEB0
:1026D00044F0800000F086FE304600F083FE084C97
:1026E0000020002EE08098BF70BD80B2285C00F012
:1026F00079FEE088401C80B2E0808642F5D870BD4B
:102700003000002070B5084D06460024305D285585
:102710000028E0B202D000F051FD01E000F072FDAF
:10272000641C062CF2DB70BD280000202DE9F04768
:102730004E680D46044631460846FDF74FFD2F68AA
:10274000804639463846FDF749FD4146FDF7EEFC27
:10275000D4F80490804631464846FDF73FFDD4F852
:1027600000A0054639465046FDF738FD2946FDF7DD
:10277000DDFC4146FDF764FD054631465046FDF758
:102780002DFD064639464846FDF728FD3146FDF742
:102790001FFD4146FDF754FDC4E90050BDE8F08738
:1027A0002DE9F0474E6847680D46044631463846E5
:1027B000FDF714FDD5F80090D4F800808246494614
:1027C0004046FDF70BFD5146FDF702FD0546494623
:1027D0003846FDF703FD074631464046FDF7FEFC4F
:1027E0003946FDF7A3FCC4E90050BDE8F0870000BE
:1027F00005498868642828BF7047401C88606428A1
:1028000004BF012048707047300000202DE9F041DE
:10281000544C0026607800281CBF6670FFF744FF08
:1028200000F0ACFD0125504F00282FD000F0B0FD86
:102830006670A6602178052928D2DFE801F0030739
:1028400010131F00AB2808BF25701FE0CD2808BF5C
:10285000022001D1207019E0FFF726FF16E0E0709A
:102860000320F7E7E06028B130289CBF04202070E7
:102870000CD9F1E7A570FFF717FF07E0A18878549E
:10288000481C80B2A080E1688842F3D0A07800287C
:1028900008BFBDE8F0813046A670E178DFF8CC8053
:1028A00005294AD2DFE801F0030D5B353F0088F8C7
:1028B000000088F80150BDE8F04102222B49FFF7E3
:1028C000FDBE38782A4D88F80000012210212846E4
:1028D000FEF7EAF9387800F0C1FB40F2DA21A8F8F7
:1028E0000500884238BF234803D37978387800F050
:1028F00071FAC8F80100002210212846FEF7D4F929
:1029000000F08AFDE078BDE8F04107221749FFF7A3
:10291000D5BE154800F088FDE078BDE8F041002202
:102920001249FFF7CBBE1048FFF7ECFEE078BDE898
:10293000F04100220D49FFF7C1BEEE2088F80000EB
:1029400088F8010088F8020088F8030088F804007D
:10295000BDE8F04105220549FF20FFF7AFBEBDE805
:10296000F081000030000020E0240020102500202D
:1029700000040240000080BF07490888002808BF03
:102980007047401E0004000C088018BF70470122E9
:1029900011020248FEF788B92E0000200000024014
:1029A00000F002BD92B0FEF797FAFFF76DF9002430
:1029B000F34D00940194029403940494286840F029
:1029C00004002860286800F004000590286840F0A2
:1029D00020002860286800F020000590286840F05A
:1029E00001002860286800F001000590286840F088
:1029F000020028602868E34F00F0020005900022E2
:102A00004FF440413846FEF74FF9DFF87C8300224F
:102A100003214046FEF748F9DFF870A300224FF685
:102A20003E415046FEF740F9DFF864B300224FF410
:102A30001F415846FEF738F94FF40050CDE9000425
:102A4000694638460294FEF733F84FF44040009050
:102A50000126CDE90164694638460394FEF728F85B
:102A600003270097CDE90164694640460394FEF7C9
:102A70001FF84FF63E400090CDE90164694650468C
:102A80000394FEF715F84FF41F400090CDE9016460
:102A9000694658460394FEF70BF8286840F08070AA
:102AA00028602868DFF8EC9200F080700090D9F878
:102AB0000000C0F30220C0F10701042988BF0421EF
:102AC000021D072A34BF0020C01E06FA01F1491E6C
:102AD00001F0010101FA00F0AF49000181F80004A2
:102AE0004FF0E0214FF40060C1F80001D9F8000078
:102AF000C0F30220021D072A34BF0020C01E04FAC2
:102B000000F0A64A000182F800044FF48050C1F89A
:102B10000001FEF72DFFDFF88882019402940394F0
:102B200000940694079408940994D8F8000040F0A3
:102B30000050C8F80000D8F8000000F000500A90DB
:102B4000286840F0010028602868102600F0010085
:102B50000A9004A95846CDE90467FEF736FD924A6B
:102B60009049901C52788A5810F8013C22F01002CB
:102B700022F4804242F01002CA5010F8012C8A5808
:102B800010F8013C22F4405242F48052CA5010F82E
:102B9000012C8A5810F8013C42F02002CA5010F86B
:102BA000012C8A5810F8013C22F04002CA5010F85B
:102BB000012C8A5810F8013C42F08002CA5010F8EB
:102BC000012C8A5810F8013C22F4407242F48072C1
:102BD000CA5010F8012C8A5810F8010C22F44062F7
:102BE00042F480620A50CDE900646A466F49704839
:102BF0000394FEF7BDFC70486E4901606F49C0E95F
:102C00000114B102C0E9034144618461C4610462FA
:102C1000FEF756F8009401940394D8F8000040F0B1
:102C20002000C8F80000D8F80000654E00F0200031
:102C300004904FF6FF7BADF8004069463046CDF872
:102C400008B0FEF7A7FD306820F0800030607068A3
:102C500020F0700040F020007060B06820F080002C
:102C6000B0600A940B940C940D94A8F104000E9497
:102C70000F94109407940894016841F48041016016
:102C8000006800F480400090286840F0020028604E
:102C90002868072600F002000090402002250996CF
:102CA000CDE9040504A906975046FEF78EFC802066
:102CB000CDE90405CDE90674CDE9084604A95046DE
:102CC000FEF783FCD9F80000C0F30220011D07299C
:102CD00034BF0020C01E04FA00F03A49000181F818
:102CE000000439492020C1F800014FF4E130CDE95A
:102CF0000A040C200C94CDE90D40344D0F940AA920
:102D000028461094FEF780FD686920F480606861B1
:102D1000286920F490402861686920F02A006861E1
:102D2000E86840F40050E860009401940394D8F8F7
:102D3000000040F01000C8F80000D8F80000ADF81E
:102D4000004000F01000224C049069462046CDF867
:102D500008B0FEF71FFD206820F08000206060684A
:102D600020F0700040F020006060A06820F080003B
:102D7000A060FFF773F8FFF713FEFFF747FDFCE7CE
:102D80001C380240000802400014024000040240C7
:102D9000000002400CED00E00BE000E00CE000E081
:102DA00024380240006002400C3500080100100287
:102DB000007400400054004044250020A08601001B
:102DC0000014004025E000E004E000E0003801408D
:102DD000001000402DE9F05F0C46054600F012FAA5
:102DE0000120FDF751FE9148062D17D2DFE805F0CE
:102DF0000305090C0F12042101E04FF40061816109
:102E00000CE04FF40051FAE74FF40041F7E70120DE
:102E1000874902E087494FF4804088610A20FDF726
:102E200033FE2046FEF72CF9834C94F82C00FD2845
:102E3000FBD18248405D00281CBF284600F0BEF947
:102E40000120FDF721FE284600F0FEF97C4F07F136
:102E5000080807F1100607F118053969B868FDF789
:102E6000B7F928607168D8F80400FDF7B1F9686017
:102E7000D7E90401C7E9000129463846FFF756FCA7
:102E800007F120013846FFF78BFCDFF8B8812036C8
:102E900098F8000007EBC005D5E90E01C7E90A0163
:102EA000A96E3868FDF794F93060E96E7868FDF72F
:102EB0008FF97060314607F12800FFF771FC98F830
:102EC0000000396807EBC00505F13809A86BFDF76C
:102ED0007FF930607968D9F80400FDF779F97060FE
:102EE000B046A96E386BFDF721F93060E96ED8F86D
:102EF0000400FDF71BF97060314607F12800FFF769
:102F000015FCD7E90A8AC7E9008AC4F80080A06ADC
:102F1000FDF7C0FB05460E465046FDF7BBFB8B4652
:102F20008146494A494BFDF7E2FA2A463346FDF706
:102F3000DEFAFDF7C2FBA0604D465E46A06AFDF7D3
:102F4000A9FB02460B4642484249FDF7D0FA2A4601
:102F50003346FDF7CCFAFDF7B0FB606051464046C2
:102F6000FDF76EF9E061E06910F1FF4F03D3E0690E
:102F700080F00040E06151460846FDF72FF9054614
:102F800041460846FDF72AF92946FDF7CFF8FDF737
:102F900081FB00F0CDF9FDF790FBA0617869014657
:102FA000FDF71CF9054638690146FDF717F9294672
:102FB000FDF7BCF8FDF76EFB00F0BAF9DFF898807A
:102FC00005460E46D8F80C00FDF764FB2A4633464A
:102FD000FDF71BFAFDF771FB206207F1200107F1F5
:102FE0001800FFF7A3FBF8690146FDF7F7F805465F
:102FF000B8690146FDF7F2F82946FDF797F8FDF7A5
:1030000049FB00F095F905460E46D8F81000FDF78B
:1030100041FB2A463346FDF7F8F9FDF74EFB6062A7
:10302000FF2084F82C00A069BDE8F09F0004024056
:103030000014024000080240EC000020280000209C
:103040005400002000000020F1D4C853FB21194097
:103050002DC32D6E305FC4BF1C0100202DE9F04749
:103060004A4F0546FE2087F82C00284600F0ECF871
:103070000120FDF709FD284600F0C4F84FF49670D2
:10308000FDF702FD4248016821F00101016041485D
:10309000016821F0010101603F48016821F0010150
:1030A00001603E4E306820F0010030603C4CA0686A
:1030B00020F00100A060A06820F00600A060A168D8
:1030C00011F0010FFBD1E06920F00100E061E1693E
:1030D00011F0010FFBD1DFF8CC80D8F8300020F0E0
:1030E000F87040F4A000C8F830004FF4E06A9AFA93
:1030F000AAF04FF48069B0FA80F029FA00F008EBEA
:1031000080002949026B22F01F0242F00202026392
:1031100003224046FEF7D8F99AFAAAF0B0FA80F0F6
:1031200029FA00F008EB80002049026B22F4787243
:1031300042F06002026303224046FEF7C5F93068A0
:1031400040F0010030601A482061DFF86880C4F860
:1031500014800620E06001206060A06840F001005B
:10316000A060306840F0804030600520FDF78CFCA6
:10317000FD2087F82C001048405D00281CBF284621
:1031800000F01CF838F81500BDE8F087EC000020CE
:10319000001000400014004000740040082401406A
:1031A000006002400024014002006004030090041B
:1031B0005824014030010020280000200E494FF41F
:1031C0000032062828BF7047DFE800F00305080B2F
:1031D0000E118A6170474FF080600BE04FF0805015
:1031E00008E04FF0804005E00448826170470449E0
:1031F0004FF0004088617047000402400014024014
:10320000000802400D49062828BF7047DFE800F09B
:103210000305080B0E1102200EE04FF480600BE056
:103220004FF4805008E04FF4804005E0022004494C
:1032300002E004494FF400408861704700040240F6
:1032400000140240000802400E49062828BF7047BB
:10325000DFE800F00306090C0F134FF480200FE0A5
:103260004FF000600CE04FF0005009E04FF00040DC
:1032700006E04FF48030044902E004494FF08040FA
:1032800088617047000402400014024000080240B8
:1032900000B5254B21F0004287B09A4203DC0022A2
:1032A000134600922BE0214B9A4208D140B94FF0CF
:1032B0000100FFF7F3F9FFF7D2F907B000BD03DB18
:1032C000FFF7CAF907B000BD02AAFEF7B7FE10F07B
:1032D00003014FF001000DD0012914D002291AD0AA
:1032E0000DF1080C9CE80F00FFF76CF807B081F0B7
:1032F000004100BD0DF1080C00909CE80F00FFF7A5
:1033000035F907B000BD0DF1080C9CE80F00FFF780
:1033100059F807B000BD0DF1080C00909CE80F00B3
:10332000FFF724F9E2E70000FB21E93F0000F07F0E
:103330002DE9F04106460F46FDF7A0FA041E0D46A2
:1033400018BF0120284320F00040C0F17F6000F149
:10335000E040C00F0ED0301C18BF0120384320F0D1
:103360000040C0F17F6000F1E040C00F04BF0120C9
:10337000FFF794F920462946BDE8F081034881789B
:103380000078081A00F03F00704700009C240020DD
:10339000044A118801F03F001044491C0079118053
:1033A000704700009C2400200B4981B04FF08050F2
:1033B00088610A48C16841F04001C160011D096887
:1033C0008DF80010064900220A804A80C16841F049
:1033D0002001C16001B07047000002400038014088
:1033E0009C240020094A4FF48051916108498A7851
:1033F00002F03F020A4410714888401C488005488A
:10340000C16841F08001C1607047000000000240C7
:1034100058240020003801400248002101804180EA
:10342000704700009C24002070B5124E04460278BC
:1034300020213046FDF738FC0F4D62784FF40041F3
:103440002846FDF731FCA27808213046FDF72CFC18
:10345000E27829152846FDF727FC2279E914284649
:10346000FDF722FC627969152846BDE87040FDF73A
:103470001BBC000000040240000002408038010034
:10348000E8030000E8030128A0860100E204000030
:103490000000A042400D0300C8000000E8030564DE
:1034A000400D0300C800000000007A44400D0300F6
:1034B00032000000E8031464801A06006400000073
:1034C00000007A4580380100F4010000E80302287A
:1034D000400D0300E204000000002043400D030003
:1034E000F4010000E8030264801A0600E80300000B
:1034F0000000C843409C0000E8030000E8030114FA
:10350000A0860100C409000000002042081C3044CD
:10351000586C80030406080C1018203000000000CE
:103520000000000001020304060708090000000073
:1035300001020304000000004C5555555555A53FA8
:103540007751C1166CC156BF9015CB19A001FA3E38
:10355000AD529C804F7E92BEC4B1B4BD9EEE213E62
:10356000D43888BEE9FAA8BD00004054FB21F93FD9
:103570003163621A61B4D03D0000601A61B4D03D7D
:103580007370032E8A19A33B0000002E8A19A33BF7
:10359000C14920259A837B3900000000000000000B
:1035A0006E83F9A22915444ED15727FCC0DD34F5AE
:1035B000999562DB4190433CAB6351FE61C5BBDE34
:1035C0003A6E24B7E0D24D42EA2E49061C92D10948
:1035D0001CEB1DFE3EA729B1F53582E88444BB2EC5
:1035E00026709CE9417E5FB439D69139F439538312
:1035F0008B5F849C3B28F9BDFF97F81F0F9805DE71
:103600008B112FEF1F6D0A5ACF7E366DB709CB276E
:10361000663F464F2DEA5F9EC7BA27757BF1E5EB03
:10362000F739073DEA92528AB15FFB6B085D8D1F47
:10363000A6F810111111813FD561C119A0012ABF4F
:103640007DFEB157E31DC73EEB9C2B8AE6E55ABED3
:103650007CD5CF5A3AD9E53D7836000800000020E5
:10366000540000007C260008CC36000854000020DE
:10367000442700008C260008000000000000000025
:10368000000000000000000000000000000000003A
:10369000000000000000000000000000000000002A
:1036A0000101010101010100000000000000000013
:1036B0006400000000000000100000000100000095
:0C36C0000000000068FF1F000000000078
:04000005080000F5FA
:00000001FF
