:020000040800F2
:1000000098060020650100086D0100086F010008D6
:10001000710100087301000875010008000000006C
:100020000000000000000000000000007701000850
:1000300079010008000000007B0100087D01000834
:100040007F0100087F0100087F0100080000000018
:10005000000000007F0100087F0100087F01000808
:100060007F010008000000007F0100087F010008F8
:100070007F010008000000007F0100087F010008E8
:100080007F0100087F010008000000007F010008D8
:100090007F010008000000000000000000000000D8
:1000A0000000000000000000000000007F010008C8
:1000B0007F0100087F0100087F0100087F01000820
:1000C00000F002F800F03EF80AA090E8000C82442C
:1000D0008344AAF10107DA4501D100F033F8AFF209
:1000E000090EBAE80F0013F0010F18BFFB1A43F016
:1000F000010318474427000064270000103A24BF7A
:1001000078C878C1FAD8520724BF30C830C144BF7C
:1001100004680C60704700000023002400250026BE
:10012000103A28BF78C1FBD8520728BF30C148BF5A
:100130000B6070471FB59DE8030000F0F9F81FBD84
:1001400010B510BD00F05DF91146FFF7F3FF02F0A6
:10015000CBF900F095F903B4FFF7F2FF03BC00F010
:10016000C5F800000948804709480047FEE7FEE758
:10017000FEE7FEE7FEE7FEE7FEE7FEE7FEE7FEE757
:1001800004480549054A064B70470000A10D0008C8
:10019000C100000898000020980600209802002066
:1001A000980200204FF0013C50F8042B51F8043B1A
:1001B0009A4221D1A2EB0C03934313EACC1317D13B
:1001C00050F8042B51F8043B9A4215D1A2EB0C03D2
:1001D000934313EACC130BD150F8042B51F8043B92
:1001E0009A4209D1A2EB0C03934313EACC13DBD060
:1001F0004FF00000704700BFD01A01BAB1FA81F188
:1002000001F0180122FA01F0CB40DBB2C0B2C01AF3
:10021000C1F120012CFA01F3D11A914311EAC31163
:10022000E6D1704770477047704770B5064600F0DA
:1002300063F8056806F10B0020F00704B4429CBF88
:10024000002070BD2B466A68BAB11068A04210D376
:1002500004F1080188423CBF5068586007D35168D8
:10026000101941601168091B016058601460101D6D
:1002700070BD13465268002AE7D12146284600F097
:1002800043F80028DED170BD70B50446051F00F0AC
:1002900033F80068002C14BF446870BD002C18BFF0
:1002A000AC423CBF20466468F8D301680A18AA42F1
:1002B00018BF456003D12A680546114401602868CB
:1002C0004119A1421CBF6C6070BD61686960216802
:1002D0000844286070BD10B5002000F05FF8FFF7FB
:1002E0002FFFBDE810400120AFF300800149182026
:1002F000ABBEFEE726000200004870471000002059
:10030000704770477047704738B504460A4600206A
:100310006946AFF30080002808BF38BD0246009947
:10032000204600F093F8012038BD012000F0CEB83F
:10033000F8B5AFF30080054600200C46102000BF42
:100340000646A819A0420DD9324669460020AFF3EF
:100350000080070008BF00F0B9F80098A04218BF5D
:100360000546C419FFF7C8FF05600746F01D20F0D9
:1003700007004619284600F00AF8B44208BFF8BD45
:10038000A21B31463868BDE8F84000F05FB8002194
:100390000160C0E9011070471020704710B500F0EF
:1003A0007DF8BDE8104000F074B84FF0000200B5D1
:1003B000134694469646203922BFA0E80C50A0E888
:1003C0000C50B1F12001BFF4F7AF090728BFA0E836
:1003D0000C5048BF0CC05DF804EB890028BF40F802
:1003E000042B08BF704748BF20F8022B11F0804F44
:1003F00018BF00F8012B7047004870470800002024
:1004000070477546FFF7F8FFAE460500694653464C
:1004100020F00700854618B020B5FFF7B1FEBDE813
:1004200020404FF000064FF000074FF000084FF05B
:10043000000BAC46ACE8C009ACE8C009ACE8C009A8
:10044000ACE8C00921F007018D46704703464068BB
:100450008C46002818BF88423CBF03464068F8D34A
:1004600018681844884207D00CF1030020F00700F8
:10047000001D411A521A0146081D0A60FFF704BF09
:1004800010B50446AFF300802046BDE81040FFF7EA
:1004900062BE002801D0FFF729BF704710B50021C8
:1004A00002A000F01AF8012010BD00005349474196
:1004B0004252543A2041626E6F726D616C207465D5
:1004C000726D696E6174696F6E00000010B500F0A6
:1004D0001DF8BDE81040FFF7DCBF70B505460C46BF
:1004E0000A2000E06D1C00F039F835B128780028AA
:1004F000F8D102E0641C00F031F814B12078002833
:10050000F8D1BDE870400A2000F028B810B50128E5
:1005100005D0002103A0FFF7E0FF012010BD09A1D5
:10052000F8E7000053494752544D454D3A204F7566
:1005300074206F662068656170206D656D6F7279DB
:10054000000000003A2048656170206D656D6F7293
:100550007920636F727275707465640008B56946BE
:100560008DF800000320ABBE08BD00008EB00D90DA
:100570000C910D9840680B900D9880680A900D982A
:10058000C06809900D98006908900D98406907901F
:100590000D98806906900D98C06905900020039021
:1005A00001200290032001904FF0011000900C9860
:1005B00000880490FFE70498002865D0FFE79DF8C5
:1005C0001000C00700284ED0FFE70B98029988431F
:1005D0000C998978039A914008430B900A980199E5
:1005E00088430C99097A039A5200914008430A9073
:1005F0000998029988430C99897A039A9140084393
:1006000009900898009988430C99039A02F1100CFC
:10061000CB78097903FA0CF318439140084308900A
:100620000798009988430C99039A02F1100C4B79B2
:10063000897903FA0CF31843914008430790069810
:10064000019988430C99497A039A520091400843D2
:1006500006900598029988430C99C979039A9140AC
:1006600008430590FFE7029840000290019880003F
:100670000190009840000090039801300390FFE73C
:1006800004984008049096E70B980D9920F01F02FB
:100690000023C4F20C03994208BF104648600A9830
:1006A0000D9920F01F02994208BF104688600998F2
:1006B0000D9920F01F02994208BF1046C8600898A3
:1006C0000D9920F01F02994208BF10460861079853
:1006D0000D9920F01F02994208BF10464861069804
:1006E0000D9920F01F02994208BF104688610598B5
:1006F0000D9920F01F02994208BF1046C8610EB044
:100700007047000082B001900091009A019942F078
:100710001F000023C4F20C03994208BF0246086878
:100720009043086002B0704782B001900091009839
:10073000019909680843019920F01F020023C4F2BF
:100740000C03994208BF1046086002B070470000D1
:1007500081B08DF803009DF803008821C4F2402188
:10076000086001B07047000083B08DF80B00019164
:100770000C21C4F2020108680090009820F00300E8
:1007800000909DF80B20009810430090009808609E
:100790000421C4F2020108680090009820F47060FF
:1007A0000090019A009840EA0220009000980860AA
:1007B0008820C4F24020006840B1FFE78C21C4F2D9
:1007C00040210120086000200860FFE703B0704767
:1007D00080B584B000200390FFE7212000F0C8F925
:1007E0008DF80A00039801300390FFE70399002079
:1007F000490A0229019007D8FFE79DF80A00B0FADC
:1008000080F040090190FFE70198C0070028E4D17B
:10081000FFE7212000F0ACF920B1FFE701208DF8BF
:100820000B0003E000208DF80B00FFE79DF80B00A4
:1008300004B080BD81B08DF803009DF8030040F244
:100840008811C4F24021086001B0704782B08DF871
:1008500007000C21C4F2020108680090009820F003
:10086000F00000909DF80720009840EA02100090E8
:100870000098086002B0704782B0ADF806000C2105
:10088000C4F2020108680090009820F440700090C3
:10089000BDF806200098104300900098086002B050
:1008A0007047000091B010900C20C4F20200006864
:1008B0008007002806D5FFE741F20020C0F27A0049
:1008C0000F9005E041F20020C0F27A000F90FFE7A0
:1008D0000C20C4F202000068C00720B1FFE70F98A7
:1008E00040080F90FFE70F980E900C20C4F2020012
:1008F0000068400700280DD5FFE70420C4F202007D
:100900000068C0F303200130049004990E98484316
:100910000E90FFE70C20C4F202000068C0F3012033
:100920000146029140B1FFE7029801280BD0FFE792
:100930000298022822D026E0109941F20020C0F24D
:100940007A00086024E00C20C4F20200006800096C
:100950000007002803D4FFE70E980D900AE00E98D8
:100960000C21C4F202010968C1F302110131C8402F
:100970000D90FFE70D981099086009E010994FF469
:100980000040086004E0109949F640400860FFE725
:100990001020C4F2020000688007002806D5FFE797
:1009A00041F20020C0F27A000C9005E041F20020F4
:1009B000C0F27A000C90FFE71020C4F20200006839
:1009C000C00720B1FFE70C9840080C90FFE70C9897
:1009D0000B901020C4F202000068400700280DD5DB
:1009E000FFE70420C4F202000068C0F303100130E6
:1009F000049004990B9848430B90FFE70B980A90DA
:100A00001020C4F202000068C006002804D5FFE7E9
:100A10000A9840080A90FFE70A9810994860182041
:100A2000C4F202000068000903909DF80C00000762
:100A3000002806D4FFE741F20020C0F27A000690B9
:100A40000FE0039800F00700411C0120884003904C
:100A5000039941F20020C0F27A00B0FBF1F0069059
:100A6000FFE706981099C8601820C4F202000068D9
:100A700003909DF80C000007002806D4FFE741F220
:100A80000020C0F27A0005900FE0039800F0070004
:100A9000411C012088400390039941F20020C0F2DC
:100AA0007A00B0FBF1F00590FFE705981099086116
:100AB0001420C4F20200006800F003000146019116
:100AC00040B1FFE70198012807D0FFE7019802280D
:100AD00006D008E00F98099008E00C98099005E00E
:100AE0000E98099002E00B980990FFE71420C4F2D9
:100AF00002000068C0F301100146009140B1FFE719
:100B00000098012808D0FFE70098022808D00AE0E2
:100B10004FF40040089009E049F64040089005E095
:100B20000998089002E006980890FFE71420C4F2A4
:100B300002000068000A03909DF80C0000070028DE
:100B400003D4FFE7089807900CE0039800F0070033
:100B5000411C01208840039008980399B0FBF1F0F4
:100B60000790FFE707981099886011B07047000060
:100B700083B08DF80B009DF80B0000F0E0002028FA
:100B800006D1FFE70020C4F202000068019006E0F1
:100B900048F23C00C4F20D0000680190FFE70198A4
:100BA0009DF80B1001F01F01C840C00720B1FFE7FE
:100BB00001208DF8030003E000208DF80300FFE71B
:100BC0009DF8030003B0704782B08DF8070008213C
:100BD000C4F20201086820F0030008609DF80700D5
:100BE00001460091012804D0FFE70098022808D0B0
:100BF0000FE00821C4F20201086840F0010008601B
:100C000008E00821C4F20201086840F0030008600F
:100C100000E0FFE702B0704780B584B00020039089
:100C2000FFE72220FFF7A4FF8DF80A0003980130A8
:100C30000390FFE703990020490A0229019007D891
:100C4000FFE79DF80A00B0FA80F040090190FFE745
:100C50000198C0070028E4D1FFE72220FFF788FFB2
:100C600020B1FFE701208DF80B0003E000208DF894
:100C70000B00FFE79DF80B0004B080BD82B001902F
:100C80008DF803109DF8030040B1FFE7019A1C2185
:100C9000C4F2020108681043086007E0019A1C21B1
:100CA000C4F20201086890430860FFE702B0704791
:100CB00085B00C20C4F2020000688007002806D529
:100CC000FFE741F20020C0F27A00049005E041F213
:100CD0000020C0F27A000490FFE70C20C4F202006A
:100CE0000068C00720B1FFE7049840080490FFE7C0
:100CF000049803900C20C4F202000068400700280A
:100D00000DD5FFE70420C4F202000068C0F3032001
:100D1000013001900199039848430390FFE70C20AC
:100D2000C4F202000068C0F301200146009140B106
:100D3000FFE7009801280ED0FFE7009802281CD09A
:100D400023E040F20001C2F2000141F20020C0F2B3
:100D50007A00086021E003980C21C4F202010968BE
:100D6000C1F303110131B0FBF1F00290029840F29F
:100D70000001C2F2000108600FE040F20001C2F27F
:100D800000014FF40040086007E040F20001C2F2A9
:100D9000000149F640400860FFE705B070470000D9
:100DA00080B51C21C4F202011020C0F600000860CA
:100DB0000C21C4F202010868002008600421C4F27A
:100DC00002010A6808600821C4F202010A6808608A
:100DD0001021C4F202010A6808601421C4F2020161
:100DE0000A680860FFF764FF80BD000083B00290CE
:100DF0008DF807102820C4F20200006800900298C5
:100E00000021C4F2030188420ED1FFE7009840F0B0
:100E100080700090009820F0FF0000909DF807106F
:100E200000980843009017E0029848F20001C4F2CD
:100E3000030188420FD1FFE7009840F00070009056
:100E4000009820F47F4000909DF80710009840EA39
:100E500001200090FFE7FFE700982821C4F202017B
:100E6000086003B07047000082B001908DF8031055
:100E70009DF8030030B1FFE70199086B40F00100D5
:100E8000086306E00199086B4FF6FE721040086394
:100E9000FFE702B07047000081B000900099002089
:100EA00008630099C86200994860009A9021916196
:100EB000009908620099486200998862009A0221AC
:100EC0005163009988630099886400994FF44070D9
:100ED000086301B07047000083B0029001918DF863
:100EE00003209DF8030030B1FFE7019A0299886B57
:100EF0001043886305E0019A0299886B90438863E8
:100F0000FFE703B07047000080B590B00E900D91E0
:100F100001A8FFF7C7FC01980B902820C4F202003B
:100F200000680C900E980021C4F20301884207D19A
:100F3000FFE70C9800F007010B98C8400B900FE0FA
:100F40000E9848F20001C4F20301884207D1FFE77E
:100F50000C98C0F302210B98C8400B90FFE7FFE705
:100F60000B980D9909688908B0FBF1F00990099870
:100F700080090890099800F03F0007900B988000C6
:100F8000089A079901EB8211B0FBF1F00A900A98D8
:100F90000D990968401AC001B0FBF1F0069006985F
:100FA000022805DCFFE7069810F1030F04DCFFE7D9
:100FB00000208DF83F002AE008980E9948620798B3
:100FC0000E9988620E98C06A0C900D998888CA881C
:100FD00010430A891043498901430C9808430C9037
:100FE0000C980E99C8620E98006B0C900C984FF6F6
:100FF000807188430C900D9881890C9808430C905F
:101000000C980E99086301208DF83F00FFE79DF8CA
:101010003F0010B080BD000081B08DF803009DF945
:10102000031001F01F02012090404A094EF2001106
:10103000CEF2000141F8220001B0704701F0CCB9B6
:1010400080B5AFF30080BDE8804001F0CCB980B539
:10105000AFF30080BDE8804001F0C5B980B5AFF3C3
:101060000080BDE8804001F0BEB9000080B588B0C6
:1010700007904FF4001001210091FFF7FFFD009849
:10108000002101918DF813108DF814108DF81510B2
:101090008DF816108DF817108DF8181003218DF8A3
:1010A00019108DF81A008DF812008C20ADF8100080
:1010B00048F20000C4F20A00029004A90391FFF76D
:1010C00055FA019A029803998DF812207322ADF80F
:1010D0001020FFF74BFA08B080BD000080B58AB041
:1010E00009900120FFF770FDFFE7FFF795FD01284C
:1010F00001D0FFE7F9E702200921FFF735FB0120C6
:10110000FFF726FBFFF764FB10B9FFE7FFE7FEE7F9
:1011100001200890FFF78EFB00200390FFF796FB5D
:101120004FF48070FFF7A8FB08994FF48000FFF799
:10113000A5FD08994FF00050FFF7A0FD039A08980D
:1011400040F27801C2F200010291CA700A714A713C
:101150008A71CA7102220A7203224A7288728870E6
:101160002020049008800020C4F20B000190FFF7BB
:10117000FDF901980299039A8A70402205920A802B
:10118000FFF7F4F901980299039B089A0B728A7091
:101190004FF4806206920A80FFF7E8F905980899F3
:1011A000FFF76CFD03990020C4F203000790FFF7DE
:1011B0001DFE0798FFF770FE039A079840F284011E
:1011C000C2F200014FF4E1330B6060238B80CA80D0
:1011D0000A814A814FF440728A81FFF795FE06200A
:1011E000FFF71AFF0798089A1021FFF775FE049978
:1011F0000798089AFFF770FE05990798089AFFF775
:101200006BFE0798089A8021FFF766FE06990798FB
:10121000089AFFF761FE07980899FFF725FE0AB0C4
:1012200080BD000080B582B0019001980090FFF76A
:101230001DFF0098FFF752FF009802B080BD00002C
:1012400081B00090009801B07047000080B5A0B058
:101250000692059104900498019004300790079A33
:101260000021116051600B9005A80A900B98029024
:101270000A9808A90D910C900D9803900E900C9966
:10128000096801600C9949684160406868B1FFE7EE
:10129000039840680F900F981090109804301190A8
:1012A0001199086801300860FFE7029908A81390B7
:1012B00012911399129A16911592169A1792179ADB
:1012C00012681492159A1992199A1268169B1A604C
:1012D00014AA1892189A1268159B1A600A1D12997E
:1012E00004311C921B911C991D911D9909681A913A
:1012F0001B991F911F9909681C9A11601AA91E91C8
:101300001E9909681B9A116000F040FD01990020A8
:10131000087005A800F03AFD019820B080BD0000DB
:1013200080B582B0019001980090043000F02EFD4D
:10133000009802B080BD7047704770B51546059A99
:101340000E4689681C463AB188420AD0406849680E
:10135000FEF728FF28B170BD40684968884218BF71
:1013600070BD31462A462346BDE8704000F072B891
:101370002DE9F0411646069A0C46896898460746BC
:101380008AB18F4230D07D6849682846FEF70AFF4F
:1013900050B3206887420ED041682846FEF702FF0E
:1013A00048B1BDE8F0817868496888421CD021685E
:1013B00049688842F5D12069B04220D06069B042C6
:1013C0001DD0D4E90910C4F82080013001296661DC
:1013D000A06205D1A069022804BF012084F836006C
:1013E0000420E062BDE8F0816068B042D9D1E069D4
:1013F00001281CBFC4F81C80BDE8F081D1E7B8F11A
:10140000010F18BFBDE8F08101202062BDE8F08126
:1014100080B5D1F808C0D0F804E0DCF804008645B7
:1014200018BF80BD086950B190420DD0486A0130A4
:10143000486202208861012081F8360009E001201D
:101440000A618B61486280BD8869022804BF8B6194
:1014500080BD80BD80B548684FF0010E984281F88C
:1014600035E000D080BD0B69DDF808C081F834E0BC
:101470002BB193420FD0486A0130486217E0012037
:10148000BCF1010F0A61C1F818C04862EAD1086BCB
:1014900001280CD0E6E78A69022A04BFC1F818C007
:1014A0006246086B012818BF80BD012ADAD10120ED
:1014B00081F8360080BDF0B58FB0054640684B68B6
:1014C00098422DD042F22C631446C0F6000342F23B
:1014D0003862C0F60002084619460023002600F0D4
:1014E000ADFFF0B101AE0746301D3421FEF75DFFC0
:1014F0004FF0FF3004900120019703950D9038685C
:101500002268C569384631460123A8470798013843
:10151000B0FA80F04FEA501604BF0598206000E052
:10152000012630460FB0F0BD2DE9F04383B0DDE970
:101530000A940E46896898461546074674B18F424C
:1015400004D078684968FEF72DFE58B931462A461E
:10155000434603B0BDE8F043FFF77CBF78684968B5
:101560008842F3D0B8682A46016843464F6931463D
:10157000CDF800900194B84703B0BDE8F0832DE9A1
:10158000F04383B0DDF828900C46896898461546EC
:10159000B9F1000F074630D08F4240D07E684968CD
:1015A0003046FEF7FFFDD0B32068874204D0416883
:1015B0003046FEF7F7FD40BB2069A84238D060698D
:1015C000A84235D0E06AC4F82080042838D0002032
:1015D000A086B8682A4601682B464F690121009110
:1015E0002146CDF80490B84794F8350030B394F80C
:1015F00034000321E16280BB22E0786849688842B8
:101600000DD0216849688842D6D0B8682A4601685A
:1016100043468F692146CDF80090B8471DE06068C9
:10162000A8421AD1E069012818BFC4F81C8014E050
:10163000B8F1010F04BF012020620EE00420E06237
:10164000D4E90910656101300129A06205D1A069C2
:10165000022804BF012084F8360003B0BDE8F083FF
:1016600080B5D1F808C0D0F804E0DCF804C0E64545
:1016700007D08068D0F800C0DCF81CC0BDE880400E
:101680006047086950B190420DD0486A0130486205
:1016900002208861012081F8360009E001200A61FA
:1016A0008B61486280BD8869022804BF8B6180BD60
:1016B00080BD00002DE9F04F85B0DDE90E5A0C46E3
:1016C00089689B461746BAF1000F80460FD08845BF
:1016D00005D0D8F804004968FEF764FD60B92146DA
:1016E0003A465B4605B0BDE8F04FFFF7B3BED8F809
:1016F000040049688842F2D0D8F8141094F8346095
:1017000094F83530D8F80C900020A086C8074FEA2E
:101710002122039302D0DBF800008258D8F8100091
:10172000890701680BEB02032A4604954D6958BFEF
:101730000222009221463A46CDF804A0A84794F828
:10174000341094F83500039A0E43B9F1020F40EAC1
:1017500002053DDB08EBC902103208F118090397B6
:10176000029200BF94F8362092BB39B1A0690128DB
:101770002ED098F80800800705D429E018B198F811
:101780000800C00724D00020A086D9F80410C8079C
:101790004FEA212202D0DBF80000825859F8080BEA
:1017A000890701680BEB0203049A4F6958BF0222B4
:1017B0000092039A2146CDF804A0B84794F834105B
:1017C00094F83500029A0E43914545EA0005C9D3C5
:1017D000002E18BF0126002D18BF012584F83460A3
:1017E00084F8355005B0BDE8F08F00002DE9F04FCA
:1017F00083B0DDF830900C46896898469346B9F17D
:10180000000F07466ED08F4200F0B5807E684968B1
:101810003046FEF7C7FC002800F0AD802068874204
:1018200005D041683046FEF7BDFC002862D1206932
:10183000584500F0A9806069584500F0A580E06A2D
:10184000C4F82080042800F0F580F868002840F3F0
:10185000E48007EBC000103007F110064FF00008DD
:101860004FF0000A029000BF0020A0867168C807F0
:101870004FEA212202D0DBF8000082583068890745
:1018800001680BEB02034FF001024D6958BF0222C1
:10189000009221465A46CDF80490A84794F83600A5
:1018A000D0B994F8350098B194F8340058B1A069D3
:1018B000012800F0B780387A4FF0010A80074FF016
:1018C000010805D4B0E0387AC00709D04FF0010A0A
:1018D000029808368642C7D35FEACA7000F0A0803B
:1018E000C246A1E078684968884244D021684968C6
:1018F00088429CD07969FE68C8074FEA212202D04D
:10190000DBF8000082583869890701685A448D69FC
:101910004346214658BF0223CDF80090A847022E27
:10192000C0F29680B86807EBC60101F11006810786
:1019300007F1180702D4616A01292BD194F8360007
:10194000002840F085807968C8074FEA212202D03C
:10195000DBF80000825857F8080B890701685A44E1
:101960008D694346214658BF0223CDF80090A84711
:10197000B742E3D36CE06068584569D1E06901285B
:1019800018BFC4F81C8063E0B8F1010F04BF012048
:1019900020625DE0C0071FD194F83600002857D1BF
:1019A000606A012854D07968C8074FEA212202D022
:1019B000DBF80000825857F8080B890701685A4481
:1019C0008D694346214658BF0223CDF80090A847B1
:1019D000B742E1D33CE000BF94F83600C0BB606A78
:1019E000012802D1A069012832D07968C8074FEADE
:1019F000212202D0DBF80000825857F8080B890733
:101A000001685A448D694346214658BF0223CDF8E8
:101A10000090A847B742DFD31AE00420E06209E053
:101A2000042003E04FF0010A0320D0465FEAC871AA
:101A3000E0620DD1D4E90910C4F814B001300129D5
:101A4000A06205D1A069022804BF012084F83600F5
:101A500003B0BDE8F08F00002DE9F04781468868AB
:101A60000C46D9F8041040689A468142164621D0A7
:101A700009F11008D9F80C50404621463246534629
:101A800000F035F8022D13DB08EBC50709F120053E
:101A9000A5F1080021463246534600F028F8BD4221
:101AA00028BFBDE8F08794F8360008350028EFD04D
:101AB000BDE8F087206958B1B04210D0606A0130AB
:101AC00060620220A061012084F83600BDE8F08742
:101AD00001202661C4F818A06062BDE8F087A06903
:101AE000022804BFC4F818A0BDE8F087E0E710B5ED
:101AF000D0F804C042B15FEACC7E4FEA2C2E05D06C
:101B0000146854F80EE001E04FF0000E00685FEA40
:101B10008C7458BF022304687244D4F81CC0BDE81A
:101B20001040604700207047FEF7D5FB91B003904E
:101B3000039804900498083005900598069006983C
:101B40000F900F9810904FF0FF3002906FF0004010
:101B5000019002A8089001A80790089907980A9197
:101B6000099009990A980BAA0E920D910C900D9864
:101B700000680C990968884203D2FFE70998009031
:101B800002E00A980090FFE70098006811B07047E3
:101B900070B5CCB00A920990089109990291089801
:101BA0000860089807A903910D910C900D9810906A
:101BB0000CA80F900BA80E9010980F9911911199E5
:101BC00015901491159A1499169116990968116037
:101BD0000E9913911290102000F008FC029A0399BC
:101BE000034608980DF1140CCDF88CC0269325906F
:101BF000269C2A9400202990DDF8A8E0DDF8A4C0F6
:101C0000CDF8B0E0CDF8ACC02C9D42F2D07CC0F64F
:101C1000000C0CF1080CC5F800C0DDF8ACC0C5F82C
:101C200004C042F2E47CC0F6000C0CF1080CCEF8C3
:101C300000C0DDF8A4C0CEF808C042F6000CC0F623
:101C4000000C0CF1080C44F80CCB0DF1A00CCDF8F5
:101C500010C1DDF810C10DF1900ECDF8ECE025AD0E
:101C60003A95CDF8E4C03B9DDDF8E8C0CDF8F0C072
:101C7000DDF8F0C04295CDF804C1429EDDF804C104
:101C8000CDF80CC1DDF80CC1DCF800C0C6F800C00E
:101C9000DDF8E4C0CDF800C1DDF800C13E95CDF817
:101CA000F4C0DDF8F4C0CDF8FCC00DF19C0CCDF80B
:101CB000E0C0DDF8E0C02F94CDF8B8E0CDF8B4C0B6
:101CC000DDF8BCE0DDF8B8C0CDF8C0C0DDF8C0C0BC
:101CD000CDF8D8E0CDF8D4C0369CDDF8D4C0CDF82E
:101CE000DCC0DDF8DCC0DCF800C0C4F800C0DDF802
:101CF000B4C0CDF8D0C0DDF8D0C0CDF8C8E0CDF884
:101D0000C4C0DDF8C4C0CDF8CCC053604791479B38
:101D10004893DDF820C1CDF824C1DDF824C1DCF8FA
:101D200000C0CDF818C14A934A9B4B934B9B186057
:101D30004592179117991A9119901A9904911B912C
:101D40001B981C901C980068189019981F911F9957
:101D50002091209908601898A0B1FFE7049821907D
:101D600021982290229918981E911D901D980190FB
:101D700038B1FFE70198FFF763FA019800F033FBF1
:101D8000FFE7FFE702984CB070BD000080B58AB055
:101D90000490049803900590406838B3FFE70398D7
:101DA00040680690069801900790079802900430CA
:101DB00009900999086801380860013040B9FFE7C7
:101DC000029801688968884701208DF8230003E0A4
:101DD00000208DF82300FFE79DF82300012804D19F
:101DE000FFE7019800F005F9FFE7FFE705980AB063
:101DF00080BD000070B5CCB00A9209900891099995
:101E0000029108980860089807A903910D910C9019
:101E10000D9810900CA80F900BA80E9010980F9989
:101E20001191119915901491159A1499169116996A
:101E3000096811600E9913911290102000F0D6FAE3
:101E4000029A0399034608980DF1140CCDF88CC042
:101E500026932590269C2A9400202990DDF8A8E05E
:101E6000DDF8A4C0CDF8B0E0CDF8ACC02C9D42F2B6
:101E7000D07CC0F6000C0CF1080CC5F800C0DDF8F1
:101E8000ACC0C5F804C042F2E47CC0F6000C0CF112
:101E9000080CCEF800C0DDF8A4C0CEF808C042F6A9
:101EA0001C0CC0F6000C0CF1080C44F80CCB0DF126
:101EB000A00CCDF810C1DDF810C10DF1900ECDF8D9
:101EC000ECE025AD3A95CDF8E4C03B9DDDF8E8C0E7
:101ED000CDF8F0C0DDF8F0C04295CDF804C1429EC7
:101EE000DDF804C1CDF80CC1DDF80CC1DCF800C090
:101EF000C6F800C0DDF8E4C0CDF800C1DDF800C1CF
:101F00003E95CDF8F4C0DDF8F4C0CDF8FCC00DF17D
:101F10009C0CCDF8E0C0DDF8E0C02F94CDF8B8E01F
:101F2000CDF8B4C0DDF8BCE0DDF8B8C0CDF8C0C075
:101F3000DDF8C0C0CDF8D8E0CDF8D4C0369CDDF8CF
:101F4000D4C0CDF8DCC0DDF8DCC0DCF800C0C4F8DB
:101F500000C0DDF8B4C0CDF8D0C0DDF8D0C0CDF8F9
:101F6000C8E0CDF8C4C0DDF8C4C0CDF8CCC0536023
:101F70004791479B4893DDF820C1CDF824C1DDF897
:101F800024C1DCF800C0CDF818C14A934A9B4B939A
:101F90004B9B18604592179117991A9119901A99AD
:101FA00004911B911B981C901C980068189019981C
:101FB0001F911F992091209908601898A0B1FFE700
:101FC0000498219021982290229918981E911D9092
:101FD0001D98019038B1FFE70198FFF7A1F901982A
:101FE00000F001FAFFE7FFE702984CB070BDFEDE9B
:101FF0007047816811B101398160704701680969D2
:102000000847FEDE80B592B00390039801900C3033
:1020100004900499059105990C910C990D910D99D5
:102020000E900E980F900F98109010981190119894
:1020300000680B910A900A98029038B1FFE7029865
:10204000FFF7FEF8029800F0CEF9FFE701980C3098
:10205000089008980990099806900698079012B081
:1020600080BD000080B594B00290029800F10C028F
:10207000039203990491049B01A90F910E9312926C
:10208000129A13921090109811901198079106903F
:10209000012005900699059800010A9109900420F5
:1020A00008900A9909980C910B900C980D900D9836
:1020B00000F099F914B080BD80B582B0019001980C
:1020C000009000F005F8009800F08DF902B080BD96
:1020D00080B582B0019001980090AFF30080009825
:1020E00002B080BD80B592B00390039801900C308F
:1020F00004900499059105990C910C990D910D99F5
:102100000E900E980F900F981090109811901198B3
:1021100000680B910A900A98029038B1FFE7029884
:10212000FFF7FEF8029800F05EF9FFE701980C3027
:10213000089008980990099806900698079012B0A0
:1021400080BD000080B594B00290029800F10C02AE
:10215000039203990491049B01A90F910E9312928B
:10216000129A13921090109811901198079106905E
:10217000012005900699059800010A910990042014
:1021800008900A9909980C910B900C980D900D9855
:1021900000F029F914B080BD80B582B0019001989B
:1021A000009000F005F8009800F01DF902B080BD25
:1021B00080B582B0019001980090AFF30080009844
:1021C00002B080BD80B5ACB003900291039800903E
:1021D00002990191FFF7AAFC01460198884203D9B0
:1021E000FFE70098FFF7A0FC0098049004980830DF
:1021F00005900598069006990298249123902499B9
:1022000023982691259026982790279828902598FE
:102210002A90012029902A982B902B9800F0E6F81C
:1022200001460098416001600168029A11442090C3
:10223000209A08322192219A2292229A11600890C3
:1022400000200790DDF820C0CDF824C00998006870
:102250000A900A9BCDF878C01E9800681F901F98BE
:10226000CDF864C019991A911A9A1B921B990831DA
:102270001C911C991D911D9909681268891A4218B0
:10228000CDF85CC01798006818901898CDF848C031
:1022900012991391DDF84CE0CDF850E01499083113
:1022A00015911599169116990968DEF800E0A1EBD1
:1022B0000E010144CDF840C01098006811901198AB
:1022C000DDF81CE07044CDF83CC00E930D920C91EB
:1022D0000B902CB080BD000080B590B007900691A7
:1022E00007990091069A03A800F02AF80598029031
:1022F00004980190FFE70198029988421BD0FFE7FC
:102300000098089008980830099009980A900A994E
:1023100001980B900B980D910C900D990C980F91C2
:102320000E900E9900200870FFE70198013001908F
:1023300001980490DFE703A800F014F810B080BD06
:1023400083B0029001910092029801990160019975
:102350004968416001994968009A1144816003B05D
:102360007047000081B00090009802684168516099
:1023700001B0704780B592B0029001910298009030
:102380000390069006980790002101604160083094
:1023900005910A9005A8099004A808900A98099A3E
:1023A0000B920B9A10900F92109A0F9B1193116041
:1023B00008990E910C900C980D90019848B1FFE788
:1023C00000980199FFF7FEFE00980199FFF784FF3E
:1023D000FFE7039812B080BD704740F29400C2F24C
:1023E000000000687047FDF74FBF000010B50446BD
:1023F000002808BF012400BF2046FDF716FF002873
:1024000018BF10BDFFF7E9FF08B18047F4E70020CF
:1024100010BD000001A000F065F800BF50757265A6
:10242000207669727475616C2066756E6374696F6D
:102430006E2063616C6C656421000000F0B591B0A2
:102440001446026852E90256CDE90340054403A848
:10245000CDE9051310302721FDF7A7FF70686168EB
:1024600088421BD030680024876903A930462A4679
:1024700001230094B8470C98012821D078BB0D990E
:10248000DDE90A0281F0010180F00100089C82F080
:1024900001020843104318BF002420E001200F90E0
:1024A000316800274C69009003A930462A462B4624
:1024B0000197A0470998012818BF3D462C460EE019
:1024C0000998012801D1079C09E00D98002430B932
:1024D0000A98012803D10B98012808BF079C2046C1
:1024E00011B0F0BDFDF7F7FE80B59AB00020039063
:1024F00013900120FFF77AFF0490FEF793FE0398F4
:1025000004991090109A11A80590FFF741FB0C2038
:10251000FFF76CFF0146059806910CA915911490E0
:1025200015980790169014990968016014994968E4
:102530004160406868B1FFE70798406817901798B6
:10254000189018980430199019990868013008609B
:10255000FFE706980C990D9AFEF778FE0699002081
:1025600001900B900B9A0EA8FFF744FC08A80721D6
:10257000FFF700FF4FF4800001210291FEF77EFB80
:10258000019A029840F26801C2F200014FF48063A0
:102590000B8088700A72887248720020C4F20B00A7
:1025A000FDF7E4FFFFE7FFE70020C4F20B004FF464
:1025B0008061FEF7B9F840F27401C2F200014FF6F3
:1025C000FF700860FFE740F27400C2F2000000688C
:1025D000012809DBFFE7FFE740F27401C2F20001C6
:1025E000086801380860EEE70020C4F20B004FF4E1
:1025F0008061FEF787F840F27401C2F200014FF6E5
:10260000FF700860FFE740F27400C2F2000000684B
:10261000012809DBFFE7FFE740F27401C2F2000185
:10262000086801380860EEE7BDE700008827000869
:10263000842600087C26000888270008A5260008B4
:102640002C26000888270008C7260008382600081E
:1026500088270008EC2600083826000860270008B4
:1026600012270008B02700082B27000800000000F0
:10267000010000005C260008000000006027000840
:10268000492700084E31305F5F6378786162697670
:102690003131365F5F7368696D5F747970655F694A
:1026A0006E666F45004E31305F5F637878616269B6
:1026B000763131375F5F636C6173735F7479706516
:1026C0005F696E666F45004E31305F5F6378786199
:1026D0006269763132305F5F73695F636C61737317
:1026E0005F747970655F696E666F45004E31305F6B
:1026F0005F637878616269763132315F5F766D69E8
:102700005F636C6173735F747970655F696E666F28
:1027100045004E5374335F5F3231345F5F736861DD
:102720007265645F636F756E7445004E5374335FFA
:102730005F3231395F5F7368617265645F776561CD
:102740006B5F636F756E744500537439747970658F
:102750005F696E666F000000000000003826000808
:102760003D10000841100008371300083913000815
:10277000B71400083B130008711300081114000877
:1027800000000000442600083D1000084F1000081B
:102790003713000839130008B7140008291500087A
:1027A0007F15000861160008000000005026000890
:1027B0003D1000085D1000083713000839130008A9
:1027C000B7140008B5160008ED170008591A0008DC
:1027D000000000005C260008F11F0008EF1F000841
:1027E000152400080000000064260008F11F0008FE
:1027F0000320000815240008251B000815240008E4
:102800000000000000000000D1200008B9200008EE
:1028100005200008251B00086520000800000000B6
:1028200000000000B121000899210008E5200008FF
:10283000251B00084521000858280008000000203A
:1028400008000000FC0000086028000808000020C4
:10285000900600001801000800127A000000000035
:04000005080000C12E
:00000001FF
