:020000042010CA
:1060000000801020096010200248016881F3088890
:106010000148004700601020B563102001380028B7
:10602000FCD17047044910228B691A42FCD1024B03
:106030001868C0B27047C0460000034003492022E0
:106040008B691A42FCD1014B186070470000034075
:1060500070B505000424E8B2FFF7F0FF2D0A013CFB
:10606000002CF8D170BDC046F8B507000426002505
:106070000024FFF7D7FF4519EDB2240A00060443B8
:10608000013E002EF5D13B78ED183D702000F8BDA3
:10609000F0B5474680B482B06B46DC1D0023237008
:1060A0002000FFF7E1FF2078FFF7C8FF304A314BAF
:1060B0001A60314A116801230B43136000252F4FEA
:1060C00014002F4E3D602368334023602368C422B0
:1060D0001201134323600620FFF7A0FF23688022EC
:1060E0009201134323602748FFF798FF2268264B4D
:1060F000134023606E20FFF791FF2268234B13406B
:1061000023600220FFF78AFF0435102DDAD1002525
:106110001A4F194CE0235B0098463D6023684246C5
:10612000134323600120FFF779FF194B1E68226893
:10613000184B134023600120FFF770FF731C04D13C
:10614000043580239B029D42E7D10B4A136801214D
:106150008B4313604520FFF771FF2800FFF778FF9E
:106160003000FFF775FF02B004BC9046F0BDC0469A
:106170005155AA8A108001400080014004800140EE
:106180003FD2FFFF50C30000FFFBFFFFBFD7FFFF61
:106190000C8001403FFEFFFFF0B55F4656464D467E
:1061A0004446F0B483B000226B46DA713C4C651C67
:1061B000FF356B46D81DFFF757FF01C4AC42F8D13D
:1061C000384A394B1A60394B196801220A431A6060
:1061D0001968374A0A401A600026364B9A46364FED
:1061E000324D53461B68F3183B602B6882225201E4
:1061F00013432B600620FFF711FF2B6880229201CA
:1062000013432B600B20FFF709FF0024294B99460D
:10621000234B98464B461B68F3181B193B603319F8
:106220009B089B0042469A58244B1A602B68802298
:10623000934613432B603220FFF7F0FE2B685A463B
:1062400093432B600120FFF7E9FE103480235B00AD
:106250009C42DFD12A681A4B13402B600620FFF7BF
:10626000DDFE2A68174B13402B600120FFF7D6FE96
:106270000436102EB5D10D4A136801218B431360EB
:106280000C4A13680133FF3313606B46D879FFF76C
:10629000D5FE03B03CBC90469946A246AB46F0BD45
:1062A000087010205155AA8A1080014000800140DA
:1062B0003FC2FFFF007010200480014008800140B1
:1062C000FFEFFFFFBFDFFFFFF0B5474680B41A4A7C
:1062D0001A4B1A601A4B196801220A431A6019688E
:1062E000184A0A401A60184D6B1CFF339846174E27
:1062F000174F134C33683B603368043333602368B3
:10630000E0225200134323600120FFF787FE114B68
:106310001B6808C522680B4B134023600120FFF760
:106320007DFE4545E6D1064A136801218B43136083
:1063300004BC9046F0BDC0465155AA8A1080014069
:10634000008001403FFEFFFF087010200070102009
:10635000048001400C80014070B50B4B1C68002C80
:1063600001D1FFF7B1FF094DA3005859FFF770FEA7
:10637000631C9B005859FFF76BFE02343F231C40FF
:10638000014B1C6070BDC0460470102008701020C6
:10639000064A1368802109050B431360044A1368F9
:1063A000802109010B4313607047C0461C00024066
:1063B00038800D40F0B5474680B482B0204A11685D
:1063C00008230B43136000231E4A13601E4A136008
:1063D0001E4D17001B4B9846FFF724FE4138C3B2F1
:1063E000152BF9D898002B589F460024184EA05D15
:1063F000FFF724FE01340C2CF9D1EDE7FFF748FE3E
:10640000EAE7FFF7C9FEE7E7FFF7A6FFE4E76B4619
:10641000DC1D002323703B602000FFF725FE434670
:1064200018602078FFF70AFED6E75220FFF706FE35
:1064300096200001FFF7F2FDFFF7AAFFCCE7C04668
:106440001C000240007010200470102054641020C2
:10645000AC6410200E641020D8631020D863102084
:10646000D8631020FC631020D8631020D86310205C
:10647000D8631020EA631020D8631020D86310205E
:10648000D8631020D8631020D8631020D863102060
:1064900002641020D86310202A641020D8631020D2
:1064A000D8631020D86310200864102031393836A2
:0864B00062653178666C6472CC
:04000005201060095E
:00000001FF
