:0C800000F8B500BFF8BC08BC9E467047F5
:10800C0008B500F0B5FA00F0EFFA0C4C10210B4853
:10801C0000F0F2FB0128F9D0204600F0E9FBC0B2D9
:10802C0000F064FA0146204600F0E0FB8021204677
:10803C0000F0E2FB0128F9D1E8E700BF00000340A3
:10804C000348044B834202D0034B03B118477047DB
:10805C007C8B01007C8B0100000000000548064968
:10806C000B1AD90F01EBA301491002D0034B03B13A
:10807C00184770477C8B01007C8B010000000000CE
:10808C0010B5064C237843B9FFF7DAFF044B13B154
:10809C000448AFF300800123237010BD7C8B0100DA
:1080AC00000000000C8B000008B5044B1BB1044908
:1080BC000448AFF30080BDE80840CFE700000000A3
:1080CC00808B01000C8B0000A3F5803A704700BF39
:1080DC00154B002B08BF114B9D46FFF7F5FF0021F8
:1080EC008B460F461148124A121A00F005FC0C4B35
:1080FC00002B00D098470B4B002B00D0984700204A
:10810C00002104000D000B4800F09EFB00F0D0FB9A
:10811C0020002900FFF774FF00F09CFB0000080012
:10812C000000000000000000000000007C8B01003B
:10813C00448C01008988000003462DE9F04F5A68F1
:10814C0089B09C68079001920888DA68D3F810907F
:10815C000292D3F814809F69D3F81CB000285DD02C
:10816C004FF001124FF0030E4FF0010A0023C50728
:10817C004AD58D7924EA0E049D4006950394019D01
:10818C00029C0E7991F803C025EA0A0524EA0A0438
:10819C000195029427EA0E0503F110042BEA0A0755
:1081AC009E4091F802B029EA0209059746EA0909AE
:1081BC00019F0CFA04F691F805C00BFA03FB4BEA8D
:1081CC0007070CFA04FC46EA09090C7A4E7A019767
:1081DC005F00BC4006FA07F7039E0495069D28EA4B
:1081EC0002083443049E45EA08088D7A3743029E00
:1081FC009D4091F807B02E43059D0BFA03FB4CEA0A
:10820C00080802964BEA050B40084FEA4A0A4FEA67
:10821C008E0E4FEA420203F10103A8D1134B079AC9
:10822C009A420FD0079B0199596002999C60D960C2
:10823C00C3F81090C3F814809F61C3F81CB009B048
:10824C00BDE8F08F019B24F01F0423F01F03019362
:10825C00029B29F01F0923F01F03029328F01F082B
:10826C0027F01F072BF01F0BDCE700BF00000C40B2
:10827C00094B01289A6822F003029A6007D0022861
:10828C0004D19A6842F003029A60704770479A686A
:10829C0042F001029A60704700000240002382B055
:1082AC000949019300E04AB90A68019B02F00402F3
:1082BC0001330193019BB3F5C06FF4D3024B1868E3
:1082CC00C0F3800002B07047000002400B4A30B48B
:1082DC00D4680B4D24F003042043D060536823F47E
:1082EC00706343EA012353602B6823B10121002200
:1082FC00044B19601A6030BC704700BF000002408C
:10830C00880040428C004042014B1860704700BF0F
:10831C0088014042014B1860704700BF8800404202
:10832C00002382B00949019300E04AB90A68019B15
:10833C0002F0020201330193019BB3F5C06FF4D339
:10834C00024B1868C0F3400002B0704700000240B6
:10835C00034AD36823F0F00343EA0013D360704759
:10836C0000000240034AD36823F440731843D060E2
:10837C00704700BF00000240044AD36911B1184392
:10838C00D061704723EA0000D061704700000240C2
:10839C00534BF0B4DA68DD68524915F0010F524CBA
:1083AC0018BF0C46DA6852074D4A48BF5E68D3685E
:1083BC0048BFC6F30326C3F3012354BF264606FB6E
:1083CC000446012B7FD0022B79D0002B74D049F6B8
:1083DC0040430360424B43491A691A69424D12F0FB
:1083EC00010F18BF0D461A69570754BF2A465A6821
:1083FC003B4B48BFC2F303121B6948BF02FB05523B
:10840C00D90654BF11465108354B41609B69190977
:10841C001B0641D5012301F007011944324F03FA21
:10842C0001F1B7FBF1F32E49C36089690F0731D510
:10843C004FF0010C01F007012B4F61440CFA01F1D4
:10844C00B7FBF1F1264F0161796901F003010129B4
:10845C0030D0022922D0002908BF22462049496980
:10846C00C1F30111012920D0022921D0002908BF14
:10847C004FF400431A4A51690A0A090507D501212C
:10848C0002F007020A4401FA02F2B3FBF2F3F0BC69
:10849C00836070471449D5E7134BC4E71049324643
:1084AC004969C1F301110129DED149F64043E1E7E5
:1084BC001346DFE72A46D1E70B4B03608AE74FF4FC
:1084CC000043036086E7D3681B0601D4334680E77C
:1084DC00D368C3F30213013326FA03F379E700BF21
:1084EC000000024000093D0000127A00512820D003
:1084FC00572824D045281ED0522822D0542822D0C8
:10850C00592822D0552818D0492822D04F2822D0BB
:10851C00502822D0412822D0532822D0442816D0CB
:10852C00462820D0472820D048280CBF682023207C
:10853C007047712070476520704775207047772011
:10854C007047722070477420704779207047642000
:10855C007047692070476F2070477020704761200A
:10856C00704773207047662070476720704700BFC4
:10857C0070B5012186B04FF40000FFF7FDFE012419
:10858C0003224FF4807369461448ADF80020ADF80F
:10859C0008308DF802408DF80A40FFF7CDFD2146DA
:1085AC004FF40010FFF7E8FE00254FF440720C4E1C
:1085BC000C4B304603A9ADF8142003938DF81640EC
:1085CC000495FFF7B9FD7323304603A98DF80E50BF
:1085DC00ADF80C30FFF7B0FD06B070BD00800B405D
:1085EC0000800A408C0001000120F8B5FFF740FE26
:1085FC00FFF754FE01280446FAD109210220FFF7A7
:10860C0065FE2046FFF786FEFFF78AFE00B9FEE7FF
:10861C002046FFF779FE0020FFF79AFE4FF480709A
:10862C00FFF7A0FE21464FF48000FFF7A5FE214680
:10863C004FF00050FFF7A0FE002740F20233402617
:10864C002A4D2B4A2B812A6029466F602948AC722F
:10865C00FFF772FD29462748AF702E80FFF76CFD9F
:10866C004FF48073294623482B802F72AC70FFF790
:10867C0063FD21463046FFF77FFE39461E4800F069
:10868C00C1F81D4800F03EF860254FF480124FF4FD
:10869C0040734FF4E137194917484D608A600F60F9
:1086AC008B8100F043F8164B22461E6010211248B5
:1086BC0000F092F8224620210F4800F08DF8224657
:1086CC0031460D4800F088F8224680210A4800F017
:1086DC0083F822464FF48061074800F07DF821466C
:1086EC00BDE8F840044800F06BB800BF988B01005F
:1086FC002000010000000B4000000340A48B01008F
:10870C0000E100E0002310B4022190244FF44072E9
:10871C000363C36243608461036210BC436283627F
:10872C004163836383640263704700BF70B5044682
:10873C0086B001A80D46FFF72BFE1E491E4B8C423E
:10874C009B6A019A32D01D498C4204BFC3F30223A9
:10875C00DA40296893008808B2FBF0F2B3FBF2F31D
:10876C005B1ADB01B3FBF1F30233042B4FEA9211DA
:10877C0002F03F0217D8AB88EE88288933430343B5
:10878C00012061626989A262E26A0B439BB21343C6
:10879C00E362236BAA8923F47F4323F08003134302
:1087AC00236306B070BD002006B070BD03F0070354
:1087BC00DA40CEE700000340000002400080034096
:1087CC0021B1036B43F00103036370474FF6FE7254
:1087DC00036B134003637047836B12B119438163BE
:1087EC00704723EA01018163704700BF0160704745
:1087FC00006880B2704700BF8369194214BF012022
:10880C00002070470D4A0E4B90429B6A0ED00D4AC9
:10881C00904202D00A4A9362704723F47F4242EAA4
:10882C000123074A43F000739362704723F0FF0360
:10883C00034A0B4343F0807393627047000003407C
:10884C000000024000800340002301461A461846EF
:10885C0000F0A2B808B5074B044613B1002100F094
:10886C00F3F8054B1868836A03B19847204600F06B
:10887C0039F900BF558A0000008B000038B50A4C4E
:10888C000A4D641BA4100AD004F18043013B05EB94
:10889C008305013C55F804399847002CF9D1BDE803
:1088AC00384000F021B900BF188B0100148B010077
:1088BC0070B50D4E0D4D761BB61006D0002401344C
:1088CC0055F8043B9847A642F9D1094E094DFFF7DC
:1088DC0091FB761BB61006D00024013455F8043BEE
:1088EC009847A642F9D170BD108B0100108B010086
:1088FC00148B0100108B0100F0B4860746D0541E77
:10890C00002A3CD0CAB2034602E014F1FF3436D33D
:10891C0003F8012B9D07F8D1032C29D9CDB245EAD8
:10892C0005250F2C45EA054533D9A4F11006360967
:10893C0003F1200707EB061703F1100242E9045577
:10894C0042E902551032BA42F8D1721C14F00C0FE5
:10895C0003EB021204F00F0613D0331F23F00303B2
:10896C000433134442F8045B9342FBD106F0030436
:10897C002CB1C9B21C4403F8011B9C42FBD1F0BCC6
:10898C00704734461346002CF3D1F8E714460346DF
:10899C00C2E71A462646E0E72DE9F041264C82B0A4
:1089AC0025680DB36C681F2C42DC9846064690B1C6
:1089BC00D5F8880038B3D0F800310127A74047EA32
:1089CC00030C022E00EB840340F82420C0F800C1F5
:1089DC00C3F8808011D00020631C02346B6045F812
:1089EC00241002B0BDE8F081144E154D2660EDB197
:1089FC002C683546C6F88840D4E7D0F804311F43BC
:108A0C00C0F80471E7E70F4BCDE9001283B14FF4C6
:108A1C008470AFF3008058B1DDE9001200276C6858
:108A2C003B46C0E94077C5F88800C6E73546B9E74C
:108A3C004FF0FF30D5E700BF408C0100B48B010034
:108A4C0000000000000000002DE9F04F0F464FF031
:108A5C00010ADFF88C8083B0D8F8005001908DB1FA
:108A6C006C68D5F88860013C0CD405F1080B67B133
:108A7C002EB106F1800353F82430BB4205D014F11B
:108A8C00FF34F4D203B0BDE8F08F6B685BF82420A0
:108A9C00013BA34216BF00236C604BF82430002A24
:108AAC00EDD0D5F80490B6B1D6F800110AFA04F35B
:108ABC000B4210D0D6F8040156F8241003420CD106
:108ACC00019890476B68D8F800204B4501D1AA4219
:108ADC00D5D01546C3E79047F4E708469047F1E731
:088AEC00408C0100FEE700BF11
:0C8AF400F8B500BFF8BC08BC9E467047F7
:048B00001C8B0100C9
:088B0400D0F5FF7F0100000025
:048B0C000000000065
:020000021000EC
:048B1000B58000002C
:048B14008D80000050
:108B18001C8B0100000000000000000000000000A5
:108B2800000000000000000000000000000000003D
:108B3800000000000000000000000000000000002D
:108B4800000000000000000000000000000000001D
:108B5800000000000000000000000000000000000D
:108B680000000000000000000000000000000000FD
:048B780000000000F9
:04000003000080DD9C
:00000001FF
