:200000000C9430000C940B51FFFFFFFFFFFFFFFFFFFFFFFFFFFFFFFFFFFFFFFFFFFFFFFF2C
:20002000FFFFFFFFFFFFFFFFFFFFFFFFFFFFFFFFFFFFFFFFFFFFFFFF0C947752FFFFFFFF73
:200040000C946353FFFFFFFF0C9407540C942D540C947054FFFFFFFFFFFFFFFFFFFFFFFFDA
:2000600000EC05BFC0E2D3E000E201500DBF02E000400EBF0E94A288002309F424D0E0E6E7
:20008000F0E000E010E00E94CC89EEECF0E000E610E040E050E00E94BE89E4E4F3E002ED86
:2000A00016E00E94CC89EEECF0E000E213E044E250E00E94BE89E2EFF0E006E11AE04AE5E4
:2000C00050E00E94BE890E94AA030C94A188FF0000000000000000000020000000010000CF
:2000E000000000000000000000000000000000000000000000000000000000005777476784
:2001000058784C6C597969002020202020202020202020202020202020202020000020205C
:2001200020202000202020202020202020202020202020202020202000202020202000003F
:2001400000000000000000000000000000005A2D0800DC0344077B08D508AB195A2DE71440
:20016000902C4101CB14390901140A016A0A01CB1401DA0A01C50B01A10C01E80C01CD0DB8
:20018000023F0E01E10F014610014C10010711010D110121110144110160110392140B4044
:2001A0000901430A014E0A02B60B014E0C01DE0C02F40D01350E020210035F100114110192
:2001C0002811015911018A14FB4801CD28C71B094A2702B32501AD260D8E27017E1A0BA68D
:2001E00028044A2702312706D91A01841BFB2601642942201B642901642901642903D8219E
:2002000001B02201F920027A1D01AB2301E321012B25010A2102C22002F72301C9230121F8
:200220002402072502B62009642901642901642907DF1F01FC1F025D21050D24086429FB7B
:200240000100C92905008029CF299429A329B62944035C2C11030205110402041101021470
:200260000203110202010204020202FB47016F45A53805B2320BF62F01F62F01A8410E71DB
:200280003E02D141036E370B4835014835FB42016F45AB42051E440B684501AE430E7143AC
:2002A00001D741051E440CAE43FB8103404F0303070A0D0605050B01094701FB4401245B63
:2002C000B958032057051B5604DD5A04B958012057140E5803325602DD5A012057047959C9
:2002E00002615AFB0100245B050080568956925680569B560100245B05006E57775780576E
:200300006E5789570000245B0600245B58586A58735861587C580101245B0C590115590114
:200320001E59010C59012759063059FB0100245B0500CA59D359DC59CA59E5590002A85B66
:2003400014000E1D1D1D1D2A2A2A2A2A39393939394848486D6D44011469FF62032A6205AF
:20036000505E04CC6704FF62014F6114EB6503505E02CC67014F61048F5C02C75DFB010274
:20038000D85C1000181818181818181818120E0A060606064403A1690303070D03010B1A6B
:2003A0000B040F020BFB000001D572C36C64FF6C0A136D0A276D0A3B6D464F6D0A636D5AC1
:2003C000676D0A7B6D5A7F6D0A936D01A76D09CD6D01E16D4F296E0AD5725A3D6EFB0064C5
:2003E00001D5725E6E0A726E0A866E0A9A6E46AE6E0AC26E5AC66E0ADA6E5ADE6E0AF16E64
:2004000001046F09286F013B6F4F826F64956FFB006401D572B56F0AB86F0AB86F0AB86F17
:2004200046B56F0ACB6F5AB56F0AEA6F5AB56F0A1870012B700942700155704FB56F64B574
:200440006FFB006401D57279700A8C7002BD7008E270021371083871026971448E710ACCE2
:20046000715ACF710A0A725A13720A2672014E720957720195724F9E720AA5725AA8720AD1
:20048000D372FB44038B734F03160524084F0132140F031D0348062BFB2101D5765B7505C0
:2004A00051751B317402847405377403447405C37301B97301B17302267502AC7503AA73E4
:2004C000086D7502847402777506447402AC76FB440340763603060912043C011E142A0376
:2004E0000C032404300218FB81034A7715032C0A2C062005200115470AFB0001017ADA7846
:2005000005007901317901597901817901A97901D179FB0002AC7A0500864F3819174403CA
:200520009A7F07030A050A040A0407150A030A020A010A0403FB0102208410001C1C1C1AFC
:2005400018161412100E0C0A080604020102568410001C1C1C1A18161412100E0C0A08060E
:2005600004024403D68473031B0D73011B171B031B041B021BFB0102DF8510001818181849
:200580001818181818120E0A060606060102628808006155493D3125190C6E6F20636F6EB8
:2005A0006E656374696F6E202120002077726F6E67206669726D7761726520002020494E29
:2005C00044555354524F4E4943202020006572726F72206C69737420656E64202000202023
:2005E000202020202020202020202020202000202072656C6561736520202020202020003A
:200600006C6174657374206572726F72202020200070726576696F7573206572726F72209C
:2006200020006E657874206572726F7220202020202000202020706C656173652077616996
:20064000742020006572726F72206D65737361676573202000737065616B657220766F6CA8
:20066000756D652020006D6963726F20766F6C756D652020202000736F756E64206F6E205B
:200680002F206F6666202000736F756E6420766F6C756D6520202020006B65797061642091
:2006A000736F756E6420202020004458432076657273696F6E202020202000736F667477B9
:2006C0006172652076657273696F6E006F666620202020202020202020202020006F6E20E4
:2006E00020202020202020202020202020002D2020202B2020202065736320206F6B0020AD
:20070000202020202020202020202020206F6B002020313220445353203030312020202081
:2007200000202031322044542030303120202020200020203132204453532030303220206E
:2007400020200020203132204454203030322020202020000E94D7892B97002711E01D8330
:200760006624CC24109194041E7F1093940411271093B80911271093500401E010E0012B26
:2007800011F40C946A2F0091BB0901FF0FC000270A930091BB090A9349E401E20E948C7390
:2007A00000270093500400270093BB090091B809ECE4F1E00C946C890E94A949002309F075
:2007C00061C300914007073469F494980AE00093090A0091090A002321F0A8950E94285B8F
:2007E000F8CF949A00914007043521F000914007043469F4002711270093700410937104F7
:20080000002700932A030E944D4D0E946777009140070337A9F0009140070F3689F0009163
:200820004007053569F000914007053749F0009140070C3629F000914007073409F020C270
:2008400000914007033751F40CE30093360300913603002311F0A895FACFA898009140077A
:200860000F3699F40E94887F0093080A0091080A023058F0A89A0AE00093090A0091090AC5
:20088000002311F0A895FACFA89800914007073459F4A89A0AE00093090A0091090A0023F5
:2008A00011F0A895FACFA89808E20093360300913603002311F0A895FACF02E30093D308F4
:2008C000009195040D7F0093950400919504077F00939504002700930907002700933E0791
:2008E000002700933F07DE98009194040F7D00939404579A0E94055502E50093230701E32D
:200900000093240702E000933F07DE9A00919404006200939404559A0E94055503E40093CB
:2009200023070FE3009324070AE70093250703E000933F07DE9A0091940400620093940443
:20094000559A0EE10093360300913603002311F0A895FACF01E0402E00E0502E002708839A
:200960000027098300270A8300270B83009140070337A9F0009140070F3689F00091400742
:20098000053569F000914007053749F0009140070C3629F000914007073409F0B1C00E9425
:2009A000055500E50093230701E30093240702E000933F07DE9A00919404006200939404B0
:2009C000559A0E9405550BE40093D20703E20093D3080091D3080023E1F70091950401FFED
:2009E00002C00E94F07E0E94055503E4009323070FE3009324070AE70093250703E00093AF
:200A00003F07DE9A00919404006200939404559A0EE10093360300913603002311F0A8958D
:200A2000FACF0027112700935409109355090027112700935B0910935C090091950401FF15
:200A400002C00E94F07EAA27BB2701E0802E00E0902EE82DF92D3A970CF052C00E940555CE
:200A600000E500932307082D0E94CB870093240702E000933F07DE9A00919404006200939C
:200A80009404559A0E9405550BE40093D20703E20093D3080091950401FD04C00091D308CD
:200AA0000023C1F70091950401FF20C00E94F07E00919D09043539F4082D0E94CB871091DA
:200AC000A109011759F000919D09013579F4082D0E94CB8710919E09011741F4E4E5F9E0D1
:200AE0000081118104291529008311830091D2070023E1F7440C551C0FEF801A900AA9CF91
:200B000000914007033729F000914007053709F097C0002700935A0901E0402E00E0502E7C
:200B200001E0802E00E0902EE82DF92D3A970CF087C0009154091091550904211521012BC5
:200B400009F478C00E94055502E500932307082D0E94CB870093240702E000933F07DE9AA6
:200B600000919404006200939404559A0E9405550BE40093D20703E20093D30800919504FC
:200B800001FD04C00091D3080023C1F70091950401FF3FC00E94F07E00919D090435C1F5ED
:200BA000082D0E94CB871091A1090117F9F500919E090133D9F500919F09003321F0009173
:200BC0009F09063399F50091B609073070F4E8E5F9E00081118104291529008311830091EF
:200BE0005A090F5F00935A0921C00091A2090E94B78703FD1BC0E8E5F9E000811181042970
:200C000015290083118300915A090F5F00935A090DC0E8E5F9E000811181042915290083B3
:200C2000118300915A090F5F00935A090091D2070023E1F7440C551C0FEF801A900A74CF2D
:200C4000009140070F3641F000914007053521F000914007073441F4E4E5F9E00081118126
:200C60000160106000831183009140070C3641F4E4E5F9E00081118103601060008311839E
:200C800000914007003549F000914007093629F0009140070E3609F04DC002E30093D30869
:200CA000009195040D7F00939504002700930907002700933E07002700933F070091940460
:200CC0000F7D00939404579A00914007003521F0009140070E3621F4A99A0E94194FA9988F
:200CE0000E94055502E00093230709E40093240702E000933F07009194040062009394043D
:200D0000559A00270D830E94055502E00093230703E4009324070FE3009325070AE70093B8
:200D2000260704E000933F0700919404006200939404559A00918903013081F541E004E05B
:200D400010E00E940F5641E005E010E00E940F560E94285B00914007043521F00091400780
:200D6000043469F400270A930BEA15E022270E94AB801A930A9342E001E00E94D97600914B
:200D80004007093609F41B9801B5086101BD01B5077F01BD01E010E0012BE1F70E948277D6
:200DA000002309F06FC0442700270E94037A00914007003599F0009140070E3679F04427B1
:200DC000002711270E940F5645E001E010E00E940F5645E002E010E00E940F5600914007DA
:200DE000033751F445E003E210E00E940F5645E004E210E00E940F56009140070F3641F023
:200E000000914007053521F000914007073451F445E003E010E00E940F5645E004E010E05F
:200E20000E940F568AE08823B1F00E94285BA895F89404E10E94E354702E789477FE02C068
:200E40008A9501C08AE001E00093360300913603002349F3FBCF00914007003529F0442717
:200E6000002711270E940F56882701E00093C90800270E941F7E04E10093D208992701E0BF
:200E80000093B8090C945A2D009136030023A9F4992311F491E001C099270091400700358D
:200EA00049F0009140070E3629F0492F002711270E940F560AE0009336030091950407FF00
:200EC00008C10E94AE7E00918909025409F462C0075059F1085009F4B9C0025219F00750C0
:200EE000B1F0F7C000918B090F3381F446E407E016E00E94905443E408E016E00E949054A6
:200F000002E00093C90807E00093B809E2C0823059F402E00093C9080E9405550AB10F7132
:200F20000AB900270093B809D4C0813091F500918A0910918C09011761F500918B090F3379
:200F400041F500918C090093520900918D090093530940915309009152090E9463880093F8
:200F60008A0310938B0300918E09023331F4F8944BE005E10E94CA54789400270A930027DD
:200F80000A93442702E50E948C7315E01093C90882E09FC000270987823009F09AC000914A
:200FA0008A0910915209011709F093C000918B090F3309F08EC000918C0910915209011756
:200FC00009F087C000918D09109153090117E9F5A5E0B0E000919C091127A017B107A8F528
:200FE00001E0502E44240CEB19E00E94B28A242D33272017310780F4E42DFF27E454F64F1A
:201000000081EA2FFB2FE757F64F1081011711F4552402C04394E7CF5520A9F00CEB19E015
:201020000E94B28A0D31104070F4EA2FFB2FE757F64F008108874C2F5D2F485F5F4F0CEBB7
:2010400019E00E94888A1196C5CF43C0823009F040C000918A09109152090117D1F500916B
:201060008B090F33B1F500918C0910915209011781F500918D0910915309011751F5009131
:201080004007003529F04427002711270E940F56442700E10E94377E442703E30E94377E9F
:2010A000442704E30E94377E442707E30E94377E442708E30E94377E44270AE30E94377E7F
:2010C00000270093360302E00093C90802E00093B8090091C908002361F400270A930027DC
:2010E0000A93442709E50E948C7381E012E01093C9080C945A2D009136030023A9F4992325
:2011000011F491E001C0992700914007003549F0009140070E3629F0492F002711270E94E4
:201120000F5604E1009336030091C9080023B1F400270A9300270A9342E500E50E948C733A
:2011400000914007003521F00EE10093C90803C00CE30093C90803E00093B80900919504A7
:2011600007FF21C00E94AE7E009189090A37D9F400918C09109152090117A9F400918D098B
:2011800010915309011721F000918D090F3359F402E00093C9080E9405550AB10F710AB933
:2011A00000270093B8090C945A2D009136030023A9F4992311F491E001C099270091400778
:2011C000003549F0009140070E3629F0492F002711270E940F5604E10093360300919504B3
:2011E00007FD02C00C94CB140E94AE7E009189090A37D9F400918C09109152090117A9F4D4
:2012000000918D0910915309011721F000918D090F3359F402E00093C9080E9405550AB1CE
:201220000F710AB900270093B80900918909003511F00C94CB1400918C09109152090117DE
:2012400011F00C94CB1400918D0910915309011711F00C94CB1400270A9300270A9344275F
:2012600001E50E948C7300918E09E2E6F1E00C946C8941E301E216E00E9490540C94CB148F
:2012800000918F090B3439F500919009003319F5009191090E94B787802F8295807F0091EC
:2012A00092090E94B787802B772401E010E8AA27BB27EA2FFB2F389748F4282F21232223B3
:2012C00009F0702A000F16951196F3CF472D00E416E00E94905400918F09043509F0A2C0C7
:2012E000009194090E94B787A02FBB27009193090E94B78711274AE050E00E94C688A00FF1
:20130000B11F009192090E94B787112744E650E00E94C688A00FB11F009191090E94B787E5
:20132000112748EE53E00E94C688A00FB11F4A2E5B2E009190090E94B787112740E157E200
:201340000E94C688400E511E042D152D42E350E00E94EB88402E512E01EB401604E050069A
:2013600020F000EB402E04E0502E442D0DE316E00E949054452C5524442D0CE316E00E94E3
:201380009054009199090E94B787A02FBB27009198090E94B78711274AE050E00E94C68811
:2013A000A00FB11F009197090E94B787112744E650E00E94C688A00FB11F009196090E94CA
:2013C000B787112748EE53E00E94C688A00FB11F4A2E5B2E009195090E94B787112740E156
:2013E00057E20E94C688400E511E042D152D42E350E00E94EB88402E512E01EB401604E017
:20140000500620F000EB402E04E0502E442D0FE316E00E949054452C5524442D0EE316E08A
:201420000E9490540C94CB1440918F0909E016E00E94905400918F09013421F000918F0941
:20144000013689F4009190090E94B787802F8295807F009191090E94B787800F482F0AE00E
:2014600016E00E94905400919C090B3050F000919209043431F44091930903E416E00E94CA
:2014800090540C94CB1400918F09013329F441E00BE316E00E9490540C94CB1400918F093C
:2014A0000E94B787013029F441E301E116E00E94905400919009073559F4009191090E94FC
:2014C000B787002329F440E302E116E00E9490540C94CB1440918F090BE016E00E949054BD
:2014E000009190090E94B787802F8295807F009191090E94B787800F482F0CE016E00E9488
:201500009054009192090E94B78711274CE00E94D688A02FB12F009193090E94B787112783
:20152000102F0027A02BB12B009194090E94B787112744E00E94D688A02BB12B009195095E
:201540000E94B7871127A02BB12BA93007E0B00728F58827009192090E94B7870295007F67
:20156000802F009193090E94B787802B482F0EE016E00E9490548827009194090E94B78766
:201580000295007F802F009195090E94B787802B482F0DE016E00E9490540AC047E00EE00D
:2015A00016E00E94905448E00DE016E00E9490540C94CB1440918F0900E016E00E949054DA
:2015C0004091900901E016E00E9490544091910902E016E00E9490544091920903E016E036
:2015E0000E9490544091930904E016E00E9490544091940905E016E00E949054409195095A
:2016000006E016E00E9490544091520907E016E00E9490544091530908E016E00E94905448
:201620000FE016E00E94C254002309F460C00091DD09033008F05BC002E416E00E94C2547C
:201640000023C9F000914007033721F000914007053789F40FE016E00E94C2540E94B7877D
:20166000112744E00E94D688402E512E0CE0400E00E0501E10C00FE016E00E94C2540E948A
:20168000B787112744E00E94D688402E512E0AE0400E00E0501E44E5042D152D000F111F62
:2016A000000F111F0E9490544FEF042D152D000F111F000F111F0F5F1F4F0E9490544FEF96
:2016C000042D152D000F111F000F111F0E5F1F4F0E9490544FEF440C551C440C551C03E015
:2016E000400E00E0501E042D152D0E9490540EE00E94837E002339F10EE116E00E94C254DA
:201700000230C8F40E94F54E0EE116E00E94C254402F43950EE116E00E94905400E30A9327
:2017200001E30A934EE005E60E948C7301E010E0012BA1F0FBCF0E94F54E44270EE116E0E1
:201740000E9490540BC00EE116E00E94C254002329F044270EE116E00E94905402E0009314
:20176000C90806E00093B8090C94CB1400918F090B3449F400919009003329F441E006E3B6
:2017800016E00E9490540C94CB14009191090E94B787402E5524009190090E94B78711271A
:2017A0004AE050E00E94C688400E511E01E0401600E050060CF470C004E6401600E050060F
:2017C0000CF06AC00FEF400E501E042D152D000F111F005B194F0F5F1F4F0E94C254802F71
:2017E0008460482F042D152D000F111F005B194F0F5F1F4F0E9490548827AA27BB270091C4
:201800009C09112709501040A017B107F0F4EA2FFB2F3897D0F4EA2FFB2FEE56F64F0081CC
:20182000002389F0EA2FFB2FEE56F64F0081093050F401E0EA2FFB2FEE56F64F4081415043
:201840000E94AE88802B1196DACF482F042D152D000F111F005B194F0E94905400918F091A
:201860000033D1F4042D152D000F111F005B194F0F5F1F4F0E94C254802F41E0482B440CD4
:20188000551C00E5400E06E0501E0FEF401A500A042D152D0E9490540C94CB1400919209FA
:2018A0000E94B787402E5524009191090E94B78711274AE050E00E94C688400E511E0FEF19
:2018C000400E501EAA27BB27EA2FFB2F3897B8F5222733272A0F3B1F042D152D43E00E946C
:2018E000D688085E184F200F311F022F132F0E94C2540F3F11F5009190090E94B787702E17
:2019000000918F090E94B7874AE00E94A488700E472D242F662777276A0F7B1F042D152DD0
:2019200043E00E94D688085E184F600F711F062F172F422F0E94905402C01196C5CF0C94A9
:20194000CB14009190090E94B787402E552400918F090E94B78711274AE050E00E94C6882C
:20196000400E511E01E0401600E0500634F104E6401600E050060CF5009191090033E9F466
:201980000FEF400E501E042D152D000F111F005B194F0F5F1F4F0E94C254802F482F4260BC
:2019A000440C551C00E5400E06E0501E0FEF401A500A042D152D0E949054EDC700918F0957
:2019C000013329F441E309E316E00E949054E3C700919109065509F0DEC7009190090E9490
:2019E000B787802F00918F090E94B7874AE00E94A488800F8A95893108F0CAC000919409E1
:201A00000E94B787402E009193090E94B7874AE00E94A488400E042D4AE00E94A488402E8E
:201A2000042D4FE00E94B888402E009192090B32009192090D3219F400270419402E0091D2
:201A400097090C3409F086C0AA27BB27EA2FFB2F339708F0A0C78A2E9B2E03E0800E00E076
:201A6000901E082F112749E050E00E94C6880858154F800E911E082D192D0E94C2540F3F7E
:201A800009F066C0009199090E94B787502E009198090E94B7874AE00E94A488500E452DBC
:201AA000542E8A2E9B2E03E0800E00E0901E082F112749E050E00E94C6880858154F800E1A
:201AC000911E082D192D452D0E94905440919609542E082F112749E050E00E94C6880858DA
:201AE000154F0E5F1F4F452D0E949054442D742E4A2E5B2E06E0400E00E0501E082F1127AA
:201B000049E050E00E94C6880858154F400E511E042D152D472D0E949054EA2FFB2F329782
:201B2000D9F15A2E53944FEF442EA52DBB271396082F112749E050E00E94C6880858154FE3
:201B4000A00FB11F0A2F1B2F442D0E94905423C711967CCF442DA42F082F112749E050E0A4
:201B60000E94C6880858154F4A2F0E94905440919609A42F082F112749E050E00E94C688B7
:201B80000858154F0F5F1F4F4A2F0E94905403C741E001E10E94377EFEC6009191090E94F1
:201BA000B787A02F009190090E94B7874AE00E94A488A00F0A2F4AE00E94A488A02F0A2F2E
:201BC0004FE00E94B888A02F00918F090B3200918F090D3219F400270A1BA02F4A2F05E3CE
:201BE00016E00E949054D7C6009193090E94B787A02FBB27009192090E94B78711274AE0A0
:201C000050E00E94C688A00FB11F009191090E94B787112744E650E00E94C688A00FB11F19
:201C2000009190090E94B787112748EE53E00E94C688A00FB11F00918F090E94B787112749
:201C400040E157E20E94C688A00FB11F4A2F5B2F452F552704E116E00E9490544A2F4F7F20
:201C600003E116E00E94905496C600918F09013329F441E00AE316E00E9490548CC60091C1
:201C80008F09083509F04DC0AA27009190090E94B78711274AE050E00E94C688402E512E1F
:201CA000009191090E94B7871127400E511E00914007033721F402E2400E00E0501E0091EC
:201CC0004007043521F000914007043421F403E2400E00E0501E009140070F3641F00091EE
:201CE0004007053521F000914007053721F402E2400E00E0501E009140070C3621F405E194
:201D0000400E00E0501E00914007073421F400E2400E00E0501E00914007093619F5ADE0CF
:201D200021C000918F090E94B787112744E00E94D688402E512E009190090E94B78711272E
:201D40004AE050E00E94C688400E511E009191090E94B7871127400E511E00918F090E94B1
:201D6000B787A02F042D052981F400E4B01640F44B2C552405E2400E00E0501EB3940FC01B
:201D80000FEF402E0FEF502E0AC0A23020F40FEF400E501E04C00FEF402E0FEF502E0FEF47
:201DA00040160FEF500609F407C140919209042D152D000F111F000F111F0E949054409100
:201DC0009309042D152D000F111F000F111F0F5F1F4F0E94905440919409042D152D000F24
:201DE000111F000F111F0E5F1F4F0E94905440919509042D152D000F111F000F111F0D5F47
:201E00001F4F0E94905400914007093661F000914007053541F0009140070F3621F0009164
:201E200040070734E1F4E42DF52D3897C4F400919C090031A0F000919809093481F407E3CC
:201E400016E00E94C254802F01E0442D0E94AE88082B802B482F07E316E00E9490540091AF
:201E60004007033731F500E9401600E050060CF103E9401600E05006E4F400919C09003192
:201E8000C0F0009198090934A1F404E7400E0FEF501E07E316E00E94C254802F01E0442D50
:201EA0000E94AE88082B802B482F07E316E00E949054009140070F3621F00091400705354F
:201EC00031F500E7401600E050060CF105E7401600E05006E4F400919C090031C0F0009174
:201EE00098090934A1F400E9400E0FEF501E01E416E00E94C254802F01E0442D0E94AE8860
:201F0000082B802B482F01E416E00E94905400914007073421F5E42DF52DB09704F1E42D62
:201F2000F52DB597E4F400919C090031C0F0009198090934A1F400EE400E0FEF501E01E4B3
:201F400016E00E94C254802F01E0442D0E94AE88082B802B482F01E416E00E9490540091B3
:201F60004007043521F000914007043449F5E42DF52DB0972CF1E42DF52DB2970CF50091DD
:201F80009C090031E8F0009198090934C9F400EE400E0FEF501E01E416E00E94C254802F7D
:201FA00001E0442D0E94AE88082B802B482F01E416E00E949054EFC441E00FE00E94377E27
:201FC000EAC44091900900918F090E94BE4F802F8B35B8F08B36A8F400919109003389F4C2
:201FE00000919209013368F000919209093348F4409192094053082F112709531A4F0E94B0
:202000009054C9C400918F090E94B787B02FB150009191090E94B787A02F009190090E94C0
:20202000B7874AE00E94A488A00FAB55009193090E94B787402E009192090E94B7874AE00A
:202040000E94A488400E0FEF400EB031D0F4A031C0F408E04016A8F4442D542F2B2F33276C
:20206000205030400A2F112744E00E94D688075A144F200F311F022F132F452F0E9490543B
:202080008AC441E006E30E94377E85C441E303E316E00E9490547FC400918F09083429F4FD
:2020A00041E00CE116E00E94905400918F09033529F441E304E316E00E9490546CC40091D0
:2020C0008F09043449F400919009013329F441E002E416E00E94905400918F09053509F099
:2020E00050C000919009013409F04BC041E405E416E00E94905400914007073441F000910E
:2021000040070F36F1F50091080A0230D0F101E416E00E94C254802F082F0260802B482FBA
:2021200001E416E00E949054009140070734A9F44AE508E810E00E94905440E309E810E0F5
:202140000E94905440E30AE810E00E94905440E30BE810E00E94905414C04AE508EC11E0FA
:202160000E94905440E309EC11E00E94905440E30AEC11E00E94905440E30BEC11E00E940D
:20218000905400918F09083409F005C4009194090E94B787A02FBB27009193090E94B78768
:2021A00011274AE050E00E94C688A00FB11F009192090E94B787112744E650E00E94C68890
:2021C000A00FB11F009191090E94B787112748EE53E00E94C688A00FB11F4A2E5B2E0091D3
:2021E00090090E94B787112740E157E20E94C688400E511E442D07E416E00E949054452CDE
:202200005524442D06E416E00E949054C4C341E302E316E00E949054BEC340918F090FE089
:2022200016E00E949054B7C340918F090AE116E00E949054409190090BE116E00E94905406
:20224000AAC302E00093C90806E00093B809A3C34091520907E016E00E949054409153096F
:2022600008E016E00E94905400E30A930E94887F0A9344E506E50E948C7302E00093C90839
:2022800007E00093B80987C340918F090FE116E00E94905400919C09093050F0009190090B
:2022A000013431F44091910904E416E00E94905472C340918F0900E216E00E9490546BC3CB
:2022C0000FE00093C908BB240E94F54E0BE016E00E94C254003329F040E30BE016E00E945C
:2022E00090540CE016E00E94C254053029F045E00CE016E00E9490540DE016E00E94C254EA
:20230000A02FBB270EE016E00E94C2541127102F0027A00FB11F1A9751F044270EE016E012
:202320000E9490544AE00DE016E00E94905409E016E00E94C254003329F040E309E016E09F
:202340000E9490540AE016E00E94C254003129F040E10AE016E00E94905403E416E00E940F
:20236000C254003329F040E303E416E00E9490544424552405E6401600E05006B8F4042D40
:20238000152D000F111F000F111F0E94C2540F3F49F04FEF042D152D000F111F000F111F0F
:2023A0000E9490540FEF401A500AE4CF44245524E42DF52D7997D0F5042D152D49E050E07D
:2023C0000E94C6880858154F0E94C2540F3F69F04FEF842F042D152D49E050E00E94C6883D
:2023E0000858154F482F0E949054042D152D49E050E00E94C6880858154F0D5F1F4F0E9420
:20240000C2540F3F79F04FEF842F042D152D49E050E00E94C6880858154F0D5F1F4F482F2D
:202420000E9490540FEF401A500AC2CF00914007093609F06CC04424552403E6401600E097
:20244000500670F5042D152D000F111F005B194F0E94C254002349F04427042D152D000F4B
:20246000111F005B194F0E949054042D152D000F111F005B194F0F5F1F4F0E94C2540023B7
:2024800059F04427042D152D000F111F005B194F0F5F1F4F0E9490540FEF401A500ACDCF63
:2024A000442455240BE6401600E0500680F58827883048F5282F332720503040042D152DA1
:2024C00043E00E94D688085E184F200F311F022F132F0E94C2540F3FA1F04FEF542F282F6B
:2024E000332720503040042D152D43E00E94D688085E184F200F311F022F132F452F0E9437
:2025000090548395D5CF0FEF401A500ACBCF0FE016E00E94C254002329F044270FE016E0A6
:202520000E94905440918F0900E116E00E9490544EEF0AE116E00E9490544EEF0BE116E08C
:202540000E9490540CE116E00E94C254002329F044270CE116E00E9490540DE116E00E94C4
:20256000C254033028F044270DE116E00E9490540EE116E00E94C254033028F044270EE1E3
:2025800016E00E9490540FE116E00E94C254003329F040E30FE116E00E94905400E216E06E
:2025A0000E94C254003329F040E300E216E00E94905401E216E00E94C254003329F040E396
:2025C00001E216E00E94905407E316E00E94C254002329F0442707E316E00E949054882748
:2025E000803188F4082F11270E5D194F0E94C2540F3F39F04FEF082F11270E5D194F0E941B
:2026000090548395EDCF8827803198F544245524E42DF52D709758F522273327240D351D87
:20262000082F112744E00E94D688075A144F200F311F022F132F0E94C2540F3FA1F04FEF7C
:20264000242F66277727640D751D082F112744E00E94D688075A144F600F711F062F172F28
:20266000422F0E9490540FEF401A500AD1CF8395CBCF8827843008F06AC0082F1127000F5C
:20268000111F000F111F075A134F0E94C2540F3F59F04FEF082F1127000F111F000F111F8E
:2026A000075A134F0E949054082F1127000F111F000F111F075A134F0F5F1F4F0E94C2548D
:2026C0000F3F69F04FEF082F1127000F111F000F111F075A134F0F5F1F4F0E949054082FCC
:2026E0001127000F111F000F111F075A134F0E5F1F4F0E94C2540F3F69F04FEF082F11277A
:20270000000F111F000F111F075A134F0E5F1F4F0E949054082F1127000F111F000F111F2A
:20272000075A134F0D5F1F4F0E94C2540F3F69F04FEF082F1127000F111F000F111F075A11
:20274000134F0D5F1F4F0E949054839593CF02E316E00E94C254003329F040E302E316E060
:202760000E94905403E316E00E94C254003329F040E303E316E00E94905404E316E00E94EF
:20278000C254003329F040E304E316E00E94905405E316E00E94C254002329F0442705E32C
:2027A00016E00E94905406E316E00E94C254002329F0442706E316E00E94905401E116E022
:2027C0000E94C254003329F040E301E116E00E94905402E116E00E94C254013329F041E372
:2027E00002E116E00E94905409E316E00E94C254003329F040E309E316E00E94905403E125
:2028000016E00E94C254A02FBB2704E116E00E94C2541127102F0027A00FB11FAF3FBF4FAD
:2028200051F04FEF03E116E00E9490544FEF04E116E00E9490540AE316E00E94C25400235C
:2028400029F044270AE316E00E9490540BE316E00E94C254002329F044270BE316E00E94C2
:20286000905400E416E00E94C254002329F0442700E416E00E94905401E416E00E94C25448
:20288000002329F0442701E416E00E94905402E416E00E94C254002329F0442702E416E019
:2028A0000E94905403E416E00E94C254003329F040E303E416E00E94905404E416E00E94AB
:2028C000C254003329F040E304E416E00E94905405E416E00E94C254003329F040E305E420
:2028E00016E00E94905407E416E00E94C254002329F0442707E416E00E94905406E416E0D5
:202900000E94C254002329F0442706E416E00E94905441C001E010E0012BE9F101E00093A6
:20292000110A39C0009190090E94B787A02F00918F090E94B7870295007FA00FA093DD09C3
:20294000009192090E94B787A02F009191090E94B7870295007FA00FA093DE090091DD093B
:20296000112701501040102F00272091DE093327020F131F0093210310932203E0912103CF
:20298000F0912203BA9720F001E00093390303C000270093390300914007003579F40091BC
:2029A000950401FF0BC00E94F07E00919D090E3429F40FE00093DC090E94B2830091C9086D
:2029C000002319F402E00093B8090C945A2D009140070337A9F0009140070F3689F0009198
:2029E0004007053569F000914007053749F0009140070C3629F000914007073409F0F3C0BE
:202A0000002711270093560910935709AA27BB27EA2FFB2FB59710F50A2F1B2F000F111F59
:202A2000000F111F0E94C2540F3FB1F0E6E5F9E001E010E0202F312F0A2F1B2F44E00E9443
:202A4000DD88402F022F132F0E94D68820813181202B312B208331831196DACF01E0402E3F
:202A600000E0502E82E0AA27BB27082F1127A017B107C0F400915609109157090421152105
:202A8000012B61F0009154091091550904211521012B21F441E000270E94377E440C551CD0
:202AA0001196E3CF06E316E00E94C2540023D9F500270E94837E002359F10DE116E00E9478
:202AC000C2540230F8F40DE116E00E94C254402F43950DE116E00E94905400270A9300278A
:202AE0000A9341E500E50E948C7300E30A9300E30A934BE406E50E948C7301E010E0012BD5
:202B000091F0FBCF44270DE116E00E9490540BC00DE116E00E94C254002329F044270DE199
:202B200016E00E949054AA27BB27EA2FFB2F339708F059C000E30A9300E30A934BE406E52E
:202B40000E948C7308E000933603A89500913603002309F446C00091950407FFF7CF0E945B
:202B6000AE7E00918909015519F0095299F0EECF00918C0910915209011761F400918D0950
:202B800010915309011731F4A3E0B0E0002700933603DCCF00918C09109152090117B1F669
:202BA00000918D0910915309011721F000918D090F3361F600918E09013329F40091940466
:202BC000016000939404A3E0B0E00027009336030E9405550AB10F710AB900270093B809EE
:202BE000B5CF1196A2CF002700938C0301E0402E00E0502EAA27BB27EA2FFB2F399788F401
:202C0000009154091091550904211521012B29F000918C030F5F00938C03440C551C11960F
:202C2000EBCF0E94258205E416E00E94C2540134E9F401E00093B90900914007073429F482
:202C4000009187090B7F00938709009140070F3669F40E94887F0093080A0091080A023009
:202C600028F0009187090B7F0093870907E416E00E94C254402E552406E416E00E94C25456
:202C80001127102F0027400E511E452829F00091140A01600093140A05E416E00E94C254FB
:202CA000003319F50091DD090330F8F0009140070F36D9F401E010E0012BB9F004EC11E0D0
:202CC0000E94C254083489F401E416E00E94C25401FD0BC001E416E00E94C254802F826003
:202CE000482F01E416E00E949054009140070F3689F40E94887F0093080A0091080A02303F
:202D000048F00EE00E94E354802F8160482F0EE00E94CA5403E116E00E94C254A02FBB27BC
:202D200004E116E00E94C2541127102F0027A00FB11FA093000AB093010A0BE316E00E94D2
:202D4000C2540093020A00E416E00E94C254002339F10DE316E00E94C254A02FBB270CE3A1
:202D600016E00E94C2541127102F0027A00FB11FA093030AB093040A0FE316E00E94C25457
:202D8000A02FBB270EE316E00E94C2541127102F0027A00FB11FA093050AB093060A0CC065
:202DA000002711270093030A1093040A002711270093050A1093060A00914007093641F067
:202DC00000914007003521F0009140070E3609F41A98AA27BB27EA2FFB2F339708F05AC038
:202DE00000E30A930091080A0A9344E506E50E948C7308E000933603A89500913603002380
:202E000009F446C00091950407FFF7CF0E94AE7E00918909015519F0095299F0EECF009137
:202E20008C0910915209011761F400918D0910915309011731F4A3E0B0E00027009336032D
:202E4000DCCF00918C09109152090117B1F600918D0910915309011721F000918D090F3330
:202E600061F600918E09013329F400919404016000939404A3E0B0E00027009336030E9425
:202E800005550AB10F710AB900270093B809B5CF1196A1CFAA27BB27EA2FFB2F339708F00C
:202EA00059C000E30A9300E30A9348E406E50E948C7308E000933603A89500913603002363
:202EC00009F446C00091950407FFF7CF0E94AE7E00918909015519F0095299F0EECF009177
:202EE0008C0910915209011761F400918D0910915309011731F4A3E0B0E00027009336036D
:202F0000DCCF00918C09109152090117B1F600918D0910915309011721F000918D090F336F
:202F200061F600918E09013329F400919404016000939404A3E0B0E00027009336030E9464
:202F400005550AB10F710AB900270093B809B5CF1196A2CF0091DD09033008F460C0AA276B
:202F6000BB27EA2FFB2F339708F059C000E30A9300E30A9348E606E50E948C7308E000931C
:202F80003603A89500913603002309F446C00091950407FFF7CF0E94AE7E0091890901558E
:202FA00019F0095299F0EECF00918C0910915209011761F400918D0910915309011731F477
:202FC000A3E0B0E0002700933603DCCF00918C09109152090117B1F600918D09109153093B
:202FE000011721F000918D090F3361F600918E09013329F400919404016000939404A3E037
:20300000B0E00027009336030E9405550AB10F710AB900270093B809B5CF1196A2CF00918B
:2030200094040E7F0093940402E00093C90800914007003529F04427002711270E940F5603
:203040000BE016E00E94C254015441F0015181F1015009F442C00350B1F054C0009196040A
:203060000061009396040091960408600093960400919604046000939604009196040D7F8F
:203080000093960453C00091960400610093960400919604077F00939604009196040460CA
:2030A00000939604009196040D7F009396043EC00091960400610093960400919604077F97
:2030C00000939604009196040460009396040091960402600093960429C0009196040061D8
:2030E000009396040091960408600093960400919604046000939604009196040260009307
:20310000960414C0009196040F7E0093960400919604077F00939604009196040B7F009336
:203120009604009196040D7F00939604009196040E7F009396040091DD09033028F00091D9
:20314000960404600093960409E016E00E94C254015429F00B5019F1055189F030C000918A
:203160009604006400939604009196040F7700939604009196040F7D009396042FC00091E2
:20318000960400640093960400919604006800939604009196040F7D009396041FC00091F0
:2031A00096040F770093960400919604006400939604009196040062009396040FC00091EC
:2031C00096040F7B00939604009196040F7D00939604009196040F7700939604AA27BB2729
:2031E000EA2FFB2FB597E0F4442455240A2F1B2F45E050E00E94C688E02FF12FEF51F84F0D
:203200004082518244240A2F1B2F45E050E00E94C688E02FF12FED51F84F40821196E0CF1D
:203220000BE116E00E94C254402FA42F0AE116E00E94C2544A2F0E94638800939803109342
:2032400099030027009348030091950404600093950402E00093C9080AEF10E00093CE077C
:203260001093CF0704EC19E00093D0071093D1070AEF0093D20702E30093CC0804EC19E06D
:203280000093D5071093D6070FE016E00E94C254039500936F0700916F070A3319F401E4CB
:2032A00000936F0700270093430700914007003521F0009140070E3619F40FE00093DC0953
:2032C0000CE116E00E94C254013029F500914007033761F000914007003541F0009140078B
:2032E0000E3621F0009140070F36A9F4AA27BB27EA2FFB2FB59778F40A2F1B2F0E94B847ED
:20330000002339F041E00A2F1B2F0F5F1F4F0E940F561196EDCF04E00093B8090091400767
:20332000043521F000914007043419F401E00E94FD87009195040E7F009395040027009382
:20334000070A00270A9300270A9341E500E50E948C730C945A2D00913303002309F058C006
:2033600000913403002309F453C00091DD090330D8F100270E94D378002700933403009149
:20338000CD08002319F000270093CD0800915404002319F00027009354040091D0080E7F80
:2033A0000093D008DC9A0091D00802FF0FC00091D00803FF06C00091D1080E94D378DC98F7
:2033C00027C00091D1080E94D37822C000914F04002321F400914E040023D1F00091FA0956
:2033E0000023B1F0DC9814C000270E94D3780027009334030091CD08002319F00027009370
:20340000CD0800915404002319F0002700935404009154040023E1F0009153040023C1F017
:20342000009135030023A1F400270E94D37800915404055319F00C5029F007C001E10093FC
:20344000350303C002E30093350300270093530400915404002309F443C000915304002399
:20346000F9F5009135030023D9F500915404055319F00C50D1F031C005E00E94D3780091E9
:20348000D00800FF06C00091D00801FF0AC0DC9808C00091D00802FF04C00091D00803FD89
:2034A000DC9803E00093350318C00AE00E94D3780091D00800FF06C00091D00801FF0AC0DA
:2034C000DC9808C00091D00802FF04C00091D00803FDDC9802E10093350301E0009353042C
:2034E0000091950407FD02C00C9464290E94AE7E00918909E9ECF1E00C946C8900918C095D
:2035000010915209011709F052C000918D0910915309011709F04BC000270A9300270A93C4
:20352000442701E50E948C7300918E090435F9F500918F09075411F00052C9F500918F098C
:2035400000937703009194090093780300919009009379030091910900937A030091920982
:2035600000937B030091930900937C0300917703009389090091790300938A0900917A038A
:2035800000938B0900917B0300938C0900917C0300938D0901E300938E09009178030093E7
:2035A0008F090E946E2F802F082F0E94E0450C94642900918C090F3309F084C000918D098E
:2035C0000F3309F07FC000918E09035421F0005209F462C077C000919109033509F072C0AB
:2035E000009190090E94B787A02F00918F090E94B7874AE00E94A488A00F8A2F8A958A30B0
:2036000008F060C0AA27BB27EA2FFB2FB59708F059C00A2F1B2F000F111F000F111F0E949C
:20362000C2540356B9F5482F43950A2F1B2F0E945747012B79F1009192090133B1F4E82FA9
:20364000FF27E35BFC4F008102600083E82FFF27E35BFC4F008100FD1DC045E00A2F1B2F8C
:203660000F5F1F4F0E940F5615C0E82FFF27E35BFC4F00810D7F0083E82FFF27E35BFC4F76
:20368000008100FD07C044270A2F1B2F0F5F1F4F0E940F561196B8CF00918F09073539F454
:2036A00000919009033519F401E000937D0300918F09073539F400919009083519F401E0C0
:2036C00000937D0340918D0900918C090E94638820918A0330918B030217130799F4002749
:2036E0000A9300270A93442701E50E948C7300918E09015439F400918F09003319F401E083
:2037000000930B0A0C94642900918C09109152090117D9F500918D0910915309011721F07F
:2037200000918D090F3389F500918E09013329F4009194040160009394040E9405550AB1BD
:203740000F710AB9009140070F3649F40E94887F0093080A0091080A023008F081E00091BF
:203760004007073409F481E0882361F0F8940EE00E94E354A02E0CEFA0224A2D0EE00E9488
:20378000CA54789400270093B8090C94642900914007043569F000914007043449F0009113
:2037A0004007003529F0009140070E3609F080C100918C090F3309F07BC100918D090F3318
:2037C00009F076C100918E09045449F0015039F00F5109F4D0C0015009F4CDC069C14091C3
:2037E000900900918F090E94638820919C0730919D070217130771F04091900900918F099A
:203800000E9463882091A0073091A1070217130709F04EC146E15AE007E817E00E94A18A0B
:2038200047E15AE006E717E00E94A18A05E010E01A930A9342E959E007E817E00E94BE8A22
:203840000091700410917104012BA9F400914007003589F0009140070E3669F001E00E9406
:20386000FD8700270A9307E817E01A930A9341E001E00E94D97600919C0911270E501040C1
:203880001A930A9347E959E006E717E00E94BE8A00918E09053431F0E0912103F0912203EA
:2038A000BA9760F047E857E007EB17E00E94A18A46E757E006EA17E00E94A18A0091910908
:2038C000003309F0F5C00091700410917104012B09F0EEC000914007003521F00091400723
:2038E0000E36F1F502E00093230704E500932407AA27BB27EA2FFB2F359760F4EA2FFB2FFF
:20390000E957F84F0081EA2FFB2FEB5DF84F00831196F0CFAA27BB2700919C0911270E5065
:203920001040A017B10770F4EA2FFB2FEA58F84F00810E942C4FEA2FFB2FE65DF84F0083AA
:203940001196EACF0E94055500919C09075000933F0700919404006200939404559AA8C098
:2039600000270A9306E717E01A930A9342E001E00E94D9769DC04091900900918F090E94CF
:20398000638820919C0730919D070217130771F04091900900918F090E9463882091A00777
:2039A0003091A1070217130709F082C006E717E00E94B28A20919C09332728503040020FC5
:2039C000131F01311040E8F400919C091127085010401A930A9341E959E006E717E00E940E
:2039E000BE8A00918E09053631F0E0912103F0912203BA9730F046E757E006EA17E00E9462
:203A0000A18A0091700410917104012B09F050C000914007003521F0009140070E36F1F50B
:203A200002E00093230704E500932407AA27BB27EA2FFB2F359760F4EA2FFB2FE957F84F60
:203A40000081EA2FFB2FEB5DF84F00831196F0CFAA27BB2700919C09112703501040A017AF
:203A6000B10770F4EA2FFB2FEA58F84F00810E942C4FEA2FFB2FE65DF84F00831196EACF10
:203A80000E94055500919C090C5F00933F0700919404006200939404559A0AC000270A937D
:203AA00006E717E01A930A9342E001E00E94D97600918C0910915209011711F00C9464297C
:203AC00000918D0910915309011731F000918D090F3311F00C94642900270A9300270A936A
:203AE000442701E50E948C7300918E09EEEEF1E00C946C8900914007033729F00091400767
:203B0000053709F0A8C170909C0909EF700E00918F090E94B787802F823008F09CC108E045
:203B2000701609F5442450909009552031F001E1501619F004E4501699F4A1E0B0E0072D19
:203B40001127A017B10788F4EA2FFB2FE057F64F0081051519F001E0402E07C01196EFCF64
:203B600001E0402E02C001E0402E01E010E0012B09F4AEC001E0401609F063C001E0402EDB
:203B8000AA27BB27072D1127A017B10708F056C0EA2FFB2FE057F64F50805694569456943C
:203BA000569400918F0911270F5F1F4F20916F0733270217130731F4042D0E942584802EDB
:203BC0008A9403C0842C0FEF800E082F112744E00E94D6889924080D191D402F512F052D0C
:203BE0000E945D504394EA2FFB2FE057F64F50800FE0502200918F0911270F5F1F4F2091C1
:203C00006F0733270217130731F4042D0E942584802E8A9403C0842C0FEF800E082F1127C6
:203C200044E00E94D6889924080D191D402F512F052D0E945D5043941196A4CF0E94064E01
:203C40000AC15090900956945694569456940E9405550CE400932307082F03950E94CB870C
:203C60000093240700E30093250700E300932607052D0E94CB870093270705E000933F079C
:203C8000DE9A00919404006200939404559A082F112744E00E94D688A02FB12F082F112756
:203CA00044E00E94D688005F1F4FA017B10778F40A2F1B2F45E050E00E94C688E02FF12F41
:203CC000ED51F84F00810F7700831196E7CFC3C00E94055508E400932307082F03950E94DF
:203CE000CB870093240701E0402E00918F0911270F5F1F4F20916F0733270217130709F07B
:203D00008CC0AA27BB27072D1127A017B10708F097C0EA2FFB2FE057F64F50805694569417
:203D200056945694042D0E942584802E8A9480FE17C0082D42E00E94B888E02FFF27EB5D5C
:203D4000F84F0081007F0083082D42E00E94B888E02FFF27EB5DF84F0081052900831AC090
:203D6000082D42E00E94B888E02FFF27EB5DF84F00810F700083082D42E00E94B888E02F7B
:203D8000FF27EB5DF84F550C550C550C550C0081052900834394EA2FFB2FE057F64F508052
:203DA0000FE05022042D0E942584802E8A9480FE17C0082D42E00E94B888E02FFF27EB5D4F
:203DC000F84F0081007F0083082D42E00E94B888E02FFF27EB5DF84F0081052900831AC010
:203DE000082D42E00E94B888E02FFF27EB5DF84F00810F700083082D42E00E94B888E02FFB
:203E0000FF27EB5DF84F550C550C550C550C0081052900834394119676CFAA27BB27072D8D
:203E20001127A017B10760F4EA2FFB2FE057F64F0081EA2FFB2FEB5DF84F00831196EFCF8D
:203E400002E0700E70923F07DE9A00919404006200939404559A00914007003509F051C086
:203E600000918F090E94B787802F70909C0909EF700EAA27BB27072D1127A017B10708F0E9
:203E800040C0EA2FFB2FE057F64F508056945694569456940EE05016A1F0452D542F2A2FB8
:203EA0003B2F220F331F082F112744E00E94D688200F311F2F5F3F4F022F132F452F0E945E
:203EC0000F56EA2FFB2FE057F64F50800FE050220EE05016A1F0452D542F2A2F3B2F220FBF
:203EE000331F082F112744E00E94D688200F311F2E5F3F4F022F132F452F0E940F561196AE
:203F0000BACF00914007093609F02CC600918F090E94B787802F70909C0909EF700E882398
:203F200009F020C6AA27BB27072D1127A017B10708F018C6EA2FFB2F349708F013C6EA2F46
:203F4000FB2FE057F64F508056945694569456940EE05016A1F0452D542F2A2F3B2F220F75
:203F6000331F082F112744E00E94D688200F311F2F5F3F4F022F132F452F0E940F56EA2FBA
:203F8000FB2FE057F64F50800FE050220EE05016A1F0452D542F2A2F3B2F220F331F082FF3
:203FA000112744E00E94D688200F311F2E5F3F4F022F132F452F0E940F561196B5CF009161
:203FC0008F090335C1F4009192090434A1F440919109009190090E94638800938103109387
:203FE000820340919409009193090E9463880093830310938403B6C500918F09013309F000
:2040000040C009E016E00E94C254013441F40091F909023021F4DC9A01E00093850309E06A
:2040200016E00E94C2540C3491F40091F909013071F40091140A04FF04C00091140A03FFBD
:2040400006C0DC980091BA0904600093BA090091F9090230B1F40E94DE4F0FE116E00E9457
:20406000C254013371F404E416E00E94C254013341F4009197040D7F0093970400270E94E3
:204080001F7E70C500918F09005509F06BC500914007033729F000914007053709F062C548
:2040A000009190090F3609F05DC500919109043409F058C500919209013361F541E002E440
:2040C00016E00E9490540FE016E00E94C2540E94B7870295007F045F802F44E5082F112727
:2040E000000F111F000F111F0E9490540FE016E00E94C2540E94B7870295007F065F802F15
:204100004EE4082F1127000F111F000F111F0E94905428C5442702E416E00E9490540FE051
:2041200016E00E94C2540E94B7870295007F065F802F44E5082F1127000F111F000F111FB1
:204140000E9490540FE016E00E94C2540E94B7870295007F045F802F4EE4082F1127000F84
:20416000111F000F111F0E949054FCC400918F09013321F401E000930F0AF4C40027009319
:204180000F0AF0C400918F090234B9F400919209013381F4009191090E94B787A02F009106
:2041A00090090E94B7874AE00E94A488A00FA0930D0A03C00FEF00930D0A00918F090236C9
:2041C000B9F400919209013381F4009191090E94B787A02F009190090E94B7874AE00E94AD
:2041E000A488A00FA0930E0ABDC40FEF00930E0AB9C4F89400918F09003319F400270E9434
:20420000C48300918F09013319F401E00E94C4837894A8C400918F09083479F500919009AE
:20422000003381F444270CE116E00E94905400914F04002339F000910A0A002319F401E01C
:204240000E94A67C00919009013361F441E00CE116E00E94905400914F04002319F002E06B
:204260000E94A67C00919009023339F400914F04002319F401E000930A0A00918F090836EB
:20428000D1F40091DD090330B0F000919009003339F40091140A0F7E0093140A0E941F7D5A
:2042A00000919009013339F40091140A00610093140A0E941F7D0C946429F89400918F0992
:2042C000003359F50091150A02600093150A0EE00E94E354802F877F482F0EE00E94CA54F8
:2042E000009140070035C9F402E10E94837E0023A1F40E94055502E0009323070DE4009397
:20430000240700E30093250703E000933F0700919404006200939404559A00918F09013312
:2043200009F044C00091150A0D7F0093150A0EE00E94E354802F8860482F0EE00E94CA540F
:2043400000914007003591F502E10E94837E0023A9F00E94055502E0009323070DE4009369
:20436000240702E30093250703E000933F0700919404006200939404559A18C000914F0451
:204380000023A1F00E94055502E0009323070DE40093240701E30093250703E000933F07C0
:2043A00000919404006200939404559A78948CC700918F09003309F4DC9A00918F090133CD
:2043C00009F4DC9881C7009191090E94B787A02FBB27009190090E94B78711274AE050E0CC
:2043E0000E94C688A00FB11F51970CF06DC700918F090E94B787023008F066C700919109AB
:204400000E94B787402E5524009190090E94B78711274AE050E00E94C688400E511E0091FB
:204420008F090E94B787112744E00E94D688400E511E009192090E94B787802FA42DB52D7D
:2044400000914007003519F08B3009F485E0442D552D4150504000270E948088043579F49E
:20446000042D152D45E050E00E94C688E02FF12FE252F84F008106FF02C08823F9F102E417
:2044800016E00E94C2540023A1F100914007033721F000914007053761F500918F091127CB
:2044A0000F5F1F4F20916F0733270217130709F5009191090E94B787802E992400919009CE
:2044C0000E94B78711274AE050E00E94C688800E911E0BE0801600E0900659F400918F09D0
:2044E0000E94B787112744E00E94D688A02FB12F1D96482F0A2F1B2F0E940F56E42DF52DEA
:20450000B59768F5AA27042D152D45E050E00E94C688E02FF12FE552F84FA083AA27042D97
:20452000152D45E050E00E94C688E02FF12FE652F84FA083442D552D4150504000270E9446
:204540008088043561F0AA27042D152D45E050E00E94C688E02FF12FE252F84FA083B4C6F9
:204560004427002711270E940F56AA27BB27EA2FFB2FB597A0F5442455240A2F1B2F45E00A
:2045800050E00E94C688E02FF12FEF51F84F4082518244240A2F1B2F45E050E00E94C68880
:2045A000E02FF12FED51F84F408244240A2F1B2F45E050E00E94C688E02FF12FE152F84FAC
:2045C000408244240A2F1B2F45E050E00E94C688E02FF12FE052F84F40821196C8CF0091B0
:2045E00097040E7F00939704009197040B7F00939704009197040D7F00939704009197046F
:204600000F7D0093970400270E941F7E009140070C3421F0009140070C3609F4DE9A442757
:2046200000270E94037A41E000270E94037A00270093CD0800270093540400270E94A67C41
:2046400000270093D907002711270093D0071093D1070E9436730E94258200270093DC074B
:20466000002711270093D5071093D6070027112722273327E6E6F9E00083118322833383D3
:204680000027112722273327E6E6F9E004831583268337830027112722273327E6E6F9E04A
:2046A00000871187228733870027112722273327E6E6F9E0048715872687378700271127E0
:2046C00022273327E6E7F9E000831183228333830027112722273327E6E7F9E00483158358
:2046E000268337830027112722273327E6E7F9E0008711872287338700271127222733272B
:20470000E6E7F9E0048715872687378700270093F8090FEF1FEF00939C0710939D070FEF1F
:204720001FEF0093A0071093A1070FEF1FEF00939603109397030FEF0093200301E0009349
:20474000DE0700270093DD07002711270093D7071093D807B9C50E94055502E0009323076B
:2047600004E60093240700918F09009325070091900900932607009191090093270705E0EE
:2047800000933F0700919404006200939404559A9BC500918F09005319F0015071F094C5AB
:2047A0000091150A01600093150A442700270E94037A00270093C90887C50091150A0E7F71
:2047C0000093150A0091140A04FF09C00091140A03FD05C0442702E00E94037A04C044279D
:2047E00001E00E94037A00270093C9086DC500918F09013349F400919704016000939704A7
:2048000001E00E941F7E60C5009197040E7F0093970400270E941F7E57C5009140070C34D2
:2048200021F0009140070C3659F400918F09025339F400919009013311F4DE9845C5DE9AFA
:2048400043C50091DD09033008F4A2C0AA2700919C090A3040F0009192090E94B78701FFCB
:2048600002C0A1E001C0AA2700919009013341F500919C09093020F100915404002319F03A
:2048800000270093540400918F090E94B7870E94D3780091D00801600093D008AA2339F0E5
:2048A000DC980091D00802600093D00801C0DC9A009191090093330301E00093340304C5AF
:2048C00000918F090E94B7870093D1080091D1080023B9F10091D0080E7F0093D00800913A
:2048E000D0080D7F0093D0080091D00804600093D008002700933303002700933403AA2303
:2049000031F00091D00808600093D00805C00091D008077F0093D0080091D00800FDD4C41D
:2049200000915404002319F00027009354040091D1080E94D378AA2311F0DC98C5C4DC9AB8
:20494000C3C40091D0080B7F0093D0080091D008077F0093D0080091D00800FDB5C40091A8
:204960005404002319F000270093540400270E94D378DC9A00914F04002321F400914E0418
:20498000002329F00091FA09002309F0DC989CC4002700935404002700933303002700939B
:2049A000340300918F090633C9F401E00093CD0800914F04002321F400914E04002339F00D
:2049C0000FEF1FEF0093CE081093CF0810C000918F090E94B7870E94D37809C0002700939F
:2049E000CD0800918F090E94B7870E94D37800919009013359F400919C09093038F0009119
:204A000091090093330301E0009334035DC400918F090D5489F00650E9F4009190090B52AA
:204A200019F0025029F050C401E00E94E67A4CC400270E94E67A48C4009190090B5219F036
:204A4000025029F041C401E00E945A7B3DC400270E945A7B39C40CE116E00E94C254002334
:204A6000B1F541E00CE116E00E94905400914007033781F000914007003561F0009140074D
:204A80000E3641F0009140070F3621F0009140070734A9F4AA27BB27EA2FFB2FB59778F415
:204AA0000A2F1B2F0E94B847002339F041E00A2F1B2F0F5F1F4F0E940F561196EDCF00910B
:204AC0004F040023E9F102E00E94A67C39C000910A0A0023A9F544270CE116E00E949054AD
:204AE00000914007033781F000914007003561F0009140070E3641F0009140070F3621F05A
:204B0000009140070734A9F4AA27BB27EA2FFB2FB59778F40A2F1B2F0E94B847002339F0C7
:204B200044270A2F1B2F0F5F1F4F0E940F561196EDCF00914F04002319F001E00E94A67C8C
:204B400004E316E00E94C254013361F400914E04002341F0442700270E94037A0091BA09FB
:204B60000E94B07AB1C340918D0900918C090E94638820918A0330918B030217130709F022
:204B8000A3C340918F0900918E090E94BE4F802F813508F499C38B3608F096C30091900976
:204BA000005321F0015009F452C0CEC0082F0155802FE82FFF27E35BFC4F00810E7F008310
:204BC00000270093100AAA27BB27EA2FFB2F3A9768F4EA2FFB2FE35BFC4F008100FF04C0CE
:204BE00001E00093100A02C01196EFCFAA27BB27EA2FFB2FB59750F50A2F1B2F000F111FB7
:204C0000000F111F0E94C2540356F1F4482F43950A2F1B2F0E945747012BB1F0E82FFF2743
:204C2000E35BFC4F008101FF08C045E00A2F1B2F0F5F1F4F0E940F5607C044270A2F1B2F62
:204C40000F5F1F4F0E940F561196D2CF7DC0082F0155802FE82FFF27E35BFC4F0081016008
:204C600000838A3008F043C00091100A0023E1F50091970403FF38C0AA27BB27EA2FFB2F3C
:204C8000B59738F50A2F1B2F000F111F000F111F0E94C2540435D9F40A2F1B2F45E050E004
:204CA0000E94C688E02FF12FED51F84F00810068008301E00A9342E00A2F1B2F0E94C780D8
:204CC00000270A9342E00A2F1B2F0E94C7801196D5CF0027009388090E94FD8100FB009140
:204CE000970403F90093970401E00093100AAA27BB27EA2FFB2FB59738F50A2F1B2F000F60
:204D0000111F000F111F0E94C2540356D9F4482F43950A2F1B2F0E945747012B99F00091EE
:204D20004007093641F443E00A2F1B2F0F5F1F4F0E940F5607C041E00A2F1B2F0F5F1F4FE8
:204D40000E940F561196D5CF00270A9300270A93442701E50E948C73B7C240918D09009116
:204D60008C090E94638820918A0330918B030217130709F0A9C240919209009191090E94B4
:204D8000BE4FA02FAB3508F463C0AB3608F060C000918E09033509F05BC0009190090E94FF
:204DA000B787B02F00918F090E94B7874AE00E94A488B00F442408E0401608F049C0242D1E
:204DC0003327205030400A2F11270150104043E00E94D688085E184F200F311F022F132FA5
:204DE0000E94C2540F3FA1F1242D3327205030400A2F11270150104043E00E94D688085EF5
:204E0000184F200F311F022F132F0E94C2540B17E9F401E0442D0E94AE88109193091033D8
:204E200049F4EA2FFF27E45FFC4F102F109520812123208310919309113351F4EA2FFF27F7
:204E4000E45FFC4F1081102B108302C04394B3CF00270A9300270A93442701E50E948C73D0
:204E600033C240918D0900918C090E94638820918A0330918B030217130759F400270A9352
:204E800000270A93442701E50E948C7301E0009395031AC200918C0910915209011791F5B4
:204EA00000918D0910915309011761F50091D907013349F0002711270093D0071093D1073E
:204EC00000270093D9070091DC07013349F0002711270093D5071093D60700270093DC076C
:204EE0000091DE07002371F0002711270093D7071093D80700270093DD070091DE070F5FE4
:204F00000093DE0700910A0A002339F000914F04002319F4002700930A0AD6C100914007D7
:204F2000043529F000914007043409F0CDC100918C0910915209011709F0C6C100918D09A7
:204F400010915309011709F0BFC10091D907013319F000270093D90700270A9300270A93F3
:204F6000442701E50E948C7300918F09045421F1015009F4C8C0015019F0065079F0A4C158
:204F800000919C091127075010401A930A9340E959E00AEE13E00E94BE8A96C100919C09EE
:204FA0001127075010401A930A9340E959E00AEE13E00E94BE8A88C100919009007F029508
:204FC0000F70005D00933B04009190090F70005D00933C040EE200933D0400919109007FDC
:204FE00002950F70005D00933E04009191090F70005D00933F040EE2009340040091920999
:20500000007F02950F70005D00934104009192090F70005D0093420400E20093430400E247
:205020000093440400919309007F02950F70005D00934504009193090F70005D00934604B4
:205040000AE30093470400919409007F02950F70005D00934804009194090F70005D0093E9
:2050600049040AE300934A0400919509007F02950F70005D00934B04009195090F70005D07
:2050800000934C04002700934D0400917004109171040F36104071F00091700410917104F6
:2050A0000937104039F000917004109171040338104041F5E0E7F4E0008111810F5F1F4FD1
:2050C0000083118301E00E94FD8707E00E94FD8700270A930AEE13E01A930A9341E001E0AA
:2050E0000E94D97600270A930BE314E01A930A9342E001E00E94D9760FE00093440301E031
:2051000000932A03E1C0E0E7F4E0008111810F5F1F4F0083118300270A930DEC15E0222792
:205120000E94AB801A930A9341E001E00E94D97600270A930FEF16E022270E94AB801A93EA
:205140000A9342E001E00E94D976BEC000918C0910915209011701F500918D0910915309EC
:205160000117D1F400270A9300270A93442701E50E948C7303E110E01A930A9349E859E050
:205180000DE319E00E94268A00270A9300270A9344270DE60E948C7397C044240CEB19E09E
:2051A0000E94B28A242D33272017310708F08CC0E42DFF27E454F64F008110918909011733
:2051C00009F080C000270A9300270A9341E001E50E948C7300918E09013321F000918909D6
:2051E000093631F50091890900938D0300918A0900938E0300918B0900938F0300918C094C
:205200000093900300918D090093910300918E090093920300918F0900939303009190094E
:20522000009394035BD6802F082F0E94E0454CC00091890910918D030117F1F400918A09E5
:2052400010918E030117C1F400918B0910918F03011791F400918C0910919003011761F493
:2052600000918D0910919103011731F400918F0910919303011741F10091890900938D03A5
:2052800000918A0900938E0300918B0900938F0300918C090093900300918D0900939103E2
:2052A00000918E090093920300918F0900939303009190090093940311D6802F082F0E9489
:2052C000E04502C043946ACF0091DE07002309F47EC00091D907002309F079C00091DC07C9
:2052E000002309F074C00091D7071091D807012B09F06DC00091DE07E0E4F2E00C946C897C
:205300000E94887F0093080A00E30A930091080A0A9344E506E50E948C7308EE13E000934E
:20532000D7071093D8073BC000E30A9300E30A9348E406E50E948C7308EE13E00093D70700
:205340001093D8072CC00091DD09033040F500E30A9300E30A9342E500E50E948C7308EE5D
:2053600013E00093D7071093D80719C00091DD090330A8F000E30A9300E30A9348E606E513
:205380000E948C7308EE13E00093D7071093D80706C000270093DD0700270093DE070091FC
:2053A000DD070F5F0093DD070091DD07033078F000270093DD070091DE070F5F0093DE071A
:2053C0000091DE07063018F000270093DE07009140070E3609F076C000914E040023E1F058
:2053E00000912303002399F50E94055502E00093230708E40093240701E30093250703E07A
:2054000000933F0700919404006200939404559A01E0009323031BC0009123030023B9F016
:205420000E94055502E00093230708E40093240700E30093250703E000933F0700919404A0
:20544000006200939404559A0027009323030091CB080023E1F000912403002399F50E948D
:20546000055502E00093230702E40093240701E30093250703E000933F07009194040062A5
:2054800000939404559A01E0009324031BC0009124030023B9F00E94055502E0009323075D
:2054A00002E40093240700E30093250703E000933F0700919404006200939404559A00271E
:2054C0000093240300914007003509F08AC00091080A023008F485C000914F04002309F1AB
:2054E000009125030023C1F502E10E94837E002399F50E94055502E0009323070DE40093C4
:20550000240701E30093250703E000933F0700919404006200939404559A01E000932503C0
:205520001BC0009125030023B9F00E94055502E0009323070DE40093240700E3009325071F
:2055400003E000933F0700919404006200939404559A00270093250300914E04002341F0D1
:20556000009123030023E9F501E00093230339C0009123030023A9F10E94055502E00093FB
:20558000230704E70093240703E50093250700E70093260705E60093270701E60093280795
:2055A0000BE60093290705E600932A0702E700932B0700E200932C070FE600932D0706E68A
:2055C00000932E0706E600932F070DE000933F0700919404006200939404559A0027009329
:2055E00023030091C9080023B1F480E300914F04002309F0816000914E04002309F0826036
:2056000000270A9300270A93482F01E40E948C7303E00093C9080091070A002319F00027C9
:205620000093070A0091D208002309F01BC104E10093D2080E94284600914007095691F049
:205640000A50D9F400918C03043038F0009B05C041E00DE00E94377E10C044270DE00E9418
:20566000377E0BC0B69B05C041E00DE00E94377E04C044270DE00E94377E0091960403FF8F
:205680001DC00091CB080023C9F4009134030023A9F40091970403FF11C000914F0400235B
:2056A00069F400914E04002349F406E00E94D37801E00093340303E0009333030091140A71
:2056C00000FFB5C00091140A04FF24C00091140A01FD20C000914F040023E1F400914E0474
:2056E0000023C1F40091140A02600093140A07E416E00E94C254A02FBB2706E416E00E9444
:20570000C2541127102F0027A00FB11FA093120AB093130A0091140A04FD0AC00091140A7E
:2057200001FF06C00FEF1FEF0093120A1093130A00914F04002321F400914E04002351F0C5
:205740000091140A02FD06C00FEF1FEF0093120A1093130A0091140A04FF34C000914F04D0
:205760000023D9F400914E040023B9F40091140A02FF13C007E416E00E94C254A02FBB27B9
:2057800006E416E00E94C2541127102F0027A00FB11FA093120AB093130A0091120A109157
:2057A000130A012B79F40091140A03FD0BC041E006E10E94377E0091140A08600093140A92
:2057C0000E941F7D0091140A04FD0FC00091140A03FF0BC0442706E10E94377E0091140A38
:2057E000077F0093140A0E941F7D00914F04002321F400914E04002331F00091140A0460DE
:205800000093140A05C00091140A0B7F0093140A0091140A04FF06C00091140A026000930C
:20582000140A05C00091140A0D7F0093140A0091CE081091CF08012BA9F400914F040023EA
:2058400089F400914E04002369F40FEF1FEF0093CE081093CF080091CD08002319F006E001
:205860000E94D3780091140A05FF07C00E941F7D0091140A0F7D0093140A0091110A0023C8
:20588000D9F40091CC080023B9F400914007E0E5F2E00C946C890091310310913203012B3B
:2058A00059F404E610E000933103109332030E94265C02C00E94265C0091DC090023A9F4E2
:2058C00000914007003521F0009140070E3669F4A99A0AEF10E00E9475880E9405550AB1AF
:2058E0000F710AB900270093B8090091CA08002349F400914F04002329F40E94434F0AE0E5
:205900000093CA0800918809002331F400919C03002311F40E94064E002700939C03CAC087
:2059200000913603002309F072C000914007003549F0009140070E3629F04427002711270A
:205940000E940F56992311F491E001C099270AE000933603992371F500914007003549F06F
:20596000009140070E3629F041E001E010E00E940F56009140070F3641F000914007053599
:2059800021F000914007073429F441E003E010E00E940F5600914007093611F41A9A1B9848
:2059A00000914007033799F541E003E210E00E940F562DC000914007003549F0009140073F
:2059C0000E3629F041E002E010E00E940F56009140070F3641F000914007053521F000916E
:2059E0004007073429F441E004E010E00E940F5600914007093611F41B9A1A9800914007B1
:205A0000033729F441E004E210E00E940F560091C908002371F400270A9300270A9304E0DB
:205A20000E94CB87402F01E40E948C7303E00093C9080091950407FF27C00E94AE7E0091C0
:205A400089090A5709F500918C09109152090117D9F400918D0910915309011721F0009170
:205A60008D090F3389F400918E09013329F4009194040160009394040E9405550AB10F716C
:205A80000AB900270093B80900914007043521F000914007043471F4009131031091320396
:205AA000012B41F404E610E000933103109332030E94D8720E94285BA895009146030023C1
:205AC00009F044C0F89404E10E94E354789407FD37C000918003033368F10091B80904304F
:205AE0000E9405550AB10F710AB98827009140070F3649F40E94887F0093080A0091080AB2
:205B0000023008F081E000914007073409F481E0882361F0F8940EE00E94E354402E0CEFD1
:205B20004022442D0EE00E94CA54789400270093B80909C0009180030F5F0093800303C039
:205B400000270093800304E6009346030091950404FF05C0009195040F7E009395040091DC
:205B6000950405FF05C0009195040F7D009395040091950406FF05C0009195040F7B0093A6
:205B800095040E94BE4D0091DE07002309F047C10091D907002309F042C10091DC070023FE
:205BA00009F03DC10091B809043029F00091B809073009F034C1AA27BB27EA2FFB2F349717
:205BC00008F02DC1EA2FFB2FEE0FFF1FEE0FFF1FEA58F64F4081518162817381EA2FFB2F32
:205BE000EE0FFF1FEE0FFF1FEA59F64F0081118122813381401751076207730709F4EEC040
:205C0000EA2FFB2FEE0FFF1FEE0FFF1FEA58F64F0081118122813381EA2FFB2FEE0FFF1FBC
:205C2000EE0FFF1FEA59F64F40815181628173810427152726273727EAE3F3E0008311838E
:205C40002283338301E010E020E030E0EEE3F3E000831183228333838827803230F5EAE39F
:205C6000F3E00081118122813381EEE3F3E040815181628173810423152326233723012BAB
:205C8000022B032B91F4EEE3F3E00081118122813381000F111F221F331FEEE3F3E000831D
:205CA0001183228333838395D8CFEA2FFB2FEE0FFF1FEE0FFF1FEA59F64F0081118122817F
:205CC0003381EEE3F3E040815181628173810423152326233723012B022B032B09F1EA2F66
:205CE000FB2FEE0FFF1FEE0FFF1FEA58F64F4E2F5F2FEEE3F3E00081118122813381E42F91
:205D0000F52F4081518162817381402B512B622B732B408351836283738301E3C02E24C0BB
:205D2000EA2FFB2FEE0FFF1FEE0FFF1FEA58F64F4E2F5F2FEEE3F3E000811181228133814A
:205D40000095109520953095E42FF52F408151816281738140235123622373234083518365
:205D60006283738300E3C02E0A2F45E00E94AE88602E680E01E30093DC070A2F1B2F45E03B
:205D80000E94D688282F3327020F131F0533104021F4442705E30E94377E0A2F1B2F45E020
:205DA0000E94D688282F3327020F131F0633104021F4442706E30E94377E0A2F1B2F45E0FE
:205DC0000E94D688282F3327020F131F0933104031F5442709E30E94377E21C00A2F0B2B1F
:205DE00021F4442700E10E94377EEA2FFB2F3197A1F4442703E30E94377E442704E30E94AF
:205E0000377E442707E30E94377E442708E30E94377E44270AE30E94377E1196CECE0091F1
:205E2000D5071091D607012B11F50091DC070023F1F00091DC070433B8F40CE310E00E9486
:205E4000758800E30A93CA92462D05E60E948C7308EE13E00093D5071093D6070091DC071E
:205E60000F5F0093DC0703C000270093DC070091D0071091D107012B59F50091D2070023F6
:205E800039F50091D907002319F10091D9070433E0F40CE310E00E9475880091DB070A932C
:205EA0000091DA070A934091D907009170070E948C7308EE13E00093D0071093D10700911A
:205EC000D9070F5F0093D90703C000270093D9070C94BD032B96EDE00C94FC890E94D48992
:205EE0006897AA270FEFF02E0FEF802E0FEF902E00270A8300270B83009189090983409165
:205F00008B0900918A090E946388802F912F40918D0900918C090E946388602E712EA09056
:205F20008F090981083579F400918103109182030F3F1F4F41F08091810390918203609042
:205F40008303709084030981083779F40091A2071091A3070F3F1F4F41F08091A2079091B1
:205F6000A3076090A4077090A50700919C090A30A9F4009190090E94B787B02FB295B07FC4
:205F8000009191090E94B7874AE00E94A488B00F009192090E94B787B00F01C0BFEF009174
:205FA0008A0310918B038017910759F44EEF0EEF0E94638820919803309199030217130706
:205FC00059F000919803109199038017910739F400919503002319F001E0088302C0002709
:205FE00008830981ECE6F2E00C946C890091F8090A1508F06BC20881002309F49FC00091E4
:20600000FC091091FD0900937E0310937F030FEF1FE20093FC091093FD0900270093950309
:2060200044245524E42DF52DB59708F062C0042D152D000F111F000F111F0E94C2540455E4
:2060400021F1035009F051C0462D572D042D152D0E942D47012BC1F0042D152D45E050E0AC
:206060000E94C688E02FF12FED51F84F00810268008300917D030023C1F501E00A9342E084
:20608000042D152D0E94C78030C000910F0A002361F50091100A002341F509810735D1F006
:2060A000042D152D45E050E00E94C688E02FF12FED51F84F008100680083042D152D45E070
:2060C00050E00E94C688E02FF12FED51F84F00810160008300917D03002339F401E00A93A8
:2060E00042E0042D152D0E94C7800FEF401A500A99CF09810735C9F4A1604A2D062D172D96
:206100000E94A2490FE116E00E94C2540133A9F40091970401FB8EF4009197040D7F00938E
:20612000970400270E941F7E6EC0A3606092A0077092A10701E00093F90965C00091980323
:20614000109199038017910709F05DC044245524E42DF52DB59708F044C0042D152D000FDF
:20616000111F000F111F0E94C2540455B1F00350A1F5462D572D042D152D0E942D47012B69
:2061800061F100917D03002341F501E00A9342E0042D152D0E94C78020C000910F0A00239A
:2061A000E1F40091100A0023C1F4042D152D45E050E00E94C688E02FF12FED51F84F00819A
:2061C0000068008300917D03002339F401E00A9342E0042D152D0E94C7800FEF401A500AC5
:2061E000B7CF0FE116E00E94C254013361F40091970401FB46F4009197040D7F00939704AA
:2062000000270E941F7E00918A0310918B036016710641F000919803109199036016710657
:2062200009F09CC000919C09083061F400919009043441F401E000939D0380939E039093C4
:206240009F0303C0002700939D03BF3F09F04BC044245524E42DF52DB59708F05EC0042DD6
:20626000152D000F111F000F111F0E94C254045519F10350A1F5482F592F042D152D0E9446
:206280000347012B61F1042D152D45E050E00E94C688E02FF12FED51F84F0081016800835D
:2062A00000917D030023D9F401E00A9343E0042D152D0E94C78013C000910F0A002379F4D3
:2062C0000091100A002359F400917D03002339F401E00A9343E0042D152D0E94C7800FEF47
:2062E000401A500AB7CFB53268F40B2F112745E050E00E94C688E02FF12FED51F84F008135
:206300000168008300917D03002339F401E00A9343E00B2F11270E94C7800981073519F461
:20632000A260A06106C0A36002E00093F90901E00B8380939C0790939D0703E5009342036E
:206340000FE116E00E94C254013341F40091970402600093970401E00E941F7EAA2309F490
:20636000B5C00091DD090330C0F000919C090930A0F0A1FF0FC0009191090E94B78701FFD5
:2063800005C001E00093FA09A46007C000270093FA0903C000270093FA09A092F8090091F5
:2063A0008103109182030093A2071093A30700918303109184030093A4071093A5070A2DA7
:2063C0000E94797F00919A0310919B030F3F1F4F09F47AC044245524E42DF52DB59708F06B
:2063E00067C0042D152D000F111F000F111F0E94C254073529F540919A0350919B03042D55
:20640000152D0E940347012BD1F0042D152D45E050E00E94C688E02FF12FED51F84F008174
:206420000E7F0083042D152D45E050E00E94C688E02FF12FED51F84F00810068008334C080
:20644000042D152D000F111F000F111F0E94C254073451F501E116E00E94C254013321F538
:206460004091960350919703042D152D0E940347012BD1F0042D152D45E050E00E94C68833
:20648000E02FF12FED51F84F00810E7F0083042D152D45E050E00E94C688E02FF12FED5192
:2064A000F84F0081006800830FEF401A500A94CF0FEF1FEF00939603109397030FEF1FEF93
:2064C00000939A0310939B03A1FFA062AA23A9F544245524E42DF52DB59778F5042D152DFE
:2064E0000E948847002329F1482F592F042D152D0E940347012B41F4462D572D042D152DC5
:206500000E942D47012BA9F001E216E00E94C254013321F40A2D0E941E480FC000E116E0E1
:206520000E94C254043549F04A2D042D152D0E94D0470FEF401A500ACDCF0881002369F03B
:206540000091D907013349F0002711270093D0071093D10700270093D907002700937D0345
:206560000C946F450091F8090A1508F032C208810023F9F100270093950344245524E42D50
:20658000F52DB59718F5042D152D000F111F000F111F0E94C2540057A9F4462D572D042DBB
:2065A000152D0E942D47012B69F0042D152D45E050E00E94C688E02FF12FED51F84F008111
:2065C000026800830FEF401A500AD9CF0FE116E00E94C254013361F40091970401FB46F4EB
:2065E000009197040D7F0093970400270E941F7EA16000914007093609F05FC100918D09F7
:206600000E94B787B02F00918C090E94B7874AE00E94A488B00FBA95B33608F04EC10B2F85
:206620001127000F111F005B194F0F5F1F4F0E94C25402FF42C1DD24009196031091970322
:206640000F3F1F4F09F468C0909096030FEF90220091960310919703012F11274AE00E9457
:20666000A488900E0FEF900E092D112743E00E94D688085E184F0E94C2540F3F09F44CC047
:2066800044245524E42DF52D389708F045C022273327240D351D092D112743E00E94D68863
:2066A000085E184F200F311F022F132F0E94C2540F3F91F122273327240D351D092D1127FF
:2066C00043E00E94D688085E184F200F311F022F132F0E94C254C02ECA9401E0B02E882469
:2066E00008E08016A8F40C2D1127000F111F005B194F0E94C2540B21002339F04427082D3D
:2067000011270F5F1F4F0E940F56BB0C8394E8CF0FEF401A500AB6CF00270093DB090B2FBA
:206720001127000F111F005B194F0F5F1F4F0E94C25400FD95C0A2600CE400934203002748
:206740000093430344245524E42DF52D799708F078C0E42DF52DE152F64F0081013009F0B6
:206760006CC0882403E0801608F067C0082D11270D5F1F4F1A930A93042D152D49E050E04C
:206780000E94C6880858154F29913991200F311F022F132F0E94C254202F33270B2F1127FC
:2067A0000F5F1F4F2017310709F045C0042D152D49E050E00E94C6880858154F0E5F1F4F35
:2067C0000E94C254D016B8F5042D152D49E050E00E94C6880858154F0E5F1F4F0E94C2545B
:2067E0000A1530F1042D152D49E050E00E94C6880858154F0E5F1F4F0E94C254D02E082D13
:2068000011270A5F1F4F1A930A93042D152D49E050E00E94C6880858154F29913991200FEC
:20682000311F022F132F0E94C2540093430303C0002700934303839495CF0FEF401A500A14
:2068400083CF0B2F1127000F111F005B194F0F5F1F4F0E94C25401FF03C001E00093DB09C3
:2068600001E0B02E882408E08016A8F40B2F1127000F111F005B194F0E94C2540B21002318
:2068800039F041E0082D11270F5F1F4F0E940F56BB0C8394E8CF0FE116E00E94C2540133F7
:2068A00041F40091970402600093970401E00E941F7E80939C0790939D07AA2309F489C037
:2068C000A092F8090A2D0E94797F00919A0310919B030F3F1F4F09F47AC044245524E42D62
:2068E000F52DB59708F067C0042D152D000F111F000F111F0E94C254073529F540919A039A
:2069000050919B03042D152D0E940347012BD1F0042D152D45E050E00E94C688E02FF12FC5
:20692000ED51F84F00810E7F0083042D152D45E050E00E94C688E02FF12FED51F84F008154
