:020000040800F2
:100000001810002011220008C9210008C921000889
:10001000C9210008C9210008C9210008000000000A
:10002000000000000000000000000000C9210008DE
:10003000C921000800000000C9210008C9210008EA
:10004000C9210008C9210008C9210008C9210008E8
:10005000C9210008C9210008C9210008C9210008D8
:10006000C9210008C9210008C9210008C9210008C8
:10007000C9210008C9210008C9210008C9210008B8
:10008000C9210008C9210008C9210008000000009A
:10009000000000000000000000000000C92100086E
:1000A000C9210008C9210008C9210008C921000888
:1000B000C9210008C9210008C9210008C921000878
:1000C000C9210008C9210008C9210008C921000868
:1000D000C9210008C9210008C9210008C921000858
:1000E000C9210008C9210008C9210008000000003A
:1000F0000000000000000000000000000000000000
:1001000000000000000000000000000000000000EF
:100110000000000000000000C9210008C9210008FB
:100120005FF808F12DE98048B04B97B006AC03F1B9
:10013000100518685968224603C20833AB421446BA
:10014000F7D1AB4818228169032441F480568661B7
:100150008769A02547F00403836105A9A5488DF8A8
:100160001720ADF814508DF8164001F0DDFF402047
:100170004821ADF814008DF817109E4805A98DF898
:10018000164001F0D1FF8DF816409B4C102699487F
:1001900005A90027ADF814608DF817604FF40075BD
:1001A00001F0C2FF4FF48273072220460AA9ADF87E
:1001B0003470ADF82870ADF82A30ADF82C70ADF879
:1001C0002E70ADF83070ADF83250ADF83670ADF835
:1001D000382001F0FBFB2088884F81B241F04006B7
:1001E0002680BA89864B874D02F40074A0B2FB6169
:1001F0003D62002800F02986834906A8834E796273
:1002000000F10801BE6201F023FD013000D1FEE7DC
:1002100007F12C014FF41060062201F002FC07F1F7
:100220003A014FF48070042201F0FBFB07F1360124
:100230004FF4A060042201F0F4FB4FF4706007F16A
:100240003201042201F0EDFB714B97F83E5097F814
:100250003F2097F8404097F8410097F8427083F8A4
:10026000005883F8012883F8024883F8030883F8CC
:10027000047800F093FE0028FBD0654E0023D6F8EA
:10028000081801B10B70634D96F83C2A86F80C38BB
:10029000C6F80858002AECD000275F4C002044F82C
:1002A0002700203438550137082FF6D182464FEA0F
:1002B0008A077E1CF40004F54076304601F02CFCE1
:1002C0001328054600F0678426D8002840F0AC8447
:1002D000DFF83C8108EB0A0308EB070183F8600AAA
:1002E000C1F8400A504601F0EFFC2046012101F020
:1002F000E5FB04F58060294601F0E0FB04F580771A
:1003000004F5A060502101F0D9FB3846012101F02D
:10031000D5FB444600F06DBC17280DD01C2840F0DA
:1003200083843B490023CF1901EB0A04C7F8403A04
:1003300084F8603A00F02BBC04F50075284601F003
:10034000EBFBC30703D52846012101F0B7FB50465C
:1003500001F000FC054608B900272BE3204601F018
:10036000DBFB00F00F09B9F1010F40F08E8004F5BE
:10037000F05001F0D1FB09FA0AF98002B5F5006FDF
:1003800028BF4FF400651FFA80F8AAB2904528BF35
:100390009046504601F0DEFB0546304601F0BCFBBE
:1003A000172816D01C280ED115B145453AD335E093
:1003B000504601F0F1FB834604F5F85001F0ACFB28
:1003C000BBEB802F05D1504601F07EFC6FF0060597
:1003D0005DE00F49B1F8683A19EA030F02D0002D29
:1003E000E3D154E0002DD4D0DFE700BFD9280008C6
:1003F00000100240000801400030014000000020D1
:10040000B7180008C5180008AD180008B318000890
:100410006C00002078080020AC0A0020B8F1000F22
:1004200026D0454604F52058404601F075FB04F5FA
:1004300024568146304601F06FFB033700EB09205C
:100440001FFA80FBFA0002EB0B209F492A4601F0BD
:100450000FFB0BEB05011FFA81F940464FEA19210A
:1004600001F02CFB30465FFA89F101F027FBA8462A
:1004700004F580742046402101F020FB204601F065
:100480004BFB0028FAD1454601E06FF004058E4F82
:10049000002307EB8A0607EB0A009D42C6F8403AA4
:1004A00080F8603A40F3CA8338468849042201F054
:1004B0003BFF044600287FF44FAF381D202101F098
:1004C000B5FF00283FF448AF04708149381DC6F8D5
:1004D000404A02F029F87F4A0437002808BF17462F
:1004E000242101FB0AF93B787B4E303B092B06EBBC
:1004F000090546F8094008D878783A2805D1BE1C85
:100500000B20002B40F06D8100E03E466E4CD4F88D
:1005100008480F94002C00F05D8194F800B0BBF106
:10052000000F40F0598184F800B084F801B02046F3
:10053000594601F066F9012818D194F8F221002AF1
:1005400000F04E8194F8F8C194F8F9114FEA0C4E7E
:1005500094F8F6314EEA016B94F8F7214BEA030068
:1005600040EA022B5946204601F04BF9032800F0DF
:100570003581002840F0348194F83C1094F83B30E9
:1005800043EA0120B0F5007F40F02A8194F847202B
:1005900094F8461051EA02220DD194F8560094F8CE
:1005A0005730020442EA036194F8543094F855003D
:1005B000194341EA002294F84080E26108F1FF31DA
:1005C000012984F8038000F20B8108FB02FC94F8F7
:1005D0003D30CDF80CC0A370002B00F00181581EF7
:1005E000184240F0FD8094F8411094F8420041EA2E
:1005F000002081B20007218140F0F28094F844E0AD
:1006000094F8430050EA0E2C0FD194F8528094F8DD
:1006100053004FEA084C4CEA006E94F850004EEA42
:10062000000894F8510048EA002C94F83FE094F850
:100630003E0050EA0E2E00F0D380DDF80C800EEB69
:10064000111040448445C0F0CB80C0EB0C0CBCFBC7
:10065000F3F3002B00F0C48040F6F578434508D949
:100660004FF6F57C63458CBF4FF003084FF002084E
:1006700001E04FF0010858440233A062B8F1030FC3
:100680000BEB0E00A361206213D1002940F0A8807B
:1006900094F85E1094F85F00090441EA006194F850
:1006A0005C00014394F85D0041EA0021616298001A
:1006B0001AE0002900F094800399B8F1020F084471
:1006C00060620BD158000FE06C0000202C2A00085B
:1006D000312A000800000020D80A002003215943D5
:1006E00003F0010303EB510000F2FF13B2EB532FB1
:1006F00076D300204FF0FF32B8F1030F2261E060A3
:100700005AD194F8611094F86030607143EA012284
:100710005A446261607804F13001012300F062FD07
:10072000002849D194F82F0294F82E1241EA0023B0
:1007300087481AB282423FD194F8323094F833108D
:100740001A0442EA016094F8301094F831300843FA
:1007500040EA03227F4882422ED194F8163294F860
:1007600017121A0442EA016094F8141294F8153230
:10077000084340EA0322784882421DD194F81E3291
:1007800094F81F121A0442EA016094F81C1294F8BB
:100790001D32084394F81A1240EA032294F81B020F
:1007A0000B04E26094F8182243EA006094F81912EE
:1007B000104340EA01232361684884F80080B0F8C0
:1007C0008C2B511C8BB2A0F88C3B0020E380E062A4
:1007D000207106E00C2004E0002002E0012000E08F
:1007E0000D200AAC1594002840F0BF8030782F28E7
:1007F00001D05C2800D10136327800241F2A1194E0
:1008000054D80FA800F0C8FF1494AEE05C294DD076
:10081000159C00232026E65401330B2BFAD100212E
:100820000E4608200A461EF806300136202B44D812
:100830007644202B94BF04230023002900F09480E9
:100840002178E52901D105212170082801D19000E6
:10085000C2B202F00301012902F00C0008BF43F00C
:100860001003042808BF43F00803E3720FA800F048
:1008700093FF00283FD0159CE17A00285CD101F05D
:100880000403DAB2002A70D11498C47A04F010017B
:10089000CBB2002B5AD0027D447DC17E807E42EADD
:1008A000042440EA012343EA044211923178B64617
:1008B0002F2906F10106A9D1F8E72F2BB8D05C2B20
:1008C000B6D02E2B00F0B98281424DD213F0800FAA
:1008D00006D0DFF88CB042F003025B4493F871302D
:1008E000DFF8808018F801CFBCF1000F00F0B6816E
:1008F0009C45F7D138E00F98139900F0C9FC002807
:10090000B9D1149A1478ACB1D37A03F00801CCB2FF
:100910005CB9DDF854C00346D45C1CF80310013305
:100920008C4202D10B2BF7D1A5E70FA8002100F0D4
:1009300068FE9EE704209EE7042816D101F0040615
:10094000F4B2002C14BF042005200EE005200CE0BA
:1009500055AAFFFF52526141727241616C00002042
:10096000F8270008322A00080620149B38B933B152
:10097000D97A01F01002D6B2002E00F08381B44C77
:10098000B449204601F0BEFE204601F019FF81B2B5
:10099000504601F0CFF90028C0F22781002704EB70
:1009A0000A0004EB8A0180F8607A5046C1F8407A68
:1009B00001F07EFAA64E06EB0A0393F8605A012D69
:1009C00040F03C81242202FB0AFB06EB8A0006EB86
:1009D0000B04D4F8781AD0F8403A994200F0BE805F
:1009E0009D4D55F80B2005EB0B04A088002A00F064
:1009F0009A801578002D00F09980D188814240F0CE
:100A00009480A379190600F1908013F0010500F09D
:100A10008D80A56806EB0708E668C7F50062761BBF
:100A2000B24238BF16460025002E7FD0A268D105FD
:100A30004FD1206881784B1E03EA522111F0FF0349
:100A40000CD10AB9206904E06169019300F075FDD9
:100A5000019B01284CD9421C4AD06061226861691F
:100A600010460292019300F0D0FF029A019B0028E9
:100A70003ED05FEA562900EB030E28D0917809EBAF
:100A80000300884288BFC3EB010950784146724693
:100A90005FFA89F3CDF808E000F0A4FBDDF808C0A8
:100AA00030BB23681A7912B94FEA492932E0D96A72
:100AB000CCEB010ECE45F7D208EB4E2C30331A5C4E
:100AC0000CF800200130B0F5007FF8D1ECE7C4F855
:100AD00018E0A0684FEAC0514FEAD152C2F5007940
:100AE0002068A1694E4538BFB14600F0D1FB20B166
:100AF000A17961F07F02A27118E0A368D905CA0D3F
:100B0000236830329918484504D00A5C08F8002060
:100B10000130F8E7A068C84400EB0903A3604D4426
:100B2000C9EB060680E7154600E000257F19504610
:100B3000B9B201F0FFF8002808DA204600F0E1FB26
:100B4000002852D1444941F80B004EE0404C04EBE0
:100B50008A03D3F8406A8019C3F8400A242202FBB2
:100B60000AF73B4D05EB8A01EC19D1F8403AD4F86D
:100B7000786AB34262D3384C00205544C1F8400A29
:100B800085F8600AE01900F0BCFB00B9E05150465E
:100B900001F08EF952E02E4A002302EB0A00D71929
:100BA00080F8603A2046C7F8403A00F0B5FF00F000
:100BB0000F05012D42D1304600F0AEFF13283DD184
:100BC00004F580742046022100F078FF204600F0F2
:100BD000A3FF0028FAD1304600F09EFF14282DD044
:100BE000204600F099FF0028F5D1504601F06CF83E
:100BF00024E0384600F090FF0028FAD1012202FAE2
:100C00000AF5B8F88E1B04EB4A0721EA05035444A1
:100C1000A8F88E3BA7F8900B84F8A00B304600F0A4
:100C20007BFF0028FAD009E00948002500EB8A067E
:100C300000EB0A02C6F8405A82F8605A0AF1010134
:100C4000CAB2072A94BF92464FF0000AFFF72FBBA3
:100C50006C000020CD290008D80A0020A3F1410B28
:100C6000BBF1190F02D842F0020208E0A3F16108BB
:100C7000B8F1190F03D8203B42F00102DBB26354F4
:100C80000131D0E50F9A0121D46AA971EC612B6280
:100C90005E7D1C7D997E44EA0624DE7E41EA0626BE
:100CA00046EA04442C61997FDE7F0C04197F5B7F48
:100CB000A860A861654844EA06660E4340F809202A
:100CC000D28846EA0324EC60AA8038462E2101F03F
:100CD000BFFD08B95E4C4DE0451C284601F0A0FD63
:100CE00028465C4901F020FC0028F3D028465A49E8
:100CF00001F01AFC08B9594C3CE02846584901F06B
:100D000013FC0028F7D02846564901F00DFC40B3EB
:100D10002846554901F008FC28B32846534901F0FC
:100D200003FC10B32846524901F0FEFBF8B12846F7
:100D3000504901F0F9FB08B94F4C1BE028464F49D8
:100D400001F0F2FB0028F7D028464D4901F0ECFBFA
:100D500078B128464B4901F0E7FB0028BAD14A4C4C
:100D600008E04A4C06E04A4C04E04A4C02E04A4C97
:100D700000E04A4C4A4F4B49384601F0C3FC4A490F
:100D8000384601F02DFB4949384601F029FB24265D
:100D90004749384601F024FB06FB0A71D1F8786A0E
:100DA000002286EAE671A1EBE6710A2391FBF3F7D4
:100DB00003FB17150FA830351554551C391E01DDDE
:100DC0002A46F2E7002E07DA0DF1580B0BEB050669
:100DD0002D2306F81C3C951C16AA5719002607F867
:100DE0001C6C01F0EDFC3346451EAB420FA906DA40
:100DF000CA5C4F5DCF544A550133013DF5E7284D9C
:100E0000284601F0EDFA2B49284601F0E9FA2A4973
:100E1000284601F0E5FA2146284601F0E1FA274983
:100E2000284601F0DDFA284601F0CAFC05EB0A0469
:100E300087B2012084F8600ABCE508287FF494ADED
:100E400092000146D2B20B20EDE4FEE7D80A002062
:100E500078280008422A0008462A00088D28000841
:100E60004A2A00084F2A0008522A0008562A000879
:100E70005A2A00085E2A0008CE280008622A0008C4
:100E8000672A00086B2A000883280008A1280008A8
:100E9000B1280008BA280008C428000897280008CC
:100EA0006C000020692900087B29000891290008AE
:100EB000A5290008B6290008B9290008C829000892
:100EC0000C4B4FF4805210B55A614CF25034FF2055
:100ED00000F009FDFF284FF0010009D0013CA4B249
:100EE00001F0DEF8002CF2D100F068FD204610BDC4
:100EF00010BD00BF000C01402DE9F0410C46154625
:100F0000002843D1244B187800283FD001F5007702
:100F1000BC4238D0204E05F101083178002938D084
:100F2000FFF7CEFF002834D03278042A18BF6D02B4
:100F30002946182000F0E8FC38B1FF2000F0D3FC6F
:100F4000FE2000F0D0FC002502E000F037FD20E09C
:100F5000605D013500F0C7FCB5F5007FF8D1FF20DA
:100F600000F0C1FCFF2000F0BEFCFF2000F0BBFC45
:100F7000054600F023FD05F01F03052B04F5007462
:100F800007D14546C4E70020BDE8F0810320BDE855
:100F9000F0810120BDE8F081A80A00202DE9F04190
:100FA0008B4C8C4DA36988B043F00800A061E169C7
:100FB0004FF0100841F48042E2614FF4805703265D
:100FC000284602A9ADF808708DF80B808DF80A60EC
:100FD00001F0AAF818202F614FF420438DF80B0080
:100FE00002A92846ADF808308DF80A6001F09CF897
:100FF0004FF4804148222846ADF8081002A9A5F513
:1010000054458DF80B204FF4827701F08DF828209D
:1010100007210023ADF80E70ADF818004FF40077EB
:10102000ADF81C10284603A9ADF80C30ADF810300F
:10103000ADF81230ADF81430ADF81A30ADF81670C6
:1010400000F0C4FC2A8822F4005303FA08F020FAC6
:1010500008F129802A8893B243F040002880A169D2
:101060004FF4407341EA0802A261A4F5803420469F
:1010700002A9ADF808308DF80B808DF80A6001F0F8
:1010800053F84FF48070676160610A24FF2000F01C
:101090002AFC611E11F0FF04F8D1FFF711FF0028B0
:1010A00000F08B802046214600F02EFC012801D95B
:1010B000002477E0484DFA2000F0F2FF2A8822F061
:1010C00040031804010C2980284603A9ADF81840F4
:1010D00000F07CFC2A8822F400531804010C2980BB
:1010E0002A884FF4D57193B243F04000288008203D
:1010F00000F00AFC012835D8FF2000F0F4FB01AA1B
:1011000010550134042CF7D19DF80630012BCFD1B6
:101110009DF80700AA28CBD14CF250344FF0804103
:10112000692000F0F1FB014620B1013CA4B2002C83
:10113000F4D1BDE73A2000F0E7FB0028B8D104461F
:10114000FF2000F0D0FB01A908550134042CF7D191
:101150009DF8042002F04003D8B200280CBF0324FD
:1011600004241FE06920214600F0CEFB01284CF248
:1011700050340DD86920002100F0C6FB78B1611E03
:101180008CB2002CF6D193E7013CA4B2002C8FD096
:101190000120002100F0B8FB0028F5D101E0022475
:1011A00000E00124611ECAB2022A04D810204FF4C4
:1011B000007100F0A9FB00F001FC084B1C701CB191
:1011C00007494FF400700861204608B0BDE8F0817F
:1011D00000100240000C014000380040A80A002026
:1011E000001001402DE9F8430D46164698460028A8
:1011F00046D1264B1878002842D0144608EB060248
:10120000D1B2E3B2994238D0204F04F101093878C5
:10121000002838D0FFF754FE002834D03A78042A4A
:1012200018BF64022146112000F06EFB10B100F0DF
:10123000C5FB28E04CF25034FF2000F054FBFF289F
:1012400004D1013CA4B2002CF6D1F0E7FE28EED187
:101250000024FF2000F047FB28550134B4F5007F3F
:10126000F7D1FF2000F03FFBFF2000F03CFB05F52D
:10127000007500F0A3FB4C46C0E70020BDE8F883F2
:101280000320BDE8F8830120BDE8F883A80A002008
:101290002DE9F041C56A04468D420E4602D1002078
:1012A000BDE8F081037913B9002EF8D01DE000F1FC
:1012B0003008414640782A46FFF71EFE10B1012053
:1012C000BDE8F0812071E269206A11188D42EBD2ED
:1012D000E778012FE8D9E3696078ED1841462A469E
:1012E000013FFFF709FEFFB2F3E7607804F1300138
:1012F00032460123FFF776FF0028E0D1E662BDE821
:10130000F08170B504460068A388002800F097803B
:101310000278002A00F09380C188994240F08F80C3
:10132000A57905F02003DDB2002D00F08980E16988
:10133000FFF7AEFF0546002840F08280206AC27A9F
:1013400042F02001C172E3680377A289110A417754
:10135000E3898377E27BC27721698176238A1A0A3F
:10136000C276618A0175638A85751A0A4275C575E8
:1013700005764576A079236820F020010122A1712D
:101380001A71246829462046FFF782FF0546002887
:1013900056D12078032845D16179002942D0E562F1
:1013A00004F130012B460026CE540133B3F5007F03
:1013B000F9D1522384F8303084F831306123AA20E7
:1013C00084F8323084F81732236984F82F027220AF
:1013D000552284F8140284F81502180C84F82E2281
:1013E00084F81A024122E06884F8332084F8162237
:1013F00084F81832C3F307221B0E84F8192284F8EC
:101400001B32C0F30722030C84F81C02000E84F880
:101410001D2284F81F0284F81E3260786269FFF78B
:101420006BFD6671617841B9064A13782BB1FFF7FD
:1014300047FD10B100F0C2FA02E0012500E00925E5
:10144000284670BDA80A00200129F8B504460D46BB
:10145000164670D9836999426DD2017802293AD033
:10146000032949D0012962D1026A05EB550702EB35
:101470005721FFF70DFF00285AD1F805C20D15F0CE
:101480000105F3B207D0A11891F8300000F00F0168
:1014900041EA0313DBB2216A0120A218013720714F
:1014A00082F83030204601EB5721FFF7F1FE00288B
:1014B0003ED1FF05FA0D15B1C6F3071607E0A318D4
:1014C00093F83010C6F3032621F00F073E43A71808
:1014D00087F830602CE0036A03EB1521FFF7D8FE94
:1014E00030BB2D06EA0DA11881F83060C6F307263F
:1014F0000D4681F831601BE0026A02EBD511FFF75F
:10150000C7FEA8B96D06E90D01F13003E318DA78DA
:101510006518120602F070410E4385F83060C6F37C
:101520000722310C360E5A709970DE7000E00220EE
:1015300001232371F8BD0220F8BD0129F8B5044646
:101540000D465CD98369994259D20178022928D085
:10155000032937D001294FD1026A05EB550602EB6A
:101560005621FFF795FE002846D1236AF005013683
:1015700004EBD05703EB5621204697F83070FFF765
:1015800087FE002838D1F60504EBD65494F83010C5
:10159000EB0747EA012201D51009F8BD1005000D3F
:1015A000F8BD026A02EB1521FFF772FE20BB2D0683
:1015B000ED0D6319641993F8301094F8310041EA85
:1015C0000020F8BD036A03EBD511FFF761FE98B95F
:1015D0006D06ED0D05F130016318D8789A78010693
:1015E0005B78641941EA024294F8301042EA032021
:1015F000084320F07040F8BD4FF0FF30F8BD0120E7
:10160000F8BD2DE9F047C7880546781C87B28846A3
:1016100017B90420BDE8F0872B69002BF9D017F02B
:101620000F0A40F0A480591C2961E968286819B99B
:101630000289BA42EDD99AE08278531E13EA171252
:1016400040F09580FFF779FF0128044640F29E8024
:10165000421C00F098802E68B0698442C0F08180FE
:10166000B8F1000FD5D0D5F80C80B8F1000F07D134
:10167000F4688CB1844234BFA1464FF001090DE0FB
:1016800030464146FFF759FF012804467ED9B1692B
:10169000884237D3C14601E04FF001094C46B26998
:1016A0000134944203D3B9F1010F72D902243046B8
:1016B0002146FFF742FF30B1431C64D0012865D0BA
:1016C0004C45ECD165E0304621466FF07042FFF7A3
:1016D000BBFE90B9B8F1000F08D13369F460591C12
:1016E0000ED0581E01213061717109E0304641462B
:1016F0002246FFF7A9FE0028EFD0012846D142E09C
:10170000002C46D0012C41D0621C3CD0286800211E
:10171000FFF7BEFD002836D12A6830320026165465
:101720000130B0F5007FF9D1D5F800802146404660
:1017300000F06BF9C8F82C002B689878B0420DD9EE
:1017400001221A7128680021FFF7A2FDD8B92B6881
:101750000136D86AF6B2411CD962EDE7D96A8E1B10
:10176000DE62EC602868214600F04FF928612B68A2
:101770004FEA4A1A0AF1300A03EB0A006861EF8067
:101780000020BDE8F0870120BDE8F0870220BDE819
:10179000F0870720BDE8F087816838B5002301296C
:1017A0000446C38001D1022038BD0568A869814282
:1017B000F9D261B92978032901D1696A39B92A892D
:1017C0000021E160002AEED06B6A236113E0AA7861
:1017D00062B92068FFF7B1FE014601300FD0012940
:1017E000E1D9236898698142F3D3DCE7E1602846B8
:1017F00000F00BF9206130356561002038BD012013
:1018000038BD10B504460A46407804F13001012382
:10181000FFF7E8FC80BB94F82F2294F82E3243EABD
:101820000221174B0AB29A4228D194F8682094F802
:101830006910130494F8662043EA016194F8673054
:10184000114341EA03210F4B21F07F429A4216D007
:1018500094F8840094F88510020494F8820042EA17
:10186000016194F88320014341EA022121F07F4085
:10187000C01A18BF012010BD032010BD022010BDEA
:1018800055AAFFFF46415400074B1A8902F0020196
:101890008AB2002AF8D0988103480389DA07FBD579
:1018A0008189C8B2704700BF00300140FF20FFF7B8
:1018B000EBBFFFF7E9BF024B10225A61704700BF30
:1018C00000080140014B10221A61704700080140D6
:1018D000704700207047017070470078704770476C
:1018E000704770477047074B1A8902F002018AB2AD
:1018F000002AF8D0988103480389D907FBD581894C
:10190000C8B27047003800402B4B37B54FF4807297
:1019100005461A61FF200C46FFF7E5FF05F0400081
:10192000C1B289B9230C200A45F04005220E8DF87A
:10193000023000238DF803008DF800508DF801204F
:101940008DF80440184606E037200021FFF7DCFF41
:10195000012830D8E6E71DF8032008244100C8B26A
:1019600082EA00052D0648BF80F00900013C5200C4
:1019700014F0FF04D2B2F1D10133052BEBD14100B9
:1019800041F00100C5B21DF804000134FFF7ABFFC0
:10199000052CF8D12846FFF7A6FF0A24FF20FFF701
:1019A000A2FFFF2803D1621E12F0FF04F6D1024B02
:1019B0004FF4807159613EBD00100140024B4FF45D
:1019C0008052FF201A618EE7000C01400B8810B591
:1019D0004C88028823438C8802F441522343CC88EC
:1019E00023430C8923434C8923438C892343CC898B
:1019F000098A23431A4393B20380828B22F4006343
:101A00001A04130C8383018210BD836902399A1E64
:101A1000914204D28278806A02FB01007047002064
:101A20007047F8B5114C0546A36816460F4698470F
:101A300020698047E169C5F307408847E269C5F33B
:101A4000072045F004059047E469E8B2A047002468
:101A5000A3B2B342054D04D2385DEA699047013420
:101A6000F6E768698047E9688847F8BD0C00002000
:101A7000F8B5114C0546A36816460F4698472069ED
:101A80008047E169C5F307408847E269C5F307204D
:101A90009047E469E8B2A0470024A5B2B542064DDC
:101AA00004D2A969884738550134F6E76B6998472D
:101AB000E8688047F8BD00BF0C00002070B50E4CF0
:101AC0000546A3680E46984720698047E169C5F33B
:101AD00007408847E269C5F30720904745F00400B6
:101AE000E369C0B298473046E16988476269904728
:101AF000E068804770BD00BF0C00002010B50446B0
:101B000004F0F0014FF4A850FFF7D8FF4FF4B8509D
:101B1000210ABDE81040D1E738B50D4C0546A36851
:101B2000984720698047E169C5F307408847E26923
:101B3000C5F307209047E369E8B29847A569A8472D
:101B4000054660698047E1688847284638BD00BF80
:101B50000C0000204001F8B500F1080606F5185504
:101B6000002406F51C562846FFF7D6FF0102304632
:101B70008FB2FFF7D1FF3A1897B24FB12846FFF75F
:101B8000CBFF030230469CB2FFF7C6FF201884B299
:101B9000BC42E8D12046F8BD4001F8B500F1080686
:101BA00006F50055002406F504562846FFF7B4FF55
:101BB000010230468FB2FFF7AFFF3A1897B24FB12C
:101BC0002846FFF7A9FF030230469CB2FFF7A4FFA7
:101BD000201884B2BC42E8D12046F8BD7FB5062269
:101BE00004A94FF41060FFF743FF01A904224FF44A
:101BF0008070FFF73DFF02A904224FF4A060FFF7B9
:101C000037FF042203A94FF47060FFF731FF8021F2
:101C10000020FFF753FF0020FFF77EFF04A90622F4
:101C20004FF41060FFF7FDFE01A904224FF480700D
:101C3000FFF7F7FE02A904224FF4A060FFF7F1FEC0
:101C40004FF4706003A90422FFF7EBFE07B000BD5C
:101C500070B504460D46FFF7C1FF0CB9D5B930E0A9
:101C600000231846E15C01330A18082BD0B2F9D1E1
:101C700041B2102901DDFF2224E0661E0124E200AA
:101C800002F5F85016F8011F0434FFF717FF212C56
:101C9000F5D1E3E700231A46E85C01338118082BED
:101CA000CAB2F9D150B21028E5DC013D0124E100AF
:101CB00001F5F050043415F8011FFFF7FFFE212C49
:101CC000F5D1002250B270BD0828F8B5044627D8D7
:101CD0004501083505F5807738461021FFF7EEFEFF
:101CE0003846FFF719FF06460028F9D105F50070C0
:101CF0001F21FFF7E3FE012202FA04F20A4B1988C2
:101D000021EA02001880094A094B165523F814608D
:101D100005F54070FFF700FF0028F9D1012100E030
:101D2000FF2148B2F8BD00BFFA0B00200C0C0020C8
:101D3000FC0B002008282DE9F04704460E4600F26F
:101D4000A1804FEA800808F10105ED002846FFF761
:101D5000E3FE00F00F00012840F09880002E00F014
:101D6000998005F540794846FFF7D6FE172802D03E
:101D70001C2840F093804B4F3B8843FA04F3DB0769
:101D800022D505F5007A5046FFF7C6FE00F0100197
:101D9000CAB25AB150461021FFF790FE012101FA54
:101DA00004F13A8822EA010038800DE000F00800D2
:101DB000C3B213B90020BDE8F0872046FFF784FFC7
:101DC0006FF00C00BDE8F08705F5F850FFF7A4FEB2
:101DD0008702BBB2012707FA04F7B34238BF1E4699
:101DE0002046FFF7D9FE82464846FFF795FE1728A2
:101DF00005D01C2803D02046FFF766FF4EE02A4995
:101E00000A88174202D0564502D9D3E75645E7D88B
:101E100036B305F510594846FFF77EFE05F5145414
:101E200082462046FFF778FE08F1020800EB0A2000
:101E30001FFA80FA4FEAC80303EB0A201B49324617
:101E4000FFF7EFFD0AEB06011FFA81FA48464FEA59
:101E50001A21FFF733FE20465FFA8AF1FFF72EFEC4
:101E600005F5807528462021FFF728FE2846FFF754
:101E700053FE0028FAD10B480288174307803046EA
:101E8000BDE8F0874FF0FF30BDE8F0876FF0040049
:101E9000BDE8F0876FF00D00BDE8F0876FF0060039
:101EA000BDE8F087FA0B0020D40A00206C00002067
:101EB000082870B5044636D8450108352846FFF78E
:101EC0002BFE00F00F0001282FD105F5807630465B
:101ED0000821FFF7F3FD3046FFF71EFE0028FAD178
:101EE000012202FA04F2124B198821EA02021A8036
:101EF000104B198841FA04F1CA0717D405F5407050
:101F0000FFF70AFE68B105F50070FFF705FE00F067
:101F10000800C2B2002AF1D02046FFF7D5FEF32018
:101F200004E0012002E0FF2000E0FB2040B270BD91
:101F3000FA0B0020D40A002008B54FF43850FFF700
:101F4000EBFD00F07F014FF43850FFF7B7FD4FF481
:101F50003850FFF7E1FD60F07F01C9B24FF438500F
:101F6000BDE80840AAE510B504464FF43850FFF725
:101F7000D3FD00F04003D9B209B9FF201AE000F008
:101F8000C701012C0CBF41F0300141F038014FF482
:101F90003850FFF793FDFFF7CFFF4FF43850FFF7AE
:101FA000BBFD012C02D110F0300F01E010F0380F12
:101FB000E3D0002040B210BD08B501784378012974
:101FC0000CBF40210021012B04D1002914BF78212E
:101FD00038210EE0C2788078012A06D101280CBF92
:101FE00041F0180141F0080103E0012808BF41F069
:101FF00010014FF43850FFF761FDBDE808409BE742
:1020000010B54FF4A850FFF787FD04464FF4B850C1
:10201000FFF782FD000281B204F0F0040A1990B2C9
:1020200010BD10B54FF4B050FFF776FD04464FF4E5
:10203000C050FFF771FD04EB002080B210BD10B559
:1020400004464FF43850FFF767FDC0F3801300F0EB
:1020500038002028237001D0382801D1012100E068
:102060000021A0F11002D3B2102B617007D8012318
:1020700003FA02F101F0013222F0807101B900236C
:102080000838C2B2182AA37007D8012303FA00F057
:1020900000F0013121F4807202B90023E37010BD19
:1020A0001D4B37B55A6802F00C01082911D15D6843
:1020B0005C68C5F38342951CE10301D4174906E02F
:1020C000DB6A174A03F00F014C1CB2FBF4F16943C1
:1020D00000E01349104A134B5568C5F303141C5D07
:1020E000556821FA04F1C5F302255D5D5568C5F315
:1020F000C2255D5D5268C2F381329B1842F21072B4
:10210000B1FBF2F148431B7C0190019818B1019B8F
:102110005A1E0192F9E73EBD0010024000093D0041
:1021200000127A0044000020CB78F0B5DA0648BFF0
:102130008A78098803F00F0548BF154311F0FF0F97
:102140001ED004680022012707FA02F707EA0106F9
:10215000BE4211D197004FF00F0C0CFA07FC05FAA4
:1021600007F724EA0C04282B44EA070401D146614E
:1021700002E0482B08BF06610132082AE3D104605F
:10218000FF2920D94468002202F10806012707FA36
:1021900006F707EA0106BE4211D197004FF00F0C77
:1021A0000CFA07FC05FA07F724EA0C04282B44EA8A
:1021B000070401D1466102E0482B08BF06610132E5
:1021C000082AE1D14460F0BDFEE700BFFEE71046FB
:1021D00070470020704700207047012070474FF47F
:1021E00000534B60002070474FF0FF3070474FF0B6
:1021F000FF307047044B1A680AB9044919601A681D
:102200001018186010467047140C0020180C00209D
:1022100007B500233C4A3D499818884204D23C48FF
:10222000195899500433F5E73D483E494FF00002F4
:102230008842B8BF40F8042BFFF6FAAF354B1A6856
:1022400042F0010018605968334A0A405A60186821
:1022500020F0847121F480321A60186820F4802103
:1022600019605A684FF41F0122F4FE0000225860E2
:102270009960DA6200920192186840F48031196026
:10228000244B1A6802F40030019000994A1C009215
:10229000019818B90099B1F5A06FF1D11B6813F43A
:1022A000003218BF012201920198012805D01B4B72
:1022B0004FF000629A60FDF735FF164B5968596080
:1022C0005A685A6058685860596821F47C125A60FC
:1022D000586840F4981159601A6842F0807018608C
:1022E00019680C4A8901FBD5536823F0030050603C
:1022F000516841F002035360064A506800F00C0137
:102300000829F9D1D3E700BF000000206C000020AD
:10231000742B0008001002400000FFF800ED00E000
:102320006C000020180C0020032AF0B431D941EAD7
:1023300000039C072ED106680F68151F031D0C1D96
:10234000BE42C5F3800C24D1032D2A461FD9BCF10F
:10235000000F08D01E68256821461846043404334F
:10236000AE4211D015E0214618461C680B68051DC9
:102370000E1D9C420DD1314628462E680D68043A48
:10238000031D0C1DAE4204D1043A032AEBD82146AA
:1023900018461AB303780C78A3420AD1551E0022BE
:1023A000EB0714D510F8013F11F8014F0122A342A9
:1023B0000DD0181B10E010F8013F11F8014FA34297
:1023C000F7D110F8013F11F8014FA342F1D1AA4211
:1023D00002F10202EFD10020F0BC70471046FBE78B
:1023E000830770B5064614D10368A3F1013222EACF
:1023F000030010F0803F0CD1331D1A4653F8044BF4
:10240000A4F1013525EA040414F0803FF5D010460C
:1024100000E0304603782BB1421C1478104601329C
:10242000002CFAD100F06EF9304670BDC9B2F0B49C
:1024300000294BD082070FD00278002A71D0914238
:1024400042D0431C05E013F8012B002A3BD09142F7
:102450003AD09A071846F6D1036841EA0127A3F15A
:10246000013222EA030212F0803F47EA07471CD1FB
:102470007B40A3F1013222EA030313F0803F14D121
:10248000021D02E014F0803F0FD1104652F8043BC9
:10249000A3F1013687EA030426EA0303A4F1013518
:1024A00013F0803F25EA0404ECD00278002A38D0EB
:1024B000914209D0431C01E0914205D0184613F81F
:1024C000012B002AF8D11046F0BC704783070BD0CF
:1024D0000278002AF8D0431C03E001780133002978
:1024E000F2D099071846F8D10168A1F1013323EA27
:1024F000010212F0803F0AD1031D184653F8041B55
:10250000A1F1013424EA010212F0803FF5D00378F2
:10251000002BD9D0421C1178104601320029FAD183
:10252000D2E71046D0E700BF80EA010212F0030FA5
:1025300040F03A8010F0030220F0030021F0030184
:1025400050F804CB08BF51F8043B0DD082F00302D1
:102550004FEAC2026FF07F4323FA02F251F8043BC4
:102560004CEA020C43EA0203ACF101329C4501BF84
:1025700022EA0C0212F0803F50F804CB51F8043BE1
:10258000F2D04FEA0C604FEA1C2C012828BFB0EBB8
:10259000036F08BF1B0AF4D003F0FF034FEA10607B
:1025A000A0EB0300704700BF10F0030F0AD010F833
:1025B000012B11F8013B012A28BF9A42F4D0A2EB6B
:1025C000030070474DF8045D4DF8044D4FF00102D3
:1025D00042EA022242EA024201F0030C21F0030126
:1025E00050F8044B51F8045BBCF1020F26D04BD8D5
:1025F00024F07F4CBCEB152FA4EB020323EA040369
:102600000DD113EAC21308BF51F8045B0AD18CEA5A
:10261000040CBCEB056F0CD150F8044BE8E74FEA13
:1026200015255CE033F07F4352D10D784FEA146CEE
:1026300055E04FEA146C05F0FF0550E04FEA044CFA
:10264000A4EB02034FEA1C4C23EA0403BCEB154F36
:1026500017D113EAC21308BF51F8045B07D18CEA03
:10266000040CBCEB054F08D150F8044BE6E71B0403
:102670002ED10D884FEA144C31E04FEA05454FEA60
:10268000144C4FEA15452AE004F0FF0CBCEB156F23
:10269000A4EB020323EA04030DD113EAC21308BF1B
:1026A00051F8045B0AD18CEA040CBCEB052F0AD16B
:1026B00050F8044BE8E74FEA156510E014F0FF0FFF
:1026C00006D051F8045B4FEA142C25F07F4506E054
:1026D0004FF000005DF8044B5DF8045B70470CF0B0
:1026E000FF0205F0FF00012828BF904204BF4FEA17
:1026F0001C2C2D0AF3D0A2EB00005DF8044B5DF812
:10270000045B704780EA0102844612F0030F4FD148
:1027100011F0030F32D14DF8044D11F0040F51F8B0
:10272000043B0BD0A3F101329A4312F0803F04BF67
:102730004CF8043B51F8043B16D100BF51F8044B50
:10274000A3F101329A4312F0803FA4F101320BD180
:102750004CF8043BA24312F0803F04BF51F8043B05
:102760004CF8044BEAD023460CF8013B13F0FF0F62
:102770004FEA3323F8D15DF8044B704711F0010F95
:1027800006D011F8012B0CF8012B002A08BF704766
:1027900011F0020FBFD031F8022B12F0FF0F16BF5D
:1027A0002CF8022B8CF8002012F47F4FB3D1704725
:1027B00011F8012B0CF8012B002AF9D1704700BF4A
:1027C00020F0030110F00300C0F1000051F8043BB9
:1027D00000F1040C4FEACC0C6FF000021CBF22FA8F
:1027E0000CF213434FF0010C4CEA0C2C4CEA0C4C4D
:1027F000A3EB0C0222EA030212EACC1204BF51F846
:10280000043B0430F4D013F0FF0F1FBF013013F46A
:102810007F4F013013F47F0F18BF0130704700BFA6
:10282000037830B483B1094D421E2C681946E41870
:10283000647804F00304012C08BF03F1200102F8BE
:10284000011F5378002BF0D130BC70476800002086
:1028500038B502460C4659B1002501E0421C054638
:1028600010462146FFF7E2FD0028F7D1284638BD83
:10287000BDE83840FFF7DABD746578742F706C617D
:10288000696E00766964656F2F617669007465789A
:10289000742F68746D6C00766964656F2F6D703489
:1028A00000746578742F6A617661736372697074FD
:1028B00000746578742F63737300696D6167652FA9
:1028C00067696600696D6167652F706E6700696D85
:1028D0006167652F6A7065670002020202020202E8
:1028E0000202020202020202028081828284858642
:1028F0008788898A8B8C8D8E8F8091929394959600
:102900009798998A9B8C8D8E8FA0A2A2A3A4A5A62E
:10291000A7A8A9AAABACADAEAFB0B1B2B2A5B5B6DF
:10292000B7A8B9AABBA3BDBDAFC0C1C2C3C4C5C609
:10293000C7C8C9CACBCCCDCECFD0D1D2D3D4D5D6AF
:10294000D7D8D9DADBDCDDDEDFC0C1C2C3C4C5C67F
:10295000C7C8C9CACBCCCDCECFD0D1D2D3D4D5D68F
:10296000D7D8D9DADBDCDDDEDF485454502F312EE6
:102970003020323030204F4B0D0A0053657276659F
:10298000723A2053544D33322B57353530300D0ABF
:1029900000436F6E6E656374696F6E3A20636C6F8F
:1029A00073650D0A00436F6E74656E742D4C656E11
:1029B0006774683A20000D0A00436F6E74656E7488
:1029C0002D547970653A20000D0A0D0A00485454C0
:1029D000502F312E3020343034204E6F7420466F0B
:1029E000756E640D0A436F6E74656E742D54797044
:1029F000653A20746578742F68746D6C3B5365720A
:102A00007665723A2053544D33322B57353530307A
:102A10000D0A0D0A3C7072653E50616765206E6F4D
:102A20007420666F756E640D0A0D0A0047455420C8
:102A3000002F00222A2B2C3A3B3C3D3E3F5B5D7C25
:102A40007F007478740068746D0068746D6C006A3F
:102A500073006373730067696600706E67006A7065
:102A600067006A706567006D703400617669000008
:102A7000002020202020202020202828282828204E
:102A80002020202020202020202020202020202046
:102A900020881010101010101010101010101010AE
:102AA000100404040404040404040410101010109E
:102AB0001010414141414141010101010101010168
:102AC00001010101010101010101010110101010BA
:102AD000101042424242424202020202020202023A
:102AE000020202020202020202020202101010108E
:102AF00020000000000000000000000000000000B6
:102B000000000000000000000000000000000000C5
:102B100000000000000000000000000000000000B5
:102B200000000000000000000000000000000000A5
:102B30000000000000000000000000000000000095
:102B40000000000000000000000000000000000085
:102B50000000000000000000000000000000000075
:102B60000000000000000000000000000000000065
:042B70000000000061
:102B7400696E6465782E68746D0000000102573533
:102B840035303000E5180008E3180008E1180008A3
:102B9400DF180008DB180008D71800080008DC005C
:102BA400ABCD0ABD3E7BFFFFFF000ABD3E01000026
:102BB40000000100000000000102030401020304FC
:102BC40006070809020406080000000000000000CF
:0C2BD4000102030406070809702A00082B
:0400000508000125C9
:00000001FF
