:020000040800F2
:1000000058090020850100088D0100088F010008B3
:10001000910100089301000895010008000000000C
:100020000000000000000000000000009701000830
:1000300099010008000000009B0100089D010008D4
:100040009F0100089F0100086135000800000000C2
:10005000000000009F0100089F0100089F010008A8
:100060009F010008000000009F0100089F01000898
:100070009F01000800000000C52200089F01000841
:100080009F0100089F010008000000009F01000878
:100090009F010008000000000000000000000000B8
:1000A0000000000000000000000000009F010008A8
:1000B0009F0100089F0100089F0100089F010008A0
:1000C00000F002F800F04EF80AA090E8000C82441C
:1000D0008344AAF10107DA4501D100F043F8AFF2F9
:1000E000090EBAE80F0013F0010F18BFFB1A43F016
:1000F000010318479C470000BC470000103A24BF8A
:1001000078C878C1FAD8520724BF30C830C144BF7C
:1001100004680C60704700000023002400250026BE
:10012000103A28BF78C1FBD8520728BF30C148BF5A
:100130000B607047662904F04783732900F0B2838F
:10014000002070471FB59DE8030000F0FDFB00F0A4
:10015000DFFB04000020002104F020FBE0601FBD55
:1001600010B510BD00F0AAFB1146FFF7EBFF03F03E
:1001700097FB00F017FD03B4FFF7F2FF03BC00F09C
:1001800011F900000948804709480047FEE7FEE7EB
:10019000FEE7FEE7FEE7FEE7FEE7FEE7FEE7FEE737
:1001A00004480549054A064B7047000051200008E5
:1001B000C1000008580300205809002058050020FD
:1001C00058050020032A40F2308010F0030C00F0A4
:1001D000158011F8013BBCF1020F624498BF11F881
:1001E00001CB00F8013B38BF11F8013BA2F104023A
:1001F00098BF00F801CB38BF00F8013B11F00303B2
:1002000000F09D80083AC0F0088051F8043B083A9D
:1002100051F804CBA0E80810F5E7121D5CBF51F8B7
:10022000043B40F8043BAFF30080D20724BF11F831
:10023000013B11F801CB48BF11F8012B24BF00F896
:10024000013B00F801CB48BF00F8012B70470000CC
:100250004FF0013C50F8042B51F8043B9A4221D155
:10026000A2EB0C03934313EACC1317D150F8042BE1
:1002700051F8043B9A4215D1A2EB0C03934313EAC5
:10028000CC130BD150F8042B51F8043B9A4209D1FE
:10029000A2EB0C03934313EACC13DBD04FF0000026
:1002A000704700BFD01A01BAB1FA81F101F018010C
:1002B00022FA01F0CB40DBB2C0B2C01AC1F120017A
:1002C0002CFA01F3D11A914311EAC311E6D1704718
:1002D00070477047704770B50C460546012A05D037
:1002E0002878800600D5EA69002302E0012305E0B2
:1002F0005B1C934202D2E05C0028F9D1A869E618A1
:10030000C01AA861286A184428622846AFF3008002
:1003100004E0D5E9012114F8010B9047B442F8D369
:100320002846AFF3008070BD10B5002000F0BEFA83
:10033000FFF716FFBDE81040012000F033B810B5FC
:10034000203AC0F00B80B1E81850A0E81850B1E88E
:100350001850A0E81850203ABFF4F5AF5FEA027CCD
:1003600024BFB1E81850A0E8185044BF18C918C0FD
:10037000BDE810405FEA827C24BF51F8043B40F89E
:10038000043B08BF7047D20728BF31F8023B48BF83
:1003900011F8012B28BF20F8023B48BF00F8012BC1
:1003A0007047000001491820ABBEFEE7260002009E
:1003B000004870476000002070B5064600F0A4FABF
:1003C000056806F10B0020F00704B4429CBF002032
:1003D00070BD2B466A68BAB11068A04210D304F110
:1003E000080188423CBF5068586007D35168101913
:1003F00041601168091B016058601460101D70BDD8
:1004000013465268002AE7D12146284600F088FAB0
:100410000028DED170BD70B50446051F00F074FAE7
:100420000068002C14BF446870BD002C18BFAC429B
:100430003CBF20466468F8D301680A18AA4218BF76
:10044000456003D12A6805461144016028684119B6
:10045000A1421CBF6C6070BD61686960216808447E
:10046000286070BD2DE9FF4F0C461E464FF0FF3748
:100470008BB0D2E90001DDF860800A908A46C1F3B2
:100480000A5505B93D46002108464FF00000BAF173
:10049000000F00F4400005DA00EB80004FF440014B
:1004A00001EA50004FEA9059B9F1010F00DDB94659
:1004B0000A9850EA4A000ED044F61050A5F2FF35D3
:1004C00045432F14B8F1000F1ED07542291E1EDDC2
:1004D000C9F100021CE0B8F1010F4FF0000001D09B
:1004E000302103E0F24305E02154401CB042FBDB25
:1004F00030460022002121540B99C1F80880C1E93F
:1005000000200FB0BDE8F08FBD1B6D1CDEE74A4632
:1005100000DA694206A800F0D3FA06AB93E80700B8
:1005200003AB83E8070050460A9903F05BFD8DE8B2
:100530000700A0F500501F3800900398002D0ADD39
:1005400042F21F014A460844002303A9039068466B
:1005500003F0C4FF09E0A0F500504A461F3800230D
:1005600003A90390684603F0CEFF8DE8070000045E
:10057000000C03D04FF0FF30410800E01046B8F106
:10058000000F03D00022009215461EE0751E05D410
:1005900000F010FA303262556D1EF9D5B3460122D3
:1005A000084302D000227F1C04E02078302801D1CB
:1005B00000227F1E002A099784D01DE0112D07DA42
:1005C00000F0F8F9303262556D1C50EA0102F5D1A5
:1005D000084302D00098C8B10EE00021681E05E073
:1005E000235C625C63542254401E491C8142F7DB49
:1005F000AB46A81B401E0990002004F80B000B9886
:10060000099AC0F80880C0E9002B7AE711264FF05C
:10061000000857E72DE9F04F88460446D21D22F026
:10062000070191B0D1E90001CDE90A0104F0A2F877
:1006300002460B98C00F01D02D2007E020688107EB
:1006400001D52B2002E0202101EAC000032A0990F5
:1006500001D0072A05DB03464146204600F0F0F9A9
:100660000BE12078800601D5E06900E00620B8F1B2
:10067000650F814606D0B8F1660F18D0B8F1670F44
:1006800070D131E00020B9F1110F009001DB11238E
:1006900001E009F101030AAA01A90CA8FFF7E2FE93
:1006A000DDE90C70002609F10105834647E00120D1
:1006B0004B4600904FF000470AAA01A90CA8FFF78B
:1006C000D1FEDDE90DB00C995D46002610B909F1A7
:1006D00001000D18B9EB050003D4C0F1FF3609F194
:1006E0000105A5EB09002BE0B9F1010F01DA4FF08C
:1006F00001090020B9F1110F0090484601DD1123D6
:1007000000E003460AAA01A90CA8FFF7ABFEDDE949
:100710000C704D4600268346207800070AD4AB456E
:1007200000DA5D4601A8012D04DD411911F8011C14
:10073000302907D04F4502DA17F1040F04DA0120FF
:1007400082460FE06D1EEEE7002F02DCED1B3E44FB
:1007500003E0781CA84200DD7D1CB81B00F1010AF3
:100760004FF000472078000703D4AA4501DB4FF083
:10077000FF3A0021B7F1004F0DF143088DF8431007
:1007800024D002202B23002F01DA7F422D230A21BF
:10079000021EA0F1010000DC5FB197FBF1FC97FBAA
:1007A000F1F201FB1C7C17460CF1300C08F801CD6E
:1007B000EEE7A8F1010003702188090501D5452164
:1007C00000E06521A0F1010800F8011C09980FA9BB
:1007D000A1EB0807FF1D00B10120411901EBEA70F0
:1007E000A1693844081A401EA0612078C00602D4CE
:1007F0002046AFF30080099828B1D4E90121904741
:10080000206A401C20622078C00622D52046AFF323
:1008100000801EE0002E04DBB34502DD01A8805DF0
:1008200000E03020D4E901219047206A401C20627A
:10083000761CAAF101005FEA000A0AD100F068F80C
:10084000C0680168405CD4E901219047206A401CDF
:100850002062281EA5F10105DCDC07E0D4E90121B6
:1008600018F8010B9047206A401C2062381EA7F13F
:100870000107F3DC2046AFF30080032011B041E60E
:1008800010B5436913B1AFF3008001E0FFF723FD1A
:10089000012010BD127800F124010A7000224A7074
:1008A0000122EDE711684FF0FF32E9E710B500F0E3
:1008B00087F9BDE8104000F07EB970477546FFF734
:1008C00077FDAE4605006946534620F00700854691
:1008D00018B020B5FFF764FCBDE820404FF00006DB
:1008E0004FF000074FF000084FF0000BAC46ACE8AB
:1008F000C009ACE8C009ACE8C009ACE8C00921F007
:1009000007018D46704700000048704768000020CE
:10091000004870478000002070477047704770475C
:1009200038B504460A4600206946AFF30080002827
:1009300008BF38BD02460099204600F059F9012051
:1009400038BD012000F087B9F8B5AFF30080054647
:1009500000200C46102000BF0646A819A0420DD961
:10096000324669460020AFF30080070008BF00F060
:1009700072F90098A04218BF0546C419FFF7C4FFDA
:1009800005600746F01D20F007004619284600F0D4
:100990000AF8B44208BFF8BDA21B31463868BDE86A
:1009A000F84000F025B900210160C0E9011070474E
:1009B0001020704730B5B0F10A0271F100034FEA20
:1009C000900E4EEA817EB0EB0E0061EB91014FEA92
:1009D000101E4EEA017E10EB0E0041EB11114FEAA2
:1009E000102E4EEA016E10EB0E0041EB11214FEA82
:1009F000104E4EEA014E10EB0E0041EB1141401833
:100A000041F100014FEAD00040EA41704FEAD101C4
:100A10004FEA810444EA907410EB800544EB010432
:100A20006D1944EB0404521BA3414FF0000348BF6F
:100A30000A3200D530BD401C41F1000130BD00003C
:100A40002DE9F0411F46044603260168072A01F4F8
:100A5000006004DB08B116A505E016A503E008B1A7
:100A600015A500E015A521F010002060A069C01EAA
:100A7000A0610FB1401EA0612046AFF300804FB1CE
:100A8000D4E9012138469047206A401C2062C01CEE
:100A9000206206E0206AFAE7D4E9012115F8010B8B
:100AA0009047761EF8D22046AFF30080BDE8F08173
:100AB0004E414E006E616E00494E4600696E660002
:100AC0002DE9F047814616468AB0354878440DC86E
:100AD0008DE80D0032487844801C03AC0DC884E8D2
:100AE0000D0041F69B300844372190FBF1F290FB5A
:100AF000F1F5A5F1800501FB12041B3C02D564420F
:100B0000012000E00020DFF898A080460027FA448A
:100B1000AAF1BE0A0EE0E0070AD03246684607EBAB
:100B2000470101230AEB810103F0EDFC8DE807008A
:100B300064107F1C002CEED1194F7F44AE3F19E0AA
:100B4000E80715D007EB04100DF1180A90E80E0025
:100B50008AE80E00C068F04201D198190890324628
:100B6000012306A903A803F0CEFC03AB83E807002A
:100B70006D10641C002DE3D14FF00103324669462D
:100B8000B8F1000F03A802D003F0A8FC01E003F0C5
:100B9000BAFCC9E90001C9F808200AB0BDE8F0872D
:100BA000783D000010B50446AFF300802046BDE854
:100BB0001040FFF7E0BA002801D0FFF7F3BB704701
:100BC00010B5002102A000F02DF8012010BD00009A
:100BD000534947414252543A2041626E6F726D61EF
:100BE0006C207465726D696E6174696F6E000000CF
:100BF000034640688C46002818BF88423CBF034625
:100C00004068F8D318681844884207D00CF10300F4
:100C100020F00700001D411A521A0146081D0A6003
:100C2000FFF7F9BB70B505460C460A2000E06D1CC5
:100C300000F018F835B128780028F8D102E0641CDB
:100C400000F010F814B120780028F8D1BDE8704009
:100C50000A2000F007B810B500F00CF8BDE810400D
:100C6000FFF7A9BF08B569468DF800000320ABBEA9
:100C700008BD000010B5012805D0002103A0FFF732
:100C8000D1FF012010BD09A1F8E7000053494752E8
:100C9000544D454D3A204F7574206F66206865614C
:100CA00070206D656D6F7279000000003A20486514
:100CB0006170206D656D6F727920636F72727570EF
:100CC0007465640080B586B0012000900022019216
:100CD000114600F001F90098019900F0B9F900F00F
:100CE000D3F80098019900F007FA00F0CDF8002041
:100CF000C4F20B0004902021029100F001FD049841
:100D00004021039100F0FCFC4FF47A7002F074FD76
:100D10000299049800F0E2FC0399049800F0DEFCCC
:100D200004988021059100F0EBFCC82002F064FDDE
:100D30000498059900F0D2FC06B080BD80B588B05B
:100D40004FF400100121039101F060F803994FF472
:100D5000800001F05BF80398FF21ADF814108DF8C6
:100D600016008DF81700002101918DF818108DF8EC
:100D700019108DF81A108DF81B108DF81C10032116
:100D800002918DF81D108DF81E0048F20000C4F28B
:100D90000A0005A9049100F0D5FB019B029A039873
:100DA00004994FF4FC6CADF814C08DF816008DF862
:100DB00017008DF818308DF819308DF81A308DF82D
:100DC0001B308DF81C308DF81D208DF81E00002082
:100DD000C4F20B0000F0B6FB08B080BD48F2000181
:100DE000C4F206014CF6CC400860704748F200019E
:100DF000C4F206014AF6AA200860704781B08DF857
:100E000003009DF8030048F20401C4F206010860E3
:100E100001B0704781B00090009848F20801C4F218
:100E20000601086001B0704748F20001C4F20601F3
:100E3000002008607047000048F20001C4F206017B
:100E400045F255500860704780B5012000F0A0FFC2
:100E5000FFE700F0A9FF012801D0FFE7F9E74FF411
:100E60000050012100F0D2FFFFF7E6FF0620FFF758
:100E7000C5FF40F6FF70FFF7CDFFFFF7B7FFFFF7A5
:100E8000D3FFFFF7ABFF80BD80B584B00020C4F274
:100E90000B0002904FF4407100F020FC0120019003
:100EA00002F0AAFC02984FF48061039100F028FC44
:100EB000019802F0A1FC019948F20000C4F20A0076
:100EC00000F032FC019802F097FC0298039900F0C0
:100ED00005FC04B080BD000080B584B08DF80F0023
:100EE0008DF80E108DF80D2008208DF80C009DF85F
:100EF0000F0038B1FFE79DF80C0040F004008DF8BA
:100F00000C0006E09DF80C0000F0FB008DF80C00D2
:100F1000FFE79DF80E0038B1FFE79DF80C0040F0A8
:100F200002008DF80C0006E09DF80C0000F0FD00BA
:100F30008DF80C00FFE79DF80D0038B1FFE79DF834
:100F40000C0040F001008DF80C0006E09DF80C004C
:100F500000F0FE008DF80C00FFE70020C4F20B004B
:100F600001904FF4407100F0B9FB0120009002F0B5
:100F700043FC01984FF48061029100F0C1FB00989E
:100F800002F03AFC9DF80C1048F20000C4F20A008E
:100F900000F0CAFB009802F02FFC0198029900F0C3
:100FA0009DFB04B080BD000080B584B08DF80F00BB
:100FB0008DF80E1010208DF80D009DF80F0038B13F
:100FC000FFE79DF80D0040F008008DF80D0006E0E9
:100FD0009DF80D0000F0F7008DF80D00FFE79DF87B
:100FE0000E0038B1FFE79DF80D0040F004008DF8C9
:100FF0000D0006E09DF80D0000F0FB008DF80D00DF
:10100000FFE70020C4F20B0001904FF4407100F0A4
:1010100065FB0120009002F0EFFB01984FF4806126
:10102000029100F06DFB009802F0E6FB9DF80D10B8
:1010300048F20000C4F20A0000F076FB009802F0CB
:10104000DBFB0198029900F049FB04B080BD000071
:1010500080B584B08DF80F008DF80E1004208DF847
:101060000D009DF80F0038B1FFE79DF80D0040F02E
:1010700002008DF80D0006E09DF80D0000F0FD0067
:101080008DF80D00FFE79DF80E0038B1FFE79DF8E1
:101090000D0040F001008DF80D0006E09DF80D00F8
:1010A00000F0FE008DF80D00FFE70020C4F20B00F9
:1010B00001904FF4407100F011FB0120009002F00C
:1010C0009BFB01984FF48061029100F019FB00989E
:1010D00002F092FB9DF80D1048F20000C4F20A00E5
:1010E00000F022FB009802F087FB0198029900F0C3
:1010F000F5FA04B080BD000080B584B08DF80F0013
:101100008DF80E1028208DF80D009DF80F0038B1D5
:10111000FFE79DF80D0040F010008DF80D0006E08F
:101120009DF80D0000F0EF008DF80D00FFE79DF831
:101130000E0038B1FFE79DF80D0040F002008DF879
:101140000D0006E09DF80D0000F0FD008DF80D008B
:10115000FFE70020C4F20B0001904FF4407100F053
:10116000BDFA0120009002F047FB01984FF4806126
:10117000029100F0C5FA009802F03EFB9DF80D10B8
:1011800048F20000C4F20A0000F0CEFA009802F023
:1011900033FB0198029900F0A1FA04B080BD000071
:1011A00080B58AB0192002F027FB0020C4F20B00A2
:1011B00008904FF48061099100F0A2FA08984FF46A
:1011C0004071059100F08AFA48F20000C4F20A006A
:1011D0000690C021039100F081FA06983021019118
:1011E00000F08EFA06980F21029100F077FA089825
:1011F000099900F073FA0120079002F0FDFA0898AF
:10120000099900F07DFA0599089800F067FA0399AA
:10121000069800F063FA0199069800F071FA0299B5
:10122000069800F05BFA0898099900F057FA0798B9
:1012300002F0E2FA0898099900F062FA0599089814
:1012400000F04CFA0399069800F048FA01990698C4
:1012500000F056FA0299069800F040FA08980999A9
:1012600000F03CFA079802F0C7FA0898099900F0D4
:1012700047FA0599089800F031FA0399069800F0AA
:101280002DFA0698382100F03BFA069807210491C0
:1012900000F024FA0898099900F020FA08980999B2
:1012A00000F02EFA0599089800F018FA0698F02137
:1012B00000F014FA0698082100F022FA0499069822
:1012C00000F00CFA0898099900F008FA08980999B2
:1012D00000F016FA0599089800F000FA0698FE2129
:1012E00000F0FCF90698079900F00AFA08980999A5
:1012F00000F0F4F90898099900F002FA05990898A5
:1013000000F0ECF90698F82100F0E8F906980621BB
:1013100000F0F6F90698079900F0E0F908980999A5
:1013200000F0DCF90AB080BD80B584B08DF80F0004
:1013300080208DF80E009DF80F0000F07F019DF8D1
:101340000E0008438DF80E000020C4F20B0001903F
:101350004FF4407100F0C2F90120009002F04CFA05
:1013600001984FF48061029100F0CAF9009802F0F0
:1013700043FA9DF80E1048F20000C4F20A0000F093
:10138000D3F9009802F038FA0198029900F0A6F912
:1013900004B080BD80B582B08DF807008DF80610CE
:1013A0009DF8060000F010F8FFE79DF807000138EF
:1013B0008DF80700000628B1FFE700200121FFF7A4
:1013C000F3FDF2E702B080BD80B582B08DF8070072
:1013D0009DF80700013801460091032814D80099B0
:1013E000DFE801F002060A0E0020FFF79DFF0CE087
:1013F0004020FFF799FF08E01420FFF795FF04E075
:101400005420FFF791FF00E0FFE702B080BD00002D
:1014100080B584B08DF80F000020C4F20B0001905D
:101420004FF4807100F06CF901984FF4007100F0F6
:1014300055F90120009002F0DFF901984FF4806126
:10144000029100F05DF9009802F0D6F99DF80F10B6
:1014500048F20000C4F20A0000F066F9009802F0B9
:10146000CBF90198029900F039F904B080BD000071
:1014700080B582B00190FFE70198007840B1FFE7A6
:1014800001980078FFF7C4FF019801300190F3E75D
:1014900002B080BD81B08DF803009DF9031001F00A
:1014A0001F02012090404A094EF28011CEF2000145
:1014B00041F8220001B0704781B08DF803009DF91A
:1014C000031001F01F02012090404A094EF2001162
:1014D000CEF2000141F8220001B0704781B08DF8D2
:1014E00003009DF9031001F01F02012090404A09FA
:1014F0004EF20011CEF2000141F8220001B0704717
:1015000082B08DF8070000919DF90700B0F1FF3F10
:101510000CDCFFE7009840019DF8071001F00F0177
:101520004EF61452CEF20002885409E000984001B1
:101530009DF907104EF20042CEF200028854FFE7F8
:1015400002B070478EB00D900C910D9840680B90D2
:101550000D9880680A900D98C06809900D980069F0
:1015600008900D98406907900D98806906900D9835
:10157000C069059000200390012002900320019093
:101580004FF0011000900C9800880490FFE7049839
:10159000002865D0FFE79DF81000C00700284ED056
:1015A000FFE70B98029988430C998978039A914038
:1015B00008430B900A98019988430C99097A039A79
:1015C0005200914008430A900998029988430C9967
:1015D000897A039A914008430990089800998843B2
:1015E0000C99039A02F1100CCB78097903FA0CF3E9
:1015F00018439140084308900798009988430C9934
:10160000039A02F1100C4B79897903FA0CF3184311
:101610009140084307900698019988430C99497AAC
:10162000039A520091400843069005980299884316
:101630000C99C979039A914008430590FFE70298F5
:1016400040000290019880000190009840000090B6
:10165000039801300390FFE704984008049096E750
:101660000B980D9920F01F020023C4F20B0399423E
:1016700008BF104648600A980D9920F01F02994251
:1016800008BF1046886009980D9920F01F02994202
:1016900008BF1046C86008980D9920F01F029942B3
:1016A00008BF1046086107980D9920F01F02994263
:1016B00008BF1046486106980D9920F01F02994214
:1016C00008BF1046886105980D9920F01F029942C5
:1016D00008BF1046C8610EB07047000082B001908C
:1016E0000091009A019942F01F000023C4F20B03FD
:1016F000994208BF024608689043086002B07047EC
:1017000082B00190009100980199096808430199FD
:1017100020F01F020023C4F20B03994208BF1046B9
:10172000086002B07047000082B0019000910098FC
:10173000019920F01F020023C4F20B03994208BF55
:101740001046086002B0704780B5A4B00790012130
:101750000846FFF71FFE079804A902910C910B9011
:1017600014200A900C980F9009A90E9108A90D91C8
:101770000F990E9A109214910D9A1392119111993A
:1017800012910B990A9A01F0EAFF029815901598A8
:10179000169016981790179803901890189819900B
:1017A00019981A901A98C07A000600280AD5FFE7FF
:1017B00003982090209821902198229022980068E8
:1017C00001900CE003981B901B981C901C981D9096
:1017D0001D981E901E981F901F980190FFE701987A
:1017E00023902398FFF744FE04A801F0DDFF24B006
:1017F00080BD000080B5A4B0079001200221FFF752
:10180000C9FD079804A902910C910B9014200A902D
:101810000C980F9009A90E9108A90D910F990E9A95
:10182000109214910D9A13921191119912910B9992
:101830000A9A01F094FF0298159015981690169840
:1018400017901798039018901898199019981A9053
:101850001A98C07A000600280AD5FFE7039820905E
:1018600020982190219822902298006801900CE005
:1018700003981B901B981C901C981D901D981E90FF
:101880001E981F901F980190FFE7019823902398BE
:10189000FFF7EEFD04A801F087FF24B080BD000033
:1018A00080B5A4B0079001200321FFF773FD0798CE
:1018B00004A902910C910B9014200A900C980F909F
:1018C00009A90E9108A90D910F990E9A10921491E1
:1018D0000D9A13921191119912910B990A9A01F094
:1018E0003EFF029815901598169016981790179825
:1018F000039018901898199019981A901A98C07A0D
:10190000000600280AD5FFE7039820902098219030
:10191000219822902298006801900CE003981B9077
:101920001B981C901C981D901D981E901E981F902F
:101930001F980190FFE7019823902398FFF798FDE7
:1019400004A801F031FF24B080BD000080B5A4B030
:10195000079001200421FFF71DFD079804A90291BB
:101960000C910B9014200A900C980F9009A90E91DD
:1019700008A90D910F990E9A109214910D9A139235
:101980001191119912910B990A9A01F0E8FE0298AF
:101990001590159816901698179017980390189010
:1019A0001898199019981A901A98C07A0006002869
:1019B0000AD5FFE703982090209821902198229043
:1019C0002298006801900CE003981B901B981C90D3
:1019D0001C981D901D981E901E981F901F98019096
:1019E000FFE7019823902398FFF742FD04A801F038
:1019F000DBFE24B080BD000080B584B000F0EEF8BE
:101A0000012000F02DF9FFE700F052F9012801D084
:101A1000FFE7F9E70220029000F0CAF802980821D7
:101A200000F028F80120039000F08AF8039800F0F5
:101A300015F8FFE700F052F8012801D0FFE7F9E7B9
:101A40000020019000F088F84FF4807000F09AF8C0
:101A5000019800F05FF904B080BD000081B08DF8FE
:101A600003009DF803008821C4F24021086001B002
:101A70007047000083B08DF80B0001910C21C4F277
:101A8000020108680090009820F0030000909DF883
:101A90000B20009810430090009808600421C4F2C5
:101AA000020108680090009820F470600090019A8C
:101AB000009840EA02200090009808608820C4F254
:101AC0004020006840B1FFE78C21C4F24021012092
:101AD000086000200860FFE703B0704780B584B05D
:101AE00000200390FFE7212000F08EF88DF80A0017
:101AF000039801300390FFE703990020490A022967
:101B0000019007D8FFE79DF80A00B0FA80F040097D
:101B10000190FFE70198C0070028E4D1FFE72120EA
:101B200000F072F820B1FFE701208DF80B0003E010
:101B300000208DF80B00FFE79DF80B0004B080BD7E
:101B400081B08DF803009DF8030040F28811C4F2C3
:101B50004021086001B0704782B08DF807000C2169
:101B6000C4F2020108680090009820F0F000009094
:101B70009DF80720009840EA021000900098086045
:101B800002B0704782B0ADF806000C21C4F2020129
:101B900008680090009820F440700090BDF806207E
:101BA0000098104300900098086002B07047000051
:101BB00082B08DF807000C21C4F202010868009081
:101BC000009820F0030000909DF807200098104333
:101BD00000900098086002B07047000080B500F0E7
:101BE0002FF94FF00060012100F010F948F23C019C
:101BF000C4F20D01086840F481000860086800F430
:101C00008100086080BD000083B08DF80B009DF856
:101C10000B0000F0E000202806D1FFE70020C4F20E
:101C200002000068019006E048F23C00C4F20D009A
:101C300000680190FFE701989DF80B1001F01F016B
:101C4000C840C00720B1FFE701208DF8030003E082
:101C500000208DF80300FFE79DF8030003B07047F4
:101C600082B08DF807000821C4F20201086820F054
:101C7000030008609DF8070001460091012804D088
:101C8000FFE70098022808D00FE00821C4F2020103
:101C9000086840F00100086008E00821C4F2020171
:101CA000086840F00300086000E0FFE702B07047FA
:101CB00080B584B000200390FFE72220FFF7A4FF47
:101CC0008DF80A00039801300390FFE70399002084
:101CD000490A0229019007D8FFE79DF80A00B0FAE7
:101CE00080F040090190FFE70198C0070028E4D187
:101CF000FFE72220FFF788FF20B1FFE701208DF8E2
:101D00000B0003E000208DF80B00FFE79DF80B00AF
:101D100004B080BD81B08DF803009DF8030040F24F
:101D2000D871C4F2B031086001B0704780B584B09A
:101D300000200390FFE71720FFF766FF8DF80A00E9
:101D4000039801300390FFE703990020490A022914
:101D5000019007D8FFE79DF80A00B0FA80F040092B
:101D60000190FFE70198C0070028E4D1FFE71720A2
:101D7000FFF74AFF20B1FFE701208DF80B0003E0D9
:101D800000208DF80B00FFE79DF80B0004B080BD2C
:101D900081B08DF803009DF8030040F2BC71C4F2DD
:101DA000B031086001B0704780B584B00020039066
:101DB000FFE71520FFF728FF8DF80A000398013090
:101DC0000390FFE703990020490A0229019007D8F0
:101DD000FFE79DF80A00B0FA80F040090190FFE7A4
:101DE0000198C0070028E4D1FFE71520FFF70CFF9A
:101DF00020B1FFE701208DF80B0003E000208DF8F3
:101E00000B00FFE79DF80B0004B080BD82B001908D
:101E10008DF803109DF8030040B1FFE7019A1C21E3
:101E2000C4F2020108681043086007E0019A1C210F
:101E3000C4F20201086890430860FFE702B07047EF
:101E400080B582B00120FFF765FFFFF76FFF00202C
:101E50000190FFF797FE01980C21C4F202010A6875
:101E600008600421C4F202010A6808600821C4F273
:101E700002010A6808601021C4F202010A680860C1
:101E80001421C4F202010A6808601821C4F2020198
:101E90000A6808601C22C4F202021021C0F6000188
:101EA00011602021C4F202010A6808602421C4F2F2
:101EB00002010A6808602821C4F202010A68086069
:101EC0002C21C4F202010A68086002B080BD000043
:101ED00080B50120FFF7C4FEFFF7EAFE012802D01B
:101EE000FFE7FFE7FEE702200921FFF7C3FD01201E
:101EF000FFF7B4FDFFF7F2FD012802D0FFE7FFE78F
:101F0000FEE70020FFF728FE0120FFF719FE4FF43F
:101F10008070FFF737FE80BD80B504200121FFF7F8
:101F200075FF40F2D800C2F20000032101700B21BE
:101F3000417040F2E401C2F2000110228A602023C5
:101F40004B600A6000F092FC1F2001F0C7FB00F01C
:101F5000C1FC022001F0E4FB00F0A4FB80BD000006
:101F600085B00C20C4F2020000688007002806D566
:101F7000FFE741F20020C0F27A00049005E041F250
:101F80000020C0F27A000490FFE70C20C4F20200A7
:101F90000068C00720B1FFE7049840080490FFE7FD
:101FA000049803900C20C4F2020000684007002847
:101FB0000DD5FFE70420C4F202000068C0F303203F
:101FC000013001900199039848430390FFE70C20EA
:101FD000C4F202000068C0F301200146009140B144
:101FE000FFE7009801280ED0FFE7009802281CD0D8
:101FF00023E040F20001C2F2000141F20020C0F2F1
:102000007A00086021E003980C21C4F202010968FB
:10201000C1F303110131B0FBF1F00290029840F2DC
:102020000001C2F2000108600FE040F20001C2F2BC
:1020300000014FF40040086007E040F20001C2F2E6
:10204000000149F640400860FFE705B07047000016
:1020500080B51C21C4F20201102008600C21C4F2DA
:102060000201002008600421C4F202010860082176
:10207000C4F2020108601021C4F2020108601421B8
:10208000C4F2020108601821C4F202010860202194
:10209000C4F2020108602421C4F202010860282170
:1020A000C4F2020108602C21C4F202010860FFF7AB
:1020B00057FF80BD80B58CB04FF480400121059161
:1020C000FFF7A4FE0020C4F2070004900021019154
:1020D00000F038F801990498ADF818104FF46162D7
:1020E000ADF81A200A22ADF81C20ADF81E10ADF88C
:1020F00020104FF48072ADF82220ADF82410022297
:102100000292ADF82620ADF82810ADF82A10ADF8EF
:102110002C10ADF82E1006A900F08CF80299049846
:10212000059A00F0B3F805990E200390FFF7E8F93F
:102130000398FFF7C1F90498059900F061F80CB015
:1021400080BD000083B002908DF807102420C4F2F7
:1021500002000068009002980021C4F20701884242
:102160000ED1FFE7009820F0FF0000909DF80710C7
:10217000009808430090009840F0807000902EE096
:10218000029848F20001C4F2070188420FD1FFE72C
:10219000009820F47F4000909DF80710009840EAD6
:1021A00001200090009840F00070009016E0029826
:1021B0000021C4F2080188420FD1FFE7009820F403
:1021C0007F0000909DF80710009840EA01400090C1
:1021D000009840F080600090FFE7FFE7FFE700987D
:1021E0002421C4F20201086003B0704782B001905C
:1021F00000910098C0430199486502B07047000003
:1022000083B002908DF807100298C06800909DF886
:10221000070028B1FFE7009840F00100009004E0BB
:10222000009820F001000090FFE700980299C86034
:1022300003B0704784B0039002910298008803991C
:102240000860029840880399486002988088039942
:1022500088600299C8880A8910444A8910448A898A
:102260001044C9890844019001980399C8600299F3
:102270000A8A488A00EB02108A8A1044C98A0844F4
:10228000009000980399086504B0704784B00390EB
:1022900002918DF807200398806D00909DF807004B
:1022A00028B1FFE7029900980843009004E00299E2
:1022B000009888430090FFE700980399886504B070
:1022C0007047000080B50020C4F207000221FFF72C
:1022D0008DFF40F25030C2F20000006840B1FFE7CD
:1022E00040F25031C2F20001086801380860FFE78F
:1022F00080BD000082B001901021C4F20201086884
:102300000090009840F48070009001980278009846
:1023100010430090009840F004000090009808607E
:102320000421C4F2020108680090009840F0010006
:10233000009001984278009840EA021000900098BE
:102340000860FFE70020C4F202000068C00708B977
:10235000FFE7F7E702B0704780B584B00020ADF822
:102360000E0040F2DA00C2F200004188ADF80C1015
:102370008188ADF80A10C188ADF808104078014690
:102380000191222800F264800199DFE801F0121621
:10239000616161616161616161616161616161612D
:1023A00061616161616161616161616161611A3491
:1023B0005D000120ADF80E004EE00120ADF80E00EA
:1023C0004AE0BDF80800072810D1FFE7BDF8082053
:1023D00040F2C001C2F2000142F2AD43C0F6000378
:1023E000002000F0BBFFADF80E0003E00220ADF8C6
:1023F0000E00FFE730E0BDF8080007281FD1FFE717
:10240000BDF80A0040F2C001C2F2000100F0D4F8A9
:10241000ADF80E00BDF80E0080B9FFE7BDF808204A
:1024200040F2C001C2F2000142F64D03C0F60003C3
:10243000002000F05DFFADF80E00FFE703E0022092
:10244000ADF80E00FFE707E00020ADF80E0003E056
:102450000120ADF80E00FFE7BDF80E0008BBFFE756
:10246000BDF80800E8B9FFE740F2DA00C2F2000068
:1024700000780006002808D5FFE700231846194613
:102480001A4600F06BFF009007E00023184619463B
:102490001A4600F02DFF0090FFE70098ADF80E00FF
:1024A000FFE7BDF80E0004B080BD000080B586B027
:1024B0008DF817000491039240F2DA00C2F2000096
:1024C000407820280BD1FFE740F2DA00C2F200008A
:1024D0008088049900F01EF9ADF80A0003E002209C
:1024E000ADF80A00FFE7BDF80A0048B9FFE79DF81C
:1024F0001700002319461A4600F0FAFE019003E087
:10250000BDF80A000190FFE7019880B206B080BDD7
:1025100080B586B0ADF81600ADF81410ADF81220F5
:1025200000200390ADF806009DF8160020B1FFE7EB
:102530000120ADF8060021E0BDF81610080A009051
:102540000120B0EB112F04D0FFE70098022808D03B
:102550000FE040F24700C2F2000003901220029008
:102560000BE040F20400C2F200000390432002900E
:1025700003E00120ADF80600FFE7FFE7BDF8060025
:10258000B0B9FFE70298BDF81210884204D9FFE7FE
:10259000BDF812000290FFE70399029A42F64D033C
:1025A000C0F60003002000F0A3FEADF80600FFE730
:1025B000BDF8060006B080BD82B0ADF80400009101
:1025C000BDF8040020B1FFE70220ADF806000CE0E2
:1025D000009940F2B412C2F20002106852684A60D8
:1025E00008600020ADF80600FFE7BDF8060002B065
:1025F0007047000080B584B0039002918DF80720E9
:102600000398029900F0A4F840F2CC02C2F2000252
:10261000002010819DF80710B1FA81F149094902A3
:10262000518104B080BD000080B584B08DF80D00EC
:10263000029101920298019900F02EF8ADF8020083
:10264000BDF8020040B1FFE740F2CC01C2F2000148
:102650004FF400704881FFE740F2CC00C2F2000066
:10266000408980B9FFE740F2CC00C2F20000016867
:10267000426842F22963C0F60003032000F06EFEB8
:10268000ADF80E0003E00020ADF80E00FFE7BDF846
:102690000E0004B080BD000083B0029001910020C4
:1026A00003B0704780B584B000F020F9ADF80E009B
:1026B000BDF80E0050BBFFE70120019005210091FD
:1026C0000022029200F09EFB0099029A022000F084
:1026D00099FB0199029A032000F094FB40F2CC0090
:1026E000C2F20000408980B9FFE740F2CC00C2F29C
:1026F00000000168426842F22963C0F6000303202B
:1027000000F02CFEADF80E00FFE7FFE7BDF80E006D
:1027100004B080BD82B0ADF804000091BDF80400A3
:1027200020B1FFE70220ADF806000CE00099086830
:102730004A6840F2B411C2F200014A600860002009
:10274000ADF80600FFE7BDF8060002B070470000D4
:1027500082B001900091019840F2CC01C2F20001D8
:10276000086000984860002002B0704780B582B0D1
:102770008DF80500ADF80210ADF800209DF80500B9
:1027800002280BD1FFE7BDF8020038B9FFE79DF83A
:10279000000000F005FBADF8060003E00120ADF8F5
:1027A0000600FFE7BDF8060002B080BD80B584B02A
:1027B0000020ADF806000220FEF76CFE40F2F800A3
:1027C000C2F200000068E8BBFFE740F2F801C2F285
:1027D00000010120086000F0BDFE02909DF8080095
:1027E000400700280ED5FFE700F080F8ADF806009E
:1027F00040F2F000C2F2000000214160406800F0A9
:10280000FBFEFFE700200390FFE7039803280AD8A8
:10281000FFE79DF80C00029900F084FBFFE70398A6
:1028200001300390F1E7029820F0010000F06EFF04
:1028300040F2F801C2F20001002008600220FEF719
:102840004DFEFFE7BDF8060004B080BD80B584B042
:102850008DF80F00029101929DF80F000023194698
:102860001A4600F07BFD04B080BD000080B584B046
:10287000039002910398FFF73DFD00F075FE4FF4C1
:10288000803000F0A1FE0298006800F09DFE0299E1
:1028900048688968084340F0010000F0B7FE052150
:1028A00000220192104600F0ADFA019840F2DA01E0
:1028B000C2F2000142F64112C0F6000200F0D8FD5B
:1028C000019840F2F001C2F200010870486004B0C3
:1028D00080BD000080B50C2000F076FE40F2F001D3
:1028E000C2F2000102200870002080BD40F2F00119
:1028F000C2F20001032008700020704780B582B04A
:102900008DF80500ADF80210ADF800209DF8050027
:1029100002280CD1FFE7BDF8020040B9FFE79DF89F
:102920000000012100F0BEFAADF8060003E001202E
:10293000ADF80600FFE7BDF8060002B080BD00005C
:1029400080B58CB08DF82F000A910020ADF82400DE
:102950000A98007800F060008DF827000A98007847
:1029600000F080008DF826009DF8270001460591B3
:1029700050B1FFE70598202800F0E981FFE70598AE
:10298000402800F0E981EBE1002006900A98408899
:10299000ADF822000A988088ADF820000A98C08817
:1029A000ADF81E000A98007800F01F008DF81D0099
:1029B0009DF81D00042804DBFFE70220ADF8240089
:1029C000D2E10A984078014604910C2800F29681E1
:1029D0000499DFE811F00D007D009301A40093013C
:1029E000CB00DB00E600EA0010012F014E016E0172
:1029F0009DF82600802817D1FFE740F2F000C2F2D0
:102A000000000078042813D1FFE79DF81D0001287D
:102A10000AD0FFE79DF81D00022809D1FFE7BDF8A5
:102A20002000042804DBFFE70120ADF824004EE07D
:102A30000020ADF82400BDF82400002846D1FFE7AF
:102A40009DF81D000146039140B1FFE7039801285E
:102A500012D0FFE70398022815D024E040F2F001DD
:102A6000C2F200014878897840EA410040F2C8018A
:102A7000C2F20001087017E040F2C801C2F2000182
:102A80000020087010E0BDF8200040F2FC02C2F205
:102A900000022C2100FB0120407840F2C801C2F264
:102AA0000001087000E0FFE740F2C801C2F2000137
:102AB000002048709DF82F0042F64D03C0F6000339
:102AC000022200F015FCADF82400FFE7FFE719E152
:102AD00040F2F000C2F200000078042813D1FFE7B2
:102AE0009DF81D0001280AD0FFE79DF81D0002286F
:102AF00009D1FFE7BDF82000042804DBFFE701202F
:102B0000ADF824000AE09DF81D00BDF82210BDF8C4
:102B10002020FFF72BFEADF82400FFE7F2E040F2A3
:102B2000F000C2F200000078042813D1FFE79DF8FE
:102B30001D0001280AD0FFE79DF81D00022809D1D9
:102B4000FFE7BDF82000042804DBFFE70120ADF813
:102B500024000AE09DF81D00BDF82210BDF82020D9
:102B6000FFF7CCFEADF82400FFE7CBE00020ADF886
:102B70002400BDF8220040F2F001C2F200014860DA
:102B800042F67150C0F600000690BBE0BDF822008E
:102B9000BDF82010BDF81E20FFF7BAFCADF82400E8
:102BA000B0E00120ADF82400ACE040F2F000C2F249
:102BB00000000078042807D1FFE740F2C801C2F204
:102BC00000010020087006E040F2C801C2F20001D6
:102BD00001200870FFE79DF82F0040F2C801C2F203
:102BE000000142F64D03C0F60003012200F080FB15
:102BF000ADF8240086E0BDF8220038B9FFE740F2C6
:102C0000F001C2F200010420087012E0BDF82200B9
:102C1000013818BF0120ADF82400BDF8240038B9F0
:102C2000FFE740F2F001C2F2000105200870FFE763
:102C3000FFE767E040F2F000C2F2000000780428ED
:102C400004D1FFE70120ADF8240011E040F2C801F3
:102C5000C2F20001002008709DF82F0042F64D03DB
:102C6000C0F60003012200F043FBADF82400FFE7AB
:102C700048E040F2F000C2F200000078042804D1DD
:102C8000FFE70120ADF8240012E0BDF8201000207D
:102C9000029039B9FFE7BDF82200B0FA80F0400990
:102CA0000290FFE7029901208843ADF82400FFE776
:102CB00028E040F2F000C2F200000078042804D1BD
:102CC000FFE70120ADF8240017E00120ADF8240053
:102CD000BDF8240080B9FFE79DF82F0040F2C8013D
:102CE000C2F2000142F64D03C0F60003022200F0DA
:102CF000FFFAADF82400FFE7FFE703E00220ADF89C
:102D00002400FFE7BDF8240000BBFFE7BDF81E006C
:102D1000E0B9FFE70A9800780006002809D5FFE728
:102D20009DF82F00069B0022114600F017FB019032
:102D300008E09DF82F00069B0022114600F0D8FA0B
:102D40000190FFE70198ADF82400FFE70CE0FFF7E2
:102D500003FBADF8240007E00120ADF8240003E0F8
:102D60000220ADF82400FFE7BDF824000CB080BDC0
:102D700080B584B08DF80F000291019240F2F0000E
:102D8000C2F200000090406800F036FC00994A68EA
:102D90000320002A18BF04200870002004B080BD62
:102DA00080B584B08DF80F009DF80F0040F2FC0252
:102DB000C2F200022C2100FB012002904FF40020FF
:102DC00001900298407E20B9FFE70298807E40B1D2
:102DD000FFE7029901200870019840F0020001907D
:102DE00003E0029900200870FFE70299002000909C
:102DF00048709DF80F00019900F038F8009804B071
:102E000080BD000080B586B08DF817000491039254
:102E10009DF8170040F2FC02C2F200022C2100FBD8
:102E20000120029002990020019048600299886078
:102E3000029908610299C860029948610299C861C3
:102E400002990862029948620399029A9162029972
:102E5000487002990870029908769DF81700049945
:102E600000F0ECFB019806B080BD000080B584B096
:102E70008DF80F0002919DF80F0040F2FC02C2F2A3
:102E800000022C2100FB012001901F2000F03EFCDD
:102E90000199002008769DF80F00029900F0CEFB02
:102EA00004B080BD80B584B08DF80D008DF80C1095
:102EB0009DF80D0040F2FC02C2F200022C2100FB42
:102EC00001200290002001909DF80C00012808D1FB
:102ED000FFE79DF80D0020B9FFE70120ADF80E00D7
:102EE0001BE09DF80C00012804D0FFE70298807ECB
:102EF00050B1FFE79DF80C00029948700299052037
:102F000008700A200190FFE79DF80D000199FFF776
:102F1000ADFF0020ADF80E00FFE7BDF80E0004B0D5
:102F200080BD000080B58CB08DF82D000A91002086
:102F30008DF82700ADF824009DF82D0000F0EEFA82
:102F400008909DF82D0000F0F7FA00F003000790BC
:102F50009DF82D0000F0B8FA06909DF82D0040F283
:102F6000FC02C2F200022C2100FB012003909DF81C
:102F70002800C00720B1FFE7039901200876FFE78A
:102F8000FFE70398007801460291052800F29F812F
:102F90000299DFE811F006000A004000C0002A0193
:102FA00084010020ADF82E009DE19DF818008007F7
:102FB00000282FD4FFE70398007E58B3FFE7079857
:102FC00002280ED1FFE70398407E50B1FFE7039936
:102FD0000320087003990020487601208DF827000F
:102FE00017E0079858B9FFE70398807E38B1FFE7EC
:102FF00003990420087001208DF8270008E00120C3
:10300000ADF824009DF82D000021FFF74BFFFFE7EE
:10301000FFE7FFE75BE19DF818008007002847D431
:10302000FFE70398007E002842D0FFE707980128B9
:103030003ED1FFE79DF820004006002838D5FFE785
:103040000399C8680A691044C86003988168C06819
:10305000884226D3FFE70399002008700398C069CF
:1030600050B1FFE7039841688268C3699DF82D005D
:103070009847ADF82400FFE7BDF8240050B9FFE7FA
:103080000398007828B9FFE79DF82D00FFF788FE28
:10309000FFE705E09DF82D000021FFF703FFFFE7A4
:1030A00005E09DF82D00012100F082F9FFE731E0F5
:1030B0009DF82000000760B3FFE703990020087027
:1030C0000398806A60B1FFE70398D0F828C09DF8A4
:1030D0002D000899079A069BE047ADF82400FFE70A
:1030E000BDF8240070B9FFE70398007848B9FFE7FE
:1030F0000399022008709DF82D00002100F058F976
:10310000FFE705E09DF82D000021FFF7CBFEFFE76C
:10311000FFE7FFE7DBE09DF818008007002863D495
:10312000FFE70398007E00285ED0FFE700200190B3
:103130008DF827009DF82D0000F0E2F90146019876
:1031400004910590FFE70598049988420FD2FFE7A4
:103150009DF82D0000F0C6F9039A5168D268059BCE
:103160001A448854FFE7059801300590EBE79DF875
:103170002D00012100F082FA049A0399C8681044D6
:10318000C86003988168C068884226D3FFE7039926
:10319000002008700398006A50B1FFE70398416867
:1031A000C268036A9DF82D009847ADF82400FFE738
:1031B000BDF8240050B9FFE70398007828B9FFE76D
:1031C0009DF82D00FFF7ECFDFFE705E09DF82D00D1
:1031D0000021FFF767FEFFE705E09DF82D000221C3
:1031E000FFF744FEFFE7FFE771E00398007E002849
:1031F00051D0FFE79DF82D0000F082F9049004986B
:10320000082838D1FFE700200590FFE705980499CA
:1032100088420DD2FFE79DF82D0000F063F9039975
:103220004969059A8854FFE7059801300590EDE754
:103230009DF82D00012100F021FA03984169426AAE
:103240009DF82D009047ADF82400BDF8240058B932
:10325000FFE703980078042805D1FFE79DF82D00CB
:10326000FFF79EFDFFE705E09DF82D000021FFF729
:1032700019FEFFE70EE09DF82D000121009100F0FE
:10328000FDF90098ADF824009DF82D000021FFF70E
:1032900009FEFFE7FFE700208DF8270017E09DF803
:1032A00018008007002811D4FFE703984078012810
:1032B00006D1FFE79DF82D000121FFF7F3FD04E0A3
:1032C0009DF82D00FFF76CFDFFE7FFE7FFE7FFE745
:1032D0009DF8270000287FF454AEFFE7BDF82400D6
:1032E000ADF82E00FFE7BDF82E000CB080BD000049
:1032F00080B588B08DF81F000691059204939DF863
:103300001F0040F2FC02C2F200022C2100FB01204F
:1033100003900398817E0120002918BF02208DF8B8
:103320000B000698039948600598039988600399F3
:1033300040200861039900200190C8600498039917
:10334000C8619DF81F009DF80B1000F031F801983E
:10335000039A0221117008B080BD000080B586B0CC
:103360008DF817000491039202939DF8170040F224
:10337000FC02C2F200022C2100FB01200190049803
:103380000199486003980199886001990020009094
:1033900008610199C86002980199086201990120A9
:1033A00048769DF81700FFF7FBFC009806B080BD3B
:1033B00080B586B08DF817008DF816109DF81700AF
:1033C00040F2FC02C2F200022C2100FB012004901A
:1033D0009DF81700012100F071F99DF816000146D3
:1033E000019140B1FFE70198012805D0FFE701985E
:1033F000022806D00BE00AE09DF8170000F0CCF898
:1034000005E09DF81700042100F018F9FFE7049A81
:103410009168D06812691044884206D2FFE7049987
:10342000C86809690844009003E004988068009027
:10343000FFE7009802900498C0680390FFE70398A4
:10344000029988420DD2FFE79DF817000499496858
:10345000039A895C00F022F9FFE70398013003909A
:10346000EDE79DF817000221FFF700FD06B080BDD3
:1034700080B586B08DF81700049103929DF817006F
:1034800040F2FC02C2F200022C2100FB012002905B
:10349000049802994861029900200190886002997D
:1034A00008610299C860039802994862039800284D
:1034B00018BF0120029988769DF81700FFF770FC6D
:1034C000019806B080BD000081B08DF803009DF822
:1034D0000300010140F20010C4F20100405801B0A5
:1034E0007047000081B08DF803009DF80300C10112
:1034F00040F28010C4F20100405801B07047000053
:1035000081B08DF803009DF80300C10140F28C10DA
:10351000C4F20100405801B07047000081B08DF83E
:1035200003009DF80300010140F20410C4F2010001
:10353000405801B07047000081B08DF803009DF83D
:103540000300010140F20810C4F20100405801B02C
:103550007047000040F24810C4F201000068704754
:1035600080B5FFF723F980BD80B582B0022000F05E
:103570002BF800200190FFE70198C0087C2805D8AF
:10358000FFE7FFE7019801300190F5E74FF40030C5
:1035900000F01AF802B080BD82B08DF807009DF8E7
:1035A0000700000140F20011C4F201010858009028
:1035B000009880F00400009000989DF80720120108
:1035C000885002B07047000082B00190FFE740F2DF
:1035D0008031C4F2010108680090BDF80420009811
:1035E00010430090BDF8062000989043009000988A
:1035F0000860FFE702B0704781B00090009840F289
:103600005011C4F20101086001B0704782B001900E
:10361000FFE740F24011C4F2010108680090BDF8D4
:103620000420009810430090BDF8062000989043B5
:10363000009000980860FFE702B0704783B08DF8F3
:103640000B000191FFE79DF80B00000140F2001113
:10365000C4F2010108580090BDF8042000981043FE
:103660000090BDF8062000989043009000989DF8C7
:103670000B2012018850FFE703B0704782B08DF82D
:103680000700009100989DF80710CA0140F29011C0
:10369000C4F20101885002B07047000082B08DF87A
:1036A0000700009100989DF80710CA0140F2C01170
:1036B000C4F20101885002B07047000082B08DF85A
:1036C0000700009100989DF80710CA0140F2D01140
:1036D000C4F20101885002B07047000082B001902E
:1036E000FFE740F24C11C4F2010108680090BDF8F8
:1036F0000420009810430090BDF8062000989043E5
:10370000009000980860FFE702B0704781B0009019
:10371000009840F24811C4F20101086001B07047FE
:1037200081B08DF803009DF9031001F01F02012004
:1037300090404A094EF20011CEF2000141F82200F9
:1037400001B0704740F2AC11C2F200014FF4E13019
:103750000860002008714871082088717047F0B532
:1037600081B012F1100F1DD214460E4605460B2AE9
:1037700002D2EC726CB911E004F1100020F00F07D6
:10378000384600F025F847F00041C5E90004A9607B
:103790000546284631462246FCF714FD00202855F0
:1037A00001B0F0BDFCF7C0FD10B5044690F90B0068
:1037B000B0F1FF3F02DC206800F008F8204610BDA1
:1037C00040F24C30C2F2000000687047FCF723BEA4
:1037D00010B50446002808BF012400BF2046FCF7AE
:1037E000EBFD002818BF10BDFFF7EAFF08B18047C6
:1037F000F4E7002010BD000081B00090009840F276
:103800005031C2F200010860FFE740F25030C2F2CE
:103810000000006808B1FFE7F7E701B0704700005B
:1038200080B582B00120FDF7CFFD44F67500C0F6EB
:103830000000FDF71DFE09200221FDF7ABFDA820C9
:10384000FDF7E6FDE020FDF7E3FD4B20FDF7E0FD91
:103850004220FDF7DDFD06200421FDF79BFDA4209D
:10386000FDF7D6FD61200190FDF7D2FDB420FDF7F4
:10387000CFFD7020FDF7CCFD7920FDF7C9FDB72005
:10388000FDF7C6FDBA20FDF7C3FD0198FDF7C0FDA9
:1038900044F68A00C0F60000FDF7EAFD02B080BDE4
:1038A00080B59EB000221D921C901B9172B6FEF74F
:1038B000A3F8FDF743FA62B6FEF7FCFBFDF7C4FA86
:1038C000FFF740FF40F2BC10C2F20000A521012228
:1038D000FEF790FEFEF7FCFAFEF71EFBFDF760FC1C
:1038E000FDF7F0F9FFE7FFE740F2BC10C2F200007D
:1038F0000078A0B9FFE7FFF793FF4FF4FA70FFF7E6
:103900007BFF0420FDF760FD44F66000C0F6000078
:10391000FDF7AEFD4FF47A70FFF76EFFE4E700F0BD
:1039200079F840F28420C2F200000078312807D1F3
:10393000FFE70020C4F20B004021FDF7E1FE06E0A6
:103940000020C4F20B004021FDF7C8FEFFE740F263
:103950008420C2F200004078312807D1FFE7002020
:10396000C4F20B002021FDF7CBFE06E00020C4F2DC
:103970000B002021FDF7B2FEFFE740F28420C2F2E7
:1039800000008078312807D1FFE70020C4F20B0047
:103990008021FDF7B5FE06E00020C4F20B00802177
:1039A000FDF79CFEFFE740F28420C2F20000019088
:1039B000C11C0DF15700029014220092FCF702FC8A
:1039C000009A019800F117010DF142000390FCF7F5
:1039D000F9FB009A019800F12B010DF12D000490E4
:1039E000FCF7F0FB009A019800F13F0106A8059052
:1039F000FCF7E8FB0298FDF7A7FE0398FDF7FAFE37
:103A00000498FDF74DFF0598FDF7A0FFFDF7EEF9CF
:103A100069E7000080B584B040F2BC10C2F200003B
:103A2000039040F28420C2F2000002900020019036
:103A3000FFE70198522800F3D182FFE7039800784E
:103A40008DF803009DF8030000F0D000D0280BD0C3
:103A5000FFE70398007802990870039801300390FB
:103A6000029801300290B4E203980078D02840F028
:103A7000EE81FFE7039801300390039800789028C7
:103A800004D1FFE7029941200870DFE10398007834
:103A9000812804D1FFE70299A2200870D5E103989C
:103AA0000078912804D1FFE70299A0200870CBE1AB
:103AB00003980078922804D1FFE702994220087009
:103AC000C1E103980078932804D1FFE70299A1206F
:103AD0000870B7E103980078942804D1FFE70299B1
:103AE000E0200870ADE103980078952804D1FFE745
:103AF000029945200870A3E103980078962804D124
:103B0000FFE70299A320087099E1039800789728AD
:103B100004D1FFE70299A42008708FE10398007890
:103B2000982804D1FFE70299A520087085E1039841
:103B30000078992804D1FFE70299A62008707BE15C
:103B4000039800789A2804D1FFE702994B20087067
:103B500071E1039800789B2804D1FFE70299A72020
:103B6000087067E1039800789C2804D1FFE7029968
:103B70004D2008705DE1039800789D2804D1FFE78F
:103B800002994820087053E1039800789E2804D1D8
:103B9000FFE702994F20087049E1039800789F28B9
:103BA00004D1FFE70299A82008703FE1039800784C
:103BB000A02804D1FFE702995020087035E103984E
:103BC0000078A12804D1FFE70299432008702BE177
:103BD00003980078A22804D1FFE7029954200870C6
:103BE00021E103980078A32804D1FFE70299A920D6
:103BF000087017E103980078A42804D1FFE7029920
:103C0000AA2008700DE103980078A52804D1FFE7E9
:103C100002995820087003E103980078A62804D17F
:103C2000FFE70299E1200870F9E003980078A728DF
:103C300004D1FFE70299AB200870EFE00398007809
:103C4000A82804D1FFE70299AC200870E5E00398AA
:103C50000078A92804D1FFE70299E2200870DBE090
:103C600003980078AA2804D1FFE70299AD200870D4
:103C7000D1E003980078AB2804D1FFE70299AE2089
:103C80000870C7E003980078AC2804D1FFE70299D8
:103C900008200870BDE003980078AD2804D1FFE744
:103CA0000299AF200870B3E003980078AE2804D1E1
:103CB000FFE70299B0200870A9E003980078AF28C8
:103CC00004D1FFE70299B12008709FE003980078C3
:103CD000B02804D1FFE702996120087095E00398AD
:103CE0000078B12804D1FFE70299B22008708BE078
:103CF00003980078B22804D1FFE70299B320087036
:103D000081E003980078B32804D1FFE70299B4203A
:103D1000087077E003980078B42804D1FFE702998F
:103D2000E32008706DE003980078B52804D1FFE720
:103D300002996520087063E003980078B62804D1E2
:103D4000FFE70299B620087059E003980078B72879
:103D500004D1FFE70299B72008704FE0039800787C
:103D6000B82804D1FFE70299B820087045E003980D
:103D70000078B92804D1FFE70299B92008703BE028
:103D800003980078BA2804D1FFE70299BA20087096
:103D900031E003980078BB2804D1FFE70299BB20EB
:103DA000087027E003980078BC2804D1FFE7029947
:103DB000BC2008701DE003980078BD2804D1FFE7FF
:103DC0000299BD20087013E003980078BE2804D142
:103DD000FFE702996F20087009E003980078BF2878
:103DE00004D1FFE70299BE200870FFE7FFE7FFE775
:103DF000FFE7FFE7FFE7FFE7FFE7FFE7FFE7FFE793
:103E0000FFE7FFE7FFE7FFE7FFE7FFE7FFE7FFE782
:103E1000FFE7FFE7FFE7FFE7FFE7FFE7FFE7FFE772
:103E2000FFE7FFE7FFE7FFE7FFE7FFE7FFE7FFE762
:103E3000FFE7FFE7FFE7FFE7FFE7FFE7FFE7FFE752
:103E4000FFE7FFE7FFE7FFE7FFE7FFE7BAE00398D9
:103E50000078D12840F0AE80FFE70398013003904E
:103E600003980078802804D1FFE702997020087039
:103E70009FE003980078912804D1FFE70299B520CC
:103E8000087095E003980078812804D1FFE7029933
:103E9000632008708BE003980078822804D1FFE744
:103EA0000299BF20087081E003980078832804D12C
:103EB000FFE702997920087077E00398007884285A
:103EC00004D1FFE70299E42008706DE003980078C0
:103ED000852804D1FFE702997820087063E00398F1
:103EE0000078862804D1FFE70299E520087059E0A0
:103EF00003980078872804D1FFE70299C020087052
:103F00004FE003980078882804D1FFE70299C12088
:103F1000087045E003980078892804D1FFE70299EA
:103F2000E62008703BE0039800788A2804D1FFE778
:103F30000299C220087031E0039800788B2804D1E0
:103F4000FFE70299C320087027E0039800788C28C7
:103F500004D1FFE70299C42008701DE0039800789F
:103F60008D2804D1FFE70299C520087013E003985B
:103F700000788E2804D1FFE70299C620087009E076
:103F8000039800788F2804D1FFE70299C7200870B2
:103F9000FFE7FFE7FFE7FFE7FFE7FFE7FFE7FFE7F1
:103FA000FFE7FFE7FFE7FFE7FFE7FFE7FFE7FFE7E1
:103FB000FFE706E003980130039002992020087083
:103FC000FFE7FFE703980130039002980130029069
:103FD000FFE7FFE70198013001902AE5FEF762FB59
:103FE00004B080BD5FEA400C08BF91F0000F4FEABB
:103FF0008C234FEAC12243EA51514FEA1C5018BFAB
:1040000000F5F0404FEA300018BF41F000415FEA90
:104010006C5C00F02980BCF1FF3F08BF40F080409D
:104020007047130C06BF12044FF0100C4FF0000C39
:10403000130E04BF12020CF1080C130F04BF12017F
:104040000CF1040C930F04BF92000CF1020CD30F7F
:1040500004BF52000CF1010C11464FF00002A0F118
:104060001F00A0EB0C00704711F0004F08BF704715
:1040700031F000413FF4D5AF0B0C06BF09044FF0FF
:10408000100C4FF0000C0B0E04BF09020CF1080CD1
:104090000B0F04BF09010CF1040C8B0F04BF890046
:1040A0000CF1020CCB0F04BF49000CF1010CCCF158
:1040B000200322FA03F341EA030102FA0CF2A0EB17
:1040C0000C0000F10100704723F07F4720F07F4C87
:1040D00080EA030000F00040ACEB070303F57C53DB
:1040E00003F1FF032DE9804909B44FEA144324EAA0
:1040F00003484FEA154B25EA0B4E0FF2042606EB58
:1041000013273E7803FB0667C7F5000707FB06F693
:104110004FEAD64606F102064FEA543707FB066C13
:10412000CCF1005C4FEA1C472CEA074C0CFB06F56F
:1041300007FB06F404EB15464FEA961649085FEABA
:10414000320234BF00204FF000404FEAD13706FB67
:1041500007FC4FEA1C4C0CFB0BF7D21B03FB0CF7C4
:1041600061EB07010CFB0EF7B0EB074072EB174257
:104170000CFB08F734BFA2EB0742B2EB074261EB3E
:1041800017414FEA0C444FEA910706FB07FC4FEA40
:104190001C4C0CFB0BF7B0EBC74072EB573203FB28
:1041A0000CF734BFA2EBC742B2EBC74261EB573109
:1041B0000CFB0EF7B0EBC70072EB57720CFB08F765
:1041C00034BFA2EBC702B2EBC70261EB57714FEAF3
:1041D000816141EA92114FEA826242EA90124FEA0B
:1041E000806004EBCC04039F4FEAD13706FB07FC49
:1041F0004FEA1C4C0CFB0BF7D21B03FB0CF761EBDB
:1042000007010CFB0EF7B0EB074072EB17420CFBFB
:1042100008F734BFA2EB0742B2EB074261EB17414C
:104220004FEA8C5504EB9C244FEA910706FB07FCF0
:104230004FEA1C4C0CFB0BF7B0EBC74072EB57324C
:1042400003FB0CF734BFA2EBC742B2EBC74261EBF2
:1042500057310CFB0EF7B0EBC70072EB57720CFB3B
:1042600008F734BFA2EBC702B2EBC70261EB57718C
:104270004FEA816141EA92114FEA826242EA90126A
:104280004FEA806015EB4C2544F100044FEAD1372A
:1042900006FB07FC4FEA1C4C0CFB0BF7D21B03FB85
:1042A0000CF761EB07010CFB0EF7B0EB074072EB6C
:1042B00017420CFB08F734BFA2EB0742B2EB0742F0
:1042C00061EB17414FEA813141EA92414FEA823274
:1042D00042EA90424FEA80304FEA0C7615EB1C150B
:1042E00044F1000448EA03434EEA0B484FF0000E45
:1042F000B2EB080C71EB030724BF624639464EEB64
:104300000E0E4FF0000B0018524149414BEB0B0BC6
:10431000B2EB080C71EB03077BF1000B24BF624684
:1043200039464EEB0E0E4FF0000B0018524149413A
:104330004BEB0B0BB2EB080C71EB03077BF1000BA3
:1043400024BF624639464EEB0E0E51EA020718BFF3
:1043500046F0010616EB0E7655F1000254F100010D
:1043600003D5BDE88901BDE80088BDE88901BDE845
:104370000048B619524141EB0101A3F10103704716
:1043800080807F7E7D7C7B7A797877767675747392
:10439000727171706F6E6E6D6C6C6B6A6A69686851
:1043A000676666656464636362616160605F5F5EE7
:1043B0005E5D5D5C5C5B5B5A5A595958585757565D
:1043C00056555555545453535252525151505050C2
:1043D0004F4F4F4E4E4D4D4D4C4C4C4B4B4B4A4A14
:1043E0004A49494948484847474747464646454558
:1043F0004544444444434343434242424241414191
:104400009C46002B30D477002BD04FEA37071CB5E1
:1044100003B44FF010004FF01001BAF1000F06D0B6
:10442000BCF1000FDCBF40F0080040F008014FF085
:1044300000000FBCBDE810400BF1010BBBF1010FF8
:1044400008BF5FEA170722BF12F1010211F1010153
:104450004FF0004143F1000300F0004043EA000048
:104460007047F9D35708D0E746EA06464FEA1646A2
:1044700013F1400F1FDD13F1200FDFBF16430A4673
:10448000002120335B42BED0C3F1200746EA064636
:104490004FEA164602FA07F746EA070622FA03F23F
:1044A000C3F1200701FA07F742EA070221FA03F1F4
:1044B0004FF00003A7E746EA020646EA06464FEA3F
:1044C000164646EA0106BCBF46EA0646360C4FF0E1
:1044D00000034FF000024FF0000194E72DE9804CFB
:1044E00070B49A46934691E8380007C831EA400C08
:1044F00048BF34EA430C03D5FFF7E6FDFFF780FF22
:10450000F0BCBDE8008C2DE9804C70B49A4693460F
:1045100091E8380007C810F0804F08BF13F0804FB3
:1045200003D100F005F8FFF76BFFF0BCBDE8008C8D
:1045300020F07F4723F07F4C80EA030000F000402A
:1045400007EB0C03A3F57C53A3F1FE0392F0000FDD
:1045500000F0B38095F0000F00F077802DE901495D
:104560004FEA114021EA00484FEA144624EA064780
:1045700000FB06FC08FB06F607FB08F818EB0648EC
:104580004CEB164C00FB07F718EB07484CEB1740B9
:104590004FEA124B22EA0B4E4FEA154625EA064730
:1045A0000BFB06FC0EFB06F607FB0EFE1EEB064E93
:1045B0004CEB164C0BFB07F71EEB074E4CEB174B67
:1045C00018EB0B0840F1000018EB0E0B58EB00083D
:1045D00040F100008F1A4FF000014FF000063CBF81
:1045E000C943661B14BFB5EB040C00213CBFC94393
:1045F000F61B4FEA174427EA04454FEA1C472CEA0A
:10460000074C04FB076205FB07F70CFB05F616EBEE
:10461000074642EB174204FB0CFC16EB0C4642EB40
:104620001C421BEB060658EB020241414EEA8E0E7D
:1046300046EA9E0601D5BDE80189B619524141EB13
:104640000101A3F10103BDE801894FEA144524EA01
:1046500005464FEA114721EA074C05FB07F406FB24
:1046600007F70CFB06F111EB074144EB174405FB80
:104670000CFC11EB0C4144EB1C444FEA124722EABC
:10468000074C05FB07F206FB07F70CFB06F616EBDB
:10469000074642EB174205FB0CFC16EB0C4642EBBF
:1046A0001C456A1854F1000148BF7047B6195241C1
:1046B00041EB0101A3F10103704795F0000F37D0E2
:1046C0004FEA114221EA02464FEA144724EA074C16
:1046D00002FB07F106FB07F70CFB06F414EB07449B
:1046E00041EB174102FB0CFC14EB0C4441EB1C4169
:1046F0004FEA154725EA074C02FB07F506FB07F7CB
:104700000CFB06F616EB074645EB174502FB0CFCC7
:1047100016EB0C4645EB1C42121951F1000148BF43
:104720007047B619524141EB0101A3F101037047F3
:104730004FEA144524EA05464FEA114721EA074C9F
:1047400005FB07F106FB07F70CFB06F212EB07422D
:1047500041EB174105FB0CFC12EB0C4251EB1C41E9
:104760004FF0000648BF7047921841EB0101A3F1DA
:1047700001037047490050EAC12018BF04204A0DC8
:1047800018BF40F0010040F2FF72B2EB515F08BF6A
:1047900040F00200012808BF0520704710B500292D
:1047A0000AD00878002807D005487844FBF750FD68
:1047B000002801D0002010BD0248784410BD000040
:1047C00006010000FE000000FBF724BF02400000CD
:1047D000000000A00000000005400000000000C82C
:1047E000000000000C4000000000409C00000000A1
:1047F000194000000020BCBE000000003440000052
:10480000BFC91B8E00000004B5400000504BCFD044
:104810006607E2CF010000006C4100003E8251AA11
:10482000DFEEA73401000000D9420000DCB5A0E2B1
:104830003A301F97FFFFFFFFB4450000FD25A0C8D9
:10484000E9A3C14FFFFFFFFFFF3F00000000008012
:1048500000000000FF3F000000000080000000009A
:104860002020202020202020202020202020202048
:104870002020202000202020204749542D434F4D48
:104880004D2049505320202020002E2E2E000000C5
:10489000D04800080000002060000000FC00000874
:1048A0003049000860000020F808000018010008E6
:1048B0001C00000043000000F8FFFFFF0C00000098
:1048C0000E0000000F0000002E000000000000009D
:1048D00000127A0009024300020100E032090400DC
:1048E000000102020100052400100105240100015D
:1048F0000424020605240600010705820340000285
:1049000009040100020A00000007058102400000BE
:10491000070503024000001201100102000040835D
:104920000425F1000000000001000000000000006C
:04000005080000C12E
:00000001FF
