:020000040800F2
:100000000000082475270108B5D30008C9D30008EB
:10001000D9D30008E9D30008F9D300080000000094
:10002000000000000000000000000000E1320208B3
:1000300009D40008000000007133020815D400083C
:10004000C5270108C5270108C5270108C5270108DC
:10005000C5270108C5270108C5270108C5270108CC
:100060008D220308C5270108A522030845D40008EE
:10007000396702082DD40008C966020839D400087F
:10008000A1C10208ADC10208C5270108C5270108A2
:10009000C5270108C5270108C5270108AD220308A7
:1000A000C52701085DD40008C5270108C527010838
:1000B000C527010869D40008C5270108B9C102088D
:1000C000C5C1020895290408AD290408C5270108FF
:1000D000C5270108C5270108C5270108C52701084C
:1000E000D5220308C527010800000000C527010824
:1000F000C5270108C5270108C527010851D40008F4
:10010000C5270108C5270108C5270108C52701081B
:10011000C5270108C5270108C5270108C52701080B
:10012000BD2A0108C5270108C5270108A132040816
:10013000AD32040875D40008C5270108C527010899
:1001400000000000000000000000000000000000AF
:10015000C5270108C5270108C5270108C5270108CB
:10016000A1290408F1290408C5270108C5270108A9
:10017000C5270108C5270108C5270108C5270108AB
:10018000C5270108C527010881D40008C527010833
:10019000C5270108C5270108C527010885320408BD
:1001A000C5270108C5270108C5270108C52701087B
:1001B000C5270108C5270108C5270108C52701086B
:1001C000C5270108C5270108C5270108C52701085B
:1001D000C5270108C5270108C5270108C52701084B
:1001E000C5270108C5270108C5270108C52701083B
:1001F000C5270108C5270108C5270108C52701082B
:10020000C5270108C5270108C5270108C52701081A
:10021000C5270108C5270108C5270108C52701080A
:10022000C5270108C5270108F12A010800000000C0
:10023000C5270108C527010800000000C5270108DF
:10024000C5270108C5270108C5270108C5270108DA
:10025000C5270108C5270108C5270108C5270108CA
:10026000C5270108C5270108C5270108C5270108BA
:10027000C5270108C5270108C5270108000000009F
:10028000C5270108C5270108C5270108000000008F
:0802900000000000C527010871
:1002C0000348044B834202D0034B03B118477047E5
:1002D000102D0024102D00240000000005480649C0
:1002E0000B1AD90F01EBA301491002D0034B03B144
:1002F00018477047102D0024102D00240000000026
:1003000010B5064C237843B9FFF7DAFF044B13B15D
:100310000448AFF300800123237010BD102D00248A
:100320000000000030DE050808B5044B1BB104498D
:100330000448AFF30080BDE80840CFE700000000AC
:10034000142D002430DE05082DE9F04F2DED068B2D
:100350009DB08DED040BDDE904238DED021B1E0D18
:10036000CDE90023DDE90223701E40F2FD718842D1
:10037000CDE90623B4464FEA135700F2E080C7F3F5
:100380000A01A1F2BE317F2998BF002000F2D78078
:10039000BFEE003BDDE900670025DD4CDD49009B39
:1003A000751947EB0404C4F346354FF0000C01EB1C
:1003B0004516B3EB0C084FEA1455019B4FEA05555F
:1003C00096ED128B91ED105B63EB050991ED0E6BD1
:1003D00091ED0C4B91ED0A7B91ED042B49EC1A8BBE
:1003E0002415AAEE083B96ED168BA3EE056B23EEC3
:1003F000022B91ED005BA3EE047B23EE024BA4EEF7
:10040000067BB0EE446B93EE026BB0EE462B06EE2D
:10041000904A91ED021BB8EEE6AB96ED180BAAEEF2
:10042000058B91ED086BAAEE010B33EE081B91EDE5
:10043000065B38EE418B38EE038BA3EE065B30EEA5
:10044000080B31EE046BA4EE075B31EE461B23EE86
:10045000043B30EE022B31EE041B32EE011BA3EE07
:10046000051B9DED025B36EE017B36EE476B25EEFC
:10047000075B8DED005BB0EE453B36EE016BDDE9D1
:1004800000239DED025BC3F30A566FF4727171187D
:100490003E2995EE073BA5EE063B00F2AE809E4B53
:1004A0009DED004B93ED026B93ED007BB0EE465B50
:1004B000A4EE075B8DED025B35EE466BDDE9024590
:1004C00093ED047B93ED064B04F07F029DED005B02
:1004D000921803EBC201A6EE075BB0EE457B93EDED
:1004E0000A5BA6EE047B33EE077B91ED1C6B27EED7
:1004F000072B22EE023B93ED084B37EE066BD1E95A
:100500001E7CA7EE054BA2EE046B93ED0E5B93ED04
:100510000C4B22180021520311EB070AA7EE054BE2
:1005200042EB0C0BA3EE046B002E79D04BEC10AB1E
:10053000A6EE000B1DB0BDEC068BBDE8F08FDDE92B
:1005400006124B180893134642EB03030993DDE9A7
:10055000081211F1FF331C4642F1FF331D466FF4C0
:1005600000116FF001002346A94208BF9842C0F075
:100570006081DDE9004523190A932B4645EB03030F
:100580000B93DDE90A4514F1FF330C9345F1FF337A
:100590000D93DDE90C34A14208BF9842C0F084817C
:1005A000DDE90034002B74F1000363DB0020C7F3A6
:1005B0000A01A1F2BE347F2C40F2FF7540F2B280F6
:1005C000DDE90034DFF858914FF000084C4508BFD2
:1005D000434500F0078140F2BD30814200F20581C1
:1005E000B7EE000B9DED027BA14508BF984534BFD7
:1005F00037EE000B30EE470B9CE76145C0F20D81F2
:10060000B6F5816F40F2A480002A73F10003C0F2B6
:10061000FD801DB0BDEC068BBDE8F04F00F0F0BFD3
:1006200004F000423346134300F05B81B7EE003B19
:1006300000233A4A1AEB03030E934BEB02030F938A
:10064000DDE90E0141EC150B26EE057B35EE076B5F
:10065000B0EEC64BB4EEC34BF1EE10FA7AD49FED78
:100660002A0B26EE000B1DB0BDEC068BBDE8F04F4B
:1006700000F0F4BFC7F30A0140F2FE30814240F3BC
:10068000978040F23340814200F35981401A4FF085
:10069000FF3CA0F120030CFA03F40CFA00FEC0F1B9
:1006A00020024EEA040E2CFA02F40A940A9C4EEA46
:1006B000040E069C0CFA00FC24EA0C040894079C27
:1006C00024EA0E040994DDE908452C4370D1069C08
:1006D00024FA00F0079C94402043079CDC40204310
:1006E00000F00104002554EA05030CBF28464FF42E
:1006F0008020DDE900341D4624F000440095C6F357
:100700000A0C019455E700BF000000000000100033
:10071000AB6A19C0D0E10508A0F305080000E03F6E
:100720000000F03FBCF1000F7FF432AE9FEDAA7BDA
:100730009DED046B26EE077B53EC172B0024AE4D8A
:1007400023F000461319009346EB050301931FE6BF
:100750006646A4E6B5EEC06BF1EE10FA35EE465BE8
:10076000BFEE004B35EE077B58BFB0EE434B36EE85
:10077000040B34EE405B35EE066B36EE076B36EE5F
:10078000006B36EE446BB5EE406BF1EE10FA04D11F
:10079000324601F0004343EC162B9FED915B8DED4B
:1007A000185B9DED187B27EE057B8DED1A7B56E7D8
:1007B0009DED040B1DB0BDEC068BBDE8F04F00F0C5
:1007C0003FBFDDE900010318129381F400235B4170
:1007D0001393DDE91201894B00228B4208BF82424C
:1007E000C0F0A680B7EE000BA4E6DDE90034A14519
:1007F00008BF98452CBF01230023AF428CBF0027C0
:100800000127BB424FF000007FF403AF1DB0BDECE9
:10081000068BBDE8F04F00F0E1BE9DED007BB7EE2A
:10082000000B37EE000B00283FF484AEB1EE400B16
:1008300080E6DDE908342343C3D0DDE900347049A4
:1008400000208C4208BF834261D0DDE900124B18C2
:100850001093134642EB03031193DDE91001694B3A
:1008600000228B4208BF824262D3DDE908459D42E7
:1008700008BF94425CD1644B0022994208BF904269
:10088000B0D0624B8B42079B4FF0FF3208BF8242D1
:100890006FEA030334BF01220022DB0F9A4200F00B
:1008A00094809FED510B45E6DDE900349DED047B1E
:1008B000002B74F1000327EE070B42DB0020DDE97B
:1008C0000A342343DDE9063471D1002B74F10003AF
:1008D000BFF630AE1DB0BDEC068BBDE8F04F00F0AA
:1008E00097BE4B4A1AEB010309EE103A9FED400BFD
:1008F0004BEB020309EE903AA6EE099B29EE000BA2
:100900001DB0BDEC068BBDE8F04F00F0AFBEDDE9D9
:1009100006124B18149382F400235B411593DDE912
:100920001401364B00228B4208BF8242BFF45AAFFB
:100930009DED047B9DED026B37EE060BFAE5002082
:10094000D7E6C7F30A03A3F2FF32342AB6D8C3F5B9
:1009500086634FF0FF32A3F11D07033302FA07F15C
:1009600002FA03F6DDE90689C3F1200C0E4322FAF0
:100970000CFE46EA0E069A4028EA020029EA060121
:1009800050EA01029AD128FA03F309FA0CFC29FA79
:1009900007F743EA0C033B43002003F00106074638
:1009A00056EA07038BD0B1EE400B012087E7002BFE
:1009B00074F10003BFF6BEADB7EE006B86EE007BB0
:1009C0008DED167B9DED160BB4E59DED027B27EEBC
:1009D000070BAFE5AFF300800000000000003043DC
:1009E00000000000000010000000000000000000F7
:1009F000000000000000007F0000C0FC0000F0FFCD
:100A00000000F03F0000E0FF0000E07FFFFFDF7F1D
:100A10000000F0C00000000000B5B0EE407B17EE13
:100A2000903A234A23F00043934285B01ADD214ACD
:100A3000934204DD30EE400B05B05DF804FB6846E0
:100A400000F03AF800F00300012813D0022820D06B
:100A5000B8B19DED021B9DED000B00F075F9B1EEF4
:100A6000400BE9E700209FED101B00F041FD05B0B1
:100A70005DF804FB9DED021B9DED000B00F064F999
:100A8000DAE701209DED021B9DED000B00F030FD2B
:100A9000D2E701209DED021B9DED000B00F028FD2B
:100AA000B1EE400BC8E700BF0000000000000000EE
:100AB000FB21E93FFFFFEF7F70B553EC102B9A4904
:100AC00023F000468E4288B004466ADD97498E4284
:100AD0001D461BDC002B9FED847B40F3EA8030EE4B
:100AE000477BA1F51B21A1F5F0618E426AD09FEDF5
:100AF000806B37EE465B37EE457B84ED005B37EE6F
:100B0000467B84ED027B012008B070BD88498E428F
:100B10005FDD88498E424DDC321510EE100AA2F2DC
:100B20001642A6EB025141EC170B9FED735BBDEE35
:100B3000C76BB8EEC66B37EE467B27EE057BFDEE46
:100B4000C74B8DED026BB8EEE46B37EE467B27EEBC
:100B5000057BB5EE407BF1EE10FA8DED046B8DED6B
:100B6000067B40F0938014EE903A002B0CBF0123DB
:100B70000223714901910221009102A8214600F04F
:100B800073F9002DC0DA94ED006B94ED027BB1EEA9
:100B9000466BB1EE477B84ED006B84ED027B4042F7
:100BA000B2E700200021C4E90201002084ED000B1F
:100BB00008B070BD30EE407B002084ED027B84EDF8
:100BC000007BA1E79FED4E5B9FED4F6B37EE457BC2
:100BD0008FE700F05DFDB6EE006B9FED4D7BA0EE64
:100BE000076BFDEEC66B9FED403B16EE900A9FED46
:100BF000407B1F28B8EEE65BB1EE454B25EE077B48
:100C0000A4EE030B30EE476B1ADC4C4B421E53F83C
:100C10002230B34214D084ED006B30EE460B30EE40
:100C2000470B002D84ED020BBFF66EAFB1EE466BA5
:100C3000B1EE400B84ED006B84ED020B404263E7A4
:100C400016EE903A3615C3F30A53F31A102BE2DD71
:100C5000B0EE403B9FED2A7B9FED2B6BA4EE073B54
:100C600030EE430BA4EE070BB0EE407B95EE067B17
:100C700033EE476B16EE903AC3F30A53F61A312E51
:100C800006DCB0EE430B84ED006BC6E7032370E790
:100C90009FED216BB0EE430B9FED212BA4EE060BD5
:100CA00033EE407BA4EE067B95EE027B30EE476B85
:100CB000B1E7234930EE077B8E420ED09FED0C6BDF
:100CC00037EE065B37EE457B4FF0FF3037EE067BA5
:100CD00084ED005B84ED027B16E79FED095B9FEDE1
:100CE0000A6B37EE057BEBE700004054FB21F93F30
:100CF0003163621A61B4D03D000000000000704111
:100D00000000601A61B4D03D7370032E8A19A33BB2
:100D100083C8C96D305FE43F0000002E8A19A33BF1
:100D2000C14920259A837B39FB21E93F7BD90240C9
:100D3000FB213941FFFFEF7F98F2050818F2050803
:100D4000FB21F93F0000000010EE903A23F0004331
:100D5000B3F1795F2CDAFDEEC07B17EE903A002BF1
:100D600061D020EE007B9FED324B9FED335B9FED1A
:100D7000346BA7EE045B9FED344BA7EE056B9FED44
:100D8000345BA7EE064B9FED346BA7EE045BA7EE3A
:100D9000056B26EE076B21EE400BB6EE005BA7EE6F
:100DA000060BB7EE006B97EE050B36EE400B704767
:100DB0009FED1F4B20EE007B9FED1F5B9FED206B97
:100DC000A7EE045B9FED204BA5EE076B244AA6EE31
:100DD000074B9FED1F5B9FED206BA4EE075B9342DB
:100DE000A5EE076B26EE076BD5DD1E4A934215DC98
:100DF000B7EE005B0020A3F5001141EC140B35EEBB
:100E0000445B21EE400BB6EE003BA7EE060B97EEDF
:100E1000034B34EE400B35EE400B7047B6EE075BEC
:100E2000B5EE024BEDE7B7EE000B7047AFF3008075
:100E3000D43888BEE9FAA8BDC4B1B4BD9EEE213E47
:100E4000AD529C804F7E92BE9015CB19A001FA3E08
:100E50007751C1166CC156BF4C5555555555A53FD8
:100E60003233D33F0000E93F2DE9F04F2DED088BE1
:100E7000ADF5157DD44CA69D039312F1140F54F8D3
:100E800025500691814603F1FF38C0F25A82CF49BE
:100E9000D31E81FB0301DB17C3EBA10302930133D4
:100EA000A3EB8303DB00D3180593029B15EB08012A
:100EB000A3EB08031AD401319FEDBD6B19441CAAA2
:100EC000A7980AE050F8234007EE904A0133B8EEA5
:100ED000E77B8B42A2EC027B08D0002BF2DAB0EE6B
:100EE000467B01338B42A2EC027BF6D1039B002DA3
:100EF0004FEAC3041CDB1CAB1E196EAB09EB0401EB
:100F000003EBC5076CA8B8F1000F9FEDA97B09DBC7
:100F100032464B46B3EC025B32ED026B8B42A5EEE0
:100F2000067BF7D1A0EC027BB84206F10806EAD1B5
:100F30004FEA850AAAF1080308AF9FED9F9B9FED3A
:100F4000A08B07AAFB18AB460195059D04934C4462
:100F500092446CAE94AB03EBCB03BBF1000F13EDEB
:100F6000280B14DD06EBCB02394620EE097B32ED6F
:100F7000026BBDEEC77BB242B8EEC77BA7EE480B53
:100F8000FDEEC05B37EE060BE1EC015AEDD12846D1
:100F900000F012FCB0EE40ABB4EE000B2AEE000BFA
:100FA00000F082FBB2EE007BA0EE47ABBDEECABB09
:100FB000002DB8EECB7B3AEE47AB75DD0BF1FF3081
:100FC000C5F1180357F8202042FA03F101FA03F3A0
:100FD000D31A47F82030C5F117021BEE100A43FA66
:100FE00002F20844002A0BEE100A66DCB5EE40ABB4
:100FF000F1EE10FA40F0A180019B0BF1FF3C63453C
:101000000EDC0BF18041013907EB8101002051F822
:101010000439514540EA0300F9D1002840F0EF803F
:10102000019B013B57F82330002B40F0E380049BE9
:10103000012053F804290130002AFAD00BF10103F2
:1010400058449C46029A03EB020E039A1CA95A4488
:101050000EF1804E01EBC202A7990EF1FF3E01EBAB
:101060008E0E06EBC30B5EF8043F07EE103AB8EEA7
:10107000C77B1146B8F1000FA1EC027B9FED4C6BD2
:1010800009DB4B4601E032ED027BB3EC025BA3428D
:10109000A5EE076BF7D10CF1010C8445ABEC026BAC
:1010A0000A46E0DD834655E740F09A800BF1FF33B6
:1010B00057F82320D215002A98DD1BEE103ABBF119
:1010C000000F03F101030BEE103A40F3C8813968B9
:1010D00000295CD1BBF1010F09D0BC4601205CF8AE
:1010E000041F431C002954D19B451846F7D1002DFD
:1010F0000CDD012D00F01C81022D07D10BF1FF301A
:1011000057F82030C3F3150347F82030022A7FF444
:101110006DAFB7EE000B30EE4AAB00293FF466AF7F
:101120002846079200F048FB3AEE40ABB5EE40ABE4
:10113000F1EE10FA079A3FF45FAF059CB0EE4A0B50
:1011400060420292019D00F037FB9FED1D6BB4EEF3
:10115000C60BF1EE10FA029AC0F283819FED167B66
:1011600020EE077BBDEEC77B0BF10103B8EEC75B3A
:10117000A5EE460BBDEEC00B183410EE101A47F862
:101180002B1017EE101A059447F823104BE001239B
:101190000020C1F180719B4547F820101EDD57F8F3
:1011A000231007EB8B0C07EB83036FF07F4010E0FD
:1011B0000000000000000000000000000000703E81
:1011C000000000000000704110FC0508ABAAAA2A2C
:1011D0001968411A43F8041B6345F9D1012186E7D8
:1011E000B6EE007BB4EEC7ABF1EE10FA80F2AE8043
:1011F0000022FBE60BF101039C46184622E7059806
:1012000057F82C10019D18386346059059B90BF119
:101210008041023907EB810151F80449013B18383C
:10122000002CF9D00590B7EE000B0598CDE901230D
:1012300000F0C2FA029B019A002BC0F231814FEA02
:10124000C30C6CA99FEDA26B6144581C01F108040A
:1012500007EB800030ED017AB842B8EEC77B27EE8D
:10126000007B20EE060B24ED027BF3D10DF5887890
:10127000002D0F46C6464FF000069FED974B1DDB35
:10128000B0EE446B984C38469FED957B002103E00F
:10129000B14208DCB4EC026BB0EC025B01318D4270
:1012A000A5EE067BF4DA9E42AEEC027BA7F10807BE
:1012B00006F101010CD0002D0E46E1DA9FED887B8E
:1012C0009E42AEEC027BA7F1080706F10101F2D1C4
:1012D000A699032922D8DFE801F0B09D9D4D0DF5B8
:1012E00088789FED7F7B98ED006B36EE476B002A88
:1012F00040F0BF800699002B81ED007B0BDD46A8F6
:101300000121B0EC027B01318B4236EE076BF8DA3B
:101310000AB1B1EE466B069B83ED026B1BEE103AF1
:1013200003F007000DF5157DBDEC088BBDE8F08FCF
:101330000BF1FF3057F82030C3F3160347F8203085
:10134000E4E600216FF017030291ACE51BEE103AC2
:10135000BBF1000F03F101030BEE103AC8BF0222EC
:101360003FF7B5AEB7EE007B37EE4AAB02223DE663
:101370000DF58878002B40F3A880D80008EB000119
:1013800091ED005B31ED027B884537EE056B37EE62
:10139000467B81ED006B37EE057BB0EE465B81ED61
:1013A000027BEFD1012B40F3908003F10053013B0E
:1013B000DB00404403F1080190ED005B414446A886
:1013C00031ED027B884237EE056B37EE467B81EDCF
:1013D000006B37EE057BB0EE465B81ED027BEFD113
:1013E0009FED3F7B1033434408F1100133ED026B56
:1013F000994237EE067BF9D198ED005B98ED026BD0
:10140000002A3FD1069B83ED005B83ED026B83EDE9
:10141000047B83E79FED327B0CF10801414431ED01
:10142000026B884537EE067BF9D198ED006B36EEFE
:10143000476B002A3FF45EAF1BE09FED297B0CF168
:101440000803434433ED026B984537EE067BF9D130
:101450000AB1B1EE477B069B83ED007B5EE700217E
:1014600045E6BDEEC00B5B4610EE101A47F82B1098
:10147000D9E60699B1EE477B002B81ED007B3FF763
:101480003EAF46E7069BB1EE455BB1EE466BB1EE73
:10149000477B83ED005B83ED026B83ED047B3DE7CF
:1014A000A69903293FF63AAF01A050F821F000BFFA
:1014B000C1140008DF120008DF12000871130008D1
:1014C0009FED077B002AC6D0C3E79FED057B93E71E
:1014D000000000000000703E00000040FB21F93FCA
:1014E000000000000000000028FC050800000000CB
:1014F00010EE903A23F00043B3F1795F04DAFDEE89
:10150000C07B17EE903A5BB320EE007B20EE074BDA
:101510009FED155B9FED166B9FED173BA7EE056BDF
:101520009FED175BA6EE073B9FED176BA3EE075BE6
:10153000A5EE076B30B99FED165BA7EE065BA5EE37
:10154000040B70479FED145B26EE446BB6EE003B38
:10155000A1EE036B96EE071BA4EE051B30EE410BCC
:10156000704700BFAFF300807CD5CF5A3AD9E53D34
:10157000EB9C2B8AE6E55ABE7DFEB157E31DC73EC4
:10158000D561C119A0012ABFA6F810111111813F20
:10159000495555555555C5BF495555555555C53FDF
:1015A00010B52DED028BB0EE408B044600F0F8F93B
:1015B000B0EE480BBDEC028B046010BD82B050B1A0
:1015C000B1EE407B8DED007B9DED007B222020EE77
:1015D000070B02B0E4E7B0EE407BF3E79FED020BB0
:1015E000ECE700BFAFF30080000000000000001037
:1015F0009FED010BE2E700BF000000000000581E55
:101600009FED010BDAE700BF000000000000007052
:1016100082B00028B7EE006BBFEE007B06FE077BB2
:101620008DED007B9DED000B9FED037B222080EE76
:10163000070B02B0B4E700BF00000000000000008C
:10164000B4EE400BF1EE10FA30EE407B87EE076B04
:10165000B0EE460B01D62120A2E77047B5EE400B55
:10166000F1EE10FA00D07047222099E79FED067B3B
:10167000B0EEC06BB4EE476BF1EE10FA00DC7047D1
:1016800022208DE7AFF30080FFFFFFFFFFFFEF7F1A
:1016900051EC100B10EE102A21F0004343EC102BFC
:1016A000704700BF0000000010B483B08DED000B48
:1016B00001990098C1F30A52A2F2FF33132B32DCD6
:1016C000002B22DB3A4A1A4102EA010404432FD0DC
:1016D0009FED357B9DED006B36EE077BB5EEC07B55
:1016E000F1EE10FA09DD002904DA4FF4801040FA17
:1016F00003F3194421EA020100200B46024643ECA1
:10170000102B03B05DF8044B70479FED277B30EE44
:10171000077BB5EEC07BF1EE10FAEEDD00292ADB87
:1017200000200146E9E7332B08DDB3F5806F1DD0BB
:101730009DED000B03B05DF8044B7047A2F213421D
:101740004FF0FF3424FA02F20242F1D09FED167BF3
:101750009DED006B36EE077BB5EEC07BF1EE10FA27
:10176000CBDD002910DB20EA0200C6E79DED007BFF
:1017700037EE070BDEE721F000430E4A184300283E
:1017800018BF11460020B8E7142B08D00124C3F17C
:10179000340304FA03F3181828BF0919E3E70131E9
:1017A000E1E700BFAFF300809C7500883CE4377E22
:1017B000FFFF0F000000F0BF82B08DED000B019A1B
:1017C000C2F30A5323BB009B22F00042134337D0DD
:1017D0009FED2F7B3A4B20EE077B98428DED007BEF
:1017E0004FDB019AC2F30A53363BC11840F2FE7335
:1017F000994217DC002938DC11F1350F24DA4CF25C
:10180000503398420EDC9FED240B9FED256B0DE0CD
:1018100040F2FF718B42E8D19DED007B37EE070B64
:1018200002B070479FED200B9FED216BB0EE407B27
:10183000019B002B20FE060B20EE070B02B0704729
:101840009DED000B02B0704722F0FF40DDE9002360
:1018500020F4E000363140EA01539FED177B43EC62
:10186000102B20EE070B02B0704722F0FF40DDE99D
:10187000002320F4E00040EA015343EC102B02B0B7
:1018800070479FED050B27EE000B02B0704700BFBD
:10189000000000000000504359F3F8C21F6EA5017C
:1018A00059F3F8C21F6EA5819C7500883CE4377E11
:1018B0009C7500883CE437FE000000000000903C6E
:1018C000B03CFFFF08B5062001F06EFD01200BF0D3
:1018D000E7FD00BF0A22002104F0AABB0A23002270
:1018E00004F098BB431C3BD0F0B587B004AE214F49
:1018F0008DF80B0008223046002100F0EBFD3D681A
:10190000AC6D94B11C4B0096D3F8E44028460123FB
:101910000DF10B0203A9A047012802D8039807B0D4
:10192000F0BD4FF0FF3007B0F0BD502000F0D8FB05
:10193000A865C0B13D68AB6DC3E90044C3E902448A
:10194000C3E904449C61C3E90A44C3E90C44C3E904
:101950000E44C3E91044C3E912441C775C62D1E72A
:101960004FF0FF3070470246044B0548182106F03F
:1019700007F800BF0400002468000024346A060849
:101980004C6A060810B5054C34B113460A460146A8
:10199000022005F0A1FF10BD204610BDD978000837
:1019A000014B1868704700BF040000248B891A0798
:1019B0002DE9F0410C46804641D44A68002A59DDA1
:1019C000E66A002E53D00022D8F80050216AC8F8E9
:1019D000002013F4805251D101234046B047431CEC
:1019E0005FD0A389E66A216A5F0705D56268636BE9
:1019F000801A0BB1236CC01A024600234046B04740
:101A0000461C45D1D8F80030B4F90C20002B55D035
:101A10001D2B01D0162B5AD123690022C4E90032B4
:101A2000616BC8F8005011B304F14403994202D02D
:101A3000404600F09FFD00206063BDE8F0810E6924
:101A4000AEB10D680E6099070CBF63690023AD1B32
:101A5000A3600AE02B463246A76A216A4046B8478F
:101A60000028A5EB000506440ADD002DF2DC00206D
:101A7000BDE8F0810A6C002AA2DCF8E7606DB3E7EC
:101A8000A38943F04003A3814FF0FF30BDE8F0810C
:101A90002269A389226000226260DA04C0D56065F1
:101AA000BEE7D8F80030002B9BD01D2B0CD0162B96
:101AB0000AD0A38943F04003A381D9E72169C4E98F
:101AC0000013D304ACD5EAE7C8F80050CFE742F0E2
:101AD0004002A281CCE700BF0B6923B310B50446D6
:101AE00082B008B18369BBB1104B994212D0104B40
:101AF000994216D00F4B994208BFE168B1F90C30FA
:101B00002BB1204602B0BDE81040FFF74FBF0020C8
:101B100002B010BD6168F1E7019100F007F9019989
:101B2000E2E7A168EAE70020704700BFA4FD0508CE
:101B300084FD050864FD050820B1054B01461868C1
:101B4000FFF7CABF034B0449186800F035B900BF5E
:101B500004000024C4FD0508D91A000800207047BD
:101B6000014900F029B900BFD91A000800207047C8
:101B700070B54A1E682505FB02F50E4605F1740195
:101B800000F04EFD044640B100210C30666005F1C6
:101B900068022160A06000F09DFC204670BD00BF7F
:101BA0001E4B70B51D68AB69064643B34835D5E991
:101BB0000134013B05D51EE0013B5A1C04F16804C9
:101BC00019D0B4F90C20002AF6D10025144B656613
:101BD000C4E90055A560C4E90455A5612946E36040
:101BE000082204F15C0000F075FCC4E90D55C4E95D
:101BF0001255204670BD2C682CB12546D7E72846E3
:101C000000F010F8D2E704213046FFF7B1FF044698
:101C100028600028F1D10C233360EAE7C4FD0508F1
:101C20000100FFFF2DE9F84F334B34491A688162F8
:101C300090424FF00003C0E91233036504BF012353
:101C400083610546FFF7ACFF68602846FFF7A8FFF1
:101C5000A8602846FFF7A4FF6E68E860002404230C
:101C6000F3607466C6E90044B460C6E90444B46134
:101C7000214606F15C00082200F02CFCDFF888B059
:101C8000AF68DFF888A0DFF88890DFF888801C4B09
:101C9000C6F83080C6E9086BC6E90AA92146FB6090
:101CA00008227C66C7E90044BC60C7E90444BC6103
:101CB00007F15C0000F00EFCEE68124BC7F83080B4
:101CC000C7E9087BC7E90AA92146F3607466C6E93B
:101CD0000044B460C6E90444B46106F15C00082223
:101CE00000F0F8FB0123C6E9086BC6E90AA9C6F8AB
:101CF0003080AB61BDE8F88FC4FD0508611B0008AA
:101D00000900010012000200453500086D35000889
:101D1000AD350008CD350008024B0349186800F0C6
:101D20004BB800BFC4FD0508D91A0008836903B980
:101D300078E77047704700BF704700BF704700BF2B
:101D4000704700BF024B0349186800F00FB800BF8E
:101D5000040000245D1B0008024B0349186800F0D2
:101D600005B800BF040000246D1B00082DE9F041F8
:101D700010F148071BD088460026D7E90154013DE1
:101D80000FD4A389012B05F1FF3506D9B4F90E3024
:101D90000133204601D0C04706436B1C04F16804A0
:101DA000EFD13F68002FE8D13046BDE8F0813E46D4
:101DB0003046BDE8F08100BF2DE9F84310F1480737
:101DC0001FD0884606464FF00009D7E90154013D6F
:101DD00011D4A389012B05F1FF3508D9B4F90E30D0
:101DE00001332146304602D0C04749EA00096B1C46
:101DF00004F16804EDD13F68002FE6D14846BDE804
:101E0000F883B9464846BDE8F88300BF70B50D4E6B
:101E10000D4D761BB61006D00024013455F8043B56
:101E20009847A642F9D1094E094D761B5CF000F89F
:101E3000B61006D00024013455F8043B9847A6425A
:101E4000F9D170BD547806085478060888780608D9
:101E50005478060801390B291FD8DFE801F0080A79
:101E60000C0E10121416181A1C0600F085B807F094
:101E70004DB907F059B907F065B907F079B900F025
:101E80000FB800F013B800F025B800F037B800F034
:101E900043B800F04FB800F05BB80020704700BFB7
:101EA000303809288CBF002001207047002100F045
:101EB00001B800BF38B504460D4600F023F800B95C
:101EC00038BD2946204600F039F8B0FA80F04009C4
:101ED00038BD00BF002100F001B800BFFF2809D8BD
:101EE000054BC05C00F00300A0F10200B0FA80F0E6
:101EF000400970470020704761FC0508002100F090
:101F000001B800BFFF289DBF024BC05C00F09700E6
:101F10000020704761FC0508002100F001B800BFF7
:101F2000FF289DBF024BC05C00F0100000207047EE
:101F300061FC0508002100F001B800BFFF289DBF2B
:101F4000024BC05C00F008000020704761FC0508EF
:101F5000002100F001B800BFFF2809D8054BC05C84
:101F600000F00300A0F10100B0FA80F040097047D2
:101F70000020704761FC0508A0F13003092B07D948
:101F800020F02000413805288CBF00200120704738
:101F90000120704742B110B50B491046144601F0BC
:101FA000B3FB18B9094810BD0848704707492046D7
:101FB00001F0AAFB0028F5D02046054901F0A4FB5A
:101FC0000028EFD0002010BD846A0608806A060849
:101FD00050230608014B93F828017047680000243D
:101FE000024B0A4601461868FFF7D4BF04000024DC
:101FF00070B50C46B1F90E10002996B016461D4674
:1020000013DB6A4606F02CFC00280EDB019A02F472
:102010007042A2F50052B2FA82F252094FF4806384
:1020200000202A60336016B070BDA38900221B0611
:102030002A6004D540230020336016B070BD4FF4F1
:1020400080630020336016B070BD00BF8A8992079C
:102050000B4606D501F1470201211A60C3E90421AC
:10206000704770B582B001AB6A460C460646FFF772
:10207000BFFF00990546304600F0D2FAB4F90C30A3
:1020800070B11649B162019A0099206043F0800353
:10209000A381C4E904018AB92B43A38102B070BDB6
:1020A0009A05FBD423F0030304F1470243F0020333
:1020B0000121A3812260C4E90421EFE73046B4F98D
:1020C0000E1007F011F810B9B4F90C30E4E7A38949
:1020D00023F0030343F001031BB2DDE7611B00089B
:1020E000024B0146186800F09BBA00BF04000024B0
:1020F000024B0146186800F03DBA00BF04000024FE
:10210000F0B50D4D83B0D5F8E450089C07462AB1D0
:102110000094A847431C08D003B0F0BD114601232A
:102120000094064AA847431CF6D100228A23226065
:102130003B6003B0F0BD00BF6800002450230608D8
:10214000F0B50F4D0F4CD5F8E460246883B01D4600
:1021500049B1009313460A4601462046B047431C46
:1021600008D003B0F0BD0093074A01232046B047D2
:10217000431CF6D100228A232A60236003B0F0BDFD
:1021800068000024040000245023060810B4034C07
:10219000D4F8E440A4465DF8044B6047680000248E
:1021A00082B049B15AB16BB113780B601278101C30
:1021B00018BF012002B0704701A9002AF3D11046D0
:1021C00002B070476FF00100F4E700BF00000000AC
:1021D00001F0FF01102A2BDB10F0070F08D010F8D8
:1021E000013B013A8B422DD010F0070F42B3F6D1DC
:1021F000F0B441EA012141EA014122F007047FF0F5
:1022000000070023F0E80256083C85EA010586EA4B
:10221000010685FA47F5A3FA87F586FA47F6A5FA87
:1022200087F68EB9EED1F0BC01F0FF0102F0070293
:1022300032B110F8013B013A83EA010313B1F8D13E
:102240000020704701387047002D06BF354603381F
:10225000073815F0010F07D1013015F4807F02BF58
:10226000013015F4C03F0130F0BC0138704700BFA9
:10227000032A70B412D940EA0105AD0704460B46A3
:1022800020D11946204653F8045B54F8046BAE4243
:1022900018D1043A032A20461946F2D8541E72B1C6
:1022A00003780A789A4208BF241806D00CE010F888
:1022B000013F11F8012F934206D1A042F7D100202F
:1022C00070BC7047541EEBE7981A70BC704700BF93
:1022D000844641EA000313F003036DD1403A41D331
:1022E00051F8043B40F8043B51F8043B40F8043BF0
:1022F00051F8043B40F8043B51F8043B40F8043BE0
:1023000051F8043B40F8043B51F8043B40F8043BCF
:1023100051F8043B40F8043B51F8043B40F8043BBF
:1023200051F8043B40F8043B51F8043B40F8043BAF
:1023300051F8043B40F8043B51F8043B40F8043B9F
:1023400051F8043B40F8043B51F8043B40F8043B8F
:1023500051F8043B40F8043B51F8043B40F8043B7F
:10236000403ABDD2303211D351F8043B40F8043B1F
:1023700051F8043B40F8043B51F8043B40F8043B5F
:1023800051F8043B40F8043B103AEDD20C3205D32F
:1023900051F8043B40F8043B043AF9D2043208D027
:1023A000D2071CBF11F8013B00F8013B01D30B8899
:1023B00003806046704700BF082A13D38B078DD077
:1023C00010F003038AD0C3F10403D21ADB071CBF49
:1023D00011F8013B00F8013B80D331F8023B20F8B3
:1023E000023B7BE7043AD9D3013A11F8013B00F8EC
:1023F000013BF9D20B7803704B7843708B78837074
:10240000604670478842F0B40DD98B1883420AD9D0
:10241000841832B1224613F8014D02F8014D994259
:10242000F9D1F0BC70470F2A0ED80346541E002A7B
:10243000F7D001340C44013B11F8012B03F8012FB4
:10244000A142F9D1F0BC704740EA01039B073BD1A0
:10245000A2F110073F0901F1200606EB071601F172
:10246000100300F1100453F8105C44F8105C53F8AA
:102470000C5C44F80C5C53F8085C44F8085C53F8B6
:10248000045C44F8045C1033B34204F11004EAD154
:102490007B1C1B0112F00C0F194402F00F050344C2
:1024A00015D0043DAD0803EB850C1C1F0E4656F8F5
:1024B000047B44F8047F6445F9D10135AD002B4419
:1024C000294402F00302B1E7541E0346B1E72A464D
:1024D000ACE700BFF0B4860746D0541E002A3CD0BB
:1024E000CAB2034602E014F1FF3436D303F8012BDD
:1024F0009D07F8D1032C29D9CDB245EA05250F2C2B
:1025000045EA054533D9A4F11006360903F1200741
:1025100007EB061703F1100242E9045542E90255A0
:102520001032BA42F8D1721C14F00C0F03EB0212F5
:1025300004F00F0613D0331F23F0030304331344B6
:1025400042F8045B9342FBD106F003042CB1C9B2FC
:102550001C4403F8011B9C42FBD1F0BC704734467D
:102560001346002CF3D1F8E714460346C2E71A4697
:102570002646E0E700293CD038B551F8043C0C1F52
:10258000002BB8BFE418054606F038FE234B1A6846
:102590002AB1A2420DD921686018824223D062601C
:1025A00028461C60BDE8384006F02ABEA34203D886
:1025B0001A465368002BF9D111685018A04219D05F
:1025C00024D821686018834206D06360546028468E
:1025D000BDE8384006F014BED3E90003014463604F
:1025E00021605460F3E7D2E9000201446260216097
:1025F000D6E7704720680144501883421160E6D145
:10260000D3E90003014453601160E0E70C232B6021
:102610002846BDE8384006F0F3BD00BF2C2D00244D
:10262000F8B5CD1C25F0030508350C2D38BF0C2559
:10263000002D064633DBA94231D82A4F06F0DEFDD5
:102640003A6852B113685B1B04D43FE023685B1BFC
:1026500029D522465468002CF8D1796800293BD04E
:102660002946304600F008FE431C28D0C41C24F044
:102670000304A04205D0211A304600F0FDFD0130D0
:102680001DD02560304606F0BBFD04F10B0020F0A4
:102690000700231DC21A01D01B1AA350F8BD0C223B
:1026A00032600020F8BD0B2B05D8A242636811D020
:1026B0005360E7E7144623601C442560E2E70C23DF
:1026C0003046336006F09CFD0020F8BD0B2BF1D89E
:1026D000536814463B60D5E7304600F0CDFD786086
:1026E000BEE700BF2C2D00242DE9F0412DED028B1B
:1026F000B0EE408B84B018EE907ADDE90D64002FC7
:102700009046BABFB1EE408B2D220022662E0D46B8
:102710001A7017D0462E15D026F02003452B31D045
:10272000B0EE480B03AA02ABCDE900320A460C9B7F
:10273000022105F0EFF9672E30D118F0010F2FD1EB
:10274000039B18E003AA02ABCDE90032B0EE480BC0
:102750000C9B03212A4605F0DDF90378302B00EBB2
:1027600005012FD00C9B1D68B5EE408BF1EE10FAE1
:1027700029441CD10B461B1A236004B0BDEC028B0C
:10278000BDE8F08103A902AB0135CDE90031B0EE1F
:10279000480B2A460C9B022105F0BCF9472ECCD0F1
:1027A000B5EE408BF1EE10FA00EB0501E2D0039B91
:1027B0009942E0D930255A1C03921D70039B8B422D
:1027C000F9D3D8E7B5EE408BF1EE10FACAD00C9BE6
:1027D000C5F101051D60C7E7F0B400290446BABF82
:1027E00049422D232B23092904F8022B82B0437080
:1027F0002DDD0DF107063546194F01E01546194646
:1028000087FB0132CB17C3EBA20303EB8302A1EBDF
:1028100042023032632905F8012C05F1FF32EDDC6C
:102820003033A91EDBB28E4202F8013C0BD921469F
:1028300001E012F8013B01F8013BB242F9D10DF180
:1028400009035D1B2C44201A02B0F0BC70473031E4
:102850003023041DC1708370201A02B0F0BC704791
:10286000676666662DE9F04F8BB00C4616461F462C
:10287000DDF850A0054606F08FFCD0F800804046F9
:1028800002F0FEF900230893DAF8003004900733D1
:1028900023F0070393ED000B9FEDAD6BB0EEC07B13
:1028A0000833B4EE467BF1EE10FA226894F81890E3
:1028B000CAF8003084ED120B76DCB4EE400BF1EE7A
:1028C00010FA80F136826168481C42F480622BD095
:1028D000B9F1670F62D0B9F1470F5FD000230DF156
:1028E000200C07A82260CDE902C30090CDF8049027
:1028F0000DF11B032846FFF7F7FE8346B9F1650F7C
:10290000079B32D8013B19464A4604F15000079311
:10291000FFF762FF089A1318012A8246236140F3E9
:102920007E810133236132E00621616000230DF1D5
:10293000200C07A82260CDE902C300900DF11B0313
:10294000CDF804902846FFF7CFFE09F0DF03472BB0
:102950008346D3D1079BD91C80F2DD80A9F10209FF
:102960005FFA89F9B9F1650FCCD9B9F1660F00F0BA
:10297000D980089A9A4240F3E080002BD4BFC3F17B
:10298000020101210A442261A3654FF0000A9DF86B
:102990001B30FBB12D2384F843301BE0002940F0AD
:1029A000168101216160C1E7B5EEC00BF1EE10FAAE
:1029B00002D52D2384F843306748684922F0040289
:1029C00003232260B9F1470F94BF83468B462361EE
:1029D0004FF0000A0097334609AA2146284600F026
:1029E000BBF9013024D0236858052CD423695A46FA
:1029F00031462846B84701301AD022680998E36862
:102A000092071AD51A1A002A17DD04F119094FF096
:102A1000000804E0E36809981A1A42450DDD012315
:102A20004A4631462846B847013008F10108F1D13D
:102A30004FF0FF300BB0BDE8F08F9842B8BF18469A
:102A40000BB0BDE8F08FB9F1650F32D994ED127B70
:102A5000B5EE407BF1EE10FA40F084800123404A4D
:102A600031462846B8470130E2D0DDE907239A42D3
:102A700002DB2268D107C1D5049B42463146284675
:102A8000B8470130D4D0089B012BB6DD04F11A09F8
:102A90004FF0000803E0089B013B4345ADDD0123F7
:102AA0004A4631462846B847013008F10108F2D1BC
:102AB000BEE7089A012A40F39F8001235A46314617
:102AC0002846B8470130B3D0049B424631462846D9
:102AD000B8470130ACD094ED127BB5EE407BF1EEFF
:102AE00010FA089B40F09780012B40F3908004F18E
:102AF0001A094FF0000804E0089B013B434540F3EE
:102B0000868001234A4631462846B847013008F1FD
:102B10000108F1D18CE7626893423FF71FAF4FF095
:102B2000670926E7002B62687EDD2361002A00F03A
:102B3000AC8001321A44226126E722682361D20761
:102B40007FF522AF5A1C22611EE700BFAFF3008061
:102B5000FFFFFFFFFFFFEF7F906A0608946A0608F9
:102B6000881C0608079B002B65DD089BD4F858A03D
:102B70005345A8BF5346002B994608DD5A463146B7
:102B80002846B84701303FF453AFD4F858A029EA9B
:102B9000E9731A46AAEB0303002B40F3858004F186
:102BA0001A03CDF814B04FF000099B46924604E09A
:102BB000A36DA3EB0A024A4573DD01235A46314651
:102BC0002846B847013009F10109F1D130E7002367
:102BD0000DF1200C07A82260CDE902C300900DF191
:102BE0001B03CDF804902846FFF77EFD079BD91CF8
:102BF0008346FFF6B3AE8EE7D9073FF55EAF5A4680
:102C0000012331462846B84701303FF411AF5346FF
:102C100004F15002ECE6013B0BF10102F1E72268FE
:102C2000D2077FF5B4AE7CE6002A33D12168C9070C
:102C300030D40122A7E60123444A31462846B8474A
:102C400001303FF4F5AEDDE90723134324D0049BA4
:102C5000424631462846B84701303FF4E9AE079B6B
:102C6000002B70DA04F11A094FF0000803E0079B0B
:102C70005B42434567DD01234A4631462846B84753
:102C8000013008F10108F2D1D2E62168C8077FF5CA
:102C90007BAE4EE7023276E62268D3077FF5AEAE12
:102CA000D5E7DDF814B09A46DDE907218A4202DB58
:102CB0002368D80709D5049B424631462846B847C1
:102CC00001303FF4B5AEDDE907215245A1EB020327
:102CD000D4BFA1EB0A099946B9F1000F0BDD0BEB4C
:102CE0000A024B4631462846B84701303FF4A0AEB1
:102CF000DDE907239B1A29EAE979A3EB0903002BF5
:102D00007FF77BAE04F11A0A4FF0000807E0DDE917
:102D100007239B1AA3EB090343457FF76EAE0123FC
:102D2000524631462846B847013008F10108EED135
:102D30007EE610EE903A002BBCBF2D2384F8433082
:102D4000034804493AE65A46089B51E6881C06089F
:102D5000986A06089C6A06082DE9F0470C469146D9
:102D60000A698968DDF820808A42B8BF0A46C9F836
:102D7000002094F8431006461F4611B10132C9F8ED
:102D80000020236899065CD5D9F800200232C9F8E2
:102D90000020236813F0060F19461DD1E1688A1A36
:102DA000002AD8BF194617DD04F1190A002505E0ED
:102DB000E368D9F800209B1AAB420CDD0123524690
:102DC00039463046C047013005F10105F0D14FF0DA
:102DD000FF30BDE8F087216894F84330003318BF16
:102DE00001238A060AD5E1185A1C302081F84300D5
:102DF000224494F8451082F84310023304F1430250
:102E000039463046C0470130E1D02368A2682169C5
:102E100003F00603042B1DD08A4226DD4FF0000983
:102E2000521A91441A34002501E04D451DDA012360
:102E3000224639463046C047013005F10105F4D13C
:102E4000C5E713F0060F13D094F84330003318BFD2
:102E50000123D3E7D9F80000E3688A42A3EB00031B
:102E600023EAE379DCDC002BDCDC0020BDE8F08722
:102E7000E168D9F800208A1A002AD8BF194693DCE5
:102E8000AAE700BF2DE9F0430C46097E85B06E2904
:102E9000064617460C98984604F1430E6DD039D972
:102EA000732900F0F68044D9752900F0048178294F
:102EB00040F0118178232268DFF858C284F8453049
:102EC0000168150651F8043B016040F1A180D1076B
:102ED00044BF42F020022260002B00F093801022B9
:102EE000002184F843106068A0600028C0F2C88008
:102EF000216821F004012160002B40F0A38000280C
:102F000040F0C0807546082A00F0AC80AEEB0503A7
:102F1000236141E0632900F0E5801AD8002938D008
:102F2000582940F0D88084F845102268DFF8E8C1BD
:102F3000C6E76F2900F0BF80702940F0CC8022687E
:102F4000DFF8D0C142F020027823226084F84530B7
:102F5000B6E7642902D0692940F0BD802268036881
:102F6000110603F1040557D5196805600B460029C1
:102F700059DBDFF8A4C10A22B5E70368226861695A
:102F80001D1D056015061B6802D4500600F1BD80AA
:102F90001960002375462361CDF800803B4603AAE3
:102FA00021463046FFF7D8FE013020D02A4623695B
:102FB00039463046C047013019D022680398E3688B
:102FC000920719D51A1A002A16DD04F119090025ED
:102FD00004E0E36803981A1AAA420DDD01234A4669
:102FE00039463046C047013005F10105F1D14FF0B7
:102FF000FF3005B0BDE8F0839842B8BF184605B071
:10300000BDE8F083226822F020022260102267E7E8
:10301000500648BF9BB25AE75106A5D5B3F9003018
:1030200005601946A3E76168A1602D200029C3F15E
:10303000000384F8430002DB22F004022260DFF880
:10304000D8C00A22754600E00B46B3FBF2F102FB42
:10305000113093421CF8000005F8010DF4D2082A43
:103060007FF454AF2368DB077FF550AF62682369B4
:103070009A423FF74BAF302305F8013C013D45E74D
:10308000002BDFD19CF8003084F8423004F1420577
:1030900039E703686268191D01601D680021284630
:1030A000FFF796F8002832D0401B606020610023B3
:1030B00084F8433070E72268036812F0800F03F150
:1030C00004051AD01B6805606F290CBF08220A226C
:1030D000DFF844C004E7012384F84210236104F1BF
:1030E0004205E4E703681A68191D0123016004F131
:1030F000420584F842202361D9E712F0400F0DBF4A
:103100001B6805601B880560DEE7198041E7606881
:10311000CCE700BFB46A0608A06A06080EB410B572
:10312000044683B008B1836963B106A803460190E1
:10313000059AA168204607F0F7F903B0BDE81040F2
:1031400003B07047FEF7F2FDEFE700BF0FB410B514
:103150000B4B1C6882B00CB1A36963B105A8034690
:103160000190049AA168204607F0DEF902B0BDE89C
:10317000104004B070472046FEF7D8FDEEE700BFD0
:103180000400002438B5124B1C68A26B05461AB126
:103190000023C2E9045338BD1820FEF7A1FF024600
:1031A000A06378B1012000210A4B1360C2E9040139
:1031B0000B230948094993810023C2E90101C2E9AF
:1031C000045338BD064B0748422104F0D9FB00BF29
:1031D000040000240E33CDAB34126DE6ECDE0500A6
:1031E000346A0608C86A060838B51A4B1C68A26B10
:1031F00092B1146918495369184801FB04F100FBA6
:103200000313A4FB0045611C1D4445F1000323F09A
:103210000040C2E9041338BD1820FEF761FF0246E2
:10322000A06388B101200021C2E904010A480C4CC6
:103230000C4B0D490D4D146053600B2403469560F3
:103240009481C2E9041338BD094B0A484E2104F0A9
:1032500097FB00BF040000242DF451582D7F954C9E
:103260000E33CDAB34126DE62E7F954CECDE0500AF
:10327000346A0608C86A060838B5074C00230546B4
:10328000084623600AF03CF9431C00D038BD23688F
:10329000002BFBD02B6038BDC4C6022410B58021A2
:1032A0000446FFF7BDF9606440B1031F00227C3083
:1032B00043F8042F8342FBD1002010BD4FF0FF30B4
:1032C00010BD00BF436C0BB100207047E6E700BFA4
:1032D0001F2970B5054608D8436C16460C464BB1FD
:1032E00053F8240043F8246070BD162202604FF0AA
:1032F000FF3070BDFFF7D2FF08B96B6CF0E74FF0FD
:10330000FF3070BD1F2938B521D8426C05460C46E8
:103310006AB152F8213053B1012B16D0591C10D08C
:103320000025204642F824509847284638BD2846B4
:1033300000F070F8224601462846BDE8384000F00B
:1033400055B816230360012038BD002038BD162370
:1033500003604FF0FF3038BD1F2921D838B5436CCA
:1033600005460C4683B153F8242003EB84034AB18D
:10337000511C10D0012A0CD0002520461D6090471A
:10338000284638BD012038BDFFF788FF28B96B6C8F
:10339000E9E7032038BD022038BD4FF0FF3038BDCB
:1033A0004FF0FF30704700BF024B01461868FFF72F
:1033B000A9BF00BF04000024024B0A46014618685A
:1033C000FFF786BF04000024034B1868436C0BB161
:1033D0000020704762E700BF04000024024B014652
:1033E0001868FFF7B9BF00BF0400002438B50B46CA
:1033F000074C054611461846002323600AF048F89A
:10340000431C00D038BD2368002BFBD02B6038BD97
:10341000C4C602240AF03AB80CB470B59CB020AC13
:103420000B4E54F8042B0291234606916FF0004591
:1034300002A901940795CDE9045606F0DFFC029B32
:1034400000221A701CB0BDE8704002B0704700BF87
:103450000802FFFF0EB430B59CB01FAB0C4C0D4DF5
:1034600053F8042B0193014602910691206802A9AA
:103470006FF000440794CDE9044506F0BFFC029BC1
:1034800000221A701CB0BDE8304003B0704700BF86
:10349000040000240802FFFF0EB470B59DB021ACFB
:1034A0004FF4017254F8045BADF8142002900690BA
:1034B00001F0E6FB0C4B019401462A46039107916B
:1034C0000A4E18680B9623464FF6FF75002402A992
:1034D0000F941494ADF8165006F026FE1DB0BDE80A
:1034E000704003B0704700BF040000246935000835
:1034F0000CB470B59CB020AC05464FF4017308467F
:1035000054F8046B02910691ADF8143001F0B8FB49
:103510000146324623460194039100240791284630
:10352000074E0B964FF6FF7502A90F941494ADF851
:10353000165006F0F9FD1CB0BDE8704002B07047AF
:103540006935000810B50C46B1F90E1007F0C6FA3F
:10355000002803DB636D0344636510BDA38923F476
:103560008053A38110BD00BF002070472DE9F041BA
:103570001646B1F90C201F46D3050C460546B1F995
:103580000E1009D422F48052A2813B4632462846CE
:10359000BDE8F04104F08AB90022022305F004FEE0
:1035A000B4F90C20B4F90E10ECE700BF10B50C46CE
:1035B000B1F90E1005F0F8FDA389421C0EBF23F4EB
:1035C000805343F480536065A38110BDB1F90E10A0
:1035D00004F0FAB941EA00039B0708D0034611F84A
:1035E000012B184603F8012B002AF8D170470B680D
:1035F000A3F1013222EA030212F0803FEED110B4AF
:103600000C1D40F8043B214654F8043BA3F1013261
:1036100022EA030212F0803FF3D0034611F8012B97
:10362000184603F8012B002AF8D15DF8044B7047C7
:10363000C9B200F00303002935D07BB10378002B19
:1036400057D0994252D0431C05E013F8012B002AB1
:103650004DD08A424AD09A071846F6D170B441EA52
:103660000126046846EA064601E050F8044F86EA5F
:103670000405A5F10132A4F1013322EA050223EA8F
:103680000403134313F0803FEFD0037843B1994212
:1036900002D106E08B4204D010F8013F002BF9D193
:1036A000184670BC70474BB10378FBB1431C02E075
:1036B00002780133D2B199071846F9D10268A2F114
:1036C000013323EA020313F0803F08D150F8042F9E
:1036D000A2F1013323EA020313F0803FF6D003780E
:1036E00023B110F8013F002BFBD170477047104603
:1036F00070471846704700BF00000000000000003F
:10370000A2EB0300704700BF02780B78012A28BFA4
:103710009A42F5D16DE9044540EA0104CDE902671A
:103720006FF0000C4FEA447212B380EA010414F007
:10373000070F6AD100F0070420F0070004F003052A
:1037400021F007014FEAC505F0E8042314F0040F47
:10375000F1E804670CFA05F462EA040266EA04067A
:103760000AD063EA0403624667EA0407664603E098
:10377000F0E80423F1E8046782FA4CF582EA0604D3
:10378000A4FA8CF46CBB83FA4CF583EA0705A5FA1E
:103790008CF595B950E9022351E9026782FA4CF59C
:1037A00082EA0604A4FA8CF483FA4CF583EA07054E
:1037B000A5FA8CF52543DBD09CB92DBAB5FA85F472
:1037C00024F0070427FA04F1DDE9026723FA04F381
:1037D00003F0FF0001F0FF01FDE80445A0EB01004C
:1037E000704724BAB4FA84F424F0070426FA04F1EA
:1037F000DDE9026722FA04F202F0FF0001F0FF01A6
:10380000FDE80445A0EB0100704714F0030F3CD124
:1038100010F0030428D150F8082B51F8083B82FA25
:103820004CF582EA0305A5FA8CF55DB950F8042C35
:1038300051F8043C82FA4CF582EA0305A5FA8CF5AE
:10384000002DE8D02DBAB5FA85F424F0070423FA48
:1038500004F122FA04F202F0FF0001F0FF01FDE89A
:103860000445A0EB010070474FEAC40420F00300B8
:1038700050F8082B21F0030151F8083B0CFA04F42E
:1038800062EA040263EA0403C9E710F003041AD0F1
:10389000A1EB040120F00300E40750F8042B06D04C
:1038A0000FD28B785FFAA2F4E41A06D12BB1CB7851
:1038B0005FFAB2F4E41A00D11BB920465DF8104B50
:1038C000704701F1040150F8042BCC0721F00301EB
:1038D00051F8043B48D824D222F07F4482FA4CF5B8
:1038E00094EA1325A5FA8CF50AD165B951F8043B81
:1038F00084EA0204B4EB036F0ED150F8042BEBE71B
:103900004FEA132355E035F07F454DD10878FDE8A7
:103910000445C0F1000070474FEA126203F0FF0354
:1039200047E002EA1C4482FA4CF594EA1345A5FAF2
:103930008CF50AD165B951F8043B84EA0204B4EB72
:10394000034F0CD150F8042BEBE74FEA134330E060
:1039500015EA1C4528D10B884FEA124229E04FEAAC
:10396000124203EA1C4324E002F0FF0482FA4CF501
:1039700094EA1365A5FA8CF50AD165B951F8043BB0
:1039800084EA0204B4EB032F09D150F8042BEBE7CF
:103990004FEA13630DE015F0FF0F05D10B684FEAF6
:1039A000122223F07F4304E04FF00000FDE80445BD
:1039B000704712BA1BBA82FA4CF482EA0304A4FAE2
:1039C0008CF5B5FA85F402FA04F203FA04F34FEA2F
:1039D0001260FDE80445A0EB13607047FFF794BE4A
:1039E00080EA0102844612F0030F4FD111F0030F59
:1039F00032D14DF8044D11F0040F51F8043B0BD0B7
:103A0000A3F101329A4312F0803F04BF4CF8043B0B
:103A100051F8043B16D100BF51F8044BA3F1013219
:103A20009A4312F0803FA4F101320BD14CF8043BD1
:103A3000A24312F0803F04BF51F8043B4CF8044B02
:103A4000EAD023460CF8013B13F0FF0F4FEA332373
:103A5000F8D15DF8044B704711F0010F06D011F852
:103A6000012B0CF8012B002A08BF704711F0020F40
:103A7000BFD031F8022B12F0FF0F16BF2CF8022B2B
:103A80008CF8002012F47F4FB3D1704711F8012B4E
:103A90000CF8012B002AF9D1704700BF70B40478EC
:103AA0009CB10E7805464EB1A6420BD00A4601E005
:103AB000A34207D012F8013F002BF9D115F8014FAE
:103AC000002CF0D1281A70BC70472046FBE700BFDD
:103AD00010B58E2900F23181DFE811F08F002D0141
:103AE0002B01290127012501230121011F011D01AE
:103AF0001B0119011701150113012F0111010F01FC
:103B00000D010B0109010701050103010101FF007E
:103B1000FD00FB00F900F700F500F300F100EF00F5
:103B2000ED00EB00E9002F012F012F012F012F01E4
:103B30002F012F012F01E700E5002F012F012F0199
:103B40002F012F012F012F012F012F012F012F01F5
:103B50002F012F01E300E100DF00DD002F012F0125
:103B60002F01DB002F012F012F01D9002F012F0181
:103B7000D7002F012F01D5002F012F012F012F0179
:103B80002F012F012F012F012F012F01D3002F0112
:103B9000D100CF00CD002F012F01CB002F012F012D
:103BA0002F012F012F012F012F012F01C900C70065
:103BB000C500C300C100BF002F01BD00BB00B9009C
:103BC000B700B500B300B100AF00AD00AB00A90075
:103BD000A700A5002F01A300A1009F009D002F01B9
:103BE0002F012F012F012F019B002F012F012F01EA
:103BF00099009700950093009100574810BD5748D1
:103C000010BD574810BD574810BD574810BD574804
:103C100010BD574810BD574810BD574810BD5748F4
:103C200010BD574810BD574810BD574810BD5748E4
:103C300010BD574810BD574810BD574810BD5748D4
:103C400010BD574810BD574810BD574810BD5748C4
:103C500010BD574810BD574810BD574810BD5748B4
:103C600010BD574810BD574810BD574810BD5748A4
:103C700010BD574810BD574810BD574810BD574894
:103C800010BD574810BD574810BD574810BD574884
:103C900010BD574810BD574810BD574810BD574874
:103CA00010BD574810BD574810BD574810BD574864
:103CB00010BD574810BD574810BD574810BD574854
:103CC00010BD574810BD574810BD574810BD574844
:103CD00010BD574810BD574810BD574810BD574834
:103CE00010BD574810BD574810BD574810BD574824
:103CF00010BD574810BD574810BD574810BD574814
:103D000010BD574810BD574810BD574810BD574803
:103D100010BD574810BD574810BD574810BD5748F3
:103D200010BD574810BD574810BD574810BD5748E3
:103D300010BD574810BD574810BD14460246002B11
:103D400018BF1A460846214602F032FC524B0028A2
:103D500008BF184610BD00BFF47106086871060858
:103D6000507106083C710608A0710608986E060896
:103D7000D06D060808710608207106080C6D06084B
:103D8000CC700608406F0608C8710608D46B060898
:103D90009C6B0608A46C0608A46D0608946C0608C3
:103DA000DC710608E86C0608BC6E0608E4700608BC
:103DB000B4700608847006086C7006084C7006081B
:103DC0002C700608FC6F0608D86F06089870060865
:103DD0007C710608C06F0608A46F0608906F06087D
:103DE000746F0608686F0608546F0608306F06087F
:103DF000186F0608046F0608EC6E0608F46F0608D4
:103E0000DC6E0608D46E0608B06E0608846E0608DE
:103E1000686E0608546E0608246E0608186E0608BA
:103E2000086E0608F06D0608E06D0608B86D060815
:103E3000946D0608846D06086C6D06084C6D0608C6
:103E40002C6D0608D46C0608C46C0608846C060841
:103E5000746C0608606C0608546C06083C6C060816
:103E6000306C06081C6C0608086C0608F46B060823
:103E7000C86B0608B86B0608886B0608746B0608E2
:103E8000586B06084C6B0608346B0608246B060852
:103E9000086B0608FC6A06085023060810B4044C98
:103EA000002301461A4620685DF8044BFFF710BE58
:103EB0000400002410B4044C002301461A46206874
:103EC0005DF8044BFFF704BE040000244269002A99
:103ED00040F26C71A8BF6FF0630111448B0710B4FE
:103EE00052D0CB17304A82FB0142C3EBE2124FF4AF
:103EF000C87303FB1212B2FA82F25209D0E90631FA
:103F0000580000EB01101044212827DD41F2C66360
:103F1000984212DC41F2C263984233DA41F2A26362
:103F200098422FD03DDBA0F5B550123802288CBF47
:103F3000002001205DF8044B704741F2D5639842A0
:103F400020D041F2D76398421CD041F2D363C01A0B
:103F5000B0FA80F040095DF8044B704720280EDA73
:103F60000D280ADD10281CDB112808DD1C3801286B
:103F70008CBF00204FF0FF30EDE70A28F7DB4FF051
:103F8000FF30E8E70120E6E7074ACB1782FB014252
:103F9000C3EB6212642404FB1212002AA2D0012295
:103FA000ACE70020D7E700BF1F85EB512DE9F04FAC
:103FB00099B000240E9482468B469946A046137809
:103FC00073B1252B16D00BF1FF31414540F28380B0
:103FD0000AF808300132137808F10108002BF0D1FB
:103FE000BBF1000F79D0002340460AF8083019B021
:103FF000BDE8F08F5478302C76D02B2C74D021462D
:10400000A1F13103082B02F101054FF0000472D930
:104010000026452965D04F2963D0A1F12502552AF4
:1040200059D8DFE812F091005800580058005800A5
:1040300058005800580058005800580058005800C0
:1040400058005800580058005800580058005800B0
:1040500058005800580058005800580058009B005D
:10406000BA00D90003015800FE031304C1035E0423
:10407000580058005800C90358005800CD03580094
:10408000390349034D035E036B03790382038903FC
:1040900025015800580058005800580058005A018F
:1040A0007C019D01B601B6015800BE017C0158009B
:1040B000E201C1035E0441022E035800CD03580003
:1040C00076027D0246025102580062026F027100C0
:1040D000FB0102F0B1F84FF00008404619B0BDE80E
:1040E000F08F6978013598E79178A1F13103082BB9
:1040F00002F102058CD8284610A90A2202F052F8D3
:10410000109D0646297884E7D9F814000028C0F2EB
:104110003685B84B83FB0032C317C3EB62136422AE
:1041200002FB1303B44AABEB08010AEB080006F0EC
:1041300073FD0028CFDB8044C345CCD92B78002BFE
:104140003FF44EAF6A1C3AE70BF1FF334345C2D947
:1041500025230AF8083008F10108EFE7A74BD9F842
:10416000182003EB8203DC6F204600F089FD002855
:10417000E4D00BF1FF36B045ADD208F1FF33621E3B
:104180004044534408F1010812F8011F03F8011FCD
:104190008045D3D0B045F5D39DE7D9F81030974A84
:1041A0000C3352F82340204600F06AFD0028C5D0A9
:1041B0000BF1FF36B0458ED208F1FF33621E40444A
:1041C000534408F1010812F8011F03F8011F80454C
:1041D000B4D0B045F5D37EE7894BD9F81420022E30
:1041E00038BF02269A42ACBF00230123002A0A935B
:1041F0000AEB0807ABEB0801C0F2A8847D4B83FBF8
:104200000230D317C3EB60101330002C40F0EB8367
:10421000DFF804C27B4B0A9AB61ACDE90060624609
:10422000384606F0F9FC002885DA54E7D9E904405D
:104230000028D9F80C3004F101040AEB0806ABEBB6
:104240000807C0F272846B4A82FB0021C217C2EBDE
:104250006112642101FB1202CDE900323946234686
:104260003046694A06F0D8FC0028BFF664AF32E752
:10427000D9F82030002BFFF665AF01F0DBFF0E9B75
:10428000002B00F0B884D9F82030604A002BD4BF4E
:104290000023012352F82340204600F0F1FC0028BF
:1042A00000F0B8840BF1FF36B045BFF412AF08F14F
:1042B000FF33621E534408EB000402E046457FF6DC
:1042C00008AF08F1010812F8011F03F8011FA0450B
:1042D000F4D101F0B1FFA046E3E0D9F81830474A25
:1042E000183352F82340204600F0CAFC00283FF45F
:1042F00025AF0BF1FF36B045BFF4EDAE08F1FF334B
:10430000621E4044534408F1010812F8011F03F8EB
:10431000011F80453FF412AFB045F4D3DBE6374BC5
:10432000D9F8102053F82240204600F0A9FC0028BC
:104330003FF404AF0BF1FF36B045BFF4CCAE08F14B
:10434000FF33621E4044534408F1010812F8011F74
:1043500003F8011F80453FF4F1AEB045F4D3BAE64F
:10436000264BD3F8A040204600F08AFC2378002B8F
:104370003FF4E4AE229B009322464B46ABEB080190
:104380000AEB0800FFF712FE00287FF7A4AE804476
:10439000D4E619481E4AD9F80C30642908BF0246F1
:1043A000C1E64846FFF792FD0446D9F814000028FC
:1043B000C0F259830F4BC21783FB0031C2EB61126D
:1043C000642303FB1202A1180A4C84FB0123CA17C1
:1043D0006420C2EB631200FB12120244A4FB02131E
:1043E0005B0900FB1323044A9DE6D9F81C30094AF7
:1043F000013398E61F85EB511472060820FE05086C
:1044000094F8FFFF5023060820720608D401002408
:104410001C7206084072060804720608D9F820309B
:10442000002BFFF68FAE01F005FF0E9B002B00F076
:10443000128304F055FED9F82030CF4E002BCCBFAC
:104440000A2305230AEB080750F83340644201F0C1
:10445000F3FE86FB04302044E317C3EB60100E9399
:1044600004F094FE86FB00321118C44BC217C2EB55
:104470006112C2EB021283FB04310E9BA0EB82029D
:104480000C440092ABEB0801C3EBE4233846BC4A72
:1044900006F0C2FB0028FFF61EAE8044C3457FF63F
:1044A0001AAE01230E9349E6D9F81030B54A01330C
:1044B00039E60BF1FF3343457FF60DAE09230AF8C9
:1044C000083008F1010839E60BF1FF3343457FF668
:1044D00002AED9F818300AEB080208F10108002BE7
:1044E00040F048823723137028E60BF1FF33434531
:1044F0007FF6F1ADD9F8183030330AF8083008F1FA
:1045000001081BE6A04BD3F89C40204600F0B8FB06
:104510002CE79D4BD3F8E440204600F0B1FB25E7A3
:10452000D9F82030002B80F2298200230024CDE925
:104530000C34D9F81410B1F145004FEAE17308903A
:1045400043F1FF300990DDE90867ABEB0800002E6E
:104550000F9077F100000AEB080E05DAB1F1420086
:1045600043F1FF3308900993DDE908670023002435
:10457000CDE90A34B3080A930A9A42EA87730A9388
:10458000824B4C1E83FB0427099A92100B9201F276
:104590002B1083FB003CDDE90A23E417C4EB67140E
:1045A000C017121BC0EBEC1063EBE473161843EB5F
:1045B000E077463940F26D143B4604FB01F7D9F829
:1045C0001C40F21943EBE773161943EBE477CDE98E
:1045D0000A670A9BB4197F41E31802930B9B47EBD0
:1045E00003030393DDE90267FB0043EA5673F2001D
:1045F000CDE90223D9E90110DDE90223121843EBCA
:10460000E073140118011F46A31A40EA12720493C2
:1046100062EB07030593DDE90467BB0043EA967389
:10462000B200CDE90423DDE90423521843EBE17322
:10463000100119011F46831A41EA1272069362EBB8
:1046400007030793DDE90667B90041EA9671B000F8
:10465000D9F800304E4ACDE90601DDE90601DDE971
:104660000C67C01841EBE371831B61EB07047046D4
:104670000F99CDE9003406F0CFFA0028BFF65BAD04
:1046800029E50BF1FF3343457FF625AD0A230AF8F0
:10469000083008F1010851E5D9F804300093D9F841
:1046A00008303C4AABEB08010AEB080006F0B4FA0C
:1046B0000028BFF640AD0EE5D9F80030314A32E5AA
:1046C000D9E90023CDE90032ABEB0801D9F8083075
:1046D000314A0AEB080006F09FFA0028BFF62BAD1E
:1046E000F9E4D9E906130733591A2C4B254A83FB01
:1046F00001030B44C917C1EBA30314E54846FFF7B8
:10470000E5FBD9F81820002A00F01881013A0028AA
:1047100040F34D81012305E5D9F81810002900F078
:104720000B810139D9F81C30DDE7174BD3F89840DD
:10473000204600F0A5FA19E6D9F81430184A934239
:1047400080F2FE802D21D31A8DF84010002E40F00B
:10475000F1800DF1410010AF25220270002C40F0D5
:10476000BC8001300F490A93FFF73AF90A9B009386
:104770003A46334696E700BF89888888C5B3A29138
:104780006C7206081472060820FE05081F85EB519E
:1047900054720608487206085C720608932449920F
:1047A00094F8FFFF3C720608BB48BC4AD9F80830B1
:1047B0006B2908BF0246B6E4D9F80430B74AB2E420
:1047C000D9F80820B64B0B2ACCBFA422A022134450
:1047D0005C68204600F054FA00283FF4AFAC0BF1BF
:1047E000FF36B045BFF477AC08F1FF32611E52448A
:1047F00008EB0004287811F8013F502808F101085F
:1048000007D1A848185C00F00300012804BF20333A
:10481000DBB2A04502F8013F3FF490ACB045E9D3CC
:1048200059E425238DF84030002C00F09180052EAE
:104830008DF841406BD80DF1420420469A49FFF7AC
:10484000CFF8229B009310AA4B4697E5D9F8142085
:10485000964F0A92BA424846ACBF00270127FFF79D
:1048600035FB0A9A002A0146C0F23481904B83FB43
:104870000203D017C0EB6313133396468C48A0FB9A
:104880000E0C4FEA5C1C642000FB1CEC0029C0F2FB
:104890009C8000F08E81854882423BDB00278C445F
:1048A000BCF1FF3F00F09B80BCF1640F04BF0133FB
:1048B0004FF0000C642202FB03C3AFBB2B2C44D18E
:1048C00042F20F72934240F28D818DF840408EBBD0
:1048D0000DF1410010AF25220270302242700230EB
:1048E00040E7D9F80830002B42D00C2B09D0714A90
:1048F00082FB0320DA17C2EB600202EB4202A3EB59
:1049000082036648644A492908BF02460BE4B31F84
:1049100091D021E00CF1FF32BCF1000F00F0658175
:104920004FF0640C0CFB03232D228DF84020002E49
:104930003FF40FAF013E0CE70621F3E60622E6E660
:104940002B2C03F26C7300F0208110AF384603E784
:104950002B238DF8413004230DF142042046564AA2
:104960001E2106F059F900287FF767AF204465E75C
:104970000C23C6E730331370FFF7E0BB01F05AFC9D
:104980000E9B002B64D004F0ABFBD9F82030002B39
:10499000CCBF0A230523012250F833400E92644213
:1049A00001F04AFC2246E317CDE90C23C1E5D9F812
:1049B0001C302CD10A339B1A404A82FB03121A4442
:1049C000DB17C3EBA203FFF7ADBB3D48D9F81420BA
:1049D000824219DB8C44BCF1FF3F7FF46BAF013B9B
:1049E0004FF0630C66E7632838DDDFF8E0E0354B15
:1049F000DFF8DCC02B2C18BF7346DFF8B0E0324C78
:104A00007245B8BF234606E401210F4647E7D9F8AF
:104A10001400002840F26B71A8BF6FF064010844D5
:104A2000D31A820700F0D080C117214A82FB0042CE
:104A3000C1EBE2114FF4C87202FB1101B1FA81F12E
:104A40004909591A0529B4BF35233423FFF76ABB36
:104A500001F0F4FB97E701F0F1FBEAE4DFF870C046
:104A60001A4BFFF7D8BB00F26C7002F085FF104BB9
:104A7000C21783FB0031C2EB61126423002C03FBDD
:104A8000120280F2BC80D9F81410A3F2CF739942BD
:104A9000B8BF012497E400BF1C7206081472060810
:104AA00020FE050861FC05083472060894F8FFFF33
:104AB0001F85EB51ABAAAA2A3072060893244992AB
:104AC00095F8FFFF0C7206081072060850230608BE
:104AD000FC7106080C9002F26C700A9202F04CFF16
:104AE0004E4BD9F814E00A9A0C9983FB003CBEF1B6
:104AF000000F4FEAE073C3EB6C13BFF6BFAE0EF2CC
:104B00006C700F930C910A9202F036FF434B0C9994
:104B10000A9A83FB003E4FEAE07CCCEB6E1C4FF020
:104B2000640E0EFB1C0C0F9BB0E600F26C700A9337
:104B300002F022FF394BC21783FB0031C2EB611236
:104B4000642101FB12020A9BFFF786BB02F26C7024
:104B50000F910C9202F010FF304A0F9982FB002C4B
:104B60000346C017C0EB6C100C9AF4B142F20F7CF4
:104B700063453FF73AAF2A4BDFF8ACC03DE700F2A0
:104B80006C7002F0F9FEFFF7C4BA42F20F72934262
:104B900014D98DF84040002E7FF4CCAE25228DF83C
:104BA00041200DF1410010AF97E61D4BDFF87CC0AE
:104BB00023E7BCF1FF3F7FF47DAE10E7252210AF65
:104BC0008DF84020384688E6144A82FB0012C1174F
:104BD000C1EB6212642404FB1202002A3FF425AFE9
:104BE00001212EE710AF384675E65A1E642303FBF9
:104BF00002F3633398E601F021FBFFF744BB3FF477
:104C0000E2AB084BD9F814109942B8BF4FF0FF340B
:104C1000FFF7D9BB4446FFF75CBB00BF1F85EB51D4
:104C20005023060894F8FFFFFC710608047206087A
:104C300010B582B0024C0094FFF7B8F902B010BD75
:104C400068000024FFF7B2B9000000000000000077
:104C50000000000000000000000000000000000054
:104C60000000000000000000000000000000000044
:104C70000000000000000000000000000000000034
:104C800090F800F06DE9024520F007016FF0000C8C
:104C900010F0070491F820F040F049804FF0000434
:104CA0006FF00700D1E9002391F840F000F108000F
:104CB00082FA4CF2A4FA8CF283FA4CF3A2FA8CF347
:104CC0004BBBD1E9022382FA4CF200F10800A4FAAE
:104CD0008CF283FA4CF3A2FA8CF3E3B9D1E9042302
:104CE00082FA4CF200F10800A4FA8CF283FA4CF339
:104CF000A2FA8CF37BB9D1E9062301F1200182FAF3
:104D00004CF200F10800A4FA8CF283FA4CF3A2FAF8
:104D10008CF3002BC6D0002A04BF04301A4612BA06
:104D2000B2FA82F2FDE8024500EBD2007047D1E909
:104D3000002304F00305C4F100004FEAC50514F098
:104D4000040F91F840F00CFA05F562EA05021CBF69
:104D500063EA050362464FF00004A9E7002A46D043
:104D600040EA010313F00303F0B425D1032A23D949
:104D700004680D68AC423CD1043A35D0A4F1013549
:104D800025EA040414F0803F2ED1071D0D1D0DE00F
:104D900057F8043B0E68A3F10134B34224EA03043C
:104DA00027D1043A20D014F0803F1DD1032A294690
:104DB000384605F10405EBD803780D789D4202F1E1
:104DC000FF360ED186B17BB1044602E082180BD0CB
:104DD00053B114F8013F11F8015FAB42A6EB040296
:104DE000F4D0581BF0BC70470020F0BC7047104650
:104DF000704703780D789D4202F1FF36E3D0F0E76B
:104E000070B440EA0104A30727D1032A25D90B4631
:104E10000646194653F8045BA5F1013424EA05045B
:104E200014F0803F06D1043A032A46F8045B194681
:104E3000EFD882B133460C7803F8014B551E74B19C
:104E400032442E4405E011F8014FF51A03F8014BE6
:104E50002CB19A42F7D170BC70470646E9E7002DA5
:104E6000F9D01D44002203F8012BAB42FBD170BCEA
:104E7000704700BF70B40478A4B10E7805464EB1F7
:104E8000A6420AD00A4601E0A34206D012F8013F2A
:104E9000002BF9D1281A70BC704715F8014F002C6F
:104EA000EDD1F7E72046F6E770B504460D46164605
:104EB00045EC104B04F034FD7EB1C5F30A53C3F149
:104EC0006B03002B09DD1B0503F17F51002001F569
:104ED000401141EC170B20EE070B70BD2DE9F04F90
:104EE0002DED0E8B764C9DB0246804948A46814645
:104EF000002120461D460024002309921891CDE987
:104F00000634FFF7BDFECDF85CA0834652469046BE
:104F100012F8014B2D2C00F2B380DFE804F01EB133
:104F2000B1B1B1B1B1B1B1AFAFAFAFAFB1B1B1B17B
:104F3000B1B1B1B1B1B1B1B1B1B1B1B1B1B1AFB163
:104F4000B1B1B1B1B1B1B1B1B1ACB12E002D40F040
:104F5000BC800A9B034340F0B780099B13B1099BB7
:104F6000C3F800A09FED547B8DED047B9DED040BF9
:104F70001DB0BDEC0E8BBDE8F08F01230C9308F142
:104F80000102179298F80140002CE6D0302C904690
:104F90007AD000230A93A4F13002D1B2092900F299
:104FA0005684002637463546404601301790082D76
:104FB000047807EB8703CABF06EB860602EB4307BC
:104FC00002EB4606A4F13002D3B2092B05F101052C
:104FD000EBD904995A46FFF7C1FE002800F035814D
:104FE0000020652C83460D90AE466ED0452CADD08A
:104FF00000230493002D00F0B48007EE907AB8EE01
:10500000677BBEF1000F08BFAE468DED0A7BDDE980
:105010000A34CDE90634049B102DA3EB0B030D934A
:105020002B46A8BF1023092D0EDD264A02EBC30232
:1050300012ED126B9DED0A5B07EE906AB8EE677B8E
:10504000A5EE067B8DED067B0F2D00F311810D9AE9
:10505000002A00F057840D9A40F36183162A40F32A
:105060003D850D99C5F125028A4280F249850D9A48
:10507000EB1A134402E100230C9380E7179246E7F2
:105080000023302C0C9384D198F80120582A00F08A
:105090003E84782A18BF434600F0398401331793C1
:1050A0001C78302CFAD09846002C00F0B5800123F3
:1050B0000A9370E7AFF300800000000000000000DA
:1050C0001C000608380006080025DDF85CA00AF17F
:1050D000010317939AF801402B2C00F0B8822D2C75
:1050E00000F071824FF0000CA4F13003092B00F2A4
:1050F0007282302C05D1179B013317931C78302C0A
:10510000FAD0A4F13103082B3FF672AF179904913E
:105110004A1C1792A4F130034C78A4F130010929FC
:1051200000F248840132179203EB830304EB43033C
:105130001478A4F130010929A3F13003F2D90499BC
:10514000521A082A40F3368444F61F630493BCF1D4
:10515000000F3FF44FAF049B5B420493002D7FF49C
:105160004CAF0A9B034357D10D9B002B7FF4F5AE48
:10517000493C252C3FF6F1AE01A353F824F000BFC3
:10518000675700085B4F00085B4F00085B4F000843
:105190005B4F0008435700085B4F00085B4F000857
:1051A0005B4F00085B4F00085B4F00085B4F000837
:1051B0005B4F00085B4F00085B4F00085B4F000827
:1051C0005B4F00085B4F00085B4F00085B4F000817
:1051D0005B4F00085B4F00085B4F00085B4F000807
:1051E0005B4F00085B4F00085B4F00085B4F0008F7
:1051F0005B4F00085B4F00085B4F00085B4F0008E7
:10520000675700085B4F00085B4F00085B4F0008C2
:105210005B4F0008435700089FEDCD7B8DED047B6D
:10522000099A0AB1179B13600C9B002B3FF49EAEAA
:105230009DED047BB1EE477B8DED047B9DED040B72
:105240001DB0BDEC0E8BBDE8F08F179A02EB0B0181
:10525000179112F80B40AE468346A4F13002092A9A
:1052600040F27D830123652C0D937FF4BFAE2CE7C4
:105270000D9AEB1A1344002B40F38E8213F00F01AA
:105280000AD0BD4A02EBC1029DED066B92ED007B98
:1052900027EE067B8DED067B33F00F0340F028826E
:1052A00000230A9300972B4672464146484604F075
:1052B0005FF88246002800F0D2830D9A049B4FF0DD
:1052C0000008002AABEB03039FEDA3DBA8BF434616
:1052D0009FEDA3CB9FEDA4BB9FEDA5AB0E9322EA60
:1052E000E27346461193DAF80410484603F08AFF49
:1052F0000746002800F05381DAF810209DED067B68
:10530000023292000AF10C010C308DED047BFCF7A7
:10531000DFFF9DED040B1AAA19A9484604F084FB8F
:105320001890002800F0EE800121484604F0C6F8ED
:105330000646002800F03381199A002AC0F2028143
:105340000E9B119D02EB030B0A9B1A9CD21A22445E
:105350008A4B013A9A42C4F1360480F29F80991A2E
:105360001F29A4EB010400F32681012202FA01F3B4
:1053700012930023139325440A9B5C44A3455A4689
:105380001D44A8BF2246AA42A8BF2A46002A03DD20
:10539000A41AAD1AABEB020B0E9B002B00F390800E
:1053A000002C00F3A6800D9B002B00F3EF80002D56
:1053B00000F3F780BBF1000F08DD31465A4648463E
:1053C00004F09AF90646002800F0E9803A46189958
:1053D000484604F011FA8046002800F0E0800023DF
:1053E000C268C3603146109204F0EAF90028C0F2A6
:1053F0001784079D00F09A833146404604F07EFBF7
:10540000B0EE007BB4EEC70BF1EE10FA4BD8109B58
:10541000002B00F0E580B7EE009B594B0022594964
:10542000594805EA010B834500F0EB800A9961B108
:10543000BBF1D46F09D8B4EECA9BF1EE10FA40F27A
:10544000458103F1D661A1EB0B03DDE9044545EC91
:10545000104B43EC182B04F063FA45EC174BA8EE05
:10546000007B53EC172BCDE906231D460A9B23B97D
:10547000444B2B409B4500F0ED801899484603F0C3
:1054800001FF3946484603F0FDFE3146484603F029
:10549000F9FE4146484603F0F5FE24E701230020CB
:1054A000CDE9123067E7109BB6EE009B20EE099B1A
:1054B000002B40F0A380B1EE497B53EC172BAEE7F5
:1054C00031461A46484604F0B5F80646002866D02C
:1054D0000146189A484604F007F800285FD010905B
:1054E0001899484603F0CEFE109A1892002C7FF7C8
:1054F0005AAF22461899484604F0FEF81890002842
:105500007FF451AF1F4B0793002206929DED067B5F
:105510008DED047B2223C9F800300146484603F094
:10552000B1FE3946484603F0ADFE3146484603F029
:10553000A9FE5146484603F0A5FE4146484603F001
:10554000A1FE6DE6119BDDF838B09D1AFCE600BFA8
:1055500000000000000000009535A094FFFFCF3F41
:105560009535A094FFFFDF3F35E5AF350000E03F04
:105570000000C0FFFFFFDF413800060802FCFFFF0C
:105580000000F03F0000F07F0000E07F3946119AF4
:10559000484604F04FF8074600287FF408AF1898F3
:1055A000B0E739462A46484604F0A6F807460028E0
:1055B0007FF400AFF3E7C44B9B1A012202FA03F316
:1055C000CDE91223D7E64FF0010C0AF1020317933D
:1055D0009AF8024088E50023CDF85CA0049309E521
:1055E000069B002B59D0069B012B02D1002D00F009
:1055F0006983B7EE009B0022B44B10E753EC192BE4
:105600000DE7A5F1547107919DED06EBB0EE4E0B41
:1056100043EC182B04F084F9A8EE00EB8DED06EBBB
:10562000079DAB49AB4ADDE9043429409142CDE9FD
:10563000143447D9DDE90401A74B994201D1431C39
:10564000ADD0A5494FF0FF33CDE9063115E74FF056
:10565000000CBAE751EC190B07F05EF907F002F9FC
:10566000069B109CC5F313051C4341EC170B54EA31
:10567000050339EE479B4BD0B4EECC9BF1EE10FA0C
:1056800005D4B4EECB9BF1EE10FA7FF7F6AE9DEDAC
:10569000067B18988DED047B3FE7C5F31303002BC1
:1056A000A7D1B7EE007BB4EEC70BF1EE10FA00F114
:1056B0002282B6EE009B20EE099BB1EE497B53ECB3
:1056C000172BACE605F154750795CFE6BCEEC99BE8
:1056D00019EE103A002B00F07881B8EE499B109B30
:1056E000002B40F06F81B1EE497B53EC172BA8E6FD
:1056F000B3F59A7F40F36C81754B079300220692B5
:105700009DED067B22238DED047BC9F8003087E5F3
:10571000B4EECD9BF1EE10FA7FF5AFAEB7E71632DF
:10572000FFF6A6AD049A6D4BABEB020203EBC2038E
:1057300093ED007B9DED066B86EE077B8DED047B84
:105740006EE517A8664903F09FFB00283FF405ACFF
:10575000179B1B78282B00F08982624805F0D4F94A
:105760008DED040B5CE517A85F4903F08DFB002865
:105770003FF4F3AB179B5D49013B17A8179303F068
:1057800083FB10B9179B01331793514B07939DED82
:10579000067B8DED047B43E53FF482AD5B4213F065
:1057A0000F010AD04D4A02EBC1029DED066B92ED4E
:1057B000007B86EE077B8DED067B1B113FF470AD01
:1057C0001F2B3CDC9DED067B13F010028DED0E7B54
:1057D000114618BF6A21464A0A910021DC0708D504
:1057E0009DED0E6B92ED007B26EE077B8DED0E7B23
:1057F00001215B1002F10802F0D119B1DDE90E348C
:10580000CDE906340A9B93B1DDE90612C2F30A53CF
:10581000C3F16B03002B0ADD1F2B40F37D820021B7
:10582000342B069140F383824FF05C7307939DED18
:10583000067BB5EE407BF1EE10FA7FF433AD9FEDC1
:10584000207B2223C9F800308DED047BE8E4049925
:105850005A464046FFF782FA8646002840F080828A
:10586000179901EB0B03179311F80B40302C18BF5D
:10587000704607D1C3F101029818013317931C78C1
:10588000302CF9D0A4F13103082B12D8DDF85C805C
:105890000027A4F1300C00F1010B41463E460125E2
:1058A00007EB87070CEB470700204B1C17934C783E
:1058B000D3E4652C4BD0452C49D001230D9350E403
:1058C0000000000000000000E2FBFFFF0000F0BF4E
:1058D0000000F07FFFFF9F7CFFFFEF7F380006088E
:1058E0008472060850230608787206087C7206083F
:1058F000F8FD0508C04B0793230742BF079B43F001
:10590000004307939DED067B8DED047B88E40C9AA4
:10591000029518ABCDE9003217A919ABB74A484632
:1059200003F002F810F0070504463FF475AC062DAD
:1059300040F0A180099A08F10103002A3FF412AB5C
:105940009FEDAB7B13608DED047BFFF70FBB4FF03A
:10595000000B01235E465F460D93FFF7FABA013054
:1059600094461799002AA0D00128834405F1010428
:1059700000F0F081431904935C1E03E04700A3424A
:105980001D460BD0082D05F1010307EB8700F5DD5F
:10599000102BDCBF06EB86067600F0E7049D082B93
:1059A0007FF77EAF102DDCBF06EB860602EB4606C6
:1059B00000207AE744F61F629342A8BF134604937F
:1059C000FFF7C5BB53EC192B3BE5B7EE009B86E612
:1059D0001B11012B8A4C40F365819DED067B8DEDFB
:1059E0000A7B00202246014613F0010F01F101015C
:1059F0004FEA630308D09DED0A6B92ED007B26EE23
:105A0000077B8DED0A7B0120012B02F10802EBD10F
:105A100018B1DDE90A23CDE90623079B794EA3F1EE
:105A20005473079304EBC1019DED066B91ED007B70
:105A300027EE067B8DED067B6F4C079A02EA040386
:105A4000B34200F2B18070498B4240F2A6806F4BA6
:105A5000079300230A934FF0FF33069322E4664B2B
:105A6000CDE906A39DED067B22238DED047BC9F8CD
:105A70000030FFF7D5BB189A3AB135211AA804F0C7
:105A800083F84846189903F0FDFB013D042D3FF6CD
:105A900033AF01A353F825F0B75A0008AD5A0008F8
:105AA000F5580008CF5A0008B75A00081A9B069309
:105AB0001B9B079320E7DDE91A13199A069102F25E
:105AC000334223F4801343EA0253079314E74FF061
:105AD000FF336FF00042CDE906320DE74C4B03EB8C
:105AE000C20393ED007B9DED066B27EE067B8DEDEB
:105AF000047BFFF795BB0022464BB6EE009B8EE47D
